:100000000C94D6050C940E060C940E060C940E0659
:100010000C940E060C940E060C940E060C940E0610
:100020000C940E060C940E060C942C280C940429A7
:100030000C94E4130C940E060C940E060C940E060D
:100040000C940E060C940E060C940E060C940E06E0
:100050000C940E060C9408280C940E060C940E06B4
:100060000C940E060C940E060C940E060C940E06C0
:100070000C940E060C940E060C940E060C940E06B0
:100080000C940E060C940E060C940E060C940E06A0
:100090000C940E060C940E060C940E060C940E0690
:1000A0000C940E060C940E060C940E060501090223
:1000B000A10185020901A1000509190129081500FE
:1000C0002501950875018102050109300931158165
:1000D000257F95027508810609381581257F9501D0
:1000E00075088106050C0A38021581257F95017572
:1000F000088106C0C005010980A101850319012AF4
:10010000B700150126B700950175108100C0050CD8
:100110000901A101850419012AA002150126A002E6
:10012000950175108100C00660FF0961A101096297
:10013000150026FF00952075088102096315002629
:10014000FF00952075089102C005010906A101056F
:100150000719E029E7150025019508750181029529
:1001600001750881010507190029FF150026FF0008
:100170009506750881000508190129051500250156
:10018000950575019102950175039101C000AF00BD
:10019000AE07087F0807003E5B4F5B3E003E6B4F9B
:1001A0006B3E001C3E7C3E1C00183C7E3C18001C34
:1001B000577D571C001C5E7F5E1C0000183C180019
:1001C00000FFE7C3E7FF00001824180000FFE7DB8B
:1001D000E7FF0030483A060E00262979292600401C
:1001E0007F05050700407F05253F005A3CE73C5A44
:1001F000007F3E1C1C0800081C1C3E7F0014227F50
:100200002214005F5F005F5F0006097F017F00002E
:100210006689956A0060606060600094A2FFA294A5
:100220000008047E04080010207E20100008082A20
:100230001C0800081C2A0808001E10101010000CD2
:100240001E0C1E0C0030383E383000060E3E0E06E6
:100250000000000000000000005F00000000070038
:10026000070000147F147F1400242A7F2A12002321
:100270001308646200364956205000000807030046
:1002800000001C224100000041221C00002A1C7FAB
:100290001C2A0008083E0808000080703000000892
:1002A0000808080800000060600000201008040230
:1002B000003E5149453E0000427F400000724949DE
:1002C0004946002141494D33001814127F10002780
:1002D00045454539003C4A4949310041211109074A
:1002E00000364949493600464949291E0000001494
:1002F00000000000403400000000081422410014F7
:1003000014141414000041221408000201590906B3
:10031000003E415D594E007C1211127C007F49491C
:100320004936003E41414122007F4141413E007F2C
:1003300049494941007F09090901003E4141517382
:10034000007F0808087F0000417F410000204041F5
:100350003F01007F08142241007F40404040007F61
:10036000021C027F007F0408107F003E4141413E95
:10037000007F09090906003E4151215E007F0919ED
:1003800029460026494949320003017F0103003F05
:100390004040403F001F2040201F003F4038403F6A
:1003A00000631408146300030478040300615949CE
:1003B0004D4300007F41414100020408102000002D
:1003C0004141417F0004020102040040404040409E
:1003D000000003070800002054547840007F2844A0
:1003E000443800384444442800384444287F0038C6
:1003F000545454180000087E09020018A4A49C78E4
:10040000007F080404780000447D40000020404044
:100410003D00007F102844000000417F4000007C28
:1004200004780478007C0804047800384444443894
:1004300000FC182424180018242418FC007C08044C
:1004400004080048545454240004043F4424003C4D
:100450004040207C001C2040201C003C4030403CA0
:10046000004428102844004C9090907C0044645430
:100470004C440000083641000000007700000000F6
:1004800041360800000201020402003C2623263CFB
:1004900000000000000000404040F0F8F8FF38FF86
:1004A000F8F83FF8F8FF38FFF8F8F0404040000057
:1004B0000000000080C0C0C0800000C0C0800000FC
:1004C0000080C0C000C0C0000080C0C000000000AC
:1004D00000C0C0C0C0C000C0C000000000000000DC
:1004E000000000000000000000000000000000000C
:1004F00000000000000000000000000000000000FC
:1005000000000000000000000000000000000000EB
:10051000C0F0F8FC3E1E06010000007F4141417F13
:10052000007F4141417F000080C0E07E5B4F5BFE69
:10053000C00000C000DCD7DEDEDED7DC00C000007B
:1005400000000000000000000000000000000000AB
:1005500000000000000000494949FFFFFFFFE0DF05
:10056000BFBF00BFBFDFE0FFFFFFFF4949490000F9
:100570000000001F3F6060E0BF1F007F7F071E3844
:100580001E077F7F007F7F0E1F3B71600000000011
:10059000007F7F0C0C0C007E7E007F7E0303007FBB
:1005A0007E03037E7E03037F7E000F3E703C063C8D
:1005B000703E0F00327B49493F7E007F7E0303007F
:1005C0001E3F69696F260000000000000000000067
:1005D000030F1F3F3C7870600000007F4141417F66
:1005E000007F4141417F00307B7F78302020307890
:1005F0007F3B0003000F7F0F0F0F7F0F00030000F2
:1006000000000000000000000000000000000000EA
:1006100000000000000000010101070F0F7F0F7FA5
:100620000F0F7E0F0F7F0F7F0F0F070101010000DB
:1006300000000000000000000101000000000000B8
:1006400000000000000000000000000000000000AA
:10065000000000000000000000000000000000009A
:10066000000000000000000000000000000000008A
:10067000000000000000000000000000000000007A
:10068000000000000000000000000000000000006A
:10069000000000000000000000000000000000005A
:1006A000000000000000000000000000000000004A
:1006B000000000000000000000000000000000003A
:1006C000000000000000000000000000000000002A
:1006D0000009025B00030100A0FA09040000010305
:1006E00001010009211101000122440007058103D5
:1006F00008000109040100020300000009211101A2
:1007000000012222000705820320000107050303E0
:100710002000010904020001030000000921110169
:100720000001227B00070584032000011201000262
:1007300000000008383935360100010200010E03BF
:1007400048004F004F004B003600340000001203F9
:100750006B0075007300680069006D00610038006F
:1007600000000403090435002B0014001A000800DF
:1007700015000F00330034003200215252001700E0
:1007800039001C0018000C00120067002100220034
:100790002300E000E10013002F00300028002A00B1
:1007A00089001D001B000600190005002C00270011
:1007B000240025002600E200390011001000360058
:1007C00037003800870004001600070009000A00FF
:1007D0008800E500500051004F001E001F000B0074
:1007E0000D000E00000000000000200004000000CA
:1007F000000000000000010001001E001F0020009A
:10080000210001000100010001000100010022009F
:100810000100230024002500260001003D003E00C9
:100820003F000100010027002D002E000100010003
:10083000010001000100010001000100010043006E
:1008400040004100420001000100010001000100E0
:100850000100010001000100010001000100010090
:10086000010001000100010001003A003B0001000D
:10087000010001000000000000003C000500000035
:10088000000000000000010001003A003B003C00B5
:100890003D000100010001000100010001003E00D7
:1008A00001003F0040004100420001000100010042
:1008B0000100010001004300440045000100010067
:1008C0000100010001000100010001000100010020
:1008D0000100010001000100010001000100010010
:1008E0000100010001000100010001000100010000
:1008F00001000100010001000100010001000100F0
:1009000001000100000000000000010006000000DE
:1009100000000000000035002B0014001A00080041
:1009200015000F003300340032002152520017002E
:1009300039001C0018000C00120067002100220082
:100940002300E000E10013002F00300028002A00FF
:1009500089001D001B000600190005002C0027005F
:10096000240025002600E2003900110010003600A6
:1009700037003800870004001600070009000A004D
:100980008800E500500051004F001E001F000B00C2
:100990000D000E0000000000000020000700000015
:1009A0000000000000000400050006000700080029
:1009B00009000A000B00004C45440000556E6465B8
:1009C00066003474680033726400326E6400317300
:1009D00074004C4159455200000001010101010120
:1009E00001010102020202020202020203030303E6
:1009F00003030303040404040404040505050505B6
:100A00000606060606070707070708080808090973
:100A100009090A0A0A0B0B0B0C0C0C0D0D0D0E0E1E
:100A20000E0F0F0F101011111112121313141415B1
:100A30001516161717181819191A1A1B1B1C1D1D25
:100A40001E1E1F202021222223242425262627287B
:100A500029292A2B2C2D2D2E2F30313232333435AB
:100A6000363738393A3B3C3D3E3F404142434445AE
:100A7000464748494A4C4D4E4F505153545556588D
:100A8000595A5B5D5E5F616264656668696B6C6D37
:100A90006F7072737577787A7B7D7E8082838587AD
:100AA000888A8C8E8F91939596989A9C9EA0A2A3EB
:100AB000A5A7A9ABADAFB1B3B5B7BABCBEC0C2C4F0
:100AC000C6C9CBCDCFD1D4D6D8DBDDDFE2E4E7E9B0
:100AD000EBEEF0F3F5F8FAFDFF00DA0281FFD9F151
:100AE000DB20A4A62EAF00A0C0D30000A1C8D30075
:100AF00000AED580A81F408D14200000000000002B
:100B000000000000000000000000000000000000E5
:100B10000000000000000000000000000000007E57
:100B20000F00D4FFFFFFC7000000780000000000A6
:100B30000000002A2B280000000000000000000038
:100B400000000000000029000000002C1E342021BD
:100B50002224342627252E362D3738271E1F202104
:100B600022232425263333362E37381F0405060763
:100B700008090A0B0C0D0E0F10111213141516177D
:100B800018191A1B1C1D2F3130232D35040506079B
:100B900008090A0B0C0D0E0F10111213141516175D
:100BA00018191A1B1C1D2F3130354C0011241FBE83
:100BB000CFEFDAE0DEBFCDBF04B603FE18C08091F0
:100BC000F9049091FA04A091FB04B091FC048730E1
:100BD000904BA740B04B59F41092F9041092FA04CC
:100BE0001092FB041092FC04E0E0F8E3099511E098
:100BF000A0E0B1E0ECE0FDE502C005900D92AC3C58
:100C0000B107D9F724E0ACECB1E001C01D92A93FD7
:100C1000B207E1F70E9400220C94082E0C94000009
:100C2000E82FE295EF70F0E041A18F7021E030E015
:100C3000B90102C0660F771F8A95E2F7CB01962FA4
:100C40009095942391A392A1892B82A30895E82FD4
:100C5000E295EF70F0E041A18F7021E030E0B90142
:100C600002C0660F771F8A95E2F7CB01942F982B6D
:100C700091A392A18095892382A30895982F92959C
:100C80009F7024E0911102C020E0982F892F869553
:100C90008695811511F02E5F982F892F8695820FEA
:100CA00008958093B20408959B01677091E001C09C
:100CB000990F6A95EAF763E0369527956A95E1F70B
:100CC000B901660F771F260F371FFA01E20FF31FD6
:100CD00040E050E0682F70E08191DF019B01042E1D
:100CE00002C0369527950A94E2F7217021952827AE
:100CF000292328272E934F5F5F4F4330510561F71B
:100D000008959C01A82FA77083E0369527958A95B2
:100D1000E1F7C901880F991F820F931FFB01E80FAC
:100D2000F91F40E050E080E0219130E00A2E02C03F
:100D3000369527950A94E2F721703327042E01C0D7
:100D4000220F0A94EAF7822B4F5F5F4F4330510521
:100D500059F70895282F862F963070F42C3058F4C8
:100D6000622F70E02CE0929F600D711D112441E80C
:100D700054E00E94540608959C5F9230E0F7622F81
:100D800070E04EE754E0F5CF292F963068F48C30B0
:100D900090F490E061E874E03CE0239F800D911DA9
:100DA00011240E94810608952C5F223020F46EE702
:100DB00074E090E0F6CF80E008958091B9049091BE
:100DC000B804981301C008958F5F8770FACFA0ED23
:100DD000B1E0EFEF90E02D91821751F0EF3F19F461
:100DE000211101C0E92F9F5F9630A9F7EF3F09F469
:100DF00008950E2E000CFF0BE253FE4F82830895E0
:100E0000E0EDF1E09191891302C0DF011E9291E0C3
:100E1000E63DF907B9F70895982F90958091AF04B2
:100E200089238093AF0408959C01803E910509F4C5
:100E300048C0D8F48133910509F47DC048F4893263
:100E4000910509F46DC08A9709F47CC0C901089521
:100E50008933910551F18238910539F1C597B1F780
:100E60008091B50485FFF2CF29C0843E910509F435
:100E700047C048F4823E910599F1833E9105A9F15E
:100E800021EE30E0E3CF863E910509F444C0873E71
:100E90009105E1F68091B50483FD61C09091B6049F
:100EA00091FF2BC024EE30E0D1CF8091B504837048
:100EB000811152C08091B60483FFC8CF29E230E08F
:100EC000C5CF8091B50480FD33C09091B60490FFEA
:100ED000BDCF23EE30E084FFB9CF20E030E0B6CFC5
:100EE0008091B50482FDF5CFB1CF8091B50482FD2C
:100EF00030C09091B60490FD2FC084FFA7CFEDCFF6
:100F00008091B60481FFA2CF8091B50427EE30E036
:100F100084FDE3CF9BCF8091B50483FDF7CF96CFBF
:100F20008091B50485FD1EC08091B60483FF8ECFED
:100F300029E330E08BCF8091B50486FF87CF2AE28A
:100F400030E084CF8091B50486FF80CF21E330E08C
:100F50007DCF22EE30E07ACF20EE30E077CF26EE64
:100F600030E074CF25E330E071CF9091B50492FF6B
:100F700010C041E0282F2471243009F040E031E016
:100F8000282F2871283009F030E0431711F02CE0A9
:100F9000822793FF10C041E0282F2471243109F0EB
:100FA00040E031E0282F2871283109F030E0431764
:100FB00011F02CE082273091B60430FF10C051E0D0
:100FC000282F2171213009F050E041E0282F2871AD
:100FD000283009F040E0541711F029E0822731FF52
:100FE00010C041E0282F2171213109F040E031E0AB
:100FF000282F2871283109F030E0431711F029E03B
:10100000822794FD877E08951F93CF93DF930E94DC
:101010001407EC01811522E5920708F055C08115EF
:1010200040E5940708F0D1C0803E910520F58D3C45
:10103000910508F0A4C0883A910570F4853A9105AD
:1010400008F09AC081309105D1F10497813A910559
:10105000B0F1C0E0D0E033C0885A91094B97C8F78F
:10106000C85AD0E0CC0FDD1FC15ADE4F0990D8819D
:10107000C02DD46424C0811550E49507C0F4C11577
:1010800080E2D80708F0B7C0C83ED105C0F0CE0155
:101090009A9581159F41E8F68D2F0E94B507182F6C
:1010A000CE0199270E941407EC01D12B08C0992783
:1010B0000E941407CC27DF70C82BD92BD06ACE0131
:1010C000DF91CF911F910895803842E59407C8F5CC
:1010D000803652E5950708F05BC0C03482E5D8073A
:1010E000D0F4C03292E5D90708F04BC08C2F86951A
:1010F000869520E2829FC0011124C37021E030E078
:10110000A90102C0440F551FCA95E2F7EA01C82B96
:10111000D92BDD68D4CF8C2F86958695877050E2C9
:10112000859FC0011124C37021E030E0A90102C0F5
:10113000440F551FCA95E2F7EA01C82BD92BDC688A
:10114000BECF803C52E5950758F48F71C03AD24526
:10115000A0F590E0982F8827EC01C46FD06AAFCF3C
:10116000805C9245809708F074CFDC2FCC27CC2789
:10117000DF71C06FD06AA3CFA497D064A0CFD06531
:101180009ECFCF71D0E0DC2FCC27C16FD06A97CF34
:1011900086958695877020E2829FC0011124C370D6
:1011A00021E030E0A90102C0440F551FCA95E2F7C3
:1011B000EA01C82BD92BDA6882CF0E94B507C82F65
:1011C000D0E0DC2FCC27D0627ACF8F710E94B50798
:1011D00093E0CC0FDD1F9A95E1F7CC27DF70282F25
:1011E00030E084FF04C050E1859F90011124C22BA0
:1011F000D32BD06964CF8D2F8F710E94B507182F24
:10120000CE0199270E941407EC01D12BDCCF80E09E
:101210000895282F35EB2303C001112497FF04C044
:1012200080589109892F089580589F4FFBCF809156
:101230009E0480FD14C081FD14C082FD16C0809103
:101240009D04811581F08E3180F420E5829FC001DC
:1012500011246EE170E00E94A42A862F089584E193
:10126000089588E2089588E0089580E508958091C2
:101270009E0480FD17C081FD17C082FD19C08091BA
:101280009C04811599F0883298F428E0829FC0016F
:10129000112468E270E00E94A42A6115710551F0E2
:1012A000862F089562E0FCCF64E0FACF61E0F8CFCA
:1012B00068E0F6CF81E008958091A704823038F489
:1012C0008091A704817082608093A7040895843080
:1012D000B8F70895FA01811511F009950895FB01F9
:1012E000FCCFE0917404F0917504309729F00190DF
:1012F000F081E02D0995089580E00895A3E0B0E025
:10130000E4E8F9E00C94712A9C018091FC01909131
:10131000FD0182179307A1F03093FD012093FC019A
:10132000E0917404F0917504309751F083E0898363
:101330003B832A830680F781E02DCE010196099533
:101340002396E2E00C948D2AA3E0B0E0EAEAF9E00B
:101350000C94712A9C018091FA019091FB018217F3
:101360009307A1F03093FB012093FA01E0917404FC
:10137000F0917504309751F084E089833B832A8390
:101380000680F781E02DCE01019609952396E2E0D3
:101390000C948D2A2FB7F8946091F6017091F701A3
:1013A0008091F8019091F9012FBF08958091F50186
:1013B0000895FC019B018091EB019091EC0186174F
:1013C000970740F0672B29F48091E8008E7780938F
:1013D000E800C90140E0009741F4411106C0809146
:1013E000E80082FF2FC080E008952091710421154C
:1013F000A9F12530A9F12091E80023FD2DC020910D
:10140000E80022FDECCF2091E80020FFE4CF3091EE
:10141000F3002091F200009719F02830310558F0C0
:1014200041E02830310509F040E02091E8002E77B6
:101430002093E800D0CF41914093F10001972F5FB6
:101440003F4FE9CF80917104811541F0853041F023
:101450008091E80083FFC3CF81E0089582E0089582
:1014600083E008958091E50187FF13C08091E80033
:1014700082FF06C08091E8008B778093E800089592
:10148000809171048111F2CF0895809171048115CA
:10149000D9F38091E80080FFF8CF8091E8008E7743
:1014A000ECCF2091E4003091E50095E6A901209170
:1014B000EC00822F817020FF06C08091E80080FF41
:1014C00006C080E008952091E80022FD1AC08091B6
:1014D0007104811589F0853089F08091EB0085FDDC
:1014E0000FC02091E4003091E50042175307F9F254
:1014F0009A95E1F684E0089582E0089583E00895E6
:1015000081E00895E8EDF0E080818E7F8083109285
:10151000E2001092DA001092E100A0EEB0E08C91AF
:1015200081608C9380818F77808319BCA7EDB0E0B8
:101530008C918E7F8C9380818F7E80831092E401CA
:101540000895982F9093E900891771F07091EC003D
:101550002091ED005091F00021FD09C09F5F973070
:1015600089F78093E9000895762F242F50E0309179
:10157000EB003E7F3093EB003091ED003D7F3093E8
:10158000ED003091EB0031603093EB007093EC0094
:101590002093ED005093F0002091EE0027FDDECF68
:1015A0000895A0E0B0E0E7EDFAE00C946B2AC8EDF6
:1015B000D0E088818F7E8883E7EDF0E080818160D4
:1015C000808384E082BF81E08093E40188818E7F04
:1015D000888302EE10E0F80110821092DA0081EEAA
:1015E000C82ED12CF601108288818F77888388815C
:1015F0008068888388818F7D888319BC10927104EC
:101600001092E30110924E041092E20190EEE92E46
:10161000F12CF70180818B7F8083888181608883B2
:1016200042E060E080E00E94A10AF60180818E7FA6
:101630008083F801808181608083808188608083DD
:10164000F70180818E7F8083888180618883CDB718
:10165000DEB7E8E00C94872AE091B9049091B804D1
:1016600027E0E91302C080E00895AE2FB0E02E9F7E
:10167000F0011124E654FB4F3181361306C030814E
:10168000381303C03581341304C0FD013196E7706F
:10169000E8CF81E008958091A70480FD06C01092F4
:1016A00031021092300210923202539A3BB1377FCE
:1016B0002BB128604FB7F89480E392E0FC010196CB
:1016C000508168E02BB9000000C057FF3BB9550FAF
:1016D000000000C000C000C03BB900C06A9591F78F
:1016E00052E08333950751F74FBF8FE594E00197A0
:1016F000F1F700C00000089581E08093E00080E2EF
:101700008093D8001092C9008FE19EE40197F1F711
:1017100000C0000087E090EBDC018093F904909317
:10172000FA04A093FB04B093FC0488E19CE00FB69C
:10173000F894A895809360000FBE90936000FFCF4F
:101740000F931F93CF93DF938B01EA019091710464
:10175000943059F58093E9008FEF9091E80095FD62
:1017600006C095ED9A95F1F700008A95B1F7809142
:10177000E80085FF1AC00E94510A811111C08091B2
:10178000E80085FD06C08091E8008E778093E80030
:10179000F2CFF80181918F018093F100219779F7C1
:1017A0008091E8008E778093E800DF91CF911F91C0
:1017B0000F910895CF93DF93D82FC92F48E050E0C1
:1017C000682F792F81E00E94A00B88E0ED2FFC2F7D
:1017D000ADEEB1E001900D928A95E1F7DF91CF91E6
:1017E0000895BC0146E050E084E00E94A00B0895FB
:1017F000BC0143E050E084E00E94A00B0895CF9329
:10180000C82F63E2811101C06FEF85E390E00E9471
:10181000D42D61E0C11101C06FEF86E390E00E941A
:10182000D42D66E1C11101C06FEF87E390E00E9403
:10183000D42DCF9108951F93CF93DF93962F122F1E
:10184000632F8430D8F49630C8F44C30B8F4C42FE9
:10185000D0E0CC0FDD1F28E1929FC00DD11D1124D7
:1018600090E9899FC00DD11D1124CE01C9960E9417
:10187000D42D612FCE01CA960E94D42DDF91CF9135
:101880001F9108950F931F93CF93DF93962F142FDB
:10189000022F632F8430E8F491111BC024E0829F53
:1018A000E0011124C758DD4F81E084279E01280FF5
:1018B000311D280F311DC9010E94D42D81E090E017
:1018C000111102C083E090E0602F8C0F9D1F0E94D9
:1018D000D42DDF91CF911F910F9108958F929F92F8
:1018E000BF92CF92DF92EF92FF920F931F93CF930D
:1018F000DF9396EAE92E99E0F92EC12CD12CC0E0B5
:101900004601D0E014C0F801259134914B2D6D2F84
:101910008C2F0E941B0C0E5F1F4FB3948CE0B812EB
:10192000F2CF8CE0880E911CDF5FD63039F0840155
:10193000000F111F0A59184FB12CE5CFF70125915F
:10194000349141E060E08C2F0E94420CF701329606
:101950002591349140E060E08C2F0E94420C84E09D
:10196000E80EF11CCF5F88E4C80ED11CC43009F02A
:10197000C7CFDF91CF911F910F91FF90EF90DF9034
:10198000CF90BF909F908F900895CF93DF93C9E839
:10199000D2E060E0CE010E94D42D2196C11584E0F2
:1019A000D807B9F7DF91CF91089580E00E94FF0B2F
:1019B00060E088E390E00E94D42D0E946E0C0E94AB
:1019C000C50C81E00E94FF0B089585E390E00E9422
:1019D000B02D833289F486E390E00E94B02D8130EF
:1019E00059F487E390E00E94B02D91E0863109F030
:1019F00090E0892F8170089580E0FCCF0F931F93B2
:101A0000CF93DF93843030F5663020F54C3010F5FD
:101A1000C42FD0E0CC0FDD1F28E1629FC00DD11D87
:101A2000112430E9839FC00DD11D1124CE01C99628
:101A30000E94B02D082F10E0102F0027CE01CA966B
:101A40000E94B02D9801282BC901DF91CF911F91E1
:101A50000F91089580E090E0F8CFFF920F931F93CD
:101A6000CF93DF93F42E843040F5611126C024E03B
:101A7000829F8001112407581D4F81E0842798011F
:101A8000280F311D280F311DC9010E94B02DC82F0C
:101A9000D0E0DC2FCC2781E090E0F11002C083E0A1
:101AA00090E0800F911F0E94B02D9E01282BC9014C
:101AB000CDB7DEB7E5E00C948A2A80E090E0F8CF5D
:101AC000462F672F763038F44C3060F4843050F471
:101AD0000E94FE0C08957D3F41F4411103C041E096
:101AE000843048F080E090E008957C3FD9F74111C0
:101AF000F9CF8430B8F760E00E942D0D0895A0E082
:101B0000B0E0E5E8FDE00C946C2A7C010091B304A0
:101B10008091B204082BC3E0D0E010E0C8010C2E85
:101B200002C0959587950A94E2F780FD09C0219738
:101B3000A8F7D12C8D2DCDB7DEB7E7E00C94882A1D
:101B4000DC2EB7018C2F0E94600D0E9404080197C3
:101B500071F3F0CF0F931F93CF93FC018581008128
:101B60001181811591F0611581F0C8010E947F0DEE
:101B7000C82F682FC8010E94AA06B8018C2F0E94A6
:101B8000600DCF911F910F910895C8010E94C40666
:101B9000C82FF3CFCF93DF93D82FC92F0E947F0D8B
:101BA0006D2F7C2F0E94600D0E940408DF91CF9161
:101BB0000895FC0184818115A1F0808191810E94AA
:101BC000CA0D282F92959F70963099F060F4925F1D
:101BD0009F70923030F4203FB1F038F481E0283E1D
:101BE00038F080E008959A5FF3CF81E0243FC9F791
:101BF000089591E0213F09F090E081E0283E08F04F
:101C000080E0892B089581E008958091AF04909140
:101C1000B704892B8093CE019091B004911591F077
:101C2000892B8093CE0120E080ED91E0FC01308192
:101C3000019631112F5F31E0863D9307B9F72111ED
:101C40001092B00448E050E066E774E08EEC91E05A
:101C50000E94042B892BA9F088E0EEECF1E0A6E7C6
:101C6000B4E001900D928A95E1F7E0917404F0914F
:101C70007504309731F00280F381E02D8EEC91E015
:101C800009950895811539F09091AF04892B8093BF
:101C9000AF040E94050E0895811521F00E940C07E3
:101CA0000E94050E0895A0E0B0E0E9E5FEE00C9486
:101CB0006B2A8901D42FC52F6B017C010E945C091E
:101CC000A8016D2F7C2F88E090E00E94E62D9801FE
:101CD0004D2F5C2FB601C70100E20E94E02A622F5F
:101CE00084E290E00E94D42DCDB7DEB7E8E00C94FA
:101CF000872AE7EAF4E020813181428153816481BF
:101D00007581868197810E94530E0895E7EAF4E079
:101D100083E0808311828FEF8283838314827581B5
:101D200023E030E04FEF5FEF60E0868197810E9413
:101D3000530E08958091AB04833018F48F5F809325
:101D4000AB042091A7043091A8044091A9045091BC
:101D5000AA046091AB047091AC048091AD049091A1
:101D6000AE040E94530E08958091AB04811519F0C2
:101D700081508093AB042091A7043091A804409136
:101D8000A9045091AA046091AB047091AC048091B5
:101D9000AD049091AE040E94530E0895A0E0B0E00F
:101DA000E4EDFEE00C94682AD82FC62FB42E922EB4
:101DB0003091A70430FF2EC0832F8E7F823099F49C
:101DC000E42FF0E0E752F64F611129C0E491FE2EB6
:101DD0002E2F30FF08C020933102E0933002F092A2
:101DE00032020E944B0BD093A804C093A904B09276
:101DF000AA04911479F02091A7046091AB0470912A
:101E0000AC043D2F4C2F5B2D8091AD049091AE041E
:101E10000E94530ECDB7DEB7EBE00C94842A0D2F51
:101E200010E0E62EF12CA4902A2D46E0D49F60010C
:101E30001124EFEFF0E0C601BF010E944D2A000F10
:101E4000111F45E5469FC001479F900D1124D80101
:101E5000A81BB90B0A2F000F0A0FAF014E195F091B
:101E60007A01A49EC001A59E900D1124F92EC09F59
:101E7000A0011124452F5527DF01A41BB50BAD018F
:101E8000A49ED001A59EB00D1124AF01401B5109A5
:101E90008A01C09FA001C19F500D1124452F5527D5
:101EA0008F01041B150BA801A49E8001A59E100D97
:101EB0001124E12F63307105D1F04CEFC41643E0DB
:101EC000D40658F461307105B1F06230710509F043
:101ED00080CFEA2D292FF12E7CCF6430710571F06F
:101EE0006630710509F475CFE92FFB2E72CF292FCB
:101EF000FA2CEB2F6ECFEA2D2B2F6BCFE92FFA2C7C
:101F0000212F67CFCF93C82F0E943E068230B9F0B1
:101F100038F481110DC021E04FEF6FEF80E00CC06D
:101F200021E04FEF60E08330C9F38C2FCF9108950B
:101F300021E04FEF6FEF8AEA0E94CE0EF6CF21E04C
:101F40004FEF6FEF85E5F8CF0E94820F8093B304C7
:101F5000089521E030E001C0220F8A95EAF78091D0
:101F6000B304822B0E94A40F089521E030E0A90160
:101F700002C0440F551F8A95E2F7CA0180959091DF
:101F8000B30489230E94A40F08959091B40480950E
:101F900089238093B404282F277021110DC089173D
:101FA00059F09091B60492FF07C086958695869564
:101FB0000E94B50F1092B40408959091B60492FB5C
:101FC000222720F9281779F080FB92F99093B60424
:101FD0006091B5047091B60484E090E00E94F22D07
:101FE00082E00E94C50F08959091B30421E030E093
:101FF000F90101C0EE0F8A95EAF7D90102C0AA0FD4
:10200000BB1F6A95E2F7EA2B01C0220F4A95EAF757
:10201000892F8E23E81305C0892F822B0E94A40FDD
:1020200008952095822F8923F9CF2091A70420FFBE
:102030001FC0217022602093A704611581F03091A8
:10204000A8044091A9045091AA046091AB04709136
:10205000AC048091AD049091AE040E94530E20E038
:102060004091AA046091A9048091A8040E94CE0E18
:10207000089561E081E00E94151008958091A70401
:1020800086958A9509F481E061E00E941510089513
:10209000E7EAF4E080818160808360E086950E94B9
:1020A00015100895E7EAF4E0818121E0438162811F
:1020B000885F0E94CE0E0895E7EAF4E0818121E076
:1020C0004381628188500E94CE0E0895E7EAF4E0D1
:1020D000628121E1620F08F46FEF21E04381818189
:1020E0000E94CE0E0895E7EAF4E0628121E1621BCE
:1020F00008F460E021E0438181810E94CE0E0895C2
:10210000E7EAF4E0438121E1420F08F44FEF21E0D8
:10211000628181810E94CE0E0895E7EAF4E0438156
:1021200021E1421B08F440E021E0628181810E94AC
:10213000CE0E0895A8E0B0E0E0EAF0E10C94712A38
:1021400066EE7EEF80E090E00E94F22D60E082E09B
:1021500090E00E94D42D60E083E090E00E94D42DB6
:102160001092B20460E074E184E090E00E94F22DED
:1021700060E086E090E00E94D42D6FEF87E090E071
:102180000E94D42D40E050E0BA0188E090E00E9427
:10219000E62D60E084E290E00E94D42D60E087E1CB
:1021A00090E00E94D42D60E08CE090E00E94D42D5D
:1021B00060E08DE090E00E94D42D19821A821B828B
:1021C0001C821D821E821F82188648E050E068E152
:1021D00070E0CE0101960E94C42D40E050E0BA01AB
:1021E00080E290E00E94E62D80E00E94FF0B0E94BA
:1021F000D50C40E050E0BA018FE090E00E94E62D5F
:1022000040E050E0BA0183E190E00E94E62D28967C
:10221000E2E00C948D2AA0E0B0E0E1E1F1E10C9461
:102220006B2A6C017B0164E670E088E70E94552907
:102230008C01E601EC0CFD1C17FD0BC0FE01849126
:1022400064E670E00E94C4298C012196CE15DF055A
:1022500099F70E94492A81E00115110509F080E0F3
:10226000CDB7DEB7E8E00C94872A8091450481154C
:1022700069F080914404811549F062E070E08FE8D4
:1022800091E00E940B1181111092440408958091F5
:1022900045048115F9F00E94CA09DC01CB01805A7E
:1022A0009541AF4FBF4F8093460490934704A0934E
:1022B0004804B09349048091440481110BC062E04A
:1022C00070E08DE891E00E940B11811519F081E01A
:1022D000809344040895CF93DF93682F81E06A30A0
:1022E00019F06D3031F480E00E94EB11DF91CF9155
:1022F0000895809141029091420226E0FC01ABEDED
:10230000B1E001900D922A95E1F7603E08F458C0C3
:1023100026E0FC0111922A95E9F7C0914102D09183
:10232000420246E050E0BE018BED91E00E94042B9A
:102330009E0123543240892B41F1C90145E0969515
:1023400087954A95E1F741E050E0BA0102C0660F77
:10235000771F8A95E2F7CB0160913F0270914002AE
:10236000862B972BB9016B5F7F4FE5E076956795DC
:10237000EA95E1F702C0440F551F6A95E2F7842BF6
:10238000952B9093400280933F022A5F3F4F4091EC
:102390004A04642F70E0C9010E944D2A481B463050
:1023A00010F4240F311D211572E0370710F020E0E2
:1023B00030E02D5B3D4F309342022093410296CF97
:1023C000F6E06F9FB00111246F567E4F46E050E05B
:1023D0000E94FB2AA2CFCF93382FE0914102F091C7
:1023E0004202E354F24020914A04622F70E0CF0190
:1023F0000E944D2A281B822F311561F066E00E9451
:10240000982AC82FC15010F4CF91089580E20E94FD
:102410006B11F8CF8E0F9F2F911D811522E092072F
:1024200010F080E090E08D5B9D4F9093420280938E
:102430004102EACF0F931F93CF93DF93EC01FC018E
:1024400001900020E9F78F0101501109C017D10751
:1024500028F0DF91CF911F910F91089589910E94EB
:102460006B11F4CFCF93DF93EC01FE0184918111C6
:1024700003C0DF91CF9108950E946B112196F5CF93
:102480000E94321281E00E94EB110895A8E0B0E0B2
:10249000ECE4F2E10C94622A80914504811509F480
:1024A000A6C083E492E0909342028093410288EDBB
:1024B00099E00E94401282ED99E00E9440128091C2
:1024C000B3040E943E06823009F49FC008F093C016
:1024D000811198C08EEC99E00E9440128BEB99E03C
:1024E0000E94401287EB99E00E94401286EB99E02F
:1024F0000E944012CE0101967C0186E0D7011D9218
:102500008A95E9F78091A70480FF85C086951F9280
:102510008F938CE191E09F938F931F9216E01F930E
:10252000FF92EF920E94112BC7010E941A12809114
:10253000A8041F928F9383E291E09F938F931F9241
:102540001F938AE092E09F938F930E94112B8AE061
:1025500092E00E941A128091A9041F928F938AE23E
:1025600091E09F938F931F921F9384E092E09F933B
:102570008F930E94112B84E092E00E941A128091A6
:10258000AA041F928F9381E391E09F938F931F92F0
:102590001F938EEF91E09F938F930E94112B0FB6A4
:1025A000F894DEBF0FBECDBF8EEF91E00E941A12ED
:1025B00080913F0290914002892B79F580914404EB
:1025C0008115A9F00E94CA090091460410914704A0
:1025D0002091480430914904601B710B820B930BCE
:1025E0006F3F7F4F8F4F9F4710F40E943511289601
:1025F000E1E10C947E2A833059F08CEB99E00E9443
:1026000032126CCF8AEC99E067CF86EC99E064CF08
:1026100082EC99E061CF80E07ACF8091450481150A
:1026200069F2809143048111C9CF0E944711209122
:102630003F02309140022115310509F4BFCF10E06F
:1026400041E050E0812F90E07A01012E02C0EE0CB3
:10265000FF1C0A94E2F7B70162237323672B11F47E
:102660001F5FF0CF20914B0420FF9BC0912F990F4B
:10267000990F990F37E0390F80E023E09093030121
:1026800080930601309304012093070124E630E093
:1026900047E050E061E071E088E70E94F429892B6F
:1026A00009F08CCFF0E21F9FA001112480914B0410
:1026B00080FF83C0E0E1F2E080E2DF011D928A95B5
:1026C000E9F7EBE4F1E0F887EF8307E411E08FE44A
:1026D000A82E81E0B82E97E0392E44244394AF8190
:1026E000B8858D91B887AF83F80121918F01240FB0
:1026F000352F311D2D5B3D4FE82FF0E0E05FFD4FA2
:1027000080E090E0632C681A742C082E01C0770CCE
:102710000A94EAF76901812CD6019D906D019720FA
:10272000662D6819677070E0B92D062E01C0BB0FC9
:102730000A94EAF75B2E71956195710967707727A6
:1027400001C096946A95EAF759286081562A50820A
:10275000839468E08612E0CF019631968830910527
:1027600089F68F819885A816B90609F0B8CF04E6D6
:1027700010E020E230E040E152E060E488E70E94AF
:102780001C2A892B09F01ACFE094F09480913F0223
:10279000909140028E219F219093400280933F02AE
:1027A0000DCF9695879596958795282F912F929581
:1027B000990F90763FE1390F61CF4D5B5D4F04E695
:1027C00010E020E230E0D9CF1F921FB61F921124F3
:1027D0008F939F93AF93BF9380914D04811113C04A
:1027E0008091F6019091F701A091F801B091F90163
:1027F0004196A11DB11D8093F6019093F701A0931E
:10280000F801B093F901BF91AF919F918F911F9003
:102810001FBE1F9018952FB7F8948091F6019091E4
:10282000F701A091F801B091F9012FBF08950E941E
:102830000B142091A1043091A204232B211521F027
:1028400080936204909363042091A3043091A404C4
:10285000232B211521F08093600490936104E09173
:102860007404F0917504309749F082E080939F04DE
:102870000480F581E02D8FE994E0099508956115B4
:1028800009F44BC0E3E3E80FE33150F4F0E0E65F16
:10289000F14D0C94B82A0E94170981958093A204E7
:1028A0000E94171408950E941709F8CF0E94170973
:1028B00081958093A104F4CF0E941709FACF0E945A
:1028C00037098093A304ECCF0E9437098195F9CF93
:1028D0000E94370981958093A404E2CF0E943709B2
:1028E000FACF815D990B21E030E001C0220F8A957B
:1028F000EAF78091A004822B8093A004D1CF80912D
:102900009E04816080939E04CBCF80919E04826060
:10291000F9CF80919E048460F5CF4091A1048D3C55
:1029200059F48091A20487FF0DC01092A2044115B2
:1029300059F410929D0408C08E3C81F48091A20449
:1029400018169CF3411581F08091A3049091A40482
:10295000892B8111A5CF10929C04A2CF8F3C41F40A
:1029600047FFF0CF1092A1048091A2048115E0CF1F
:10297000803D19F41416B4F3E5CF9091A304893D7A
:1029800029F41916FCF61092A304DCCF8A3D19F441
:1029900097FFD8CFF8CF9091A4048B3D29F497FFEF
:1029A000D1CF1092A404CECF8C3D19F41916CCF3DC
:1029B000C9CF9FE2980F983090F4815D990B21E088
:1029C00030E0B90102C0660F771F8A95E2F7CB01AC
:1029D00080959091A00489238093A004B3CF8D3D6E
:1029E00031F480919E048E7F80939E04ABCF8E3D08
:1029F00021F480919E048D7FF7CF8F3D09F0A2CF07
:102A000080919E048B7FF0CFCF93C82F8115C9F0A2
:102A10008238C9F40E94710981FD13C089E30E94C4
:102A2000E7060E94050E2FEF37EE83E0215030407D
:102A30008040E1F700C0000089E30E9400070E9487
:102A4000050ECF9108958338A1F40E94710980FD8D
:102A5000F8CF83E50E94E7060E94050E9FEF21EE66
:102A600034E0915020403040E1F700C0000083E5A1
:102A7000E4CF8438A1F40E94710982FDE2CF87E49B
:102A80000E94E7060E94050E8FEF91EE24E0815030
:102A900090402040E1F700C0000087E4CECF8CEFEB
:102AA0008C0F813A70F4E0EDF1E086ED91E0219138
:102AB000C217D9F18E179F07D1F78C2F0E94E70616
:102AC000BECF80E28C0F883068F4C77021E030E020
:102AD00001C0220FCA95EAF78091AF04822B809340
:102AE000AF04ADCF8BE58C0F833038F42C2F2452FC
:102AF000330BC9010E947E09A4CFE8E5EC0FEB314E
:102B000050F4F0E0EE0FFF1FEB56FE4F80819181F5
:102B10000E94A40996CF83E38C0F833108F091CFF4
:102B200061E08C2F0E943F148CCF8C2F0E940007F5
:102B30000E94050EC2CF811509F456C0823879F47F
:102B40000E94710981FF50C089E30E94E7060E943C
:102B5000050E89E30E9400070E94050E0895833840
:102B600059F40E94710980FF3FC083E50E94E70687
:102B70000E94050E83E5EECF843859F40E94710956
:102B800082FF32C087E40E94E7060E94050E87E4B8
:102B9000E1CF9CEF980F913AE8F290E2980F9830CD
:102BA00050F4877091E001C0990F8A95EAF7892F58
:102BB0000E940C07D1CF9BE5980F933028F480E05A
:102BC00090E00E947E09089598E5980F9B3128F4C3
:102BD00080E090E00E94A409089593E3980F933158
:102BE00018F460E00E943F1408950F931F93CF9351
:102BF000C82F00E510E0893311F000E010E08C2FC1
:102C00000E9404150115110539F48C2F0E949B15A3
:102C1000CF911F910F9108958FE99FE00197F1F7F0
:102C200000C0000001501109EDCFCF931092AF0406
:102C3000C6E0E0EDF1E0DF018C2F1D928A95E9F707
:102C400080E090E00E947E0980E090E00E94A4096C
:102C50001092B7040E94050EEFE9F4E0DF011D9227
:102C6000CA95E9F710929D0410929C0410929E045C
:102C70000E941714CF9108950E9415162FEF84E338
:102C80009CE0215080409040E1F700C0000088E1C6
:102C90009CE00FB6F894A895809360000FBE9093C7
:102CA0006000FFCFAAE2B0E0E8E5F6E10C94702AFC
:102CB00085EE91E0FC0101962091F100208321E056
:102CC0008D3E9207B9F78091E601893009F456C02C
:102CD000C8F4823009F4B3C0833009F482C0813073
:102CE00071F18091E80083FFE7C08091E501909148
:102CF000E6019A3008F0E0C0E92FF0E0E35EF14D24
:102D00000C94B82A8A3009F489C08B3051F780912D
:102D1000E501813231F78091E9019091EA01892B37
:102D200001F78091E800877F8093E8000E94320AD3
:102D30008091E701809300010E941516D2CF809107
:102D4000E501813A71F68091E800877F8093E80081
:102D50008091E9019091EA01892B61F060E080E0C7
:102D600090E070E00E94D9098091E8008B77809311
:102D7000E800B7CF68E08DEE91E0F3CF8091E501F8
:102D8000813209F0AECF8091E9019091EA018D7F07
:102D9000892B09F0A6CF8091E800877F8093E80017
:102DA0008091E80082FF18C09091F3008091F200BA
:102DB000029731F48091F100813011F0863021F4D6
:102DC0008091F1008093F5018091E8008B778093EA
:102DD000E8000E94320A85CF809171048111E0CF12
:102DE00080CF8091E501813A09F07BCF8091E901A4
:102DF0009091EA01892B09F074CF8091E800877FD8
:102E00008093E8008091E80080FFFCCF8091000172
:102E10008093F1008091E8008E77D9CF8091E50111
:102E2000813209F05ECF8091E800877F8093E800CF
:102E30000E94320A8091E8018093E10152CF809193
:102E4000E501813A09F04DCF8091E800877F8093BA
:102E5000E8008091E80080FFFCCF8091E101D8CFAD
:102E6000803889F0823841F58091E9018F70873090
:102E700018F58093E9008091EB0085FB882780F9A5
:102E80001092E90006C080914E04880F9091E201F3
:102E9000892B9091E800977F9093E8008093F10050
:102EA0001092F1008091E8008E7723C0811116C046
:102EB0008091E701813011F18091E80083FF0AC021
:102EC0008091E800877F8093E8008091EB0080622A
:102ED0008093EB00AA96E3E00C948C2A823061F791
:102EE0008091E701811589F01092E9008091E80056
:102EF000877F8093E8000E94320ADECF81E0933022
:102F000009F080E080934E04EFCF8091E9018F704B
:102F10002FEF280F263080F68093E9002091EB00F8
:102F200020FFE2CF933031F48091EB0080628093F8
:102F3000EB00DACF9091EB0090619093EB0021E0F1
:102F400030E0A90102C0440F551F8A95E2F7409373
:102F5000EA001092EA008091EB008860E8CF8111CE
:102F6000ABCF1091E7011F778091E3008078812B30
:102F70008093E3008091E800877F8093E8000E94BF
:102F8000320A8091E80080FFFCCF8091E3008068E6
:102F90008093E30083E0111101C082E0809371040B
:102FA0008BCF8058823008F087CF8091E7019091D5
:102FB000E8018C3D53E0950799F583E08A838AE226
:102FC00089834FB7F894DE01139620E03EE051E28A
:102FD000E32FF0E050935700849120FF03C08295C7
:102FE0008F703F5F8F708A30C8F0895C90E08D935E
:102FF0009D932F5F243161F74FBF8091E800877F59
:103000008093E8006AE270E0CE0101960E94D9093F
:103010008091E8008B778093E8004ECF805DE6CF0B
:10302000292F33272330310509F44EC078F521309C
:10303000310509F47DC08BE590E0E1EDF6E022304A
:10304000310509F039CF2091E800277F2093E8006F
:103050002091EB013091EC018217930708F49C0159
:1030600040E02115310509F068C0411166C080912A
:10307000E80082FDCDCF80917104811549F2853041
:1030800039F28091E80083FFF2CFC2CF8091E9014D
:103090009091EA012132310509F43BC02232310519
:1030A00009F00ACF8330910508F006CFFC01EE0F3E
:1030B000FF1FE55CFE4F0190F081E02D885C9E4F84
:1030C000DC018C9190E011C09C013327813089F0A4
:1030D00022303105B1F0232B09F0EECEE2E6F7E025
:1030E000E4918E2F90E0E2E6F7E0009709F4E4CE59
:1030F000AACFEEE4F7E0E4918E2F90E0EEE4F7E063
:10310000F4CFEEE3F7E0E4918E2F90E0EEE3F7E00A
:10311000ECCF8330910508F0CFCEFC01EE0FFF1FFE
:10312000EF5BFE4F0190F081E02D89E090E08BCFC6
:1031300082E190E0ECE2F7E086CF809171048115A6
:1031400009F466CF853009F463CF8091E80083FDF0
:103150005FCF8091E80082FD8ACF8091E80080FFF8
:1031600080CF9091F3008091F2002115310519F084
:103170008830910550F041E0089709F040E08091D7
:10318000E8008E778093E8006CCF44914093F10083
:103190003196215031090196E8CF803809F08CCE64
:1031A0008091E800877F8093E8008091E30180931D
:1031B000F10078CE811180CE1091E701123008F035
:1031C0007BCE8091E800877F8093E8001093E30135
:1031D0000E94320A1115D1F084E08093710442E01C
:1031E00061EC81E00E94A10A42E261EC84E00E946D
:1031F000A10A42E261EC82E00E94A10A42E260EC94
:1032000083E00E94A10A8091710456CE8091E30070
:1032100087FDE2CF81E0E1CF9C014FB7F894809128
:10322000F6019091F701A091F801B091F9014FBF1B
:10323000821B930B0895FF920F931F93CF93DF93FD
:10324000C62FD42F122F8115A9F06093A5040E94D8
:103250000B149093DA018093D901C77081E001C00B
:10326000880FCA95EAF70E94420ECDB7DEB7E5E0B7
:103270000C948A2A8091A504681330C08091D901EA
:103280009091DA010E940C19883C910538F500E212
:103290000D0FCD17A9F0C770FF24F3948F2D01C037
:1032A000880FCA95EAF70E944C0E083048F48D2F1B
:1032B000877001C0FF0C8A95EAF78F2D0E94420E9D
:1032C000812F0E94F515083080F6D77081E001C08B
:1032D000880FDA95EAF70E944C0EC7CFC77081E0DD
:1032E00001C0880FCA95EAF7F6CFA9E0B0E0EBE796
:1032F000F9E10C94612A5C01FC018481811509F4D7
:10330000A4C061E0C5010E94AA0D8C01F5013581C0
:10331000311509F439C197578038910508F043C534
:10332000003108F082C08FEF93E00E94B02D811130
:103330007CC049E8E42E42E0F42E011148C0CE01E1
:1033400001963C0188E0F30111928A95E9F7670143
:10335000FFEFCF1ADF0AC7010E94B02D89831A82BE
:10336000811509F462C0813009F073C087010E5FD6
:103370001F4FC6010E94B02D8A83811509F455C0E4
:103380009FEF980F933090F523E0E20EF11CC801F7
:103390000E94B02D8B83811509F447C01C828301E4
:1033A000F8012081211599F2213009F095C0818121
:1033B000813009F050C06801F2E0CF0ED11CF80155
:1033C00082810E94F51586010F5F1F4FE9CFE1143E
:1033D000F4E0FF0651F1C7010E94B02D97012F5F65
:1033E0003F4F79018111F3CF0150A7CF8430A1F471
:1033F00032E0E32EF12CC8010F5F1F4F0E94B02D69
:10340000F301EE0DFF1D8083811579F08C3731F4C7
:10341000FE01EE0DFF1D12827801C1CF3FEFE31ACE
:10342000F30A67E0E616F10431F78091B40487707F
:10343000811559F0F5018581811539F08091B60427
:1034400082FF03C082E00E94C50F2996E2E10C943E
:103450007D2A7601A4CF823049F46801F2E0CF0ED4
:10346000D11CF80182810E940415ADCF833049F44C
:103470006801F2E0CF0ED11CF80182810E949B15F9
:10348000A2CF843019F00F5F1F4F9ECF82810E5F55
:103490001F4F812C912C98012F5F3F4F8053990B28
:1034A0008A30910560F0C401009709F48DCFEFE9EF
:1034B000FFE03197F1F700C000000197F5CFFAE087
:1034C000F89DA001F99D500D11244C01840E951E0C
:1034D000F80181818901DFCFE22FF0E0E55DF44F53
:1034E00034913987822F86958695869590E0FC01E8
:1034F000E55EF44FE4912770F0E0022E02C0F595EE
:10350000E7950A94E2F7E1702E2E3324FC01E55F83
:10351000F44FE491F0E0022E02C0F595E7950A948D
:10352000E2F7E1704E2E5524FC01E550F54FC490B2
:10353000D12C02C0D594C7942A95E2F7C0FACC24C6
:10354000DD24C0F82114310419F081EE0E94041525
:103550004114510419F086EE0E94041589850E94D9
:10356000F5154114510419F086EE0E949B152114A3
:10357000310419F081EE0E949B15CD2809F424CF67
:103580008CE20E94F51520CFFC01E851FC47E730A2
:10359000F10508F0FBC3E95DF14D0C94B82A26E271
:1035A00041EE61EE832F0E941B193FCF27E245EECB
:1035B00065EEF8CF26E241EE60EEF4CF27E245EE6D
:1035C00064EEF0CF26E241EE62EEECCF27E245EE6C
:1035D00066EEE8CF28E241E0EBCF8091B504816050
:1035E0008093B5046091B5047091B60484E090E0D6
:1035F0000E94F22D0E94151618CF8091B6048860A3
:103600008093B604EFCF8091B5048260E9CF8091BA
:10361000B5048460E5CF8091B5048860E1CF8091E6
:10362000B6048160EDCF8091B6048260E9CF8091CD
:10363000B5048061D5CF8091B5048062D1CF8091EF
:10364000B5048064CDCF0E9415168091B5048068C2
:10365000C7CF8091B5048C60C3CF8091B6048360DE
:10366000CFCF8091B5048E7FBBCF8091B604877F8A
:10367000C7CF8091B5048D7FB3CF8091B5048B7F88
:10368000AFCF8091B504877FABCF8091B6048E7F9A
:10369000B7CF8091B6048D7FB3CF8091B5048F7E74
:1036A0009FCF8091B5048F7D9BCF8091B5048F7B98
:1036B00097CF0E9415168091B5048F7791CF809196
:1036C000B504837F8DCF8091B6048C7F99CF809194
:1036D000B504992782FF939590FB82F990FB83F9BB
:1036E0007FCF8091B604982F909590FB80F990FB46
:1036F00081F986CF9091B504892F8F7B96FF8064E6
:103700006FCF0E9415169091B504892F97FB87F90A
:10371000805866CF61E08EE090E00E94D42D62CFA9
:1037200060E0F9CF9091B504892F8F7E94FF80617E
:1037300057CF9091B504892F8E7F90FF816050CF35
:103740009091B604892F877F93FF886059CF89E2D3
:1037500018C389E225C307376CE7160709F076C05E
:1037600081E00E94A90F43E062E081E00E94F40F33
:103770005CCE8091AF048272F801E052F847E531E7
:10378000F10508F05EC0E25DF14D0C94B82A80911D
:10379000A70480FF17C0282F2E7F2093A704309105
:1037A000A8044091A9045091AA046091AB047091BF
:1037B000AC048091AD049091AE040E94530E0E941F
:1037C0004B0B33CE81608093A70461E086950E9405
:1037D00015102BCE4EE350E169E370E10E946A09B7
:1037E00024CE49E350E16EE370E1F8CF4CE550E1BF
:1037F00062E570E1F3CF42E550E16CE570E1EECFB8
:1038000043E750E166E670E1E9CF46E650E163E761
:1038100070E1E4CF4DE850E160E870E1DFCF40E8CF
:1038200050E16DE870E1DACF44EB5EE06AE97EE0FA
:10383000D5CF4AE95EE064EB7EE0D0CF61E081E085
:10384000C6CF07378CE7180709F467C008379CE72D
:10385000190709F466C03115A9F00A35ECE71E070F
:1038600009F489C008F061C001302CE7120709F49F
:1038700080C003303CE7130709F475C001151C47ED
:1038800009F464C0F5018581E080F180811509F4B7
:1038900076C0C7010E947F0D182F682FC7010E94B4
:1038A000AA06B701812F0E94600D0E9404088C01B6
:1038B000F501D580C680C2942FE0C2228091B40465
:1038C00087708115F1F0ED2CD114E1F0812F807F0C
:1038D000803451F080E2800F883098F0C11004C02D
:1038E000812F807E803269F08091B60482FF09C00A
:1038F00082E00E94C50F8091B4048770EE24E394A7
:103900008111E12CE12FE295EF70103C08F0A2C08C
:10391000F0E0ED5BF14D0C94B82A81E00E94B50F08
:1039200022CF82E03115D1F31CCF0B358CE718077D
:1039300021F18091B604002482FF0394802D0C3580
:103940001C4709F09FCF0E94DD0F9CCF0E941516E7
:10395000EFEFF4E32CE0E150F0402040E1F700C04D
:1039600000000E947C0B6FEF7FEF80E090E00E94F0
:10397000F22D0E943C1681E0E6CF80E0E4CFC70143
:103980000E94C406182F8DCFF12FFF70FF2E10312B
:1039900018F0F29490EFF922D114B9F0F11469F013
:1039A00080E2800F883010F0011109C08091AF04CF
:1039B0008F298093AF040E94050E802F43C0809111
:1039C000B7048F298093B704F6CF802F0E949B15F0
:1039D000F11409F43FC080E2800F883010F001112B
:1039E00004C08F2D0E940C0706C0F0948091B7048C
:1039F0008F218093B7040E94050E2CC0212F2F70B9
:103A0000F22E107F103219F0F29480EFF822011597
:103A100049F0013009F46BC0D11409F477C0C11426
:103A2000C9F1CBCF8091B60482FD30C0D11469F0CA
:103A3000F11439F08091AF048F298093AF040E9474
:103A4000050E80E00E94041505C080E00E949B15D1
:103A5000F110C7CFE114A9F08091B40480FD11C02A
:103A6000F50115828695869586950E94A90FC50158
:103A70000E9475198091B4048695869586950E945A
:103A8000B50F60E0C5010E94AA0DDFCCD11499F0FA
:103A9000C11004C08F2D0E94420EDCCF31E0C31252
:103AA000D9CF8091B0049F2D9823F91699F28F29D0
:103AB0008093B004CFCFC110CDCF8F2D0E944C0E7C
:103AC0009091B0048F2D8923811529F08F2D809539
:103AD00089238093B0048091B1049F2D9823911580
:103AE00009F4B8CFF094F822F092B104B3CFD11416
:103AF00029F066E0C61608F0ADCFCCCF85E0C81639
:103B000008F0A8CF8F2D0E944C0EA4CFC114D1F382
:103B1000093349F49FEFE7EEF3E09150E040F040C5
:103B2000E1F700C00000802F0E949B1593CF812FEA
:103B3000869586958370811561F0813009F08ACF72
:103B4000C8019370D11002C080E090E00E94A409E7
:103B500081CFC8019370D11002C080E090E00E9434
:103B60007E0978CF6D2D802F0E943F1473CF812F57
:103B70008370811134C0D11027C0402F42954695E3
:103B80004770440F440F802F8F70042E01C0880FA0
:103B90000A94EAF7202F207104FF07C02FE030E0DD
:103BA00001C0220F4A95EAF72095169516951370D5
:103BB000123081F0133061F03091B204113039F0DD
:103BC000822B83230E9451060E94710943CF832BCD
:103BD000822BF8CF822B9091B2048927F3CFD11496
:103BE00051F110FFF1CF402F429546954770440F99
:103BF000440F802F8F70042E01C0880F0A94EAF7BB
:103C0000202F207104FF07C02FE030E001C0220FF9
:103C10004A95EAF72095169516951370123089F09B
:103C2000133069F03091B304113041F0822B8323BB
:103C30000E94A40FC9CF823038F2D5CF832B822BBC
:103C4000F7CF822B9091B3048927F2CF1F70D11444
:103C500039F0812F0E94A90F802F0E94420EB4CF0D
:103C6000802F0E944C0E812F0E94B50FADCF023FD6
:103C700071F170F4003FC9F0013F91F0D11409F4E3
:103C80005AC0C11409F454C0802F0E9404159CCF5F
:103C9000033F21F1043F91F78091B60482FD2AC0D1
:103CA000812F8F71D11401F316C0D11469F025E072
:103CB000C21608F089CF1F7181E090E0012E01C08B
:103CC000880F0A94EAF7BECF36E0C316F2CF812FF1
:103CD0008F71D110C9CF0E94A90F76CF80E0D11487
:103CE00009F4A6CF1F7181E0012E01C0880F0A944C
:103CF000EAF79ECFD11489F01F71812F0E94A90F7E
:103D00008091B60482FF07C0812F880F880F880F2B
:103D100083608093B404812FDECF81E00E94C50FC1
:103D200062E0C61608F450CF82E00E94C50F4CCF67
:103D3000812F8F71D0CFC11479F0093349F48FEFFF
:103D400097EEE3E081509040E040E1F700C00000D2
:103D5000802F0E949B1538CF812F8F7185CF063120
:103D6000FCE71F0709F0F7CC8091AF048A7A91E055
:103D7000811101C090E09093A604811509F4E7CC6D
:103D800085E30E94E7060E94050E4FCB86319C47D3
:103D900009F0EFCC8091A604811509F4DACC85E313
:103DA0000E940007F0CFF801E851FC47E730F10529
:103DB00008F4F1CB1092A504C8019057839778F6C8
:103DC00084E090E00E94BE2D9093B6048093B504E9
:103DD000F801E150F047E232F10508F0FECBE15B7B
:103DE000F14D0C94B82A8091F804803178F48091D8
:103DF000F704811559F0E091B9042091B80430918D
:103E0000F3044091F20457E02E1301C008956E2F81
:103E100070E05E9FF0011124DF01A654BB4F1496A1
:103E20008C911497811561F111968C9111978313E0
:103E300027C08C91841324C015968C9115978111FD
:103E40001FC012968D919C91A091F404B091F5043D
:103E50008A1B9B0B883C910598F48091F8048F7025
:103E600080618093F804E054FB4F80818F70806103
:103E7000808382EF94E00E9475190E94DD06089508
:103E8000FB013196E770C0CFADE0B0E0EAE4FFE1BE
:103E90000C94652A8C0186E0F801DE0118960190E9
:103EA0000D928A95E1F7F801F580848192EF892ED1
:103EB00094E0992E6090F604611018C0811599F075
:103EC000F11409F415C1C8010E94D90D811509F436
:103ED0000FC187E0F801A2EFB4E001900D928A953E
:103EE000E1F70E94F31EFF24F39456C07080A28075
:103EF000B380D090F7042091F4043091F504A5012B
:103F0000421B530BD11409F4C3C0483C510508F0BF
:103F100079C0811541F38091F304C180E090F804E9
:103F200050E1E51608F059C0C81215C08091F2049E
:103F3000871111C0F1104BC08E2D8F70806180935E
:103F4000F80482EF94E00E9475198091F804F8015A
:103F50008683F12C21C0F1103AC040E06C2D872DF2
:103F60000E942C0B40E06C2D872D0E942C0BF82E0C
:103F70008111EFCF888599850E94CA0D292F22953E
:103F80002F70903470F49F702230A0F09115B1F032
:103F9000F8019681903190F48F2D2D96EEE00C94DF
:103FA000812A2A5F2F70223068F0C8010E9475199B
:103FB000FD2CF2CF911511F0811571F3805E8830E0
:103FC00058F3F3CF803F40F3815F8330F9CF809186
:103FD000F80481608093F804BCCFC8123BC0809184
:103FE000F204871137C0F11035C0E682C8010E9483
:103FF000751987E0F801A2EFB4E001900D928A955F
:10400000E1F771CFE090F804F0E1EF1650F482EFA1
:1040100094E00E94751987E0F40111928A95E9F7FE
:1040200098CF811509F45FCF9091F304F801818155
:10403000981310C08091F20487110CC0F1100AC0CF
:10404000E682C8010E94751987E0F40111928A95F1
:10405000E9F749CFC8010E94D90D811509F448C07C
:10406000F11409F445C08091F804803208F431CF8E
:104070008091F2049091F3049A838983BC82AB828D
:104080006D821E82EF82CE0101960E94751921CFAA
:10409000483C510508F0BFCF811509F424CFF11435
:1040A00039F19091F3048181981318C08091F20442
:1040B000871114C08091F80480FD9BCF803108F4F3
:1040C00098CF8683807F803F09F490CF8681982F98
:1040D000907F905F8F70892B868388CFC8010E9464
:1040E000D90D8111F6CE8091F80481608093F80497
:1040F000C8010E947519F7CEABE1B0E0E2E8F0E24A
:104100000C946F2A4E8B5F8B688F798F8A8F192F53
:104110009B8F91111092B7041D8A86E0FE0176965E
:10412000DE011F9601900D928A95E1F70A8D011527
:1041300039F00B8B1C8B61E0CE010F960E94AA0D0B
:104140000B8B1C8B87E0FE013F96DE0118960190D9
:104150000D928A95E1F7CE0108960E94441F8111C5
:1041600028C02091B8043091B90487E0FE01389648
:10417000DE01119601900D928A95E1F78C858115EB
:10418000C1F0822F90E001968770992738171906A1
:10419000D9F097E0929FD0011124A654BB4FFE01A5
:1041A000319601900D929A95E1F78093B8040E94A0
:1041B000DD0617E08091B9049091B804891312C00C
:1041C0006B96E4E00C948B2A0E9415161092B804AA
:1041D0001092B90487E0E2EFF4E0DF011D928A95C6
:1041E000E9F7E7CF189FC001112486549B4F0E9426
:1041F000441F811529F38091B90490E001968770DE
:1042000099278093B904D6CFA6E0B0E0EAE0F1E2C6
:104210000C946F2A0E940B148C018091720490916F
:1042200073048017910779F019821A820E940B1487
:10423000BC0149815A8180E090E00E947C2010936B
:104240007304009372042696E4E00C948B2AACE08D
:10425000B0E0EDE2F1E20C94632ACE0101967C011C
:104260008CE0D7011D928A95E9F73701570128E0C4
:10427000C22E21E0D22E44244394512CF601819188
:104280006F010E94270600C09EE0892E91E0992EC2
:10429000D40100E010E02D91E22FE295EF70E05E96
:1042A000F0E0808190E02F7002C0959587952A9567
:1042B000E2F780FD0EC0F501808191819201002E10
:1042C00002C0220F331F0A94E2F7822B932B9183B3
:1042D00080830F5F1F4F06301105E9F6F6018291CA
:1042E0000E941006F0EAFA95F1F782E0A80EB11CE0
:1042F0009EE0C91691E0D90609F6CC24C394D12CCE
:10430000D4018D914D010E94270600C09601002E18
:1043100002C0220F331F0A94E2F7F70168E071E050
:10432000DB014D91BD01842F82958F70805E90E0FE
:10433000DC018C9190E04F7002C0959587954A956D
:10434000E2F780FD06C080819181822B932B9183BF
:1043500080833296B1E06E307B0711F7F4018291D1
:104360000E941006E0EAEA95F1F70F5F1F4F0C304C
:10437000110531F6E3E3F2E0C7010C9620E0D3012A
:104380004D915D913D01619171914617570721F063
:10439000DF015E934E9321E08615970581F7211585
:1043A00039F181E08093D8010E940B149093D701DA
:1043B0008093D6018091D6019091D7010E940C196B
:1043C0000597D0F04CE050E063E372E085E694E0BE
:1043D0000E94042B892B49F08CE0E3E3F2E0A5E690
:1043E000B4E001900D928A95E1F71092D80104C0D3
:1043F0008091D8018111DECF2C96E0E10C947F2AC8
:10440000CDB7DEB7C454D1090FB6F894DEBF0FBEE6
:10441000CDBF85B7806885BF85B7806885BF84B705
:10442000877F84BF0FB6F894A8958091600088615B
:1044300080936000109260000FBE80E890E00FB69D
:10444000F89480936100909361000FBE87E099E03B
:104450009093CD018093CC010E94820A0E94D10AE0
:104460008091E20084608093E200789480917104EE
:10447000811599F08091E9001091EC008F701795EB
:1044800011271795182B1092E9008091E80083FD01
:104490000E9452161F701093E90082E084BD93E0E1
:1044A00095BD9AEF97BD80936E000E94E50C811137
:1044B00002C00E94D50C81E080935E0422982A9A63
:1044C00026982E9A8FE891E00197F1F700C000003E
:1044D00040915E042FE534E0F9018E2F821B841792
:1044E00008F45DC00EE011E084E1A82E81E0B82E52
:1044F000D8018D918D010E941006A016B106C1F75A
:1045000008E011E0BEE0AB2EB1E0BB2EF8018191D6
:104510008F010E941006A016B106C1F78CE0E3E3FC
:10452000F2E0DF01A82E1D92AA94E9F7E5E6F4E097
:10453000DF011D928A95E9F780E090E00E94BE2D90
:10454000863E9E4F21F40E94E50C811102C00E941C
:104550009A1082E090E00E94B02D80934F0484E096
:1045600090E00E94BE2D9093B6048093B5040E9403
:104570002721EFE3FCE93197F1F700C000000E942A
:104580002721809165049091660480FF13C06FEF2E
:104590007FEF80E090E00E94F22D0E947C0B83B1BF
:1045A00099271E999395990F82FB882780F9892B6B
:1045B000819393CF83E090E00E94B02D0E9451063A
:1045C0008091B3040E94820F83E080934B0480E2C9
:1045D00080934A040E944F296BE070E080EF9AE0DC
:1045E0000E940B11811509F43FC080914B0465E0D6
:1045F00070E081FD40C18BEE9AE00E940B118115A5
:1046000099F16DE070E089ED9AE00E940B1181153F
:1046100059F10E94CA09DC01CB01805A9541AF4F84
:10462000BF4F8093460490934704A0934804B093EF
:104630004904E3E4F2E080E092E0DF018C011D92A6
:1046400001501040E1F7F0934202E09341028FEFF6
:104650009FEF9093400280933F0281E08093450456
:10466000809344041092430480914C04811197C0BC
:1046700080E090E00E94BE2D863E9E4F21F40E9475
:10468000E50C811104C00E949A100E94860E88E0F9
:1046900090E00E94B82D22966FAF229723967FAFAD
:1046A000239724968FAF249725969FAF259784E272
:1046B00090E00E94B02D282F30E040E050E060E014
:1046C00070E080E090E000E20E94C52A2596CCAC24
:1046D000DDACEEACFFAC259756016701E12CF12C67
:1046E0008701A9AEBAAECBAEDCAEEDAEFEAE0FAF7B
:1046F00021961FAF21972296DFAC22972D293B29C7
:104700004C29ECAC5E292093A7043093A804409375
:10471000A9045093AA046093AB047093AC048093F3
:10472000AD049093AE04223068F50E94860E88E0B6
:1047300090E00E94B82D2B013C0184E290E00E94A1
:10474000B02D282F30E040E050E060E070E080E0E5
:1047500090E000E20E94C52A6301520124293B290E
:104760004C295D292093A7043093A8044093A90401
:104770005093AA046093AB047093AC048093AD048F
:104780009093AE040E945C098091A70480FF04C04E
:1047900060E086950E94151081E080934C0484E1CE
:1047A00091E0909375048093740480917104853036
:1047B00049F480917104853009F460C00E94151697
:1047C0000E9471090E942721F0E5CF2EF4E0DF2E30
:1047D000A5E66A2EA4E07A2E4CE554E0D301F6015A
:1047E000219131918D919D914E175F0709F49BC0E6
:1047F00028173907A9F3512CD3010D911D913D01C3
:10480000F601A190B1906F01A016B10659F1A02652
:10481000B126412CEE24E394F12CC7018A219B217F
:10482000892BB9F049825A820E940B149C838B8396
:10483000F1E0FD8391E0970120233123232B09F43C
:1048400090E09E8349815A816B817C818D810E9499
:104850007C204394EE0CFF1C2CE04212DECFF601CC
:1048600012930293539436E05312C6CF0E94CA09A2
:10487000552453945FC086EE9AE0BFCE80917104B8
:10488000843031F10E94351110924D0408E110E09E
:1048900020E40FB6F894A895009360000FBE209313
:1048A000600083B7817F846083BF83B7816083BFEB
:1048B0007894889583B78E7F83BF0FB6F894A895B8
:1048C00080916000886180936000109260000FBE4C
:1048D00080914E04811509F46CCF0E942721E5E6F2
:1048E000F4E081E794E021913191232B21F48E179C
:1048F0009F07C9F75ECF80E189BD82E189BD09B418
:1049000000FEFDCF8091D8008F7D8093D8008091EC
:10491000E00082608093E0008091E00081FDFCCFA8
:104920000E94151646CF2817390709F064CF0E9458
:104930000421512C10E000E03DEFB32E42E0A42E04
:104940005CEF752E63E0662E80915E04181750F0C0
:10495000011509F48DC00E94CA090E9446120E94E6
:1049600047118AC0C12ED12C83B199271E999395E6
:10497000990F82FB882780F9892BD601A15ABB4F5A
:10498000EC919E2F9370891709F470C0EE0FEE0F13
:10499000E82BEC93EF70F0E0E15BFE4FC601835A29
:1049A0009B4F7C018081D7019C91890F8C9320E0E3
:1049B000843034F1F601E45AFB4F80818F5F8083AD
:1049C0001DA77EA60E940B14BC018FA798AB69AAF5
:1049D000B1E0BAAB4DA55EA583E091E00E947C20DA
:1049E0001BAB7CAA0E940B14BC018DAB9EAB6FAAC3
:1049F00018AE4BA95CA983E090E00E947C2021E0E6
:104A0000F70180818D3F34F5F601E45AFB4F808138
:104A10008150808319A3BAA20E940B14BC018BA3FE
:104A20009CA3ADA2F1E0FEA349A15AA182E091E0CE
:104A30000E947C201FA3B8A60E940B14BC0189A76A
:104A40009AA7ABA61CA64FA158A582E090E00E94B1
:104A50007C2021E0D7018C91082E000C990B64E09A
:104A600070E00E94A42AF7018083022B1F5F6CCFA5
:104A70000E944612511073CF86E0EFE9F4E0DE01A8
:104A8000119601900D928A95E1F7C090A0041091C3
:104A9000A104F090A204E090A3040091A404109259
:104AA000A1041092A2041092A3041092A404812FD6
:104AB0008F29811509F440C08091620490916304AC
:104AC0000E940C191C0180919D04811509F49AC261
:104AD000F5E12F16310480F18F3F19F08F5F80933D
:104AE0009D04111559F00E94170991E011160CF060
:104AF0009FEF899F802D11248093A104F11459F018
:104B00000E94170991E01F140CF09FEF899F802DE0
:104B100011248093A2048091A104811569F0D090A2
:104B2000A204D11449F00E9409098093A1048D2D9B
:104B30000E9409098093A2048E2D802B811509F40F
:104B400040C080916004909161040E940C194C0156
:104B500080919C04811509F44FC221E582169104CD
:104B600080F18F3F19F08F5F80939C04E11459F01E
:104B70000E94370991E01E140CF09FEF899F802D51
:104B800011248093A304011559F00E94370991E084
:104B900010160CF09FEF899F802D11248093A404A0
:104BA0008091A304811569F0E090A404E11449F018
:104BB0000E9409098093A3048E2D0E940909809305
:104BC000A4048091A0048C1119C08091A1048115C6
:104BD00011F0181313C02091A204211511F02F1108
:104BE0000DC09091A404911511F0901307C030915D
:104BF000A304311103C0822B892B81110E94171449
:104C000086E0FE013196AFE9B4E001900D928A95FD
:104C1000E1F70E94710990916404891721F0809353
:104C200064040E94CA0980917104843009F0BDCDEA
:104C300083E08093E9008091E80082FFB6CD809107
:104C4000E80090E085FF05C00E94510A811599F0A7
:104C500091E08091E8008B778093E800911509F44A
:104C6000A4CD8981EFEFE80FE53168F5F0E0EF586A
:104C7000F14D0C94B82A00E210E0CE0101967C01BF
:104C80008091E80085FD0AC08091E8008B778093D1
:104C9000E8000E94510A811599F3DACF8091F10062
:104CA000D7018D937D010150104051F7D1CF1A8269
:104CB0008CE08B831AC08A81833049F138F48130CB
:104CC00061F08230D9F08FEF89830FC08430D9F73B
:104CD0001B821C821D821E8208C00E94CA090E947B
:104CE000BE2A6B837C838D839E8340E250E0BE01AD
:104CF0006F5F7F4F82E00E94A00B57CD88E390E06A
:104D00000E94B02D1B821C821D828E83EECF8B8170
:104D100090E0FE01319632968630910534F7DC0141
:104D2000AA0FBB1FAB59BB4F2C9111963C913183FD
:104D300022830196F0CF8A81823071F0853019F696
:104D40008091A70480FF72C08091A7048E7F80931A
:104D5000A7040E944B0BC9CF6B817C818D819E8102
:104D60000E94BE2A88E390E00E94D42DBECF4C81E1
:104D70006B818A810E94FE0C9827892798279E8341
:104D80008D83B3CF2D813E813227232732274C815B
:104D90006B818A810E941B0CA8CF0E946E0CA5CF4C
:104DA0009A81923071F5883009F44CC0893009F449
:104DB00077C08B818330D1F0E0F5813071F08230A3
:104DC00009F093CF8C81811509F4BECF0E94481061
:104DD00060E08C810E94151088CF20E04C816091AA
:104DE000A9048091A8040E94CE0E7FCF8C8180936D
:104DF000AB047BCF8091AA048C8377CF8091AB04E6
:104E0000FBCF8830F9F08930C1F18B81833071F3A9
:104E100080F4813011F3823009F067CF60E08C813B
:104E20000E9415108C81811509F48ECF0E944810C4
:104E30005CCF843009F059CF20E04091AA046D8105
:104E40008C81D1CF8B818330C9F258F4813091F2BB
:104E5000823009F04ACF8091A70480FF0CC086956C
:104E6000CBCF843009F041CF8091A8048C8380910E
:104E7000A9048D833ACF80E0BFCF8091B3040E9414
:104E80003E064091A7045091A8046091A904709136
:104E9000AA04B4E08B9FC001112485960E94E62DE0
:104EA0000E94790E22CF80E18A831FCF81E08A831E
:104EB00087E7FFCE0A811B811027012710278C81ED
:104EC0006801C80ED11C7E01E5E0EE0EF11C0C1548
:104ED0001D0509F40ACF80E00737F1E01F0728F429
:104EE000C80187579D4F0E94B02DD7018D937D013A
:104EF0000F5F1F4FECCF0A811B811027012710275E
:104F0000FE0131967F018C816F01C80ED11CEC141B
:104F1000FD0409F4EACE0737F1E01F0740F4D7019A
:104F200014966C91C80187579D4F0E94D42D0F5F36
:104F30001F4FBFEFEB1AFB0AEACF0E94C50CD5CE7C
:104F400084E0B2CF0A811B811027012710278C81B2
:104F50006801C80ED11C7E01E5E0EE0EF11C0C15B7
:104F60001D0509F4C2CE80E00034F2E01F0720F4F2
:104F7000C801C9960E94B02DD7018D937D010F5FA6
:104F80001F4FEDCF0A811B81102701271027FE013B
:104F900031967F018C816F01C80ED11CCE14DF04C5
:104FA00009F4A3CE0034F2E01F0738F4D7011496B9
:104FB0006C91C801C9960E94D42D0F5F1F4FBFEF9F
:104FC000EB1AFB0AEBCF41E08C81811101C040E07C
:104FD0006B818A810E942D0DCFCE2D813E8132279B
:104FE0002327322741E08C81811101C040E06B8191
:104FF0008A810E94420C79CEEBE08E16910408F073
:10500000B2CDDFCDFBE02F16310408F067CD94CD93
:1050100078941F921FB61F9211248F939F93AF9382
:10502000BF938091F6019091F701A091F801B091A2
:10503000F9010196A11DB11D8093F6019093F7012E
:10504000A093F801B093F901BF91AF919F918F9117
:105050001F901FBE1F9018951F920F920FB60F92B0
:1050600011242F933F934F935F936F937F938F936D
:105070009F93AF93BF93EF93FF938091E10082FFE3
:1050800009C08091E20082FF05C08091E1008B7F22
:105090008093E1008091DA0080FF24C08091D800E5
:1050A00080FF20C08091DA008E7F8093DA008091AB
:1050B000D90080FF9BC080E189BD82E189BD09B430
:1050C00000FEFDCF81E0809371048091E4018111A5
:1050D00009C00E94820A0E94D10A8091E200846085
:1050E0008093E2008091E10080FF17C08091E20090
:1050F00080FF13C08091E2008E7F8093E200809158
:10510000E20080618093E2008091D8008062809309
:10511000D80019BC85E0809371048091E10084FF80
:1051200029C08091E20084FF25C080E189BD82E131
:1051300089BD09B400FEFDCF8091D8008F7D80939A
:10514000D8008091E1008F7E8093E1008091E200A1
:105150008F7E8093E2008091E20081608093E20084
:105160008091E301811509F447C084E080937104C4
:10517000809171048091E10083FF27C08091E2005B
:1051800083FF23C08091E100877F8093E10082E06C
:10519000809371041092E3018091E1008E7F8093EF
:1051A000E1008091E2008E7F8093E2008091E20036
:1051B00080618093E20042E060E080E00E94A10A0A
:1051C0008091F00088608093F000FF91EF91BF9193
:1051D000AF919F918F917F916F915F914F913F918F
:1051E0002F910F900FBE0F901F90189519BC109221
:1051F00071041092E40176CF8091E30087FF02C032
:1052000083E0B4CF81E0B2CF1F920F920FB60F921E
:105210001124EF92FF920F931F932F933F934F937D
:105220005F936F937F938F939F93AF93BF93CF932E
:10523000EF93FF9309EE10E0F8018081C091EC003C
:105240008F70C795CC27C795C82B108280EFE82EAA
:10525000F12CF7018081877F808378940E94521619
:10526000F8011082F701808188608083CF70F80197
:10527000C083FF91EF91CF91BF91AF919F918F919B
:105280007F916F915F914F913F912F911F910F915E
:10529000FF90EF900F900FBE0F901F9018951092F7
:1052A000B9008CE08093B8000895A0E0B0E0EBE591
:1052B000F9E20C94682AB82EEB010E940B146C01E1
:1052C000EE24E394F12CC431D10560F025E0E22E08
:1052D000F12CCF3FDC0731F0CE0164E170E00E9499
:1052E0004D2A7B0184EAA82E94E8992E1092BC00E6
:1052F000A092BC000E940B14182F092F8091BC00B3
:1053000087FF0CC08091B900887F8830F9F08091C8
:10531000B900887F8031D1F00FEF08C0812F902F26
:105320000E940C19E816F90648F70EEF1FEFCF3F61
:10533000DC07E1F2C6010E940C19C817D907B0F6C4
:10534000C801CDB7DEB7EBE00C94842AB092BB0065
:105350009092BC000E940B14182F092F8091BC0062
:1053600087FF0AC02091B900287F283111F020342E
:1053700099F600E010E0E4CF812F902F0E940C19E5
:10538000E816F90658F7D1CF0F931F93CF93DF9309
:10539000EB018093BB0084E88093BC000E940B1457
:1053A000182F092F8091BC0087FF11C02091B900F0
:1053B000287F81E090E0283211F480E090E0919520
:1053C00081959109DF91CF911F910F910895CF3F62
:1053D000DC0741F3812F902F0E940C19C817D907C1
:1053E00008F78EEF9FEFEECFA0E0B0E0EAEFF9E232
:1053F0000C94692A5B017A01D22EC32E622F732F7F
:105400000E9455298C01E501EA0CFB1CCE15DF0535
:1054100019F00115110549F084E98093BC00C80119
:10542000CDB7DEB7EAE00C94852A6D2D7C2D8991ED
:105430000E94C4298C01EACFA0E0B0E0E2E2FAE2E7
:105440000C94692AF62E5A016901B8010E94552967
:10545000EC01892B69F4B8018F2D0E94C429EC015D
:105460007501CA0CDB1CEC14FD0411F0209749F007
:1054700084E98093BC00CE01CDB7DEB7EAE00C949E
:10548000852AB801F70181917F010E94C429EC01AE
:10549000EACF84E98093BC000895AA1BBB1B51E1AD
:1054A00007C0AA1FBB1FA617B70710F0A61BB70B94
:1054B000881F991F5A95A9F780959095BC01CD0139
:1054C00008952F923F924F925F926F927F928F92A8
:1054D0009F92AF92BF92CF92DF92EF92FF920F9383
:1054E0001F93CF93DF93CDB7DEB7CA1BDB0B0FB68D
:1054F000F894DEBF0FBECDBF09942A88398848884A
:105500005F846E847D848C849B84AA84B984C884DF
:10551000DF80EE80FD800C811B81AA81B981CE0FD6
:10552000D11D0FB6F894DEBF0FBECDBFED010895BB
:10553000992778E0880F991F961708F0961B881F07
:105540007A95C9F78095089597FB072E16F4009475
:1055500007D077FD09D00E944D2A07FC05D03EF404
:10556000909581959F4F0895709561957F4F08950F
:10557000EE0FFF1F0590F491E02D099469279627FF
:1055800069277827872778270895002E083090F01C
:10559000982F872F762F652F542F432F322F2227B6
:1055A0000850F4CF220F331F441F551F661F771F6B
:1055B000881F991F0A95B2F7002D089597FD109442
:1055C000002E083098F00850232F342F452F562FE7
:1055D000672F782F892F912DF4CF15949795879564
:1055E0007795679557954795379527950A95AAF723
:1055F0001124002D0895FB01DC0102C005900D92DD
:1056000041505040D8F70895FB01DC0104C08D9152
:105610000190801921F441505040C8F7881B990B24
:105620000895AEE0B0E0E7E1FBE20C946F2A0D894B
:105630001E898F89988D26E02C831A83098397FF12
:1056400002C080E090E801979E838D83AE01455EA5
:105650005F4F698D7A8DCE0101960E94412B4D815D
:105660005E8157FD0AC02F813885421753070CF41D
:105670009A01020F131FF80110822E96E4E00C9499
:105680008B2AABE0B0E0E7E4FBE20C94612A7C01FA
:105690003B018A01FC0117821682838181FFB9C117
:1056A0009AE0292ECE0101965C01F7019381F30166
:1056B00093FD859193FF81913F01882309F446C1B1
:1056C000853239F493FD859193FF81913F018532B5
:1056D00029F4B70190E00E94222DE7CF912C412CB4
:1056E000512CFFE1F51538F08B3209F188F4803246
:1056F00001F1833221F157FC3AC020ED280F2A3006
:1057000040F556FE1FC0929C200D1124922E06C01B
:105710008D3291F0803379F7689450F8F30193FD5E
:10572000859193FF81913F018111DBCF20C0689467
:1057300051F8689452F8F2CF689453F8EFCF689418
:1057400054F8ECCF429C200D1124422E689455F859
:10575000E5CF8E3229F456FCF9C0689456F8DECFB6
:105760008C3619F4689457F8D9CF8836B9F2982F47
:105770009F7D95549330C0F08336A1F18337C1F1FA
:10578000833509F05BC0F801C190D1908F01692D7C
:1057900070E056FC02C06FEF7FEFC6010E940C2D37
:1057A0004C01689457F80AC00C5F1F4F2FE3298300
:1057B00088248394912C6501E89457F853FC04C025
:1057C0004814190409F018F5342C8114910431F5AA
:1057D000332009F46ACFB70180E290E00E94222DC5
:1057E0003A94F6CFF801808189830E5F1F4FE0CF96
:1057F000F801C190D1908F01692D70E056FC02C074
:105800006FEF7FEFC6010E94172D4C01D5CFB70176
:1058100080E290E00E94222D4A94D2CFF60157FCFC
:10582000859157FE81916F01B70190E00E94222D72
:1058300031103A94F1E08F1A9108C7CF843619F0ED
:10584000893609F074C0F80157FE6AC06191719100
:10585000819191918F01252D2F76D22E97FF09C02E
:1058600090958095709561957F4F8F4F9F4F68946D
:10587000D7F82AE030E0A5010E94522DC82ECA18A0
:105880008C2C5D2CD6FE0CC0E89450F8C91440F462
:10589000D4FE05C0D2FC03C0FD2DFE7E5F2E892CF8
:1058A00054FE8FC0FE01EC0DF11D8081803309F0A4
:1058B00081C0252D297E522E852D8870382E53FCCF
:1058C0008FC050FE89C09C2C841418F44C0C942C6E
:1058D000981854FE8BC0B70180E390E00E94222DFF
:1058E00052FE09C088E790E051FE02C088E590E0D2
:1058F000B7010E94222DC91408F484C0CA94D12C87
:105900009FEFC91AD90ACA0CDB1CF60182916F01FC
:10591000B70190E00E94222DAC14BD04B1F758CF1E
:1059200061917191072E000C880B990B93CFD52CA8
:10593000E894D4F82AE030E0853739F1952D997F45
:10594000D92E8F3601F148F48835A9F0F701868108
:1059500097812B96E2E10C947D2A803749F08837B5
:10596000A9F7D4FE02C06894D2F820E130E00DC05F
:105970006894D4F8F6CF54FE03C0E92FE660DE2E1B
:1059800020E132E002C028E030E0F801D7FE0DC08F
:1059900061917191819191918F01A5010E94522D88
:1059A000C82ECA18E894D7F86BCF6191719190E036
:1059B00080E0F2CF52FC02C083947ECF8394839424
:1059C0007BCF852D867809F477CFF6CFB70180E2BB
:1059D00090E00E94222D83948414C0F3312C79CF5F
:1059E000342C3818841408F474CFF8CF852D8678B9
:1059F00009F481CF8BE251FE80E257FC8DE2B701C2
:105A000090E077CFB70180E390E00E94222D9A9436
:105A100072CF8FEF9FEF9DCFFC01059061507040DA
:105A20000110D8F7809590958E0F9F1F0895FC0167
:105A30006150704001900110D8F7809590958E0FBD
:105A40009F1F08950F931F93CF93DF93182F092F54
:105A5000EB018B8181FD09C01FEF0FEF812F902F8C
:105A6000DF91CF911F910F91089582FF14C02E8175
:105A70003F818C819D81281739073CF4E881F981A9
:105A8000CF0101969983888310838E819F8101962F
:105A90009F838E83E3CFE885F985812F0995892B34
:105AA000A1F3DACFFA01AA27283051F1203181F190
:105AB000E8946F936E7F6E5F7F4F8F4F9F4FAF4F16
:105AC000B1E03ED0B4E03CD0670F781F891F9A1F29
:105AD000A11D680F791F8A1F911DA11D6A0F711DDD
