:100000000C94D6050C940E060C940E060C940E0659
:100010000C940E060C940E060C940E060C940E0610
:100020000C940E060C940E060C941F290C94F729C0
:100030000C9411140C940E060C940E060C940E06DF
:100040000C940E060C940E060C940E060C940E06E0
:100050000C940E060C94FB280C940E060C940E06C1
:100060000C940E060C940E060C940E060C940E06C0
:100070000C940E060C940E060C940E060C940E06B0
:100080000C940E060C940E060C940E060C940E06A0
:100090000C940E060C940E060C940E060C940E0690
:1000A0000C940E060C940E060C940E060501090223
:1000B000A10185020901A1000509190129081500FE
:1000C0002501950875018102050109300931158165
:1000D000257F95027508810609381581257F9501D0
:1000E00075088106050C0A38021581257F95017572
:1000F000088106C0C005010980A101850319012AF4
:10010000B700150126B700950175108100C0050CD8
:100110000901A101850419012AA002150126A002E6
:10012000950175108100C00660FF0961A101096297
:10013000150026FF00952075088102096315002629
:10014000FF00952075089102C005010906A101056F
:100150000719E029E7150025019508750181029529
:1001600001750881010507190029FF150026FF0008
:100170009506750881000508190129051500250156
:10018000950575019102950175039101C000AF00BD
:10019000AE07087F0807003E5B4F5B3E003E6B4F9B
:1001A0006B3E001C3E7C3E1C00183C7E3C18001C34
:1001B000577D571C001C5E7F5E1C0000183C180019
:1001C00000FFE7C3E7FF00001824180000FFE7DB8B
:1001D000E7FF0030483A060E00262979292600401C
:1001E0007F05050700407F05253F005A3CE73C5A44
:1001F000007F3E1C1C0800081C1C3E7F0014227F50
:100200002214005F5F005F5F0006097F017F00002E
:100210006689956A0060606060600094A2FFA294A5
:100220000008047E04080010207E20100008082A20
:100230001C0800081C2A0808001E10101010000CD2
:100240001E0C1E0C0030383E383000060E3E0E06E6
:100250000000000000000000005F00000000070038
:10026000070000147F147F1400242A7F2A12002321
:100270001308646200364956205000000807030046
:1002800000001C224100000041221C00002A1C7FAB
:100290001C2A0008083E0808000080703000000892
:1002A0000808080800000060600000201008040230
:1002B000003E5149453E0000427F400000724949DE
:1002C0004946002141494D33001814127F10002780
:1002D00045454539003C4A4949310041211109074A
:1002E00000364949493600464949291E0000001494
:1002F00000000000403400000000081422410014F7
:1003000014141414000041221408000201590906B3
:10031000003E415D594E007C1211127C007F49491C
:100320004936003E41414122007F4141413E007F2C
:1003300049494941007F09090901003E4141517382
:10034000007F0808087F0000417F410000204041F5
:100350003F01007F08142241007F40404040007F61
:10036000021C027F007F0408107F003E4141413E95
:10037000007F09090906003E4151215E007F0919ED
:1003800029460026494949320003017F0103003F05
:100390004040403F001F2040201F003F4038403F6A
:1003A00000631408146300030478040300615949CE
:1003B0004D4300007F41414100020408102000002D
:1003C0004141417F0004020102040040404040409E
:1003D000000003070800002054547840007F2844A0
:1003E000443800384444442800384444287F0038C6
:1003F000545454180000087E09020018A4A49C78E4
:10040000007F080404780000447D40000020404044
:100410003D00007F102844000000417F4000007C28
:1004200004780478007C0804047800384444443894
:1004300000FC182424180018242418FC007C08044C
:1004400004080048545454240004043F4424003C4D
:100450004040207C001C2040201C003C4030403CA0
:10046000004428102844004C9090907C0044645430
:100470004C440000083641000000007700000000F6
:1004800041360800000201020402003C2623263CFB
:1004900000000000000000404040F0F8F8FF38FF86
:1004A000F8F83FF8F8FF38FFF8F8F0404040000057
:1004B0000000000080C0C0C0800000C0C0800000FC
:1004C0000080C0C000C0C0000080C0C000000000AC
:1004D00000C0C0C0C0C000C0C000000000000000DC
:1004E000000000000000000000000000000000000C
:1004F00000000000000000000000000000000000FC
:1005000000000000000000000000000000000000EB
:10051000C0F0F8FC3E1E06010000007F4141417F13
:10052000007F4141417F000080C0E07E5B4F5BFE69
:10053000C00000C000DCD7DEDEDED7DC00C000007B
:1005400000000000000000000000000000000000AB
:1005500000000000000000494949FFFFFFFFE0DF05
:10056000BFBF00BFBFDFE0FFFFFFFF4949490000F9
:100570000000001F3F6060E0BF1F007F7F071E3844
:100580001E077F7F007F7F0E1F3B71600000000011
:10059000007F7F0C0C0C007E7E007F7E0303007FBB
:1005A0007E03037E7E03037F7E000F3E703C063C8D
:1005B000703E0F00327B49493F7E007F7E0303007F
:1005C0001E3F69696F260000000000000000000067
:1005D000030F1F3F3C7870600000007F4141417F66
:1005E000007F4141417F00307B7F78302020307890
:1005F0007F3B0003000F7F0F0F0F7F0F00030000F2
:1006000000000000000000000000000000000000EA
:1006100000000000000000010101070F0F7F0F7FA5
:100620000F0F7E0F0F7F0F7F0F0F070101010000DB
:1006300000000000000000000101000000000000B8
:1006400000000000000000000000000000000000AA
:10065000000000000000000000000000000000009A
:10066000000000000000000000000000000000008A
:10067000000000000000000000000000000000007A
:10068000000000000000000000000000000000006A
:10069000000000000000000000000000000000005A
:1006A000000000000000000000000000000000004A
:1006B000000000000000000000000000000000003A
:1006C000000000000000000000000000000000002A
:1006D0000009025B00030100A0FA09040000010305
:1006E00001010009211101000122440007058103D5
:1006F00008000109040100020300000009211101A2
:1007000000012222000705820320000107050303E0
:100710002000010904020001030000000921110169
:100720000001227B00070584032000011201000262
:1007300000000008383939360100010200010E03BB
:1007400068006F006F006B00360039000000120374
:100750006B0075007300680069006D00610038006F
:100760000000040309042E0089004F002D005200F0
:1007700051002700460050002000230026001F00E3
:10078000220025001E00210024002A002800E40089
:10079000E700E50021523000320087002F003400CE
:1007A000380013003300370012000F00000036003D
:1007B0000C000E00100018000D0011002C002C0081
:1007C0002C001C000B00050017000A001900150082
:1007D00009000600080007001B001A0016001D0093
:1007E00014000400E2003500E100E00029002B00C5
:1007F00039000400000045004D004C0044004B004F
:100800004E0043004A0049003C003F0042003B00CC
:100810003E0041003A003D0040000100010001009F
:1008200001000100010001000100010001000100C0
:1008300001000100010001000100010000000100B1
:1008400001000100010001000100010001000100A0
:100850000100010001000100010001000100010090
:100860000100010001000100010001000100010080
:100870000100010001000100010001000100010070
:100880000100050000002E0089004F002D005200DD
:1008900051002700460050002000230026001F00C2
:1008A000220025001E00210024002A002800E40068
:1008B000E700E50021523000320087002F003400AD
:1008C000380013003300370012000F00000036001C
:1008D0000C000E00100018000D0011002C002C0060
:1008E0002C001C000B00050017000A001900150061
:1008F00009000600080007001B001A0016001D0072
:1009000014000400E2003500E100E00029002B00A3
:100910003900040000002E0089004F002D00520015
:1009200051002700460050002000230026001F0031
:10093000220025001E00210024002A002800E400D7
:10094000E700E50021523000320087002F0034001C
:10095000380013003300370012000F00000036008B
:100960000C000E00100018000D0011002C002C00CF
:100970002C001C000B00050017000A0019001500D0
:1009800009000600080007001B001A0016001D00E1
:1009900014000400E2003500E100E00029002B0013
:1009A00039000400000004000500060007000800EC
:1009B00009000A000B00004C45440000556E6465B8
:1009C00066003474680033726400326E6400317300
:1009D00074004C4159455200000001010101010120
:1009E00001010102020202020202020203030303E6
:1009F00003030303040404040404040505050505B6
:100A00000606060606070707070708080808090973
:100A100009090A0A0A0B0B0B0C0C0C0D0D0D0E0E1E
:100A20000E0F0F0F101011111112121313141415B1
:100A30001516161717181819191A1A1B1B1C1D1D25
:100A40001E1E1F202021222223242425262627287B
:100A500029292A2B2C2D2D2E2F30313232333435AB
:100A6000363738393A3B3C3D3E3F404142434445AE
:100A7000464748494A4C4D4E4F505153545556588D
:100A8000595A5B5D5E5F616264656668696B6C6D37
:100A90006F7072737577787A7B7D7E8082838587AD
:100AA000888A8C8E8F91939596989A9C9EA0A2A3EB
:100AB000A5A7A9ABADAFB1B3B5B7BABCBEC0C2C4F0
:100AC000C6C9CBCDCFD1D4D6D8DBDDDFE2E4E7E9B0
:100AD000EBEEF0F3F5F8FAFDFF00DA0281FFD9F151
:100AE000DB20A4A62EAF00A0C0D30000A1C8D30075
:100AF00000AED580A81F408D14200000000000002B
:100B000000000000000000000000000000000000E5
:100B10000000000000000000000000000000007E57
:100B20000F00D4FFFFFFC7000000780000000000A6
:100B30000000002A2B280000000000000000000038
:100B400000000000000029000000002C1E342021BD
:100B50002224342627252E362D3738271E1F202104
:100B600022232425263333362E37381F0405060763
:100B700008090A0B0C0D0E0F10111213141516177D
:100B800018191A1B1C1D2F3130232D35040506079B
:100B900008090A0B0C0D0E0F10111213141516175D
:100BA00018191A1B1C1D2F3130354C0011241FBE83
:100BB000CFEFDAE0DEBFCDBF04B603FE18C08091F0
:100BC000C9049091CA04A091CB04B091CC048730A1
:100BD000904BA740B04B59F41092C9041092CA042C
:100BE0001092CB041092CC04E0E0F8E3099511E0F8
:100BF000A0E0B1E0E8EEFEE502C005900D92AC3950
:100C0000B107D9F724E0ACE9B1E001C01D92A93CDD
:100C1000B207E1F70E9479220C94F62E0C940000A2
:100C2000982F82958F70882311F0982F84E0292FB8
:100C300026952695222311F08E5F922F969591117D
:100C40008F5F089580937A0408959B01677091E007
:100C500001C0990F6A95EAF763E0369527956A9582
:100C6000E1F7B901660F771F260F371FFA01E20F70
:100C7000F31F40E050E0682F70E08191DF01119791
:100C80009B01042E02C0369527950A94E2F7217045
:100C900021952827292328272C934F5F5F4F433026
:100CA000510559F708959C01A82FA77083E0369548
:100CB00027958A95E1F7C901880F991F820F931F25
:100CC000FB01E80FF91F40E050E080E0219130E0A7
:100CD0000A2E02C0369527950A94E2F72170332731
:100CE000042E01C0220F0A94EAF7822B4F5F5F4F58
:100CF0004330510559F70895282F862F9C3070F402
:100D0000263058F4622F70E026E0929F600D711D2E
:100D1000112441E554E00E94250608959C5F92301D
:100D2000E0F7622F70E04EE454E0F5CF292F9C30BD
:100D300068F4863090F490E061E574E036E0239F3B
:100D4000800D911D11240E94530608952C5F2230BE
:100D500020F46EE474E090E0F6CF80E00895809196
:100D6000810490918004981301C008958F5F87706B
:100D7000FACFA0EAB1E0EFEF90E02D91821751F0A9
:100D8000EF3F19F4211101C0E92F9F5F9630A9F7B9
:100D9000EF3F09F408950E2E000CFF0BE256FE4FB4
:100DA00082830895E0EAF1E09191891303C0DF01A5
:100DB00011971C9291E0E63AF907B1F70895982F40
:100DC0009095809177048923809377040895803EDD
:100DD0009105D1F1C8F48133910509F47FC048F43D
:100DE0008932910509F46FC08A32910509F47DC0FA
:100DF000089589339105E1F082389105C9F0853372
:100E0000910509F45BC00895843E9105D1F148F441
:100E1000823E910531F1833E910541F181EE90E0F2
:100E20000895863E9105C1F1873E9105E1F108954F
:100E300020917D042370211165C020917E0423FF41
:100E400014C089E290E0089520917D0420FD43C004
:100E500030917E0430FF09C024FF4EC080E090E056
:100E6000089520917D0422FDF7CF089520917D04FF
:100E700022FD45C030917E0430FD44C024FFF5CFF3
:100E8000EDCF20917E0421FFF0CF80917D0484FD81
:100E9000E5CF87EE90E0089520917D0423FFE5CF14
:100EA00024FDDCCFF6CF20917D0423FD2EC03091B0
:100EB0007E0431FFE3CF84EE90E0089520917D041D
:100EC00025FFD3CFBECF20917D0425FD21C02091E9
:100ED0007E0423FFCACF89E390E0089520917D042A
:100EE00026FFC3CF8AE290E0089520917D0426FF7B
:100EF000BCCF81E390E0089583EE90E0089582EE08
:100F000090E0089580EE90E0089586EE90E00895D8
:100F100085E390E0AACF90917D0492FF10C041E05C
:100F2000282F2471243009F040E031E0282F287167
:100F3000283009F030E0431711F02CE0822793FFAE
:100F400010C041E0282F2471243109F040E031E045
:100F5000282F2871283109F030E0431711F02CE0D8
:100F6000822730917E0430FF10C051E0282F21717C
:100F7000213009F050E041E0282F2871283009F095
:100F800040E0541711F029E0822731FF10C041E002
:100F9000282F2171213109F040E031E0282F2871FC
:100FA000283109F030E0431711F029E0822794FD41
:100FB000877E08951F93CF93DF930E94E706EC018D
:100FC000811522E5920708F053C0811540E594078A
:100FD00008F0DDC0803E9105F8F48D3C910508F0E5
:100FE000AEC0883A910580F4853A910508F099C021
:100FF0008130910521F00497813A910550F4CE019A
:10100000DF91CF911F910895885A91094B9708F469
:101010008BC0C0E0D0E0F3CF811550E49507F8F421
:10102000C11580E2D80708F0CBC0C83ED10538F31F
:10103000CE019A9581159F4160F78D2F0E948B07F5
:10104000182FCE0199270E94E706212F30E0322F7A
:101050002227E901CC27DF71C82BD92BD0CF9927C4
:101060000E94E706CC27DF70C82BD92BD06AC7CFE8
:10107000803842E59407C8F5803652E5950708F0B8
:1010800067C0C03482E5D807B0F08C2F869586956E
:10109000877020E2829FC0011124C37021E030E0FC
:1010A000A90102C0440F551FCA95E2F7EA01C82BF7
:1010B000D92BDC68A4CFC03252E5D50708F041C077
:1010C0008C2F8695869520E2829FC0011124C370E3
:1010D00021E030E0A90102C0440F551FCA95E2F794
:1010E000EA01C82BD92BDD688ACF803C52E59507F1
:1010F00060F48F71C03AD24508F03FC090E0982F5D
:101100008827EC01C46FD06A7ACF805C92458097C3
:1011100008F07FCFDC2FCC27CC27DF71C06FD06ADF
:101120006ECFA497D0646BCFC85AD0E0CC0FDD1F30
:10113000CB59DE4F0990D881C02DD46460CFD065E3
:101140005ECFCF71D0E0DC2FCC27C16FD06A57CFF4
:1011500086958695877020E2829FC0011124C37016
:1011600021E030E0A90102C0440F551FCA95E2F703
:10117000EA01C82BD92BDA6842CF0E948B07C82F0F
:10118000D0E0DC2FCC27CC27DF71D06238CF8F7135
:101190000E948B0765E0D695C7956A95E1F7CF70F9
:1011A000D0E0DC2FCC27282F30E084FF05C054E0AE
:1011B000220F331F5A95E1F7C22BD32BD0691FCFD3
:1011C0008D2F8F710E948B07182FCE0199270E94B7
:1011D000E706212F30E0322F222722273F71282BCC
:1011E000392BE901D2CF80E00895282F35EB230376
:1011F000C001112497FF04C080589109892F0895D8
:1012000080589F4FFBCF80916E0480FD14C081FDFC
:1012100014C082FD16C080916D04882381F08E3148
:1012200080F420E5829FC00111246EE170E00E94ED
:10123000922B862F089584E1089588E2089588E02E
:10124000089580E5089580916E0480FD17C081FDAA
:1012500017C082FD19C080916C04882399F08832F0
:1012600098F428E0829FC001112468E270E00E9497
:10127000922B6115710551F0862F089562E0FCCF25
:1012800064E0FACF61E0F8CF68E0F6CF81E008953E
:101290008091C104823038F48091C10481708260F1
:1012A0008093C10408958430B8F70895FA01882323
:1012B00011F009950895FB01FCCFE0914404F091F1
:1012C0004504309729F00190F081E02D09950895AB
:1012D00080E00895A3E0B0E0E0E7F9E00C945F2B34
:1012E0009C018091CC019091CD0182179307A1F0D0
:1012F0003093CD012093CC01E0914404F09145045A
:10130000309751F083E089833B832A830680F781FD
:10131000E02DCE01019609952396E2E00C947B2BFB
:10132000A3E0B0E0E6E9F9E00C945F2B9C0180912A
:10133000CA019091CB0182179307A1F03093CB01A2
:101340002093CA01E0914404F0914504309751F094
:1013500084E089833B832A830680F781E02DCE01D8
:10136000019609952396E2E00C947B2BA4E0B0E073
:10137000ECEBF9E00C945F2B8FB7F8942091C60149
:101380003091C7014091C8015091C90129833A8326
:101390004B835C838FBF69817A818B819C8124968A
:1013A000E2E00C947B2B8091C5010895FC019B0128
:1013B0008091BB019091BC018617970740F0672B85
:1013C00029F48091E8008E778093E800C90140E01D
:1013D000009741F4411106C08091E80082FF2FC0C0
:1013E00080E00895209141042223A9F12530A9F13C
:1013F0002091E80023FD2DC02091E80022FDECCFD4
:101400002091E80020FFE4CF3091F3002091F2001A
:10141000009719F02830310558F041E028303105A7
:1014200009F040E02091E8002E772093E800D0CF2B
:1014300041914093F10001972F5F3F4FE9CF809199
:101440004104882341F0853041F08091E80083FF1A
:10145000C3CF81E0089582E0089583E008958091EC
:10146000B50187FF13C08091E80082FF06C080911C
:10147000E8008B778093E80004C0809141048111DB
:10148000F2CF0895809141048823D9F38091E80038
:1014900080FFF8CF8091E8008E77ECCF2091E400B8
:1014A0003091E50095E6A9018091EC0081708823D8
:1014B00031F08091E80080FF06C080E0089520911F
:1014C000E80022FD1BC080914104882391F0853003
:1014D00091F08091EB0085FD10C02091E4003091E7
:1014E000E5004217530701F391509111DCCF84E0DE
:1014F000089582E0089583E0089581E00895E8ED7D
:10150000F0E080818E7F80831092E2001092DA00FA
:101510001092E100A0EEB0E08C9181608C9380810C
:101520008F77808319BCA7EDB0E08C918E7F8C9370
:1015300080818F7E80831092B4010895982FE42FCC
:10154000E2709093E900891308C0762F242F50E0B1
:10155000E11111C091E0980FF4CF7091EC0020914F
:10156000ED005091F00021FD06C09F5F973049F7D4
:101570008093E90008953091EB003E7F3093EB00BB
:101580003091ED003D7F3093ED003091EB00316004
:101590003093EB007093EC002093ED005093F0003B
:1015A0002091EE0027FDE1CF0895A0E0B0E0EBED43
:1015B000FAE00C94592BC8EDD0E088818F7E8883A7
:1015C000E7EDF0E080818160808384E082BF81E08C
:1015D0008093B40188818E7F888302EE10E0F80149
:1015E00010821092DA0081EEC82ED12CF601108202
:1015F00088818F77888388818068888388818F7DC0
:10160000888319BC109241041092B30110921E04F9
:101610001092B20190EEE92EF12CF70180818B7FC0
:10162000808388818160888342E060E080E00E945E
:101630009E0AF60180818E7F8083F801808181601F
:101640008083808188608083F70180818E7F8083A2
:10165000888180618883CDB7DEB7E8E00C94752B74
:10166000E09181049091800427E0E91302C080E0BA
:101670000895AE2FB0E02E9FF0011124EE57FB4FDE
:101680003181361306C03081381303C035813413DD
:1016900004C0FD013196E770E8CF81E008958091A4
:1016A000C10480FD06C01092010210920002109247
:1016B0000202539A3BB1377F2BB128604FB7F894A1
:1016C00080E092E0FC010196508168E02BB90000B7
:1016D00000C057FF3BB9550F000000C000C000C05C
:1016E0003BB900C06A9591F752E08330950751F7F6
:1016F0004FBF8FE594E00197F1F700C00000089517
:1017000081E08093E00080E28093D8001092C900CD
:101710008FE19EE40197F1F700C0000087E090EBB5
:10172000DC018093C9049093CA04A093CB04B093C6
:10173000CC0488E19CE00FB6F894A89580936000F3
:101740000FBE90936000FFCF0F931F93CF93DF9353
:10175000EB018A0190914104943079F58093E9007E
:101760008FEF9091E80095FD07C095ED9A95F1F700
:10177000000081508111F5CF8091E80085FF1DC0E8
:101780000E944E0A811114C08091E80085FD06C0B8
:101790008091E8008E778093E800F2CF8881809373
:1017A000F100015011090115110511F02196ECCF3E
:1017B0008091E8008E778093E800DF91CF911F91B0
:1017C0000F910895CF93DF93D82FC92F48E050E0B1
:1017D000682F792F81E00E94A40B88E0ED2FFC2F69
:1017E000ADEBB1E001900D928A95E1F7DF91CF91D9
:1017F0000895BC0146E050E084E00E94A40B0895E7
:10180000BC0143E050E084E00E94A40B08958823CB
:1018100081F063E285E390E00E94C22E61E086E3FE
:1018200090E00E94C22E66E187E390E00E94C22E03
:1018300008956FEF85E390E00E94C22E6FEF86E37C
:1018400090E00E94C22E6FEFEFCF1F93CF93DF93F4
:10185000962F122F632F8430D8F49C30C8F4463072
:10186000B8F4C42FD0E0CC0FDD1F2CE0929FC00D48
:10187000D11D112490E9899FC00DD11D1124CE01E5
:10188000C9960E94C22E612FCE01CA960E94C22E16
:10189000DF91CF911F9108951F93CF93DF93962FE0
:1018A000122F632F8430A0F4911112C094E0899F0D
:1018B000E0011124C758DD4FCE01442369F00E9496
:1018C000C22E81E090E0612F8C0F9D1F0E94C22EDE
:1018D000DF91CF911F91089502960E94C22E83E05E
:1018E00090E0F1CF8F929F92BF92CF92DF92EF92D2
:1018F000FF920F931F93CF93DF9396EAE92E99E01F
:10190000F92EC12CD12CC0E04601D0E014C0F80162
:10191000259134914B2D6D2F8C2F0E94250C0E5F3D
:101920001F4FB39486E0B812F2CF86E0880E911C68
:10193000DF5FDC3039F08401000F111F0A59184FA6
:10194000B12CE5CFF7012591349141E060E08C2F77
:101950000E944C0CF70132962591349140E060E0F2
:101960008C2F0E944C0C84E0E80EF11CCF5F88E4C1
:10197000C80ED11CC43009F0C7CFDF91CF911F91A1
:101980000F91FF90EF90DF90CF90BF909F908F903E
:101990000895CF93DF93C9E8D2E060E0CE010E94C2
:1019A000C22E2196C11584E0D807B9F7DF91CF91F7
:1019B000089580E00E94070C60E088E390E00E94B8
:1019C000C22E0E94720C0E94C90C81E00E94070C7A
:1019D000089585E390E00E949E2E833289F486E389
:1019E00090E00E949E2E813059F487E390E00E949F
:1019F0009E2E91E0863109F090E0892F8170089544
:101A000080E0FCCF0F931F93CF93DF93843030F5AA
:101A10006C3020F5463010F5C42FD0E0CC0FDD1F20
:101A20002CE0629FC00DD11D112430E9839FC00DB1
:101A3000D11D1124CE01C9960E949E2E082F10E0C0
:101A4000102F0027CE01CA960E949E2E9801282BA7
:101A5000C901DF91CF911F910F91089580E090E02F
:101A6000F8CF0F931F93CF93DF93843048F5611124
:101A700027C024E0829F8001112407581D4FC80110
:101A80004423A1F00E949E2EC82FD0E0DC2FCC274B
:101A900081E090E0800F911F0E949E2E9E01282BD6
:101AA000C901DF91CF911F910F91089502960E9475
:101AB0009E2EC82FD0E0DC2FCC2783E090E0EACF29
:101AC00080E090E0EECF462F672F7C3038F4463030
:101AD00060F4843050F40E94020D08957D3F41F47B
:101AE000411103C041E0843048F080E090E0089567
:101AF0007C3FD9F74111F9CF8430B8F760E00E94FC
:101B0000310D0895A0E0B0E0E8E8FDE00C945A2B18
:101B10007C0100917B0480917A04082BC3E0D0E023
:101B200010E0C8010C2E02C0959587950A94E2F743
:101B300080FD09C02197A8F7D12C8D2DCDB7DEB738
:101B4000E7E00C94762BDC2EB7018C2F0E94630DFE
:101B50000E94DA07019771F3F0CF0F931F93CF9391
:101B6000FC01858100811181882391F0662381F039
:101B7000C8010E94820DC82F682FC8010E947C06F0
:101B8000B8018C2F0E94630DCF911F910F91089582
:101B9000C8010E949606C82FF3CFCF93DF93D82FAA
:101BA000C92F0E94820D6D2F7C2F0E94630D0E9411
:101BB000DA07DF91CF910895FC0184818823A1F099
:101BC000808191810E94CD0D282F92959F70963033
:101BD00091F060F4925F9F70923030F481E0203F8A
:101BE00079F030F4283E30F080E004C09A5FF3CF03
:101BF000243FD1F7089581E0283E18F0213FF9CF26
:101C0000089508958091770490917F04892B8093A3
:101C10009E0190917804992391F0892B80939E01E5
:101C200020E080EA91E0FC013081019631112F5FC4
:101C300031E0863A9307B9F721111092780448E011
:101C400050E066E474E08EE991E00E94F22B892B6B
:101C5000A9F088E0EEE9F1E0A6E4B4E001900D928D
:101C60008A95E1F7E0914404F0914504309731F012
:101C70000280F381E02D8EE991E009950895882393
:101C800039F090917704892B809377040E94020E9B
:101C90000895882321F00E94DF060E94020E089515
:101CA000A0E0B0E0E6E5FEE00C94592B8901D42FCA
:101CB000C52F6B017C010E944809A8016D2F7C2F64
:101CC00088E090E00E94D42E98014D2F5C2FB60141
:101CD000C70100E20E94CE2B622F84E290E00E94B6
:101CE000C22ECDB7DEB7E8E00C94752BE1ECF4E042
:101CF0002081318142815381648175818681978100
:101D00000E94500E0895E1ECF4E083E0808311829C
:101D10008FEF828383831482758123E030E04FEF5D
:101D20005FEF60E0868197810E94500E0895809158
:101D3000C504833018F48F5F8093C5042091C104DB
:101D40003091C2044091C3045091C4046091C50411
:101D50007091C6048091C7049091C8040E94500EEF
:101D600008958091C504882319F081508093C5049B
:101D70002091C1043091C2044091C3045091C40425
:101D80006091C5047091C6048091C7049091C80405
:101D90000E94500E0895A0E0B0E0E1EDFEE00C944A
:101DA000542B982EC62FD42F722EB090C104B0FEA3
:101DB0002DC08B2D8E7F823099F4E42FF0E0E75216
:101DC000F64F611128C0F491AF2E8F2EB0FE08C0DF
:101DD00080920102F0930002A09202020E944F0B37
:101DE0009092C204C093C304D093C404772071F0CE
:101DF0002091C1046091C5047091C604392DAE01D3
:101E00008091C7049091C8040E94500ECDB7DEB7F0
:101E1000EDE00C94702B292D30E0E62EF12CE491AE
:101E2000FE2F86E0829F6001839FD00C11240FEF6C
:101E300010E0C601B8010E943B2B220F331F45E57D
:101E4000469FC001479F900D1124281B390B822FFC
:101E5000880F280FA8014E195F09E49FC001E59F74
:101E6000900D1124A92E2E9DA0012F9D500D1124FF
:101E7000452F5527D801A41BB50BAD01E49FD00118
:101E8000E59FB00D11248B2EA801421B51099A0128
:101E90002E9DA0012F9D500D3E9D500D1124452FCC
:101EA00055279801241B350BA901E49F9001E59F5C
:101EB000300D112463307105C9F04CEFC41643E0B6
:101EC000D40650F46130710509F480CF6230710599
:101ED00089F08F2EF32F7ACF6430710571F0663060
:101EE0007105B9F3F92FAB2E8E2E70CFFB2F892EF3
:101EF000AE2E6CCF892EA32E69CF832EF92FF8CF6B
:101F00002091C10420FF1FC0217022602093C104D2
:101F1000662381F03091C2044091C3045091C404FF
:101F20006091C5047091C6048091C7049091C80463
:101F30000E94500E20E04091C4046091C30480913F
:101F4000C2040E94CB0E08951F93CF93DF93182FE6
:101F50000E941006843018F524E0829FC0011124ED
:101F600085960E94A62E462F572FBC01DB01CA0181
:101F70008093C1049093C204A093C304B093C4049B
:101F80001092C5041092C6041092C7041092C8049F
:101F90004170442349F060E086950E94800F812FB4
:101FA000DF91CF911F9108950E944F0BF8CF0E94AF
:101FB000A40F80937B04089521E030E001C0220F3C
:101FC0008A95EAF780917B04822B0E94D70F0895AF
:101FD00021E030E0A90102C0440F551F8A95E2F7C5
:101FE000CA01809590917B0489230E94D70F0895A0
:101FF00090917C048095892380937C04282F2770FE
:1020000021110DC0891759F090917E0492FF07C0ED
:102010008695869586950E94E80F10927C04089517
:1020200090917E0492FB222720F9281779F080FBFB
:1020300092F990937E0460917D0470917E0484E017
:1020400090E00E94E02E82E00E94F80F08959091A7
:102050007B0421E030E0F90101C0EE0F8A95EAF738
:10206000D90102C0AA0FBB1F6A95E2F7EA2B01C093
:10207000220F4A95EAF7892F8E23E81305C0892F8E
:10208000822B0E94D70F08952095822F8923F9CFA4
:1020900061E081E00E94800F08959091C1049695BF
:1020A0008FEF890F913009F481E061E00E94800F89
:1020B0000895E1ECF4E080818160808360E08695A2
:1020C0000E94800F0895E1ECF4E0818121E04381DA
:1020D0006281885F0E94CB0E0895E1ECF4E081817B
:1020E00021E04381628188500E94CB0E0895E1EC8B
:1020F000F4E0628121E1620F08F46FEF21E0438197
:1021000081810E94CB0E0895E1ECF4E0628121E12F
:10211000621B08F460E021E0438181810E94CB0EC4
:102120000895E1ECF4E0438121E1420F08F44FEF20
:1021300021E0628181810E94CB0E0895E1ECF4E000
:10214000438121E1421B08F440E021E0628181816A
:102150000E94CB0E0895A8E0B0E0E1EBF0E10C9412
:102160005F2B66EE7EEF80E090E00E94E02E60E064
:1021700082E090E00E94C22E60E083E090E00E9446
:10218000C22E10927A0460E074E184E090E00E9434
:10219000E02E60E086E090E00E94C22E6FEF87E0C4
:1021A00090E00E94C22E40E050E0BA0188E090E04A
:1021B0000E94D42E60E084E290E00E94C22E60E093
:1021C00087E190E00E94C22E60E08CE090E00E94E7
:1021D000C22E60E08DE090E00E94C22E19821A8229
:1021E0001B821C821D821E821F82188648E050E0DE
:1021F00068E170E0CE0101960E94B22E40E050E00E
:10220000BA0180E290E00E94D42E80E00E94070C88
:102210000E94D90C40E050E0BA018FE090E00E94AB
:10222000D42E40E050E0BA0183E190E00E94D42E29
:102230002896E2E00C947B2BA0E0B0E0E2E2F1E132
:102240000C94592B7C016B0164E670E088E70E94D6
:10225000462AEC0197FD12C000E010E0F701E00F04
:10226000F11F849164E670E00E94B52AEC010F5FD3
:102270001F4FC016D10611F097FFF0CF0E94372BE9
:1022800081E0CD2B09F080E0CDB7DEB7E8E00C941B
:10229000752B80911504882369F08091140488239C
:1022A00049F062E070E08FE891E00E941C1181111A
:1022B000109214040895A4E0B0E0E1E6F1E10C947A
:1022C0005F2B809115048823F9F00E94B609DC0188
:1022D000CB01805A9541AF4FBF4F80931604909326
:1022E0001704A0931804B093190480911404811169
:1022F0000BC062E070E08DE891E00E941C11882321
:1023000019F081E0809314042496E2E00C947B2B76
:10231000CF93DF93682F81E06A3019F06D3031F48C
:1023200080E00E940812DF91CF9108958091110200
:102330009091120226E0FC01ABEAB1E001900D920F
:102340002A95E1F7603E08F458C026E0FC0111929E
:102350002A95E9F7C0911102D091120246E050E0AF
:10236000BE018BEA91E00E94F22B9E012351324084
:10237000892B41F1C90145E0969587954A95E1F78A
:1023800041E050E0BA0102C0660F771F8A95E2F77C
:10239000CB0160910F0270911002862B972BB9012F
:1023A0006B5F7F4FE5E076956795EA95E1F702C0B0
:1023B000440F551F6A95E2F7842B952B90931002DA
:1023C00080930F022A5F3F4F40911A04642F70E000
:1023D000C9010E943B2B481B463010F4240F311DCD
:1023E000211572E0370710F020E030E02D5E3D4F00
:1023F000309312022093110296CFF6E06F9FB00146
:1024000011246F567E4F46E050E00E94E92BA2CF88
:10241000CF93382FE0911102F0911202E351F24074
:1024200020911A04622F70E0CF010E943B2B281BE1
:10243000822F332361F066E00E94862BC82FC150A3
:1024400010F4CF91089580E20E948811F8CF9F0187
:10245000280F311D2115324018F080E0E0E0F0E057
:102460008E0F9F2F911D8D5E9D4F90931202809332
:102470001102E7CF0F931F93CF93DF93EC01FC0181
:1024800001900020E9F78F0101501109C017D10711
:1024900028F0DF91CF911F910F91089589910E94AB
:1024A0008811F4CFCF93DF93EC01FE018491811169
:1024B00003C0DF91CF9108950E9488112196F5CF36
:1024C0000E94521281E00E9408120895AAE0B0E032
:1024D000ECE6F2E10C94502B80911504882309F46A
:1024E000C8C083E192E0909312028093110288EDBC
:1024F00099E00E94601282ED99E00E946012809142
:102500007B040E941006823009F4C1C008F0B5C0F7
:102510008111BAC08EEC99E00E9460128BEB99E0B9
:102520000E94601287EB99E00E94601286EB99E0AE
:102530000E9460121A821982FE01339684E0DF0144
:102540001D928A95E9F78091C10480FFA6C0869507
:102550001F928F9380E191E09F938F931F9216E0DB
:102560001F93FE0131967F01FF93EF930E94FF2B93
:10257000C7010E943A128091C2041F928F9387E193
:1025800091E09F938F931F921F938AED91E09F9309
:102590008F930E94FF2B8AED91E00E943A12809166
:1025A000C3041F928F938EE191E09F938F931F92AC
:1025B0001F9384ED91E09F938F930E94FF2B84EDF6
:1025C00091E00E943A128091C4041F928F9385E299
:1025D00091E09F938F931F921F938EEC91E09F93B6
:1025E0008F930E94FF2B0FB6F894DEBF0FBECDBFB6
:1025F0008EEC91E00E943A1280910F0290911002AD
:10260000892BA1F080911504882381F08091130417
:1026100081110CC00E945B1120910F0230911002B9
:1026200080E061E070E021153105D1F5809114045E
:102630008823F9F00E94B6096F83788789879A8783
:102640008091160490911704A0911804B091190478
:102650002F81388549855A85281B390B4A0B5B0B1E
:10266000DA01C9018F3F9F4FAF4FBF4710F40E945F
:1026700049112A96E1E10C946C2B833059F08CEBD4
:1026800099E00E9452124ACF8AEC99E045CF86EC3D
:1026900099E042CF82EC99E03FCF80E059CF8F5F45
:1026A000082F10E07B01082E02C0EE0CFF1C0A94DC
:1026B000E2F7A70142235323452B89F390911B0492
:1026C00090FD43C098013695279536952795922F12
:1026D0008295880F80763FE1380F80930301209325
:1026E0000601309304019093070124E630E047E0AF
:1026F00050E061E071E088E70E94E52A892B09F04B
:1027000095CFA80125E0440F551F2A95E1F7809148
:102710001B0480FD22C04D5E5D4F04E610E020E208
:1027200030E060E488E70E940C2B892B09F07ECF13
:10273000E094F09480910F0290911002E822F92227
:10274000F0921002E0920F0271CF880F880F880F6D
:1027500037E0380F20E093E0C0CFE0EEF1E080E218
:10276000DF011D928A95E9F7EFE3F1E0F887EF8347
:102770000BE311E083E4A82E81E0B82E97E0392E18
:1027800044244394AF81B8858D91B887AF83F80115
:1027900021918F01240F352F311D2D5E3D4FE82FE4
:1027A000F0E0E052FE4F80E090E0632C681A742C59
:1027B000082E01C0770C0A94EAF76901812CD60132
:1027C0009D906D019720662D6819677070E0B92D96
:1027D000062E01C0BB0F0A94EAF75B2E7195619536
:1027E00071096770772701C096946A95EAF75928AE
:1027F0006081562A5082839468E08612E0CF019669
:1028000031968830910589F68F819885A816B9068A
:1028100009F0B8CF04E610E020E230E040EE51E0ED
:1028200080CF1F921FB61F9211248F939F93AF9357
:10283000BF9380911D04811113C08091C6019091B6
:10284000C701A091C801B091C9014196A11DB11D58
:102850008093C6019093C701A093C801B093C901AA
:10286000BF91AF919F918F911F901FBE1F901895A0
:102870002FB7F8948091C6019091C701A091C8012B
:10288000B091C9012FBF08950E943814209171049E
:1028900030917204232B222321F0809332049093F1
:1028A00033042091730430917404232B222321F0EC
:1028B0008093300490933104E0914404F0914504F6
:1028C000309749F082E080936F040480F581E02D19
:1028D0008FE694E009950895662309F44BC0E3E37D
:1028E000E80FE33150F4F0E0E850F14D0C94A62BE2
:1028F0000E9403098195809372040E9444140895F4
:102900000E940309F8CF0E94030981958093710406
:10291000F4CF0E940309FACF0E9423098093730425
:10292000ECCF0E9423098195F9CF0E94230981955C
:1029300080937404E2CF0E942309FACF815D990B42
:1029400021E030E001C0220F8A95EAF780917004FF
:10295000822B80937004D1CF80916E04816080932C
:102960006E04CBCF80916E048260F9CF80916E04AB
:102970008460F5CF409171048D3C59F480917204CC
:1029800087FF0DC010927204442359F410926D0415
:1029900008C08E3C81F48091720418169CF3442385
:1029A00081F08091730490917404892B8111A5CFDB
:1029B00010926C04A2CF8F3C41F447FFF0CF1092ED
:1029C0007104809172048823E0CF803D19F41416BD
:1029D000B4F3E5CF90917304893D29F41916FCF600
:1029E00010927304DCCF8A3D19F497FFD8CFF8CF4B
:1029F000909174048B3D29F497FFD1CF1092740409
:102A0000CECF8C3D19F41916CCF3C9CF9FE2980FA5
:102A1000983090F4815D990B21E030E0B90102C05B
:102A2000660F771F8A95E2F7CB018095909170042D
:102A3000892380937004B3CF8D3D31F480916E046F
:102A40008E7F80936E04ABCF8E3D21F480916E0417
:102A50008D7FF7CF8F3D09F0A2CF80916E048B7FE1
:102A6000F0CFCF93C82F8823C9F08238C9F40E94D1
:102A70005D0981FD13C089E30E94B9060E94020E20
:102A80002FEF37EE83E0215030408040E1F700C067
:102A9000000089E30E94D2060E94020ECF910895A1
:102AA0008338A1F40E945D0980FDF8CF83E50E9480
:102AB000B9060E94020E9FEF21EE34E091502040B3
:102AC0003040E1F700C0000083E5E4CF8438A1F492
:102AD0000E945D0982FDE2CF87E40E94B9060E9450
:102AE000020E8FEF91EE24E0815090402040E1F7FC
:102AF00000C0000087E4CECF8CEF8C0F813A70F4D9
:102B0000E0EAF1E086EA91E02191C217D9F18E174F
:102B10009F07D1F78C2F0E94B906BECF80E28C0FA1
:102B2000883068F4C77021E030E001C0220FCA95F8
:102B3000EAF780917704822B80937704ADCF8BE501
:102B40008C0F833038F42C2F2452330BC9010E9490
:102B50006A09A4CFE8E5EC0FEB3150F4F0E0EE0F9A
:102B6000FF1FEB59FE4F808191810E94900996CF03
:102B700083E38C0F833108F091CF61E08C2F0E94AA
:102B80006C148CCF8C2F0E94D2060E94020EC2CFF2
:102B9000882309F456C0823879F40E945D0981FFC8
:102BA00050C089E30E94B9060E94020E89E30E9488
:102BB000D2060E94020E0895833859F40E945D09DE
:102BC00080FF3FC083E50E94B9060E94020E83E5A4
:102BD000EECF843859F40E945D0982FF32C087E449
:102BE0000E94B9060E94020E87E4E1CF9CEF980F85
:102BF000913AE8F290E2980F983050F4877091E0A3
:102C000001C0990F8A95EAF7892F0E94DF06D1CF7C
:102C10009BE5980F933028F480E090E00E946A09C9
:102C2000089598E5980F9B3128F480E090E00E9489
:102C30009009089593E3980F933118F460E00E948F
:102C40006C1408950F931F93CF93C82F00E010E0EA
:102C5000893311F400E510E08C2F0E943115011525
:102C6000110539F48C2F0E94C815CF911F910F9137
:102C700008958FE99FE00197F1F700C0000001502F
:102C80001109EDCFCF9310927704C6E0E0EAF1E0AE
:102C9000DF018C2F1D928A95E9F780E090E00E9479
:102CA0006A0980E090E00E94900910927F040E94DF
:102CB000020EEFE6F4E0DF011D92CA95E9F71092EB
:102CC0006D0410926C0410926E040E944414CF9113
:102CD00008950E9442162FEF84E39CE0215080402B
:102CE0009040E1F700C0000088E19CE00FB6F89446
:102CF000A895809360000FBE90936000FFCFAAE27A
:102D0000B0E0E5E8F6E10C945E2B85EB91E0FC0188
:102D100001962091F100208321E08D3B9207B9F7C5
:102D20008091B601893009F456C0C8F4823009F4A4
:102D3000B3C0833009F482C0813071F18091E80022
:102D400083FFE7C08091B5019091B6019A3008F0F9
:102D5000E0C0E92FF0E0E55FF04D0C94A62B8A303F
:102D600009F489C08B3051F78091B501813231F778
:102D70008091B9019091BA01892B01F78091E80007
:102D8000877F8093E8000E942F0A8091B70180938B
:102D900000010E944216D2CF8091B501813A71F6AE
:102DA0008091E800877F8093E8008091B90190913D
:102DB000BA01892B61F060E080E090E070E00E9451
:102DC000D6098091E8008B778093E800B7CF68E060
:102DD0008DEB91E0F3CF8091B501813209F0AECF58
:102DE0008091B9019091BA018D7F892B09F0A6CF0E
:102DF0008091E800877F8093E8008091E80082FF5F
:102E000018C09091F3008091F200029731F4809104
:102E1000F100813011F0863021F48091F10080932F
:102E2000C5018091E8008B778093E8000E942F0A0B
:102E300085CF809141048111E0CF80CF8091B50191
:102E4000813A09F07BCF8091B9019091BA01892B29
:102E500009F074CF8091E800877F8093E80080912B
:102E6000E80080FFFCCF809100018093F100809109
:102E7000E8008E77D9CF8091B501813209F05ECF1D
:102E80008091E800877F8093E8000E942F0A80915C
:102E9000B8018093B10152CF8091B501813A09F018
:102EA0004DCF8091E800877F8093E8008091E80013
:102EB00080FFFCCF8091B101D8CF803889F0823873
:102EC00041F58091B9018F70873018F58093E90042
:102ED0008091EB0085FB882780F91092E90006C0FD
:102EE0008091B20190911E04911182609091E8004E
:102EF000977F9093E8008093F1001092F100809109
:102F0000E8008E7723C0811116C08091B70181300F
:102F100011F18091E80083FF0AC08091E800877F6B
:102F20008093E8008091EB0080628093EB00AA968A
:102F3000E3E00C947A2B823061F78091B70188230B
:102F400089F01092E9008091E800877F8093E80083
:102F50000E942F0ADECF81E0933009F080E0809359
:102F60001E04EFCF8091B9018F702FEF280F26300C
:102F700080F68093E9002091EB0020FFE2CF9330B0
:102F800031F48091EB0080628093EB00DACF909176
:102F9000EB0090619093EB0021E030E0A90102C0CA
:102FA000440F551F8A95E2F74093EA001092EA0019
:102FB0008091EB008860E8CF8111ABCF1091B70111
:102FC0001F778091E3008078812B8093E3008091CC
:102FD000E800877F8093E8000E942F0A8091E80034
:102FE00080FFFCCF8091E30080688093E30083E062
:102FF000111101C082E0809341048BCF8058823050
:1030000008F087CF4091B7015091B8014C3D83E063
:10301000580799F583E08A838AE289834FB7F89449
:10302000DE01139620E03EE051E2E32FF0E0509302
:103030005700849120FF03C082958F703F5F8F708F
:103040008A30C8F0895C90E08D939D932F5F243186
:1030500061F74FBF8091E800877F8093E8006AE2C4
:1030600070E0CE0101960E94D6098091E8008B772E
:103070008093E8004ECF805DE6CF8091B9019091BA
:10308000BA01252F33272330310509F44AC078F5DA
:103090002130310509F479C08BE590E0E1EDF6E0EF
:1030A0002230310509F035CF2091E800277F2093A9
:1030B000E8002091BB013091BC018217930708F40E
:1030C0009C0140E02115310509F064C0411162C046
:1030D0008091E80082FDC9CF80914104882329F2C4
:1030E000853019F28091E80083FFF2CFBECF213204
:1030F000310509F43BC02232310509F00ACF833093
:10310000910508F006CFFC01EE0FFF1FE15DFE4FB9
:103110000190F081E02D845D9E4FDC018C9190E068
:1031200011C0CA019927413089F082309105B1F070
:10313000892B09F0EECEE2E6F7E0E4918E2F90E0E5
:10314000E2E6F7E0009709F4E4CEAECFEEE4F7E074
:10315000E4918E2F90E0EEE4F7E0F4CFEEE3F7E0B9
:10316000E4918E2F90E0EEE3F7E0ECCF8330910511
:1031700008F0CFCEFC01EE0FFF1FEB5CFE4F01907D
:10318000F081E02D89E090E08FCF82E190E0ECE2E9
:10319000F7E08ACF80914104882309F466CF853017
:1031A00009F463CF8091E80083FD5FCF8091E80050
:1031B00082FD8ECF8091E80080FF84CF9091F30054
:1031C0008091F2002115310519F08830910550F0F9
:1031D00041E0089709F040E08091E8008E77809305
:1031E000E80070CF44914093F100319621503109AD
:1031F0000196E8CF803809F08CCE8091E800877F77
:103200008093E8008091B3018093F10078CE811122
:1032100080CE1091B701123008F07BCE8091E8008B
:10322000877F8093E8001093B3010E942F0A112337
:10323000D1F084E08093410442E061EC81E00E949F
:103240009E0A42E261EC84E00E949E0A42E261EC46
:1032500082E00E949E0A42E260EC83E00E949E0AA5
:103260008091410456CE8091E30087FDE2CF81E05A
:10327000E1CF9C014FB7F8948091C6019091C701AE
:10328000A091C801B091C9014FBF821B930B089553
:103290000F931F93CF93DF93C62FD42F122F882322
:1032A000A9F0609375040E9438149093AA0180934A
:1032B000A901C77081E001C0880FCA95EAF70E9492
:1032C0003F0EDF91CF911F910F910895809175046A
:1032D000681332C08091A9019091AA010E94391906
:1032E000883C910548F5CD130CC0812F0E94221611
:1032F000D77081E001C0880FDA95EAF70E94490E85
:10330000E0CFC77001E0802F01C0880FCA95EAF7AF
:103310000E94490E80E28D0F883050F48D2F877007
:1033200001C0000F8A95EAF7802F0E943F0EDDCF83
:10333000812F0E942216C5CFC77081E001C0880F7F
:10334000CA95EAF7DBCFA8E0B0E0E9EAF9E10C942E
:10335000532B6C01DC0114968C91882309F4ABC0CB
:1033600061E0C6010E94AD0D8C01F60185818823C4
:1033700009F478C5980137572038310508F067C53A
:10338000003108F087C08FEF93E00E949E2E8111DC
:1033900081C039E8E32E32E0F32E01114AC01A82CF
:1033A0001982FE01339686E0DF011D928A95E9F7C6
:1033B0002AE0622E5701BFEFAB1ABB0AC7010E9479
:1033C0009E2E89831A82882309F464C0813009F013
:1033D00076C087010E5F1F4FC5010E949E2E8A8313
:1033E000882309F457C09FEF980F933088F5E3E0E6
:1033F000EE0EF11CC8010E949E2E8B83882309F4D7
:1034000049C01C828E010F5F1F4FD8018C91882309
:1034100089F2813009F08EC011969C911197129615
:103420008C91913009F04DC00E5F1F4F0E94221603
:103430004EC0E114F4E0FF0669F1C7010E949E2E20
:1034400097012F5F3F4F79018111F3CF0150A5CF35
:103450008430B9F492E0E92EF12CC8010F5F1F4FC0
:103460000E949E2EE1E0F0E0EC0FFD1FEE0DFF1D2F
:103470008083882379F08C3731F4FE01EE0DFF1D37
:1034800012827801BFCFFFEFEF1AFF0A27E0E216A2
:10349000F10419F780917C048770882361F0D601CC
:1034A00015968C91882339F080917E0482FF03C0A9
:1034B00082E00E94F80F2896EEE00C946F2B7501C5
:1034C000A1CF923039F40E5F1F4F0E9431150F5F6C
:1034D0001F4F9BCF933029F40E5F1F4F0E94C815DA
:1034E000F6CF943019F00F5F1F4FF1CF0E5F1F4FD3
:1034F00020E030E0A8014F5F5F4F8053990B8A3086
:10350000910560F02115310511F38FE99FE00197D6
:10351000F1F700C0000021503109F4CF629EB001E4
:10352000639E700D11249C01260F371FF8018181C5
:103530008A01E0CFE82FF0E0E55DF44F7490282F8A
:1035400026952695269530E0F901E55EF44F949195
:103550008770F901E55FF44FA490B12C082E02C0EA
:10356000B594A7940A94E2F7A1E0AA22BB24F9013A
:10357000E550F54F8490912C082E02C095948794C5
:103580000A94E2F7B1E08B229924292F30E002C09F
:10359000359527958A95E2F720FD0BC0AB28E9F415
:1035A000872D0E9422168114910409F490CF8CE299
:1035B0003DCF81EE0E943115AB2829F4872D0E9462
:1035C000221681EE11C086EE0E943115872D0E94D1
:1035D000221686EE0E94C815F4CF86EE0E943115A1
:1035E000872D0E94221686EE0E94C815DCCF26E2A7
:1035F00041EE61EE0E9448194DCF27E245EE65EE9F
:10360000F9CF26E241EE60EEF5CF27E245EE64EE1B
:10361000F1CF26E241EE62EEEDCF27E245EE66EE17
:10362000E9CF28E241E0EBCF10927504C801905732
:10363000839708F0CFC084E090E00E94AC2E909376
:103640007E0480937D04F801E150F047E232F105F9
:1036500020F4EB5EF04D0C94A62B80917D048160EC
:1036600080937D0460917D0470917E0484E090E0FD
:103670000E94E02E0E9442160DCF80917E04886049
:1036800080937E04EFCF80917D048260E9CF8091AA
:103690007D048460E5CF80917D048860E1CF8091D6
:1036A0007E048160EDCF80917E048260E9CF8091BD
:1036B0007D048061D5CF80917D048062D1CF8091DF
:1036C0007D048064CDCF0E94421680917D04806885
:1036D000C7CF80917D048C60C3CF80917E048360CE
:1036E000CFCF80917D048E7FBBCF80917E04877F7A
:1036F000C7CF80917D048D7FB3CF80917D048B7F78
:10370000AFCF80917D04877FABCF80917E048E7F89
:10371000B7CF80917E048D7FB3CF80917D048F7E63
:103720009FCF80917D048F7D9BCF80917D048F7B87
:1037300097CF0E94421680917D048F7791CF809120
:103740007D04837F8DCF80917E048C7F99CF809183
:103750007D0482FB992790F921E0922790FB82F962
:1037600090FB83F97DCF80917E04982F9095917086
:103770008E7F892B90FB81F983CF90917D04892FD7
:103780008F7B96FF80646CCF0E94421690917D04DF
:10379000892F97FB87F9805863CF61E08EE090E036
:1037A0000E94C22E5FCF60E0F9CF90917D04892FF7
:1037B0008F7E94FF806154CF90917D04892F8E7FFE
:1037C00090FF81604DCF90917E04892F877F93FF7A
:1037D000886056CF0631FCE71F0709F07DC0809155
:1037E00077048A7A91E0811101C090E09093760489
:1037F000882331F085E30E94B9060E94020E4ACE6A
:1038000089E2F9CF85E33EC3809177048272F801A3
:10381000E052F847E531F10508F08BC0E95CF04D66
:103820000C94A62B8091C10480FF17C0282F2E7FF7
:103830002093C1043091C2044091C3045091C40448
:103840006091C5047091C6048091C7049091C8042A
:103850000E94500E0E944F0B1DCE81608093C104C8
:1038600061E086950E94800F15CE4DE450E168E43A
:1038700070E10E9456090ECE48E450E16DE470E11B
:10388000F8CF4DE650E163E670E1F3CF43E650E157
:103890006DE670E1EECF44E850E167E770E1E9CF13
:1038A00047E750E164E870E1E4CF4EE950E161E9B7
:1038B00070E1DFCF41E950E16EE970E1DACF41EB31
:1038C0005EE067E97EE0D5CF47E95EE061EB7EE050
:1038D000D0CF61E081E0C6CF07372CE7120709F4AB
:1038E00081C082E008373CE7130709F47CC00A3541
:1038F0009CE7190709F4A0C008F083C00130BCE7B9
:103900001B0709F497C00330ECE71E0709F48CC0CD
:103910000115FCE71F07B9F40E9442164FEF84E33C
:103920009CE0415080409040E1F700C000000E94C0
:10393000800B07374CE7140709F45DC008378CE7A4
:10394000180709F45CC0F6018581E080F1808823C6
:1039500009F476C0C7010E94820D182F682FC70195
:103960000E947C06B701812F0E94630D0E94DA0736
:10397000E82E192FD6011596BC9015971696AC9087
:10398000A2948FE0A82280917C0487708823F1F0B4
:10399000FB2CBB20E1F0892F807F803451F080E246
:1039A0008E0D883098F0A11004C0892F807E80325F
:1039B00069F080917E0482FF09C082E00E94F80FC6
:1039C00080917C048770FF24F3948111F12CE12F06
:1039D000E295EF70103C08F09AC0F0E0E45BF04D27
:1039E0000C94A62B81E00E94DC0F43E062E081E0B2
:1039F0000E9427104FCD81E00E94E80FF6CF82E0B1
:103A0000FBCF0B352CE71207C9F00C353CE7130749
:103A100009F099CF80917E0482FB882780F991E09C
:103A200089270E9410108FCF6FEF7FEF80E090E02A
:103A30000E94E02E0E94691681E0F3CF80E0F1CF72
:103A4000C7010E949606182F8DCF012F0F701031DD
:103A500010F00295007FBB20B9F0002369F080E2EE
:103A60008E0D883010F0E11009C080917704802B12
:103A7000809377040E94020E8E2D41C080917F04B6
:103A8000802B80937F04F6CF8E2D0E94C8150023D3
:103A9000F1F180E28E0D883010F0E11004C0802F2B
:103AA0000E94DF0606C0009580917F0480238093EA
:103AB0007F040E94020E2BC0012F0F70107F103266
:103AC00011F00295007FEE2051F0B1E0EB1609F401
:103AD0006CC0BB2009F478C0AA20D1F1CDCF809171
:103AE0007E0482FD31C0BB2069F0002339F0809153
:103AF0007704802B809377040E94020E80E00E945E
:103B0000311505C080E00E94C8150111C8CFFF2003
:103B1000B1F080917C0480FD12C0D60115961C92F4
:103B20008695869586950E94DC0FC6010E94A31992
:103B300080917C048695869586950E94E80F60E0CA
:103B4000C6010E94AD0DB7CCBB2099F0A11004C0F6
:103B5000802F0E943F0EDBCFE1E0AE12D8CF8091E4
:103B60007804902F9823091791F2802B8093780482
:103B7000CECFA110CCCF802F0E94490E9091780417
:103B8000802F8923882329F0802F80958923809393
:103B9000780480917904902F9823992309F4B7CF62
:103BA0000095082300937904B2CFBB2029F0F5E0FB
:103BB000FA1508F4ACCFCCCF24E02A1508F4A7CF2F
:103BC000802F0E94490EA3CFAA20D1F339E3E3123C
:103BD00009C04FEF87EE93E0415080409040E1F7FD
:103BE00000C000008E2D0E94C81591CF812F8695B0
:103BF00086958370882369F0813009F088CF8E2DF7
:103C0000912F9370B11002C080E090E00E94900963
:103C10007ECF8E2D912F9370B11002C080E090E086
:103C20000E946A0974CF6B2D8E2D0E946C146FCF89
:103C3000812F8370811137C0B1102AC04E2D42955B
:103C400046954770440F440F2E2D2F70042E01C04F
:103C5000220F0A94EAF79E2D9071992341F08FE08C
:103C600090E001C0880F4A95EAF7982F9095169535
:103C700016951370123091F0892F822B133031F08A
:103C800080917A04113039F0292B82230E94220678
:103C90000E945D093CCF822B892BF8CF292B809184
:103CA0007A048227F3CFBB2069F110FFF1CF4E2DAC
:103CB000429546954770440F440F2E2D2F70042EC9
:103CC00001C0220F0A94EAF79E2D9071992341F0CA
:103CD0008FE090E001C0880F4A95EAF7982F909501
:103CE000169516951370123099F0892F822B133088
:103CF00031F080917B04113041F0292B82230E9406
:103D0000D70FC6CF823020F2D2CF822B892BF7CFAC
:103D1000292B80917B048227F2CF1F70BB2039F0C2
:103D2000812F0E94DC0F8E2D0E943F0EB1CF8E2D71
:103D30000E94490E812F0E94E80FAACFA2EFEA1637
:103D4000A9F1AE1588F0B0EFEB16D9F0E1EFEE1661
:103D500009F443C0BB2009F467C0AA2009F461C07C
:103D60008E2D0E94311594CFF3EFEF1631F124EF31
:103D7000E21679F1B110F1CFA11065C0812F8F71DA
:103D8000DACFBB2081F034E03A1508F481CF1F71FF
:103D900081E090E0012E01C0880F0A94EAF790912B
:103DA0007B048927ACCF45E0A416EFCF812F8F711C
:103DB000B110C1CF0E94DC0F6BCF80E0BB2009F4B3
:103DC0009ECF1F7181E0012E01C0880F0A94EAF78F
:103DD00096CF80917E0482FD06C0812F8F71BB201B
:103DE00009F4A9CFE7CFBB2089F01F71812F0E9472
:103DF000DC0F80917E0482FF07C0A8E01A9FC001FB
:103E00001124836080937C04812FD4CF81E00E94B1
:103E1000F80FB1E0BA1508F03BCF82E00E94F80F2E
:103E200037CF812F8F71C6CFAA2009F4A7CFE9E33E
:103E3000EE1209C0FFEF27EE33E0F1502040304092
:103E4000E1F700C000008E2D0E94C81521CFF801B7
:103E5000E851FC47E730F10508F0E6CBE85AF04DB1
:103E60000C94A62BF801E851FC47E730F105B0F3BC
:103E70000631ECE71E0709F0C7CC8091760481116A
:103E8000C1CC89E20E94D206B8CC8091C0048031B6
:103E900078F48091BF04882359F0E0918104209147
:103EA00080043091BB044091BA0457E02E1301C046
:103EB00008956E2F70E05E9FF0011124DF01AE5770
:103EC000BB4F14968C911497882361F111968C91B5
:103ED0001197831327C08C91841324C015968C915D
:103EE000159781111FC012968D919C91A091BC04D1
:103EF000B091BD048A1B9B0B883C910598F480917E
:103F0000C0048F7080618093C004E857FB4F8081AC
:103F10008F70806180838AEB94E00E94A3190E94D5
:103F2000AF060895FB013196E770C0CFADE0B0E079
:103F3000ECE9FFE10C94532B8C0186E0F801DE01E3
:103F4000189601900D928A95E1F7F8017080F5803E
:103F5000A280B38084819AEB892E94E0992E6090A0
:103F6000BE04611018C0882399F0FF2009F413C122
:103F7000C8010E94DC0D882309F40DC187E0F80117
:103F8000AAEBB4E001900D928A95E1F70E94451FDB
:103F9000FF24F39453C0D090BF042091BC0430910F
:103FA000BD04A501421B530BDD2009F4C4C0483CED
:103FB000510508F07AC0882359F38091BB04C18071
:103FC000E090C004FFE0FE1508F459C0C81215C007
:103FD0008091BA04871111C0F1104BC08E2D8F70E3
:103FE00080618093C0048AEB94E00E94A3198091C1
:103FF000C004F8018683F12C21C0F1103AC040E0E2
:104000006C2D872D0E94300B40E06C2D872D0E9477
:10401000300BF82E8111EFCF888599850E94CD0D48
:10402000292F22952F70903470F49F702230A0F0C9
:104030009923B1F0F8019681903190F48F2D2D964F
:10404000EEE00C946F2B2A5F2F70223068F0C801CD
:104050000E94A319FD2CF2CF992311F0882371F34C
:10406000805E883058F3F3CF803F40F3815F823029
:10407000F9CF8091C00481608093C004BCCFC81286
:104080003CC08091BA04871138C0F11036C0F801E5
:10409000E682C8010E94A31987E0F801AAEBB4E008
:1040A00001900D928A95E1F773CFE090C004FFE094
:1040B000FE1550F08AEB94E00E94A31987E0F4010A
:1040C00011928A95E9F797CF882309F461CF9091EF
:1040D000BB04F8018181981310C08091BA04871144
:1040E0000CC0F1100AC0E682C8010E94A31987E043
:1040F000F40111928A95E9F74BCFC8010E94DC0DBB
:10410000882309F448C0FF2009F445C08091C00409
:10411000803208F433CF8091BA049091BB049A8323
:104120008983BC82AB826D821E82EF82CE010196B2
:104130000E94A31923CF483C510508F0BFCF882324
:1041400009F426CFFF2039F19091BB0481819813A7
:1041500018C08091BA04871114C08091C00480FDFA
:104160009BCF803108F498CF8683807F803F09F40D
:1041700090CF8681982F907F905F8F70892B868358
:1041800088CFC8010E94DC0D8111F8CE8091C00457
:1041900081608093C004C8010E94A319F9CEABE1ED
:1041A000B0E0E5EDF0E20C945E2B4E8B5F8B688FF8
:1041B000798F8A8F9B8F911110927F041D8A86E0E0
:1041C000FE017696DE011F9601900D928A95E1F729
:1041D0008B89882329F061E0CE010F960E94AD0DF6
:1041E00087E0FE013F96DE01189601900D928A95B8
:1041F000E1F7CE0108960E94961F81112BC087E03F
:10420000FE013896DE01119601900D928A95E1F734
:1042100020918004409181048C858823D9F030E07E
:10422000C90101968770992750E084179507E9F036
:1042300097E0929FD001939FB00D1124AE57BB4FD2
:10424000FE01319601900D929A95E1F780938004DA
:104250000E94AF0617E08091810490918004891339
:1042600012C06B96E3E00C947A2B0E9442161092D7
:1042700080041092810487E0EAEBF4E0DF011D92F4
:104280008A95E9F7E7CF189FC00111248E579B4FFD
:104290000E94961F882329F38091810490E0019663
:1042A0008770992780938104D6CFA6E0B0E0EBE534
:1042B000F1E20C945D2B0E9438148C018091420431
:1042C000909143048017910779F019821A820E9415
:1042D0003814BC0149815A8180E090E00E94CF20CF
:1042E00010934304009342042696E4E00C94792B47
:1042F000A0E0B0E0EEE7F1E20C94512BC3E04C2ECD
:10430000C2E05C2E03E411E0912CEE24E394F12C46
:10431000D2017D902D011E92E80189918E01E82F36
:10432000E295EF70F0E021A18F70A70102C0440F69
:10433000551F8A95E2F7CA01242B21A322A1842EBE
:104340008094282122A350EA5A95F1F76FE471E096
:104350006B0140E050E0E60169906E01262D229548
:104360002F70205E30E0E901A8803C91B12C262D11
:104370002F7002C0B594A7942A95E2F720E0A0FC24
:1043800006C02E2D042E01C0220F0A94EAF7232B1B
:104390002C934F5F5F4F46305105E9F691A189227A
:1043A00081A292A1892B82A381E09C91971101C0E7
:1043B00080E0982AD9E04D16D2E05D0609F0A8CF3A
:1043C00020E030E001E010E0B9E4EB2EB1E0FB2E9C
:1043D000FB018191BF01E82FE295EF70F0E041A170
:1043E0008F70D80102C0AA0FBB1F8A95E2F7CD01DA
:1043F0004A2B41A352A14A2F4095542352A3B0EA1D
:10440000BA95F1F7D801022E01C0AA0F0A94EAF773
:104410008A2E80945A2FC9E0D2E0A3E44A2EA1E06C
:104420005A2EA12CB990D2017D902D01C72CC29497
:104430009FE0C922B0E2CB0ED12CD601CC90D12C7A
:10444000B72DBF7002C0D594C794BA95E2F77B2C04
:10445000C0FC44C0752A6E01A1E0CA1AD108D60179
:104460007C92B71411F0AA24A394E414F504D1F6B5
:1044700091A1492341A392A1892B82A39A282F5F5E
:104480003F4F2630310509F0A3CF992049F181E053
:104490008093A8010E9438149093A7018093A601ED
:1044A0008091A6019091A7010E9439190597E0F02B
:1044B0004CE050E063E072E085E394E00E94F22B70
:1044C000892B49F08CE0E3E0F2E0A5E3B4E0019051
:1044D0000D928A95E1F71092A80106C07820BBCF13
:1044E0008091A8018111DCCFCDB7DEB7E0E10C945B
:1044F0006D2BCDB7DEB7EC970FB6F894DEBF0FBECD
:10450000CDBF85B7806885BF85B7806885BF84B714
:10451000877F84BF0FB6F894A8958091600088616A
:1045200080936000109260000FBE80E890E00FB6AC
:10453000F89480936100909361000FBE83EF98E040
:1045400090939D0180939C010E947F0A0E94D50A4E
:104550008091E20084608093E2007894809141042D
:10456000882399F08091E9001091EC0017951127AC
:1045700017958F70182B1092E9008091E80083FD49
:104580000E947F161F701093E90082E084BD93E0C3
:1045900095BD9AEF97BD80936E000E94E90C811142
:1045A00002C00E94D90C81E080932E0422982A9A9E
:1045B00026982E9A8FE891E00197F1F700C000004D
:1045C00020912E044FE254E0FA018E2F841B8217B3
:1045D00008F4D4C0E3E4F1E02FE431E0AF0161E09E
:1045E00070E0DA018D91AD01A82FA295AF70B0E017
:1045F00091961C9191978F705B0102C0AA0CBB1C15
:104600008A95E2F7C5019A2D9095912391969C93F6
:10461000919792969C919297892B92968C932417BE
:104620003507F9F64FE451E065E571E08A01EE24C3
:10463000E394F12CD8018D918D01A82FA295AF7034
:10464000B0E09196DC9091978F70570102C0AA0C50
:10465000BB1C8A95E2F7C5019A2D90959D219196F4
:104660009C93919792969C919297892B92968C937A
:1046700060177107F9F601E010E0DA018D91AD01E4
:10468000A82FA295AF70B0E09196FC9091978F7093
:10469000580102C0AA0CBB1C8A95E2F7C5019A2DED
:1046A00090959F2191969C93919792969C91929729
:1046B000892B92968C9364177507F9F641E050E0C8
:1046C0008191A82FA295AF70B0E091966C919197CF
:1046D0008F706A0102C0CC0CDD1C8A95E2F7C6011E
:1046E0009C2D9095962391969C93919792969C9150
:1046F0009297892B92968C932E173F0709F78CE09F
:10470000E3E0F2E0DF01A82E1D92AA94E9F7E5E3C9
:10471000F4E0DF011D928A95E9F780E090E00E94C5
:10472000AC2E863E9E4F21F40E94E90C811102C0FE
:104730000E94AB1082E090E00E949E2E80931F04A6
:1047400084E090E00E94AC2E90937E0480937D04E0
:104750000E947821EFE3FCE93197F1F700C00000F7
:104760000E9478218091350480FF14C06FEF7FEFA5
:1047700080E090E00E94E02E0E94800B93B183B114
:1047800086FB882780F9880F92FB992790F9892B5F
:1047900081931BCF83E090E00E949E2E0E94220610
:1047A00080917B040E94A40F83E080931B0480E22D
:1047B00080931A040E94402A6BE070E080EF9AE038
:1047C0000E941C11882309F443C080911B0465E0FA
:1047D00070E081FD37C18BEE9AE00E941C118823A6
:1047E000B9F16DE070E089ED9AE00E941C11882318
:1047F00079F10E94B60969AF7AAF8BAF9CAFDC014B
:10480000CB01805A9541AF4FBF4F809316049093D0
:104810001704A0931804B0931904E3E1F2E080E0D8
:1048200092E0DF018C011D9201501040E1F7F093FE
:104830001202E09311028FEF9FEF9093100280938A
:104840000F0281E0809315048093140410921304E6
:1048500080911C0481118FC080E090E00E94AC2EFA
:10486000863E9E4F21F40E94E90C811104C00E94F3
:10487000AB100E94830E88E090E00E94A62E6B0190
:104880007C0184E290E00E949E2E282F30E040E0E0
:1048900050E060E070E080E090E000E20E94B32B26
:1048A000E22FA32EB42EB52FA62FF72F9701860146
:1048B00040E050E0BA01EC29A12AB22AB32BA42B84
:1048C000F52B862B972BE093C104A092C204B092E3
:1048D000C304B093C404A093C504F093C6048093AA
:1048E000C7049093C804E230C8F50E94830E88E0A4
:1048F00090E00E94A62E6B017C0184E290E00E9471
:104900009E2E282F30E040E050E060E070E080E034
:1049100090E000E20E94B32B5901B42FA52FF62F8F
:10492000E72F9701860140E050E0BA01AC28B12A98
:10493000B22BA32BF42BE52B862B972BA092C10433
:10494000B092C204B093C304A093C404F093C5040E
:10495000E093C6048093C7049093C8040E9448095A
:104960008091C10480FF04C060E086950E94800FA2
:1049700081E080931C0488E091E09093450480934B
:10498000440468E1A62EB12CFF24F39474E0672E52
:10499000712C80914104853049F480914104853027
:1049A00009F453C00E9442160E945D090E947821BA
:1049B00000E214E055E3C52E54E0D52E2CE234E09D
:1049C000D601F80191918D912E173F0709F48FC000
:1049D0009817C1F3E12CD6019D906D01F80141902B
:1049E0008F01491431F14924812C55245394842D8D
:1049F00085218823B1F08982EA820E9438149C8341
:104A00008B83F1E0FD8391E0892D8521811101C027
:104A100090E09E8349815A816B817C818D810E94C7
:104A2000CF208394550C26E08212E1CFF801319714
:104A30009082E3943CE0E312CECF0E94B609EE24CC
:104A4000E3945AC086EE9AE0C8CE80914104843047
:104A500021F10E94491110921D0420E40FB6F89430
:104A6000A895A09260000FBE2093600083B7817F5D
:104A7000846083BF83B7816083BF7894889583B750
:104A80008E7F83BF0FB6F894A895809160008861EF
:104A900080936000109260000FBE80911E048823F6
:104AA00009F47BCF0E947821E5E3F4E081E494E00F
:104AB0002191211104C08E179F07D1F76ECF80E19D
:104AC00089BD82E189BD09B400FEFDCF8091D80087
:104AD0008F7D8093D8008091E00082608093E00019
:104AE0008091E00081FDFCCF0E94421656CF9813C2
:104AF00071CF0E945521E12C10E000E09DEF592E6E
:104B000022E0422E3CEF332E43E0242E80912E04EF
:104B1000181750F0002309F48BC00E94B6090E94B8
:104B200066120E945B1188C0C12ED12C93B183B153
:104B300086FB882780F9880F92FB992790F9892BAB
:104B4000D601A15DBB4FEC919E2F9370891709F49C
:104B50006DC0EE0FEE0FE82BEC93EF70F0E0EB5A28
:104B6000FE4FC601835D9B4F4C018081D4019C9117
:104B7000890F8C9320E084302CF1F601E45DFB4F2B
:104B800080818F5F80831DA73EA60E943814BC01E0
:104B90008FA798AB29AAFAAA4DA55EA583E091E05C
:104BA0000E94CF201BAB3CAA0E943814BC018DABE5
:104BB0009EAB2FAA18AE4BA95CA983E090E00E949F
:104BC000CF2021E0F40180818D3F2CF5F601E45DDA
:104BD000FB4F80818150808319A35AA20E94381410
:104BE000BC018BA39CA34DA2FEA249A15AA182E0C5
:104BF00091E00E94CF201FA358A60E943814BC0148
:104C000089A79AA74BA61CA64FA158A582E090E0C1
:104C10000E94CF2021E0D4018C91082E000C990B2A
:104C2000B3010E94922BF4018083022B1F5F6ECF91
:104C30000E946612E11075CF86E0EFE6F4E0DE0137
:104C4000119601900D928A95E1F7E0907004009121
:104C5000710410917204C0907304D0907404109287
:104C60007104109272041092730410927404812FD4
:104C7000802B882379F080913204909133040E9434
:104C800039199C0180916D0481115CC02B30310574
:104C900008F05EC08C2D8D29882379F08091300436
:104CA000909131040E9439199C0180916C0481110A
:104CB00088C02B30310508F08AC0809170048E11B5
:104CC00016C080917104882311F0081310C09091D0
:104CD0007204992311F019130AC020917404211150
:104CE00006C020917304211102C0892B81110E94FA
:104CF000441486E0FE013196AFE6B4E001900D92D7
:104D00008A95E1F70E945D0990913404891721F09A
:104D1000809334040E94B60980914104843009F0E4
:104D200038CE83E08093E9008091E80082FF31CEA5
:104D30008091E80085FD84C08091E8008B778093A6
:104D4000E80027CE2531310508F4A4CF8F3F19F0B4
:104D50008F5F80936D04002359F00E9403099FEF39
:104D600010160CF491E0899F802D1124809371041A
:104D7000112359F00E94030991E011160CF09FEFE6
:104D8000899F802D1124809372048091710488235F
:104D900009F480CF90907204992009F47BCF0E948F
:104DA000F508811101C081E080937104892D0E9472
:104DB000F508882319F0809372046CCFF092720486
:104DC00069CF2135310508F478CF8F3F19F08F5F17
:104DD00080936C04CC2059F00E9423099FEF1C148F
:104DE0000CF491E0899F802D112480937304DD20C1
:104DF00059F00E94230991E01D140CF09FEF899F48
:104E0000802D11248093740480917304882309F405
:104E100054CFD0907404DD2009F44FCF0E94F508E0
:104E2000811101C081E0809373048D2D0E94F508EB
:104E3000882319F08093740440CFF09274043DCF1E
:104E40000E944E0A882379F08091E8008B77809346
:104E5000E8009981EFEFE90FE53190F5F0E0E15AD4
:104E6000F04D0C94A62B80E2C82ED12C8E010F5F42
:104E70001F4F8091E80085FD0AC08091E8008B7784
:104E80008093E8000E944E0A882399F3DDCF809139
:104E9000F100D8018C93B1E0CB1AD108C114D10430
:104EA00099F20F5F1F4FE5CF1A828CE08B831AC0F7
:104EB0008A81833049F138F4813061F08230D9F051
:104EC0008FEF89830FC08430D9F71B821C821D822B
:104ED0001E8208C00E94B6090E94AC2B6B837C83A3
:104EE0008D839E8340E250E0BE016F5F7F4F82E082
:104EF0000E94A40B4ECD88E390E00E949E2E1B8260
:104F00001C821D828E83EECF8B8190E0DE01149691
:104F10008C3091053CF7FC01FF27EB5CFB4F2081B7
:104F20002D930196F5CF8A81823071F0853041F65C
:104F30008091C10480FF7AC08091C1048E7F8093EC
:104F4000C1040E944F0BCECF0B811C812D813E816D
:104F500009AF1AAF2BAF3CAFC901B8010E94AC2B0F
:104F600088E390E00E94C22EBDCF4C816B818A8184
:104F70000E94020D9827892798279E838D83B2CFA0
:104F80002D813E813227232732274C816B818A81F4
:104F90000E94250CA7CF0E94720CA4CF8A81823078
:104FA00071F5983009F44EC0993009F477C08B81BF
:104FB0008330D1F0F0F5813071F0823009F092CF7A
:104FC0008C81882309F4B8CF0E94591060E08C814D
:104FD0000E94800F87CF20E04C816091C3048091B4
:104FE000C2040E94CB0E7ECF8C818093C5047ACF01
:104FF0008091C4048C8376CF8091C504FBCF8091CF
:105000007B049830F9F09930C1F18B81833061F3E2
:1050100080F4813001F3823009F064CF60E08C814C
:105020000E94800F8C81882309F486CF0E9459103A
:1050300059CF843009F056CF20E04091C4046D81EF
:105040008C81CFCF8B818330B9F258F4813081F2DB
:10505000823009F047CF8091C10480FF0CC0869553
:10506000C9CF843009F03ECF8091C2048C838091F7
:10507000C3048D8337CF80E0BDCF0E9410064091DE
:10508000C1045091C2046091C3047091C40414E03F
:10509000819FC001112485960E94D42E0E94760E15
:1050A00021CF80E18A831ECF81E08A8387E7FECE0D
:1050B0008A809B809824892498248C816401C80E5E
:1050C000D11C8E010B5F1F4F8C149D0409F40ACF75
:1050D00080E027E7821621E0920628F4C401875772
:1050E0009D4F0E949E2ED8018D938D01BFEF8B1A8C
:1050F0009B0AEACF0A811B81102701271027FE0196
:1051000031964F018C816F01C80ED11C8C149D0407
:1051100009F4E8CE0737F1E01F0740F4D4011496F4
:105120006C91C80187579D4F0E94C22E0F5F1F4F81
:10513000BFEF8B1A9B0AEACF0E94C90CD3CE84E042
:10514000B1CF0A811B811027012710278C814801CC
:10515000880E911C6E01E5E0CE0ED11C08151905D4
:1051600009F4C0CE80E00034F2E01F0720F4C8014B
:10517000C9960E949E2ED6018D936D010F5F1F4F21
:10518000EDCF0A811B81102701271027FE013196E0
:105190004F018C816F01C80ED11C8C149D0409F441
:1051A000A1CE0034F2E01F0738F4D40114966C91BC
:1051B000C801C9960E94C22E0F5F1F4FBFEF8B1A06
:1051C0009B0AEBCF41E08C81811101C040E06B81F3
:1051D0008A810E94310DCECE2D813E813227232738
:1051E000322741E08C81811101C040E06B818A81CE
:1051F0000E944C0C77CE78941F921FB61F921124F8
:105200008F939F93AF93BF938091C6019091C701F5
:10521000A091C801B091C9010196A11DB11D809353
:10522000C6019093C701A093C801B093C901BF9173
:10523000AF919F918F911F901FBE1F9018951F9245
:105240000F920FB60F9211242F933F934F935F93BA
:105250006F937F938F939F93AF93BF93EF93FF933E
:105260008091E10082FF09C08091E20082FF05C0C9
:105270008091E1008B7F8093E1008091DA0080FFD4
:1052800024C08091D80080FF20C08091DA008E7FFA
:105290008093DA008091D90080FF9BC080E189BDB6
:1052A00082E189BD09B400FEFDCF81E08093410415
:1052B0008091B401811109C00E947F0A0E94D50A21
:1052C0008091E20084608093E2008091E10080FFA1
:1052D00017C08091E20080FF13C08091E2008E7FB2
:1052E0008093E2008091E20080618093E2008091EF
:1052F000D80080628093D80019BC85E08093410477
:105300008091E10084FF29C08091E20084FF25C0E4
:1053100080E189BD82E189BD09B400FEFDCF8091A5
:10532000D8008F7D8093D8008091E1008F7E80939C
:10533000E1008091E2008F7E8093E2008091E200A4
:1053400081608093E2008091B301882309F447C013
:1053500084E080934104809141048091E10083FFC7
:1053600027C08091E20083FF23C08091E100877F06
:105370008093E10082E0809341041092B301809118
:10538000E1008E7F8093E1008091E2008E7F809328
:10539000E2008091E20080618093E20042E060E000
:1053A00080E00E949E0A8091F00088608093F00067
:1053B000FF91EF91BF91AF919F918F917F916F91ED
:1053C0005F914F913F912F910F900FBE0F901F90C3
:1053D000189519BC109241041092B40176CF8091B7
:1053E000E30087FF02C083E0B4CF81E0B2CF1F9219
:1053F0000F920FB60F921124FF920F931F932F93CA
:105400003F934F935F936F937F938F939F93AF934C
:10541000BF93CF93DF93EF93FF9309EE10E0F80172
:105420008081C091EC00C795CC27C7958F70FC2E6A
:10543000F82A1082C0EFD0E08881877F8883789433
:105440000E947F16F8011082888188608883CF2DA2
:10545000CF70C083FF91EF91DF91CF91BF91AF915A
:105460009F918F917F916F915F914F913F912F917C
:105470001F910F91FF900F900FBE0F901F901895E6
:105480001092B9008CE08093B8000895A0E0B0E0DD
:10549000ECE4FAE20C94562BB82EEB010E9438147F
:1054A0006C01EE24E394F12CC431D10560F025E0C9
:1054B000E22EF12CCF3FDC0731F0CE0164E170E049
:1054C0000E943B2B7B0184EAA82E94E8992E10922F
:1054D000BC00A092BC000E943814182F092F8091A4
:1054E000BC0087FF0CC08091B900887F8830F9F03C
:1054F0008091B900887F8031D1F00FEF08C0812FF3
:10550000902F0E943919E816F90648F70EEF1FEFA1
:10551000CF3FDC07E1F2C6010E943919C817D9074D
:10552000B0F6C801CDB7DEB7EBE00C94722BB092A9
:10553000BB009092BC000E943814182F092F809154
:10554000BC0087FF0AC02091B900287F283111F0E4
:10555000203499F600E010E0E4CF812F902F0E94D4
:105560003919E816F90658F7D1CF0F931F93CF9347
:10557000DF93EB018093BB0084E88093BC000E9422
:105580003814182F092F8091BC0087FF11C020917B
:10559000B900287F81E090E0283211F480E090E0AB
:1055A000919581959109DF91CF911F910F91089568
:1055B000CF3FDC0741F3812F902F0E943919C81784
:1055C000D90708F78EEF9FEFEECFA0E0B0E0EBEE4B
:1055D000FAE20C94592B6B018A01F22EE32E622F12
:1055E000732F0E94462AAC01E6010C0D1D1DC01749
:1055F000D10711F057FF09C084E98093BC00CA01AC
:10560000CDB7DEB7E8E00C94752B6F2D7E2D899118
:105610000E94B52AAC01EBCFA0E0B0E0E2E1FBE2F2
:105620000C94592BC62F6A017901B8010E94462AB1
:105630009C0197FD0DC0B8018C2F0E94B52A9C01DA
:10564000E601EC0CFD1CCE15DF0511F037FF09C09B
:1056500084E98093BC00C901CDB7DEB7E8E00C94C3
:10566000752BB80189910E94B52A9C01ECCF84E981
:105670008093BC000895AA1BBB1B51E107C0AA1F61
:10568000BB1FA617B70710F0A61BB70B881F991FE3
:105690005A95A9F780959095BC01CD0108952F9258
:1056A0003F924F925F926F927F928F929F92AF92B2
:1056B000BF92CF92DF92EF92FF920F931F93CF93FF
:1056C000DF93CDB7DEB7CA1BDB0B0FB6F894DEBF96
:1056D0000FBECDBF09942A88398848885F846E84BC
:1056E0007D848C849B84AA84B984C884DF80EE8006
:1056F000FD800C811B81AA81B981CE0FD11D0FB60F
:10570000F894DEBF0FBECDBFED010895991B79E07F
:1057100004C0991F961708F0961B881F7A95C9F741
:105720008095089597FB072E16F4009407D077FD17
:1057300009D00E943B2B07FC05D03EF49095819543
:105740009F4F0895709561957F4F0895EE0FFF1F4D
:105750000590F491E02D0994692796276927782709
:10576000872778270895002E083090F0982F872FEC
:10577000762F652F542F432F322F22270850F4CF36
:10578000220F331F441F551F661F771F881F991F45
:105790000A95B2F7002D089597FD1094002E083059
:1057A00098F00850232F342F452F562F672F782F2E
:1057B000892F912DF4CF15949795879577956795B7
:1057C00057954795379527950A95AAF71124002DE7
:1057D0000895FB01DC0102C005900D92415050403C
:1057E000D8F70895FB01DC0104C08D910190801968
:1057F00021F441505040C8F7881B990B0895AEE042
:10580000B0E0E5E0FCE20C945D2B0D891E898F89E8
:10581000988D26E02C831A83098397FF02C080E0CD
:1058200090E801979E838D83AE01455E5F4F698D41
:105830007A8DCE0101960E942F2C4D815E8157FDFD
:105840000AC02F813885421753070CF49A01020FC2
:10585000131FF80110822E96E4E00C94792BABE034
:10586000B0E0E5E3FCE20C944F2B7C013B018A01A4
:10587000FC0117821682838181FFB9C19AE0292E2B
:10588000CE0101965C01F7019381F30193FD8591AF
:1058900093FF81913F01882309F446C1853239F491
:1058A00093FD859193FF81913F01853229F4B701E2
:1058B00090E00E94102EE7CF912C412C512CFFE15B
:1058C000F51538F08B3209F188F4803201F183321A
:1058D00021F157FC3AC020ED280F2A3040F556FE42
:1058E0001FC0929C200D1124922E06C08D3291F083
:1058F000803379F7689450F8F30193FD859193FF15
:1059000081913F018111DBCF20C0689451F86894E8
:1059100052F8F2CF689453F8EFCF689454F8ECCF74
:10592000429C200D1124422E689455F8E5CF8E320A
:1059300029F456FCF9C0689456F8DECF8C3619F479
:10594000689457F8D9CF8836B9F2982F9F7D95542F
:105950009330C0F08336A1F18337C1F1833509F06C
:105960005BC0F801C190D1908F01692D70E056FCA9
:1059700002C06FEF7FEFC6010E94FA2D4C016894C0
:1059800057F80AC00C5F1F4F2FE3298388248394A4
:10599000912C6501E89457F853FC04C0481419048D
:1059A00009F018F5342C8114910431F5332009F4F1
:1059B0006ACFB70180E290E00E94102E3A94F6CFB1
:1059C000F801808189830E5F1F4FE0CFF801C190FD
:1059D000D1908F01692D70E056FC02C06FEF7FEF10
:1059E000C6010E94052E4C01D5CFB70180E290E0A0
:1059F0000E94102E4A94D2CFF60157FC859157FE93
:105A000081916F01B70190E00E94102E31103A94FD
:105A1000F1E08F1A9108C7CF843619F0893609F062
:105A200074C0F80157FE6AC06191719181919191A2
:105A30008F01252D2F76D22E97FF09C09095809546
:105A4000709561957F4F8F4F9F4F6894D7F82AE0EC
:105A500030E0A5010E94402EC82ECA188C2C5D2C67
:105A6000D6FE0CC0E89450F8C91440F4D4FE05C02A
:105A7000D2FC03C0FD2DFE7E5F2E892C54FE8FC00C
:105A8000FE01EC0DF11D8081803309F081C0252DD0
:105A9000297E522E852D8870382E53FC8FC050FEE3
:105AA00089C09C2C841418F44C0C942C981854FE27
:105AB0008BC0B70180E390E00E94102E52FE09C017
:105AC00088E790E051FE02C088E590E0B7010E94AF
:105AD000102EC91408F484C0CA94D12C9FEFC91A9F
