:100000000C9407030C944E030C944E030C944E0373
:100010000C944E030C944E030C944E030C944E031C
:100020000C944E030C944E030C946D260C944127B3
:100030000C94F3200C944E030C944E030C944E033A
:100040000C944E030C944E030C944E030C944E03EC
:100050000C944E030C944A210C944E030C944E03C2
:100060000C944E030C944E030C944E030C944E03CC
:100070000C944E030C944E030C944E030C944E03BC
:100080000C944E030C944E030C944E030C944E03AC
:100090000C944E030C944E030C944E030C944E039C
:1000A0000C944E030C944E030C944E032E0005004A
:1000B0004F002D0052005100270004005000200086
:1000C000230026001F00220025001E00210024001E
:1000D0002A002800E400E700E5001D00300032009F
:1000E00087002F003400380013003300370012005F
:1000F0000F00000036000C000E00100018000D006C
:1001000011002C002C002C001C000B000500170017
:100110000A001900150009000600080007001B006E
:100120001A0016001D0014000400E2003500E10072
:10013000E00029002B003900040000002E0005001B
:100140004F002D00520051002700040050002000F5
:10015000230026001F00220025001E00210024008D
:100160002A002800E400E700E5001D00300032000E
:1001700087002F00340038001300330037001200CE
:100180000F00000036000C000E00100018000D00DB
:1001900011002C002C002C001C000B000500170087
:1001A0000A001900150009000600080007001B00DE
:1001B0001A0016001D0014000400E2003500E100E2
:1001C000E00029002B003900040000002E0005008B
:1001D0004F002D0052005100270004005000200065
:1001E000230026001F00220025001E0021002400FD
:1001F0002A002800E400E700E5001D00300032007E
:1002000087002F003400380013003300370012003D
:100210000F00000036000C000E00100018000D004A
:1002200011002C002C002C001C000B0005001700F6
:100230000A001900150009000600080007001B004D
:100240001A0016001D0014000400E2003500E10051
:10025000E00029002B003900040000002E000500FA
:100260004F002D00520051002700040050002000D4
:10027000230026001F00220025001E00210024006C
:100280002A002800E400E700E5001D0030003200ED
:1002900087002F00340038001300330037001200AD
:1002A0000F00000036000C000E00100018000D00BA
:1002B00011002C002C002C001C000B000500170066
:1002C0000A001900150009000600080007001B00BD
:1002D0001A0016001D0014000400E2003500E100C1
:1002E000E00029002B00390004000000000000009D
:1002F000000000002A2B2800000000000000000081
:100300000000000000000029000000002C1E342026
:10031000212224342627252E362D3738271E1F204C
:100320002122232425263333362E37381F04050691
:100330000708090A0B0C0D0E0F10111213141516D5
:100340001718191A1B1C1D2F3130232D35040506D3
:100350000708090A0B0C0D0E0F10111213141516B5
:100360001718191A1B1C1D2F3130354C00000000C6
:10037000000000000000000000000000000000007D
:10038000000000000000000000000000000000006D
:100390007E0F00D4FFFFFFC70000007800010101BD
:1003A0000101010101010202020202020202020332
:1003B0000303030303030304040404040404050502
:1003C00005050506060606060707070707080808C5
:1003D00008090909090A0A0A0B0B0B0C0C0C0D0D74
:1003E0000D0E0E0E0F0F0F1010111111121213130C
:1003F0001414151516161717181819191A1A1B1B85
:100400001C1D1D1E1E1F20202122222324242526E0
:1004100026272829292A2B2C2D2D2E2F3031323218
:10042000333435363738393A3B3C3D3E3F40414224
:10043000434445464748494A4C4D4E4F505153540A
:10044000555658595A5B5D5E5F61626465666869BE
:100450006B6C6D6F7072737577787A7B7D7E80823E
:10046000838587888A8C8E8F91939596989A9C9E87
:10047000A0A2A3A5A7A9ABADAFB1B3B5B7BABCBE97
:10048000C0C2C4C6C9CBCDCFD1D4D6D8DBDDDFE264
:10049000E4E7E9EBEEF0F3F5F8FAFDFF0E03680090
:1004A0006F006F006B0036003900000012036B0014
:1004B00075007300680069006D006100380000007D
:1004C0000403090409025B00030100A0FA09040007
:1004D0000001030101000921110100012240000770
:1004E00005810308000A0904010002030000000955
:1004F00021110100012222000705820320000107CB
:1005000005030320000109040200010300000009A3
:100510002111010001227B000705840320000A123B
:1005200001000200000008383939360100010200DC
:10053000010660FF0961A1010962150026FF00950F
:1005400020750881020963150026FF0095207508B3
:100550009102C005010902A10185020901A100055E
:100560000919012908150025019508750181020561
:1005700001093009311581257F9502750881060929
:10058000381581257F950175088106050C0A38020A
:100590001581257F950175088106C0C00501098078
:1005A000A101850319012AB700150126B70095019D
:1005B00075108100C0050C0901A101850419012AEB
:1005C000A002150126A002950175108100C0050149
:1005D0000906A101050719E029E71500250195087D
:1005E000750181029501750881010507190029FF30
:1005F000150026FF009506750881000508190129D8
:1006000005950575019102950175039101C01124AD
:100610001FBECFEFDAE0DEBFCDBF04B603FE27C0BA
:1006200080919A0290919B02A0919C02B0919D02B0
:100630008730904BA740B04BD1F410929A021092A1
:100640009B0210929C0210929D0214BE84B7877F79
:1006500084BF0FB6F894A89580916000886180935C
:100660006000109260000FBEE0E0F8E3099511E031
:10067000A0E0B1E0E2E5F3E502C005900D92AA3BEF
:10068000B107D9F722E0AAEBB1E001C01D92AA3967
:10069000B207E1F70E9458140C9470290C940000E2
:1006A000DF92EF92FF920F931F93CF93DF93AAE213
:1006B000B1E026E331E0ED0161E070E08991E82FDF
:1006C000E295EF70F0E011A18F70AB0101C0440F13
:1006D0008A95EAF7942F9095912391A382A1842B78
:1006E00082A32C173D0751F7C4E2D1E04AE251E062
:1006F000BE0101E010E0FB018191BF01E82FE2950E
:10070000EF70F0E0D1A08F70780101C0EE0C8A95F7
:10071000EAF79E2D90959D2191A382A18E2982A317
:100720004617570741F761E070E08991E82FE2959D
:10073000EF70F0E0F1A08F708B0101C0000F8A957F
:10074000EAF7902F90959F2191A382A1802B82A3FD
:100750004C175D0751F7C1E0D0E08D91E82FE2958D
:10076000EF70F0E061A18F70AE0101C0440F8A9577
:10077000EAF7942F9095962391A382A1842B82A3CC
:100780002A173B0751F7DF91CF911F910F91FF90EF
:10079000EF90DF9008952F923F924F925F926F9269
:1007A0007F928F929F92AF92BF92CF92DF92EF9201
:1007B000FF920F931F93CF93DF9300D000D00F923F
:1007C000CDB7DEB78C015C0126E0A20EB11C3AE287
:1007D000832E31E0932E7C01312C44244394512C00
:1007E000D701BC91B983F70111927F01D4018D919A
:1007F0004D01B82FB295BF70EB2FF0E0FB83EA8379
:1008000091A18F70320101C0660C8A95EAF7892F99
:10081000862981A382A1262C2094822182A30E9472
:10082000F91324E2C22E21E0D22EDD82CC8290E0A8
:1008300080E0F7013197AC81BD816D91BD83AC83C0
:10084000262F22952F7030E0D90190964C9130815F
:1008500050E06F7002C0559547956A95E2F720E029
:1008600040FD06C0242D082E01C0220F0A94EAF78D
:10087000232B2083019686309105E9F6AA81BB815E
:1008800091968C919197282291962C92919792967D
:100890008C919297682A92966C9281E09081B981AE
:1008A0009B1301C080E0382AAE14BF0409F098CF32
:1008B000712C612CEE24E394F12C045F1F4FF601A0
:1008C00081916F01E82FE295EF70F0E021A18F7028
:1008D000A70102C0440F551F8A95E2F7CA01922F63
:1008E000982B91A392A18095892382A30E94F9134A
:1008F000B701062C01C0660F0A94EAF7962E6095A0
:10090000F5018AE2482E81E0582E30E0AF01708177
:10091000D2012D912D01822F82958F7090E0DC0104
:1009200090968C9190E02F7002C0959587952A95AE
:10093000E2F780FD42C0892D872B80833196DA0152
:100940008C91781331E00E171F0701F7F6013197EC
:100950008081E82FE295EF70F0E021A18F70A70170
:1009600001C0440F8A95EAF7942F9095922391A3A2
:1009700082A1842B82A3332ABFEF6B1A7B0AE6E0A5
:100980006E16710409F09BCF832D0F900F900F907E
:100990000F900F90DF91CF911F910F91FF90EF90EB
:1009A000DF90CF90BF90AF909F908F907F906F908F
:1009B0005F904F903F902F900895862F8723BDCF53
:1009C0008091080190910901892B39F080910601ED
:1009D0009091050189238F3F39F580910301909112
:1009E0000401892BD1F180910101909100018923AB
:1009F0008F3FA9F40895109202010E942321816083
:100A0000782F90930401809303014091000150914D
:100A1000010160910201809104010C949B07809177
:100A200002018111E8CF0895809107018823A9F27E
:100A3000109207010E9423218160782F9093090171
:100A400080930801409105015091060160910701D2
:100A5000809109010E949B07C0CF089581E0611138
:100A600016C0809302010E9423218160782F909309
:100A700004018093030140910001509101016091B4
:100A80000201809104010E949B0781E008958093F8
:100A900007010E9423218160782F909309018093A0
:100AA0000801409105015091060160910701809174
:100AB0000901E9CFCF93C82F682F70E090E080E064
:100AC0000E943E07813081F0882331F0823081F02E
:100AD000833089F040E00DC040E060E08FEF0E947D
:100AE00074188C2FCF91089540E06FEF80E0F7CF1E
:100AF0004FEF60E0FBCF40E06FEFF0CF81E0089573
:100B000081E008950C94800508950C9484051F934A
:100B1000CF93DF9300D000D00F92CDB7DEB74983DB
:100B20005A836B833091BC0189819A8131111DC038
:100B30006623B9F02223A9F00E942C0C182F682FED
:100B400089819A810E94D50B69817A81812F0F90CA
:100B50000F900F900F900F90DF91CF911F910C94F9
:100B6000211D0E94030C182FEFCF0E942C0C6981CD
:100B70007A81EDCFFC01262F408151816281738102
:100B800084810C94870581E00895CF93DF93EC0175
:100B900060E00E94BA05BE01DF91CF910C948505FB
:100BA000E1E0F0E0DF0102C0AA0FBB1F6A95E2F7A7
:100BB000BD01DF0102C0AA0FBB1F4A95E2F76A2BF5
:100BC00001C0EE0F2A95EAF7962F9823961302C0DC
:100BD0008E2B0895E0958E230895242F462F682F9D
:100BE0008091D8010E94D0050C94920B0E94D313DF
:100BF0000E9492070C94EE130C94F01308950E9437
:100C00002C0B0E94FE052FEF84E39CE021508040D6
:100C10009040E1F700C000000C946E210F931F93E9
:100C2000CF93DF938C0161E00E94BA05EC01B8011B
:100C30000E94081B882309F441C0B801CE010E941C
:100C400082058823D9F1B801CE010E94581E88235D
:100C5000A9F1B801CE010E94AA1E882379F1B8013A
:100C6000CE010E94CD1F882349F1B801CE010E9418
:100C7000AE19882319F1F8018281882361F0CA3501
:100C8000FDE5DF0721F170F4C115ECE5DE07A1F009
:100C9000CE3DDC45C9F0C801DF91CF911F910F9186
:100CA0000C947E05CB358DE5D807A1F0CC35DD451C
:100CB00091F70E947C0FEFCF0E94FF0580E0DF914B
:100CC000CF911F910F9108950E94E510F7CF0E94D8
:100CD000850FE1CF0E94880FDECFDF92EF92FF9267
:100CE0000F931F93CF93DF93E82FF0E0E451FD4F74
:100CF000D490282F26952695269530E0F901E457C3
:100D0000FC4F0491877010E0082E02C015950795DE
:100D10000A94E2F701701127F901E458FC4FE490BE
:100D2000F12C082E02C0F594E7940A94E2F791E0C2
:100D3000E922FF24F901E459FC4FC491D0E002C03C
:100D4000D595C7958A95E2F7C170DD270115110584
:100D500019F081EE0E94DE07E114F10419F086EE2D
:100D60000E94DE078D2D0E94DD08EF2819F086EE27
:100D70000E947008012B19F081EE0E947008CD2BA3
:100D800051F08CE2DF91CF911F910F91FF90EF9086
:100D9000DF900C94DD08DF91CF911F910F91FF90B0
:100DA000EF90DF900895EF92FF920F931F93CF93F0
:100DB000DF93EC01162F0AE08881882309F454C0E0
:100DC000813009F04EC08981813099F47E0122E0A2
:100DD000E20EF11C8A810E94DD08E7012196812F35
:100DE000815050F3EFE9FFE03197F1F700C00000C8
:100DF000F7CF823041F47E0182E0E80EF11C8A8157
:100E00000E94DE07EACF833041F47E01E2E0EE0E7D
:100E1000F11C8A810E947008E0CF843011F0219685
:100E2000DDCF2A81229690E080E0AE014F5F5F4FD8
:100E30002053330B2A30310548F0019778F2EFE95F
:100E4000FFE03197F1F700C00000F7CF089FB00135
:100E5000099F700D1124C901860F971F2981EA018E
:100E6000E4CF0E946D06BACFDF91CF911F910F9111
:100E7000FF90EF90089560E00C94D306CF92DF923C
:100E8000EF92FF926C01EE24FF2420E0C114D10404
:100E9000E104F10419F0C701B60120E1C72ED82EF4
:100EA000E92EFF24C114D104E104F10419F0285FF4
:100EB000C701B6016B017C0154E0F694E794D79426
:100EC000C7945A95D1F7C114D104E104F10419F083
:100ED0002C5FC701B6016B017C0142E0F694E794F8
:100EE000D794C7944A95D1F7C114D104E104F10411
:100EF00019F02E5FC701B60196958795779567958E
:100F0000672B682B692B09F02F5F822FFF90EF90E2
:100F1000DF90CF90089508950C948B0781E0089599
:100F20000C948E070895CF93C82F0E948C078C2FA6
:100F3000CF910C949007CF93DF93CDB7DEB72B976B
:100F40000FB6F894DEBF0FBECDBF4F8358876987B9
:100F50007A878B8761110E94AB0F1E821D8285E00C
:100F6000FE013796DE01119601900D928A95E1F708
:100F70008C819D81892B89F449815A816B817C8187
:100F80008D819E810E94AB0E2B960FB6F894DEBF2A
:100F90000FBECDBFDF91CF91089589819A818923BA
:100FA0008F3F51F3CE0101960E94C3058111E4CF1A
:100FB000EBCFFC01808191810C94590CCF93C82F09
:100FC000882309F48BC08238C1F40E94FC1F81FD84
:100FD00085C089E30E94450F0E94CE0F2FEF81EE5E
:100FE00094E0215080409040E1F700C0000089E388
:100FF0000E944C0FCF910C94CE0F8338A1F40E9425
:10100000FC1F80FD6BC083E50E94450F0E94CE0F40
:101010002FEF81EE94E0215080409040E1F700C036
:10102000000083E5E5CF8438A1F40E94FC1F82FD17
:1010300055C087E40E94450F0E94CE0F2FEF81EE2E
:1010400094E0215080409040E1F700C0000087E428
:10105000CFCF8CEF8C0F813A90F46C2F80910A01E6
:1010600090910B010E945F20882329F08C2F0E9411
:101070004C0F0E94CE0F8C2F0E94450FBBCF80E2F9
:101080008C0F883048F4C77081E001C0880FCA9582
:10109000EAF70E948E0FAECFEBE5EC0FE33040F4A1
:1010A000F0E0EC59FE4F808190E0CF910C9421202C
:1010B000E8E5EC0FE73150F4F0E0EE0FFF1FEA5CDB
:1010C000FE4F80819181CF910C943720C03F30F04A
:1010D0008C2F0E94E614CF910C94B915CF910895EE
:1010E000882309F452C0823871F40E94FC1F81FFEA
:1010F0004CC089E30E94450F0E94CE0F89E30E94F5
:101100004C0F0C94CE0F833859F40E94FC1F80FFC3
:101110003CC083E50E94450F0E94CE0F83E5EFCFD0
:10112000843859F40E94FC1F82FF2FC087E40E947C
:10113000450F0E94CE0F87E4E2CF9CEF980F913AC3
:10114000F0F290E2980F983050F4877091E001C06F
:10115000990F8A95EAF7892F0E94940FD2CF9BE5C9
:10116000980F933020F490E080E00C94212098E5D3
:10117000980F973120F490E080E00C943720803F66
:1011800020F00E9440150C94B91508951F93CF9339
:10119000DF93182FEB010E94DE07209731F4812F97
:1011A000DF91CF911F910C9470088FE99FE0019718
:1011B000F1F700C000002197F0CF70E060E08933C4
:1011C00011F460E570E00C94C608882321F00E94B9
:1011D0008E0F0C94CE0F0895882321F00E94940F57
:1011E0000C94CE0F0895BF92CF92DF92EF92FF92B0
:1011F0000F931F93CF93DF936C01D62FC72FFC0162
:101200001281058102950F700E94630FE82E8823DA
:10121000A1F0E12E112389F08C2F807F803429F0FA
:1012200080E28D0FE12C883040F082E00E941F1098
:101230000E94630F91E0E82EE926BC2EB2949FE055
:10124000B922FBE0FB1598F1EB2DF0E0EE58F64DDE
:101250000C941B290C2F0F70C07F11F00295007F9A
:101260001123A9F0002359F080E28D0F883010F08F
:10127000D11109C0802F0E948E0F0E94CE0F8D2F9A
:101280000E94DE0714C0802F0E949E0FF6CF8D2F84
:101290000E947008002359F080E28D0F883010F012
:1012A000D1112CC0802F0E94940F0E94CE0F2B2DA5
:1012B0002850330B2430310520F40E94FC1F0E947B
:1012C0009307EE2009F469C10E945F0F80FD65C19C
:1012D000F60112820E94590F0E94A30BC6010E94C0
:1012E000EE0A0E94590FDF91CF911F910F91FF904D
:1012F000EF90DF90CF90BF900C94AE0B802F0E94A8
:10130000A40FD3CF2C2F2F70F22EC07FC03219F034
:10131000F29480EFF822DD2369F0D13049F11123F6
:1013200091F1002351F1F601858180FFA8CF8F70E4
:10133000858323C0112381F0011106C00E94B10FE3
:101340008F290E94E508B3CF0130C1F70E94B10F89
:101350008F290E94B70FABCF011106C00E94C40FA6
:101360008F2D0E94EC08A3CF013009F4A0CFF6CF57
:10137000112329F0063008F09ACF8F2DE2CF0530E7
:1013800008F095CFEDCF002359F3D93349F4FFEF9F
:1013900027EE33E0F15020403040E1F700C000007C
:1013A0008D2F0E94700883CF8C2F86958695837031
:1013B00069F0813009F07BCF8D2F9C2F9370111134
:1013C00002C090E080E00E94372071CF8D2F9C2FCB
:1013D0009370111102C090E080E00E94212067CF3D
:1013E0008D2F112329F00E94E6140E94B9155FCFBA
:1013F0000E944015FACF8C2F837079F5111157CFC9
:101400004D2F429546954770440F440F8D2F8F7096
:10141000042E01C0880F0A94EAF72D2F2071D4FF03
:1014200007C02FE030E001C0220F4A95EAF720956F
:10143000C695C695C370822BC23049F058F4C130AE
:1014400019F00E94860B33CF0E94810B30CF0E948F
:101450008B0B2DCF0E947F0B2ACF8695112311F085
:101460008C2F8170882309F422CF4D2F4295469509
:101470004770440F440F8D2F8F70042E01C0880FCA
:101480000A94EAF72D2F2071D4FF07C02FE030E037
:1014900001C0220F4A95EAF72095C695C695C370FC
:1014A000822BC23049F058F4C13019F00E94CA0BA7
:1014B000FECE0E94C50BFBCE0E94CF0BF8CE0E9441
:1014C000920BF5CECF70112329F08C2F0E94A30B25
:1014D0008D2F37CF8D2F0E94EC088C2F0E94AE0BE2
:1014E000E6CED23F89F160F4D03FC9F0D13F29F177
:1014F000112309F442C00111C2CE8C2F8F7121C07B
:10150000D33F39F1D43FA1F7112369F1CF718C2F6B
:101510000E94A30B63E08C2F0E940410C8CE1123FD
:1015200041F0053008F0C3CE8C2F8F710E94BA0BAA
:10153000BECE063008F0BBCEF7CF8C2F8F711123B3
:1015400069F20E94A30BB3CE8C2F8F711123C9F3C4
:10155000C5CF112329F08C2F8F710E949B0BA7CE32
:101560000E94980BA4CE81E00E941F10023008F464
:101570009ECE82E00E941F109ACE002359F0D933EC
:1015800009F00ECF8FEF97EEE3E081509040E040FE
:10159000E1F704CF8C2F8F71A1CFDF91CF911F91F5
:1015A0000F91FF90EF90DF90CF90BF9008950F9331
:1015B0001F93CF93DF93EC01688179818A810E9428
:1015C000630C8C010E94D40B0E947E0BB801CE01EB
:1015D000DF91CF911F910F910C94F308CF93DF937C
:1015E000EC018B819C81892B29F088819981892349
:1015F0008F3F59F4DF91CF910895CE010E94D70A11
:10160000CE01DF91CF910C94C505CE010E940E064C
:101610008111F3CF0E94630F882361F38A818823AD
:1016200049F382E0DF91CF910C941F1090E080E0AD
:101630000E94212090E080E00E9437200E94AB0FA2
:101640000E94AE0F0E94CE0F0E94E0160C94B915B6
:101650000E94530F0C94160B0E949B0F0C94280BA6
:10166000E92FE295EF70E250EE3070F4F0E0E258CE
:10167000F64D0C941B29803F19F020F4883E20F48D
:1016800081E00895843FE1F380E00895883EC0F34F
:10169000813FD1F7F5CF93FB882780F90895FC01AE
:1016A000808191810E94590C0C94300BCF93DF9371
:1016B00000D000D00F92CDB7DEB70F900F900F90F3
:1016C0000F900F90DF91CF910895CF93DF9300D0CB
:1016D00000D000D0CDB7DEB726960FB6F894DEBFA7
:1016E0000FBECDBFDF91CF91089508950C94750B77
:1016F0000E94760B8093D9010C94160B08950C94DC
:10170000780B9091D901892B0C94780B9091D90189
:1017100089230C94780B9091D90189270C94780B2C
:101720000C945A050E94900B8093D8010C94160BD0
:1017300080E00C94920B91E001C0990F8A95EAF732
:10174000892F0C94920B21E030E001C0220F8A9582
:10175000EAF78091D801822B0C94920B21E030E0C3
:1017600001C0220F8A95EAF720958091D801822343
:101770000C94920B21E030E001C0220F8A95EAF729
:101780008091D80182270C94920B9091D801892BDB
:101790000C94920B9091D80189230C94920B909108
:1017A000D80189270C94920B0895E92FEE0FE90FC9
:1017B000EE0F8E0F982F977041E001C0440F9A955D
:1017C000EAF786958695869593E0899FF001112426
:1017D000E354FE4F30E020E070E05191DF011197BB
:1017E000CB01022E02C0969587950A94E2F781708C
:1017F00081958527842385278C932F5F3F4F233046
:10180000310559F70895E92FEE0FE90FEE0F8E0F0E
:10181000982F977086958695869523E0829FF00194
:101820001124E354FE4F50E040E080E0219130E08D
:10183000092E02C0369527950A94E2F721703327C6
:10184000042E01C0220F0A94EAF7822B4F5F5F4FEC
:101850004330510559F70895CF92DF92FF920F93CD
:101860001F93CF93DF936C010091D8018091D90130
:10187000082BC7E0D0E010E0FC2EC8010C2E02C0FF
:10188000959587950A94E2F780FD0CC02197A0F703
:10189000F12C8F2DDF91CF911F910F91FF90DF9051
:1018A000CF900895B6018C2F0E94DB12019771F33F
:1018B000F0CFCF93DF93EC010E942C0CBE01DF919F
:1018C000CF910C94DB121F93CF93DF93EB01909198
:1018D000BC01992331F0CB01DF91CF911F910C9482
:1018E000590C882379F0CB010E942C0C182F682FFB
:1018F000CE010E94D50BBE01812FDF91CF911F91A8
:101900000C94DB12CB010E94030C182FF4CF1F9311
:10191000CF93DF93C091DA0116E08091DB018C1345
:1019200004C0DF91CF911F910895D0E01C9FF0017A
:101930001D9FF00D1124E452FE4F408151816281C0
:101940007381848195810E94650B2196C770E5CFD4
:1019500040910C0250910D0260910E0270910F02A5
:1019600080911002909111020C94650B1F93CF93FC
:10197000DF9380911102807FA9F480910E02882369
:1019800089F08091DA01C091DB0160910C027091C5
:101990000D02A0910F02B0911002D62FD72316E0AE
:1019A000C81304C0DF91CF911F91089590E0109764
:1019B00011F0DF3F19F401968770F2CF189F900164
:1019C000199F300D1124F901E452FE4F4181471354
:1019D000F2CF40814613EFCF42814111ECCF4381DA
:1019E00054814A1B5B0B483C510528F7809111023A
:1019F0008F70806180931102F901EF51FE4F808159
:101A00008F70806180838CE092E00E94EE0ADF910B
:101A1000CF911F910C94870CAF92BF92CF92DF921F
:101A2000EF92FF920F931F93CF93DF93CDB7DEB763
:101A300061970FB6F894DEBF0FBECDBF8C0185E075
:101A4000F801DE011D9601900D928A95E1F7F801EB
:101A5000E2808CE0C82E82E0D82E60910F02709157
:101A600010026115710509F45AC190910C02209180
:101A70000D02892F82238F3F09F451C1408151818A
:101A8000A380B480F0900E02F501E61BF70BFF2057
:101A900009F4F6C080911102382F307FE83CF1053F
:101AA00008F0AFC0311179C0FE2C251323C0941368
:101AB00021C0E1101FC08F708061809311020E94CD
:101AC000A80CC6010E94EE0A80911102F8018583DC
:101AD0008F2D61960FB6F894DEBF0FBECDBFDF919C
:101AE000CF911F910F91FF90EF90DF90CF90BF901B
:101AF000AF900895AB2829F0842F85238F3F09F0FC
:101B000027C180E0F82FF170DF2E80FF3CC080916C
:101B1000DA012091DB0136E0821315C04D875E8724
:101B20008D859E850E94590C292F22952F70223079
:101B3000F0F0243018F59F70F1F0F8019581907F56
:101B4000D1F4D12C1EC090E0389FF001399FF00DE8
:101B50001124E452FE4F6181651306C06081641355
:101B600003C06281E6120FC001968770D5CF9F70C7
:101B700011F0882331F3805E883018F3C8010E9489
:101B8000EE0AFD2CA5CFEE2009F4A2CF8091110220
:101B9000816080931102F12C9BCF251306C0941312
:101BA00004C0F801EE2009F487C0C8010E944F0B61
:101BB000882319F1EE2009F180911102803270F032
:101BC00020910C0230910D0238872F831986BB8635
:101BD000AA868C87CE0107960E94EE0A86E0F8015D
:101BE000ACE0B2E001900D928A95E1F70E94B60C4C
:101BF0000E94A80CFF24F3946BCFC8010E94EE0A48
:101C0000F9CF311113C07A2DB98AA88A6E2D89892E
:101C10000E94560B8CE092E00E94EE0A86E0F601EC
:101C200011928A95E9F70E94A80CB5CF25130FC031
:101C300094130DC0E1100BC0F8018583C8010E9408
:101C4000EE0A86E0F60111928A95E9F741CFC801C4
:101C50000E944F0B882389F2EE2079F280911102C5
:101C6000803208F4BBCF20910C0230910D023A83F0
:101C700029831B82BD82AC828E83CE010196ACCFBC
:101C8000E83CF10508F03EC0FE2CEE2009F4B5CF8B
:101C900025132AC0941328C08091110280FD1BC017
:101CA000982F907FC1F0F8018583903F31F0982FF5
:101CB000907F905F8F70892B8583C8010E94EE0A08
:101CC00086E0F801ACE0B2E001900D928A95E1F770
:101CD0000E94A80CFDCE86E0F801ACE0B2E00190D5
:101CE0000D928A95E1F7F4CEC8010E944F0B811145
:101CF00075CF80911102816080931102C8010E940A
:101D0000EE0AE6CE7A2DB98AA88A6E2D89890E94BC
:101D1000560B86E0F60111928A95E9F7D9CFEE20AD
:101D200009F46BCFC8010E944F0BF82E882309F4E9
:101D300064CF86E0F801ACE0B2E001900D928A95A4
:101D4000E1F78CE092E00E94D9070E94B60CC0CF68
:101D500081E08E25D7CE1F93CF93DF93CDB7DEB72B
:101D60002C970FB6F894DEBF0FBECDBF4F835887B8
:101D700069877A878B879C87CE0107960E940C0D16
:101D8000882369F08A859B85892B39F04F81588596
:101D9000842F85238F3F09F071C016E05FC086E075
:101DA000FE013796DE01119601900D928A95E1F7BA
:101DB0008A859B85892B89F38F81988589238F3F1D
:101DC00061F32091DB0130E0C9010196877099270A
:101DD0004091DA014817190671F40E942C0B1092F9
:101DE000DB011092DA0186E0ECE0F2E0DF011D9207
:101DF0008A95E9F7D2CF96E0929FD001939FB00DDC
:101E00001124A452BE4FFE01319601900D929A9575
:101E1000E1F78093DB010E94870CBFCF819FC00157
:101E2000112484529E4F0E940C0D8823E9F0E0910A
:101E3000DA011E9FF0011124E452FE4F40815181CE
:101E400062817381848195810E94650B8091DA01A2
:101E500090E00196877099278093DA018091DA01EA
:101E60009091DB018913DACF2C960FB6F894DEBF80
:101E70000FBECDBFDF91CF911F91089569857A85FF
:101E80008B859C850E94650B88CF682F80910A0105
:101E900090910B010C949520682F80910A019091EC
:101EA0000B010C94972080910A0190910B010C94E6
:101EB0009920809112028595859585950895809148
:101EC00012028770089590911202977081E009F4D0
:101ED00080E008959091680292FB222720F928174C
:101EE00051F080FB92F99093680280916702909183
:101EF00068020C94621008958091680282FB882722
:101F000080F991E089270C946A0F81E00C946A0FA4
:101F100080E00C946A0F80911E02089590911E0239
:101F2000892B80931E020895809590911E0298231C
:101F300090931E02089510921E02089590911D0222
:101F4000892B80931D020895809590911D029823FE
:101F500090931D02089510921D02089510921C0284
:101F6000089580911302089508950C94B40F9091F0
:101F7000680292FD08C090911302981721F0809397
:101F800013020C94B50F089580911302882329F051
:101F90001092130280E00C94B50F0895E0910A01AD
:101FA000F0910B0180911E028083E0910A01F09173
:101FB0000B01808190911D02892B8083E0910A01A1
:101FC000F0910B01808190911C02892B808390916C
:101FD0001302992381F0E0910A01F0910B018081B5
:101FE000892B808380910A0190910B010E944D20E2
:101FF00081110E94C40F80910A0190910B010C94F1
:10200000082008950C9401109091680292FD10C070
:1020100098E0899F90011124622B609312020E9424
:10202000A30B809112028595859585950C940210DD
:102030000C94A30B1092120280E00C940210909169
:1020400012028095892380931202282F277039F479
:10205000282F082E000C330B9217130621F49091B1
:10206000680292FF07C08595859585950E94AE0B05
:102070000C941A1008956FEF7FEF90E080E00C94BD
:102080005A2990E080E00E943629893E9E4F11F443
:102090000C94B11A80E0089582E090E00C94282915
:1020A00083E090E00C942829CF9384E090E00E9494
:1020B0002829C82F82E290E00E942829982F8C2F8F
:1020C000CF910895CF93C92F682F84E090E00E94AC
:1020D0003C296C2F82E290E0CF910C943C29AB011B
:1020E000BC018FE090E00C944E29AB01BC0183E170
:1020F00090E00C944E2960E070E0CB010C947510D8
:1021000060E070E0CB010E946F100C947B1069EED0
:102110007EEF90E080E00E945A2960E082E090E04B
:102120000E943C2960E083E090E00E943C291092EC
:10213000D90160E084E090E00E943C2960E082E206
:1021400090E00E943C2960E085E090E00E943C29FC
:1021500060E086E090E00E943C296FEF87E090E02D
:102160000E943C2940E050E0BA0188E090E00E94E3
:102170004E2960E08DE090E00E943C2940E050E074
:10218000BA0188E190E00E944E2960E087E190E08A
:102190000E943C2940E050E0BA018CE190E00E94AE
:1021A0004E2970E060E080E290E00E945A2940E011
:1021B00050E0BA0188E190E00E944E2980E00E9440
:1021C000CA1A0E94F01A0C9480100C948710682F81
:1021D0008EE090E00C943C290E942F216093340201
:1021E00070933502809336029093370260933002E9
:1021F00070933102809332029093330208950E94CB
:102200002F216093340270933502809336029093AD
:10221000370260932C0270932D0280932E029093CC
:102220002F02089585B7806885BF85B7806885BF10
:102230000895089508950C94191108950C941D1192
:102240000E94121189EB93E10E9492210E941A11BF
:102250000C941B1181E008950C942A11089508959F
:102260000E942E110C942F110E941A210E94FF1A15
:102270000E94FD130E9470190E94581A0C941E119E
:10228000AF92BF92CF92DF92EF92FF920F931F9384
:10229000CF93DF93CDB7DEB72A970FB6F894DEBFA2
:1022A0000FBECDBF0E940E1481110E94EC1080E27F
:1022B000A82E82E0B82E10E000E0C02E802F0E94F1
:1022C000F213E82EF501F1905F01F81609F453C0FE
:1022D0008091380281FD0E94F8138F2D8E25D12C1C
:1022E000FF24F394982F9F2109F440C00E942C11E1
:1022F000882399F0DE82CF82EF2081E009F480E02C
:1023000088870E9423218160782F9A8789874E8150
:102310005F8168858A850E949B07F801E05EFD4F1A
:102320008081F826F0820E94691A81110E94FF10B4
:102330000E94D4150E94FC1F90911F02891791F1F1
:102340000E94FC1F80931F022A960FB6F894DEBFEE
:102350000FBECDBFDF91CF911F910F91FF90EF90F6
:10236000DF90CF90BF90AF900C949307D394FF0C65
:10237000F6E0DF12B7CF0F5F1F4F0C30110509F0E9
:102380009CCF8FEF89838A831B820E9423218160E7
:10239000782F9D838C8349815A816B818D810E9426
:1023A0009B07C1CF2A960FB6F894DEBF0FBECDBFF4
:1023B000DF91CF911F910F91FF90EF90DF90CF9021
:1023C000BF90AF900895CF93DF930E94DF12EC018E
:1023D000811521E5920708F042C0811530E5930789
:1023E00008F09DC0883E910530F5803E910508F0CB
:1023F00092C0883A910588F4853A910508F084C026
:102400008130910509F487C0009709F484C00497CE
:1024100008F081C0D0E0C0E07EC08F3B9105D0F7CE
:10242000C85AD0E0CC0FDD1FC959DE4F0990D881C2
:10243000C02DD46470C08115904250F4C11581E064
:10244000D80708F068C0C03FD10520F3D06563C04D
:10245000C11590E4D907F0F2DF70D06A5CC0811535
:1024600025E5920700F5811534E5930708F08BC048
:10247000811543E5940708F073C0C11582E5D807BC
:1024800008F469C0CE018370992721E030E002C0D2
:10249000220F331F8A95E2F7C695C69580E2C89F42
:1024A000E001112454C0C11599E5D907A8F4C1155C
:1024B00028E5D20708F06CC0C11536E5D30708F04F
:1024C000A9CF8C2F0E947613C82FD0E0DC2FCC2709
:1024D000CC27DF71D0621FC0C1154AE5D40708F4CC
:1024E0005CC0CE0190568115904208F093CF8D2F9D
:1024F0008F710E94761390E0982F882788279F710C
:102500009C012C2BE901E6CFC55AD0E0CB56DE4F1B
:10251000C881D0E0D064CE01DF91CF910895E4E08E
:1025200096958795EA95E1F783702C2F2695269549
:10253000237040E2249F90011124382B8C2F83704C
:10254000C1E0D0E002C0CC0FDD1F8A95E2F7C22BBC
:10255000D32BDC68E0CFDC2FCC27C16FD06ADBCF78
:102560008370992721E030E002C0220F331F8A9543
:10257000E2F7C695C69590E2C99FE0011124C22BEF
:10258000D32BDA68C8CFD82FCC27C46FD06AC3CF7B
:10259000DC2FCC27C06FD06ABECF8C2F8F700E94EB
:1025A000761334E0D695C7953A95E1F7CF709C2F16
:1025B000EC01D069B0CF0E94211D0C94E311823848
:1025C0009105B1F1B0F48133910509F475C048F477
:1025D0008932910509F469C08A32910509F473C002
:1025E00008958533910509F459C08933910501F1A6
:1025F0000895833E9105A9F138F4803E9105F9F0E4
:10260000823E910549F10895863E9105A9F1873EE4
:102610009105C9F1843E910519F52091680221FFC9
:102620001FC08091670284FD14C087EE90E008957A
:10263000209167022370A1F080EE90E00895209130
:10264000670220FD47C03091680230FF09C024FFB7
:1026500044C090E080E004C02091670222FDF7CFE3
:1026600008952091670222FD3BC03091680230FD41
:10267000E3CF24FFF5CFEDCF2091670223FFF0CF0A
:1026800024FDE7CFD2CF2091670223FD2CC03091EB
:10269000680231FFEECF84EE90E00895209167024A
:1026A00025FFDECF89E290E008952091670225FFA3
:1026B000D7CF85E390E008952091670226FFD0CF21
:1026C0008AE290E008952091670226FFC9CF81E356
:1026D00090E0089589E390E0089583EE90E00895F6
:1026E00082EE90E0089586EE90E008959091670262
:1026F00092FF06C0282F28712830F9F4877F846064
:1027000093FF06C0282F28712831F1F4877E846159
:102710002091680220FF06C0382F38713830D9F474
:10272000877F816021FF06C0282F28712831D1F4CE
:10273000877E816194FD877E0895282F247124303F
:10274000F9F68B7F8860DCCF282F2471243101F7C4
:102750008B7E8861DDCF382F3171313019F78E7F54
:102760008860E0CF282F2171213121F78E7E88618A
:10277000E1CF80E008950C943B100E940E148FE38B
:102780009CE90197F1F700C000000E940E1480E060
:102790000E94F21380FF04C00E94BB130C946E21B0
:1027A00008950C94BD130E944110811102C00E9433
:1027B000E5100E944C10809338020E9454109093B0
:1027C0006802809367020E94D1130E9450100E94F9
:1027D0007F0B8091D8010C94900B08950C94ED130D
:1027E0000C94E004E82FF0E0EB58FD4F8081089551
:1027F000089580EA8A95F1F708950E945003E9E66A
:10280000F2E0A5E7B2E011921D9282E0E537F80709
:10281000D1F78CE00E9421140C94F605CF9389E641
:1028200092E00E94CB03C82F282F4CE065E772E0AE
:1028300089E692E00E9422140E94FC058C2FCF9121
:1028400008950895FF920F931F93CF93DF93F82E6F
:10285000092F162FD72FC42F222349F081E0809310
:102860003B020E94232190933A0280933902809187
:102870003B028823A1F08091390290913A020E9494
:102880003B21059760F0EF2DF02FA12FBD2FCE0F2C
:10289000DF2FD11DEC17FD0741F410923B02DF91B1
:1028A000CF911F910F91FF90089581918D93F2CF59
:1028B0000E94A0200E9425230E943E230E945023B4
:1028C0000E943011FBCF8091420280FF12C06091C4
:1028D000110185E0689FB001112475956795759584
:1028E000679560387105A8F561157105A1F1862F0E
:1028F000089581FF09C06091110185E0689FB001D2
:10290000112475956795EDCF6091110182FD0AC084
:10291000809141028823D1F09091100160911101C2
:10292000891728F085E0689FB0011124DACF869FCF
:10293000B001112485E0869F9001879F300D1124FE
:10294000692F70E0C9010E940729CBCF65E070E0D4
:10295000CECF8FE7089581E008958091420280FFF5
:102960000CC060910D0170E0759567957595679540
:102970006115710549F1862F089581FF06C06091A8
:102980000D0170E075956795F3CF60910D0182FDA3
:102990000BC0909140029923A1F060910C018091AD
:1029A0000D01961738F0682F70E06038710500F35C
:1029B0008FE70895899FC001112470E00E940729C4
:1029C000F4CF61E070E0D7CF81E00895803F31F42B
:1029D0000E9463148195809346020895813F19F403
:1029E0000E946314F8CF823F31F40E9463148195F2
:1029F000809345020895833F19F40E946314F8CF31
:102A0000893F29F40E94AD148093470208958A3FBC
:102A100021F40E94AD148195F7CF8B3F31F40E94D1
:102A2000AD1481958093480208958C3F19F40E945B
:102A3000AD14F8CF9CE0980F953070F4845F990B3B
:102A400021E030E001C0220F8A95EAF7809144022C
:102A5000822B8093440208958D3F31F4809142028D
:102A600081608093420208958E3F21F4809142025A
:102A70008260F7CF8F3FB9F7809142028460F1CF37
:102A800040914502803F59F48091460287FF0DC076
:102A90001092460241110BC01092410208C0813FC2
:102AA00081F48091460218169CF3442381F08091B2
:102AB000470290914802892B09F05AC010924002B7
:102AC0000895823F49F447FFF0CF1092450280916C
:102AD00046028111ECCFE0CF833F19F41416ACF31A
:102AE000E4CF90914702893F29F41916F4F6109229
:102AF0004702DBCF8A3F19F497FFD7CFF8CF9091E9
:102B000048028B3F29F497FFD0CF10924802CDCFD7
:102B10008C3F19F41916CCF3C8CF9CE0980F953070
:102B200090F4845F990B21E030E0B90102C0660F98
:102B3000771F8A95E2F7CB01809590914402892313
:102B400080934402B2CF8D3F31F4809142028E7F58
:102B500080934202AACF8E3F21F4809142028D7F62
:102B6000F7CF8F3F09F0A1CF809142028B7FF0CF4A
:102B700008950E9423219C01909145028091460274
:102B8000982B21F030933F0220933E029091470210
:102B900080914802982B21F030933D0220933C0213
:102BA00083E492E00C941320EF92FF920F931F9313
:102BB000CF93DF9300D000D000D0CDB7DEB786E052
:102BC000E3E4F2E0DE01119601900D928A95E1F7BF
:102BD000E0904502F09046020091470210914802B1
:102BE000109245021092460210924702109248023B
:102BF0008E2D8F2991F080913E0290913F020E948C
:102C00003B21AC0190914102992309F43FC080918E
:102C100012018417150608F447C0802F812B91F00C
:102C200080913C0290913D020E943B21AC01909129
:102C30004002992309F477C080910E01841715068C
:102C400008F47FC08091450290914602892B9091B3
:102C50004702892B90914802892B11F00E94B915E7
:102C600086E0FE013196A3E4B2E001900D928A95D0
:102C7000E1F726960FB6F894DEBF0FBECDBFDF9109
:102C8000CF911F910F91FF90EF9008952091130124
:102C90008AE0289F900111242417350708F0BDCF42
:102CA0009F5F9093410202C09F3FD1F7EE2059F001
:102CB0000E9463149FEF1E140CF491E0899F802DF5
:102CC000112480934502FF2059F00E9463149FEF66
:102CD0001F140CF491E0899F802D112480934602EB
:102CE00030914502332309F498CF209146022223E4
:102CF00009F493CF45EB3403C0011124992359F013
:102D00009093450245EB240390011124332339F0BD
:102D10003093460282CF81E080934502F3CF81E079
:102D2000809346027ACF20910F018AE0289F90017C
:102D300011242417350708F085CF9F5F9093400238
:102D400002C09F3FD1F7002359F00E94AD149FEFBE
:102D500010160CF491E0899F802D11248093470276
:102D6000112359F00E94AD149FEF11160CF491E05D
:102D7000899F802D1124809348023091470233238C
:102D800009F460CF20914802222309F45BCF45EB80
:102D90003403C0011124992359F09093470245EB65
:102DA000240390011124332339F0309348024ACF91
:102DB00081E080934702F3CF81E08093480242CFC5
:102DC00086E0E3E4F2E0DF011D928A95E9F71092D4
:102DD000410210924002109242020895EF92FF9237
:102DE0000F931F93CF93DF93EB01E82FD11110C006
:102DF000442321F0F0E0E456FC4FE4916E2F7E2F47
:102E00008E2FDF91CF911F910F91FF90EF9008953A
:102E10000D2F10E0282F30E0442329F024563C4F9A
:102E2000F901249130E0F6E0CF9FC0011124EFEFCB
:102E3000F0E0BF010E94F328AB018C2F90E0880FD7
:102E4000991FA5E5A49FB001A59F700D1124861BB5
:102E5000970B982F990F980FBF01601B710B629F02
:102E6000D001639FB00D729FB00D11248B2F9D9FD9
:102E7000B0011124672F7727EF01C61BD70BBE01C6
:102E8000629FE001639FD00D729FD00D11247F01DE
:102E9000E91AF108E09EB001E19E700DF09E700D00
:102EA0001124672F7727E61BF70BE29F8001E39F32
:102EB000100DF29F100D1124E12F722F4230510599
:102EC00099F048F44115510569F04130510581F000
:102ED000EB2F8D2F07C04430510569F080F046304C
:102EE0005105B1F76E2F8DCFE22F7B2F812FFACFB7
:102EF000E22F7D2FF7CFEB2F822F712FF3CF7B2F78
:102F0000822FED2FEFCF41E00C94EE160C94831737
:102F1000CF93DF93762FE901682F842F0E948617C5
:102F2000798368838A83DF91CF91089580918102AC
:102F3000982F9E7F39F48091810281708260809306
:102F4000810208958430B8F7089588E090E00C94E9
:102F50003029CF92DF92EF92FF926B017C010E94A9
:102F60009617B701A60188E090E0FF90EF90DF9000
:102F7000CF900C944E2960918102709182028091D1
:102F80008302909184020C94A917E1E8F2E083E0B7
:102F9000808311828FEF82838383148260817181A9
:102FA000828193810C94A9178091810280FF02C0D5
:102FB0008695089580E0089590918502933018F4E5
:102FC0009F5F90938502882351F0609181027091F8
:102FD000820280918302909184020C94A917089533
:102FE00081E00C94DC1790918502992319F091509F
:102FF00090938502882351F0609181027091820242
:1030000080918302909184020C94A917089581E025
:103010000C94F317809185020895809385026623AE
:1030200051F06091810270918202809183029091AF
:1030300084020C94A917089560E00C940D188091F7
:1030400082020895809183020895809184020895F8
:1030500070E00C942A1A609115018091810280FF22
:103060000AC08091140123E0829FC00111248A5775
:103070009D4F0C942818E091160180911701E817D4
:1030800080F78E2F90E0FC01EE0FFF1FE80FF91F75
:10309000EA57FD4F118210821282E3CFE1E8F2E09D
:1030A00080818E7F808360817181828193810E9483
:1030B000A9172FEF80E792E0215080409040E1F780
:1030C00000C000000C942B18E1E8F2E080818E7FB4
:1030D00080832FEF80E792E0215080409040E1F71D
:1030E00000C000000C942B189091810290FF14C036
:1030F000E091160190911701E91760F42E2F30E04E
:10310000F901EE0FFF1FE20FF31FEA57FD4F818316
:10311000608342830C942B180895EF92FF920F93D3
:103120001F93CF93DF9300D00F92CDB7DEB7F82E69
:10313000062F142FE22E8091810280FF28C0E82FF5
:10314000E695F0E0E856FE4F908190934A028E7F1C
:10315000823059F49E012F5F3F4F8F2D0E948817B8
:103160004B8169818A810E947418F09282020093D7
:10317000830210938402EE2051F0609181027091DD
:10318000820280918302909184020E94A9170F907D
:103190000F900F90DF91CF911F910F91FF90EF90C3
:1031A0000895E1E8F2E09181282F4381628188E06F
:1031B000890F0C948D1881E00C94D118E1E8F2E0AD
:1031C0009181282F4381628188EF890F0C948D189B
:1031D00081E00C94DE18E1E8F2E0628121E1620F07
:1031E00008F46FEF282F438181810C948D1881E0C2
:1031F0000C94EB18E1E8F2E0628121E1621B08F433
:1032000060E0282F438181810C948D1881E00C941B
:10321000FA18E1E8F2E0438121E1420F08F44FEFB0
:10322000282F628181810C948D1881E00C940919FA
:10323000E1E8F2E0438121E1421B08F440E0282F5D
:10324000628181810C948D1881E00C94181920E022
:103250000C948D188091810280FF18C0817082606B
:1032600080938102662351F0609181027091820205
:1032700080918302909184020E94A9174091840258
:1032800060918302809182020C9427190895682F1F
:1032900081E00C942A1981E00C944719682F9091D1
:1032A000810296958FEF890F09F481E00C942A1919
:1032B00081E00C944E1961E00C942A19E1E8F2E0E7
:1032C00080818160808386950C945B198091810256
:1032D00080FD0C944E180C945E1960E00C942A1931
:1032E0008091490281112CC00E944110811104C0BB
:1032F0000E94E5100E94C5170E94A51760938102E5
:103300007093820280938302909384026E7F61F4B3
:103310000E94C5170E94A5176093810270938202D4
:1033200080938302909384020E9496178091810279
:1033300080FF03C086950E946D1981E08093490249
:103340000895E1E8F2E080818160808386950C94A5
:103350006D19FA01811101C0FB0109940F931F93AC
:10336000CF938C01FB01C281CC2309F471C00E9470
:103370008B0F8272093CFCE51F0709F460C048F519
:10338000053CECE51E0709F455C078F4033C9CE5C8
:10339000190709F443C008F048C0023C1C45D9F1A4
:1033A0008C2FCF911F910F91089546E059E167EF5F
:1033B00078E1073C9CE51907A9F14BED58E168EE6F
:1033C00078E1083C1C4570F147EF58E166E079E18F
:1033D00029C00D3CFCE51F07B9F1A0F447E058E116
:1033E00060EF77E10B3CECE51E07E1F045E159E1C8
:1033F00064E279E10C3C1C45A8F040EF57E167E03E
:1034000078E110C0063D8CE5180718F00D351D4514
:1034100039F6C0E0C5CF0E946619FBCF48E559E1F7
:103420006BE479E10E94A919F4CF4BE459E168E516
:1034300079E1F8CF48EE58E16BED78E1F3CF44E263
:1034400059E165E179E1EECF81E00E945B19E1CFBE
:10345000C1E0A6CF539A4BB1477F5BB15860EFB73D
:10346000F8949B01220F331F260F371F280F391F97
:103470002817390741F4EFBF8FE594E00197F1F782
:1034800000C000000895DC016D91CD0178E05BB9CA
:10349000000000C067FF4BB9660F000000C000C00D
:1034A00000C04BB900C07A9591F7E2CF0C942E057D
:1034B00022982A9A26982E9A83B182FB882780F92F
:1034C0001E9905C090E0892B80934E02089592E0EA
:1034D000FACFE0914E02EE0FEE0FE0934E0243B1B1
:1034E00042FB882780F943B146FB222720F946FF9B
:1034F00002C022E030E0822BE82BE0934E02EF7016
:10350000F0E0E656FE4F808190914D02890F809346
:103510004D0220E0843054F080914C028F5F809304
:103520004C0260E080E00E94561A21E080914D023A
:103530008D3F54F480914C02815080934C0261E0A5
:1035400080E00E94561A21E080914D02082E000C66
:10355000990B64E070E00E94072980934D02822F4E
:10356000089583E290E00E942829823289F484E25F
:1035700090E00E942829883059F485E290E00E946A
:10358000282991E0823109F090E0892F8170089517
:1035900080E0FCCFCF93C82F6FEF811162E283E20E
:1035A00090E00E943C296FEFC11168E084E290E056
:1035B0000E943C296FEFC11162E185E290E0CF915A
:1035C0000C943C29089586E290E00E942829682FF7
:1035D00070E090E080E0089586E290E00C943C2951
:1035E00080E00E94CA1A60E070E0CB010E94EC1AF1
:1035F0000E94991C0E94851D81E00C94CA1A0E94A9
:10360000E21A0E94B11A811102C00C94F01A0895B6
:10361000CF93FB01C281CC2309F19C0122513F458C
:103620002031310520F582510E94951DC0E08C2F7C
:10363000CF91089581E00E94A30B43E062E081E016
:103640000E94ED05F3CF81E00E94AE0B43E062E003
:1036500081E00E94ED05EBCF82E0F6CF8031FFE5FF
:103660009F0789F381319F45B9F3C1E0E0CF8031F5
:10367000EFE59E07F9F281319F45C9F682E0DBCF85
:103680002FEFFC0120830895CF93DF93EC01888115
:103690008138A9F028F4803871F0DF91CF91089536
:1036A000823881F08338C9F70E941F1889830E94ED
:1036B00022188A83F2CF0E9425188983EECF0E94B8
:1036C000D417FBCF0E940A18F8CFCF93DF93EC01F9
:1036D00088818138E1F028F4803869F0DF91CF915A
:1036E0000895823811F18338C9F70E942518482FB0
:1036F0006A81898108C0D9810E942218C82F0E943E
:103700001F184D2F6C2FDF91CF910C9427198981B1
:103710000E946D198981811104C0DF91CF910C94B1
:103720006418DF91CF910C94A1198981DF91CF9119
:103730000C941C18EF92FF920F931F93CF93DF937B
:10374000EC01062FDC01ED91CD01E150E33108F0F1
:10375000ADC0F0E0E457F64D0C941B29198289E0C6
:103760008A83602FCE01DF91CF911F910F91FF903F
:10377000EF900C941A228981823069F0833071F0C5
:103780008130D9F40E942F210E9421296A837B83F2
:103790008C839D83E6CF0E94E31AF6CF7E01B2E0D0
:1037A000EB0EF11C10E0812F0E94F213F7018193C0
:1037B0007F011F5F1C30B9F7D4CF602FCE010E946C
:1037C000401BCFCF89818230C1F76A817B818C8198
:1037D0009D810E9421290E94EC1AC3CF4B816A81EE
:1037E00089810E946B1C9827892798279D838C8349
:1037F000B8CF2C813D813227232732274B816A8124
:1038000089810E94841CADCF0E94991CAACF0E947E
:10381000651BA7CF0E94441BA4CF0E94BB17A1CF5A
:103820000E942E1D89839DCF0E94301D98278927D5
:1038300098279A83898395CF6B8170E089819A81DB
:10384000AE014C5F5F4F9827892798270E94331D50
:1038500088CF6B8170E089819A81AE014C5F5F4FA8
:103860009827892798270E945A1D7BCF0E94851D83
:1038700078CF0E94591CD6CF6B8170E089819A81E4
:10388000AE014C5F5F4F9827892798270E94D11C73
:1038900068CF6B8170E089819A81AE014C5F5F4F88
:1038A0009827892798270E94F71C5BCF8FEF888382
:1038B00058CF84E0089550E0440F551F9CE0699F65
:1038C000400D511D112490E9899F400D511D112477
:1038D000CA01879608950F931F93CF93DF930E9499
:1038E0005B1C8C010E942829C82FD0E0DC2FCC273C
:1038F000C80101960E9428299E01282BC901DF9149
:10390000CF911F910F9108950F931F93CF93DF9342
:10391000122F032F0E945B1CEC01602F0E943C2998
:10392000612FCE010196DF91CF911F910F910C94E1
:103930003C29AF92BF92CF92DF92EF92FF921F93FA
:10394000CF93DF938CEAC82E80E0D82ED0E07601AA
:10395000C0E014C0F50125913491412F6C2F8D2FBB
:103960000E94841C82E0A80EB11C1F5F163091F7E4
:103970008CE0E80EF11CCF5FCC3019F0570110E05D
:10398000E9CFDF5F80E9C80ED11CD43001F7DF91A9
:10399000CF911F91FF90EF90DF90CF90BF90AF90AD
:1039A0000895EF92FF920F931F93CF93DF93EC0153
:1039B0008A017C01E60EF71ECE018796CE15DF0543
:1039C00039F4DF91CF911F910F91FF90EF900895FF
:1039D000C03422E0D20740F40E942829F8018083F5
:1039E0000F5F1F4F2196E8CFF8011082F9CFCF92D9
:1039F000DF92EF92FF920F931F93CF93DF937C019F
:103A00006A018C01060F171FEC01CE018796C017C3
:103A1000D10749F4DF91CF911F910F91FF90EF9063
:103A2000DF90CF900895C03422E0D20740F4FE0129
:103A3000EE19FF09EC0DFD1D60810E943C292196C5
:103A4000E4CF462F843038F47C3028F4663018F404
:103A5000672F0C946B1C90E080E0089580E108953E
:103A600089E991E00895EF92FF920F931F93CF930E
:103A7000DF93EC018A017C01E60EF71ECE01895925
:103A80009D4FCE15DF0539F4DF91CF911F910F9136
:103A9000FF90EF900895C93921E0D20740F40E94C9
:103AA0002829F80180830F5F1F4F2196E7CFF80187
:103AB0001082F9CFCF92DF92EF92FF920F931F9374
:103AC000CF93DF937C016A018C01060F171FEC0175
:103AD000CE0189599D4FC017D10749F4DF91CF918D
:103AE0001F910F91FF90EF90DF90CF900895C9390B
:103AF00021E0D20740F4FE01EE19FF09EC0DFD1D97
:103B000060810E943C292196E3CFCF93DF93C7E6E3
:103B1000D2E060E0CE010E943C292196C11584E0EC
:103B2000D807B9F7DF91CF910895DF92EF92FF9216
:103B30000F931F93CF93DF9300D000D0CDB7DEB7A4
:103B4000F82E8FE08F1540F08FEF93E00E94282928
:103B500007E612E08823C1F00F900F900F900F90AE
:103B6000DF91CF911F910F91FF90EF90DF9008951B
:103B7000011584E0180781F3C8010E9428298111EA
:103B800001C0FA940F5F1F4FF110F2CF19821A8211
:103B90001B821C82DD24D39478018FEFE81AF80A87
:103BA000C8010E94282989831A828823A9F29FEFDD
:103BB000980F933078F48A83D9820E5F1F4FC70124
:103BC0000E9428298B83882339F2CE0101960E9416
:103BD0003B07E2CF8701F9CF0F931F93CF93DF937A
:103BE000C42FD22FFC0182818823C9F04093510257
:103BF0000E9423219093500280934F0280E28C0F09
:103C0000883008F050C0C77081E001C0880FCA95A5
:103C1000EAF7DF91CF911F910F910C94E508109175
:103C20005102141335C080914F02909150020E94AE
:103C30003B21883C910560F5C0E2CD0F1D17B9F01E
:103C400080E2810F883040F4177081E001C0880F56
:103C50001A95EAF70E94EC08C83048F481E09D2FDD
:103C6000977001C0880F9A95EAF70E94E508802FA7
:103C70000E94DD08C830B8F4D77081E001C0880F19
:103C8000DA95EAF7DF91CF911F910F910C94EC0830
:103C900080E28C0F883038F4C77081E001C0880F53
:103CA000CA95EAF7EFCFDF91CF911F910F91089559
:103CB0000F939C01CB01233F4CE5340759F1A8F445
:103CC000283DFCE53F0701F1293D4CE53407D1F1E2
:103CD000273D3C4591F406E221EE41EE67ED7CE59F
:103CE0000E94EC1D80E00F910895253FFCE53F0701
:103CF000E9F0B0F0263F3C45F9F0FC0182818823D1
:103D000039F110925102EFCF07E225EE45EE68ED52
:103D10007CE5E6CF06E221EE40EE63EF7CE5E0CF06
:103D200007E225EE44EE64EF7CE5DACF06E221EE11
:103D300042EE65EF7CE5D4CF07E225EE46EE66EF76
:103D40007CE5CECF08E221E045EE69ED7CE5C8CF09
:103D500081E0C9CFCF93DF93EC01FB0182818823FF
:103D600009F419C1C230FCE5DF07C0F1C6319CE59A
:103D7000D90730F09E012A5F3C452930310570F5A6
:103D80000E9454109093680280936702C031ECE562
:103D9000DE0709F4CFC008F05BC0C8308CE5D80757
:103DA00009F4B6C088F5C430ECE5DE0709F4A8C014
:103DB000C0F4C2308CE5D80709F49CC0809167023A
:103DC0008260C330DC4509F498C08091670290910D
:103DD00068020E9462100E942C0B80E0DF91CF915C
:103DE0000895809167028061C630ECE5DE0709F432
:103DF00084C0809167028860C730DC4508F47DC0CC
:103E000080916702806279C0CC308CE5D80709F4D4
:103E100089C070F4809167028C60CA30ECE5DE07DF
:103E200009F46BC008F478C0809167028E7F65C08A
:103E3000CE308CE5D80709F479C0809167028B7F7A
:103E4000CF30DC4508F459C0809167028F7E55C0A1
:103E5000CB3FECE5DE0709F457C030F5C3318CE504
:103E6000D80709F46FC078F4C131ECE5DE0709F436
:103E700065C0C231DC4509F0A8CF0E942C0B8091AF
:103E800067028F773AC0C5318CE5D80709F462C064
:103E900008F476C0809168028160CA3FDC4509F071
:103EA00094CF8093680291CFCF3FFCE5DF0709F400
:103EB0004DC088F4809168028D7FCD3F9CE5D90785
:103EC00081F3809168028E7FCE3FDC4550F3809174
:103ED00068028360E6CFC130FDE5DF0709F459C011
:103EE00008F444C080E0C230DD4509F06ECF0E9486
:103EF000E7106BCF8091670281608093670265CF86
:103F0000809167028460F9CF809168028260C9CF96
:103F1000809167028064F1CF0E942C0B8091670230
:103F20008068EBCF809167028D7FE7CF8091670239
:103F3000877FE3CF809167028F7DDFCF809167021B
:103F40008F7BDBCF80916702837FD7CF8091680220
:103F50008C7FA7CF8091670282FB992790F921E09F
:103F6000922790FB82F990FB83F9C7CF809168027A
:103F7000982F909591708E7F892B90FB81F991CF2E
:103F80000E942C0B90916702892F97FB87F980582C
:103F9000B4CF81E0ACCF81E021CFCF93DF93EB01B1
:103FA00086319C4511F50E948B0F9A81992399F0D7
:103FB0008A7A91E009F490E090935202811109C04D
:103FC00089E20E94450F0E94CE0F80E0DF91CF91E1
:103FD000089585E3F6CF80915202811104C089E2F1
:103FE0000E944C0FF0CF85E3FBCF81E0EFCF9093A1
:103FF0005802809357020895E0915702F0915802B9
:10400000309721F00190F081E02D099480E008952F
:10401000E0915702F0915802309721F00280F3812D
:10402000E02D09940895E0915702F09158023097DD
:1040300039F022E0DC012C930480F581E02D099415
:10404000089520915502309156022817390771F0D2
:104050009093560280935502E0915702F0915802D6
:10406000309721F00680F781E02D09940895209182
:104070005302309154022817390771F0909354027B
:1040800080935302E0915702F0915802309721F04B
:104090000084F185E02D099408959C012E5F3F4F27
:1040A000AC01485F5F4F80E02417350709F408959D
:1040B000F90191919F019923B9F38F5FF5CF6623A1
:1040C00049F0FC01329608962191261729F0E8174D
:1040D000F907D1F780E0089581E008959C01FC0183
:1040E00032969FEF80E04191461751F09F3F19F4BF
:1040F000411101C0982F8F5F8630A9F79F3F09F4C7
:104100000895290F311D97FD3A95F90162830895AD
:10411000FC01329608962191261303C0DF01119706
:104120001C92E817F907B9F708950C946E200C94C7
:104130008820029626E0FC0111922A95E9F708955D
:104140000895089508950C94A220809191028430DE
:1041500049F10E94A32080E00E9493071092590227
:1041600088E190E020E40FB6F894A8958093600071
:104170000FBE2093600083B7817F846083BF83B7C5
:10418000816083BF7894889583B78E7F83BF0FB695
:10419000F894A895809160008861809360001092E7
:1041A00060000FBE08950895CF930E94A1200E9441
:1041B0000E140E94D320C0E08C2F0E94F2138111B4
:1041C00005C0CF5FCC30C1F7CF91089581E0FCCF1F
:1041D00008950C94E8200E942C0B0E94FC1F0E9462
:1041E00093070C94E9201F921FB61F9211248F93FE
:1041F0009F93AF93BF9380915902811113C0809117
:10420000890290918A02A0918B02B0918C02419612
:10421000A11DB11D8093890290938A02A0938B0205
:10422000B0938C02BF91AF919F918F911F901FBE51
:104230001F90189582E084BD93E095BD9AEF97BDDD
:1042400080936E0008952FB7F89480918902909121
:104250008A02A0918B02B0918C022FBF08952FB7D4
:10426000F8946091890270918A0280918B029091FA
:104270008C022FBF08959C014FB7F894809189025A
:1042800090918A02A0918B02B0918C024FBF821B49
:10429000930B089578941F921FB61F9211248F9349
:1042A0009F93AF93BF938091890290918A02A091CE
:1042B0008B02B0918C020196A11DB11D80938902E1
:1042C00090938A02A0938B02B0938C02BF91AF911E
:1042D0009F918F911F901FBE1F90189581E0809332
:1042E000E00080E28093D8001092C9008FE19EE444
:1042F0000197F1F700C0000087E090EBDC018093AC
:104300009A0290939B02A0939C02B0939D0288E135
:104310009CE00FB6F894A895809360000FBE909330
:104320006000FFCF9093BB018093BA010895809104
:104330006502089590919102943029F580935A0274
:1043400070935C0260935B029093E9008FEF909111
:10435000E800815095FD06C095ED9A95F1F70000B3
:104360008111F5CF8091E80085FF0DC050E040E05D
:1043700063E070E08AE592E00E9413248091E800F7
:104380008E778093E8000895BC0184E00C949A2114
:10439000BC0183E00C949A219C0184E08093E900A5
:1043A0009FEF8091E800915085FD06C085ED8A95CC
:1043B000F1F700009111F5CF8091E80085FF0CC066
:1043C00050E040E066E070E0C9010E941324809153
:1043D000E8008E778093E8000895CF93DF93EC0197
:1043E00081E08093E9008FEF9091E800815095FD86
:1043F00006C095ED9A95F1F700008111F5CF8091F7
:10440000E80085FF14C050E040E068E070E0CE01B5
:104410000E9413248091E8008E778093E80088E062
:10442000FE01ADE5B2E001900D928A95E1F7DF91D2
:10443000CF910895CF93FC01603221F580919102D4
:10444000843001F5C091E900CF702091EC00922FEB
:10445000917020FD90E8C92B82E08093E900809163
:10446000E80080FF0CC050E040E060E270E0CF0167
:104470000E9413248091E8008E778093E800CF702B
:10448000C093E900CF91089580919002811109C0F5
:104490000E94F2250E944F268091E2008460809362
:1044A000E2000895109290020895089508950895E5
:1044B00042E061EC81E00E946E2542E261EC84E022
:1044C0000E946E2542E261EC82E00E946E2542E28B
:1044D00060EC83E00C946E2580919302833009F4A4
:1044E00061C030F48130D1F1823009F49DC008956B
:1044F0008A3009F489C08B3009F46FC0893009F023
:1045000050C080919202813209F04BC08091960296
:1045100090919702009719F0029709F042C080919C
:10452000E800877F8093E8008091E80082FF35C033
:104530009091F3008091F200029729F48091F100AC
:104540008B7F813021F48091F1008093650280910E
:10455000E8008B778093E8000C94A225809192026A
:10456000813AF9F48091E800877F8093E800809198
:10457000960290919702892B61F468E08DE592E0B4
:1045800070E00E94B1248091E8008B778093E8006E
:10459000089560E090E080E0F3CF80919102811176
:1045A000C3CF089580919202813AD9F78091960203
:1045B00090919702892BA9F78091E800877F8093DB
:1045C000E8008091E80080FFFCCF80912301809378
:1045D000F1008091E8008E77BDCF80919202813208
:1045E00001F78091960290919702892BD1F68091E4
:1045F000E800877F8093E8000E94A22580919402C2
:10460000809323010C942C0B80919202813249F605
:104610008091E800877F8093E8000E94A225809126
:10462000950280936602089580919202813A09F082
:10463000B8CF8091E800877F8093E8008091E80000
:1046400080FFFCCF80916602C2CF84B7877F84BF92
:104650000FB6F894A89580916000886180936000FF
:10466000109260000FBE80E890E00FB6F89480933F
:104670006100909361000FBE0C9420110E94F225FE
:104680000E944F26E2EEF0E080818460808378947F
:104690000E94D8280E94341189E191E00C94F71F00
:1046A000CF93DF93CDB7DEB7A0970FB6F894DEBFF8
:1046B0000FBECDBF80919102853031F4809191027F
:1046C000853091F10E94EB200E944011809191026F
:1046D000843009F583E08093E9008091E80082FF4F
:1046E0001AC08091E80090E085FF09C050E040E0EA
:1046F00060E270E0CE0101960E94622491E0809118
:10470000E8008B778093E800992329F060E2CE01DE
:1047100001960E949A1BA0960FB6F894DEBF0FBEBA
:10472000CDBFDF91CF9108950E94A52080918F0287
:10473000882321F20E94D420882309F4BFCF0E944D
:10474000FD230E942C0BBACF0C94A623292F3327CC
:104750002330310521F168F42130310509F443C0DB
:104760002230310509F444C090E080E030E020E0E0
:1047700026C02132310551F122323105A9F76330CB
:10478000710590F7FB01EE0FFF1FE355FE4F2081EF
:10479000318166557E4FFB01808190E010C09927E2
:1047A0008130910581F0009729F00297E9F6ECE954
:1047B000F4E002C0E0ECF4E0849190E09F01FA01A3
:1047C000318320830895ECEAF4E0F6CF633071057D
:1047D00058F6660F771FFB01ED54FE4F20813181A3
:1047E00089E090E0ECCF82E190E02FE135E0E7CF87
:1047F0008BE590E024EC34E0E2CF80E189BD82E1FA
:1048000089BD09B400FEFDCF8091D8008F7D8093D3
:10481000D8008091E00082608093E0008091E00009
:1048200081FDFCCF0895AF92BF92CF92DF92FF92AD
:104830000F931F93CF93DF936C01EB018A010E94CA
:10484000C125F82E811123C00115110539F0F80199
:1048500080819181C81BD90BC80ED91EB12CA12C07
:104860002097A9F08091E80085FD22C08091E800A2
:104870008E778093E80001151105A1F0F801808181
:104880009181A80EB91EB182A08285E0F82E8F2DED
:10489000DF91CF911F910F91FF90DF90CF90BF904C
:1048A000AF9008950E94C1258823D1F2F82EEFCF52
:1048B000F60181916F018093F1002197FFEFAF1A0C
:1048C000BF0ACECFAF92BF92CF92DF92FF920F93EB
:1048D0001F93CF93DF936C01EB018A010E94C125E6
:1048E000F82E811123C00115110539F0F8018081DE
:1048F0009181C81BD90BC80ED91EB12CA12C2097B1
:10490000A9F08091E80085FD22C08091E8008B77B6
:104910008093E80001151105A1F0F80180819181D3
:10492000A80EB91EB182A08285E0F82E8F2DDF91EE
:10493000CF911F910F91FF90DF90CF90BF90AF90DC
:1049400008950E94C1258823D1F2F82EEFCF8091DF
:10495000F100F60181936F012197FFEFAF1ABF0AB3
:10496000CECFFC018091980290919902861797070B
:10497000A0F06115710529F49091E8009E7790935D
:10498000E80090E06115710551F4911108C0809123
:10499000E80082FF34C080E00895BC01F2CF80912E
:1049A00091028823C1F18530C1F18091E80083FD37
:1049B00030C08091E80082FDEACF8091E80080FF5E
:1049C000E1CF8091F3002091F200382F611571053D
:1049D00019F02830310558F091E02830310509F000
:1049E00090E02091E8002E772093E800CBCF8191D2
:1049F0008093F100615071092F5F3F4FE7CF8091A5
:104A00009102882341F0853041F08091E80083FFD6
:104A1000BECF81E0089582E0089583E00895FC010F
:104A2000809198029091990286179707A0F06115DE
:104A3000710529F48091E8008E778093E80090E07A
:104A40006115710551F4911108C08091E80082FF51
:104A500035C080E00895BC01F2CF80919102882397
:104A6000C9F18530C9F18091E80083FD31C08091A2
:104A7000E80082FDEACF8091E80080FFE1CF8091DD
:104A8000F3002091F200382F6115710519F02830DC
:104A9000310558F091E02830310509F090E080911F
:104AA000E8008E778093E800CBCF84918093F1006B
:104AB0003196615071092F5F3F4FE6CF809191028F
:104AC000882341F0853041F08091E80083FFBDCF1D
:104AD00081E0089582E0089583E00895982F97304B
:104AE00028F08F708093E90081E008959093E900A9
:104AF000242F762F50E0981731F07091EC00209120
:104B0000ED005091F00021FD02C09F5FE8CF309191
:104B1000EB003E7F3093EB003091ED003D7F309312
:104B2000ED003091EB0031603093EB007093EC00BE
:104B30002093ED005093F0002091EE0027FDE5CF8B
:104B400080E008958091920287FF13C08091E80071
:104B500082FF06C08091E8008B778093E80004C054
:104B6000809191028111F2CF089580919102882362
:104B7000D9F38091E80080FFF8CF8091E8008E772C
:104B8000ECCF2091E4003091E50095E6A901209159
:104B9000EC00822F817020FF06C08091E80080FF2A
:104BA00006C080E008952091E80022FD1AC080919F
:104BB0009102882389F0853089F08091EB0085FD92
:104BC0000FC02091E4003091E50042175307F9F23D
:104BD0009150E1F684E0089582E0089583E008951D
:104BE00081E008950E9460260E946826E0EEF0E0D1
:104BF000808181608083E8EDF0E080818F77808321
:104C000019BCA7EDB0E08C918E7F8C9380818F7E54
:104C100080831092900208950F931F93CF93DF9398
:104C20000E9460260E946826C8EDD0E088818F77B8
:104C3000888388818068888388818F7D888319BC78
:104C40001092910210928D0210928F0210928E0299
:104C500000EE10E0F80180818B7F80838881816085
:104C6000888342E060E080E00E946E25E1EEF0E0A3
:104C700080818E7F8083E2EEF0E08081816080839E
:104C8000808188608083F80180818E7F8083888125
:104C900080618883DF91CF911F910F910895E8ED96
:104CA000F0E080818F7E8083E7EDF0E0808181609D
:104CB000808384E082BF81E0809390020C940C2674
:104CC000E8EDF0E080818E7F80831092E20008950D
:104CD0001092DA001092E10008951F920F920FB621
:104CE0000F9211242F933F934F935F936F937F9372
:104CF0008F939F93AF93BF93EF93FF938091E100C6
:104D000082FF0BC08091E20082FF07C08091E1002A
:104D10008B7F8093E1000E94D7288091DA0080FF8A
:104D200019C08091D80080FF15C08091DA008E7F75
:104D30008093DA008091D90080FF96C080E189BD20
:104D400082E189BD09B400FEFDCF81E0809391022C
:104D50000E9444228091E10080FF19C08091E2000E
:104D600080FF15C08091E2008E7F8093E2008091E9
:104D7000E20080618093E2008091D800806280939D
:104D8000D80019BC85E0809391020E945622809140
:104D9000E10084FF2BC08091E20084FF27C080E106
:104DA00089BD82E189BD89B5982F917080FFFBCFC5
:104DB0008091D8008F7D8093D8008091E1008F7E14
:104DC0008093E1008091E2008F7E8093E2008091E9
:104DD000E20081608093E20080918D02882309F4D3
:104DE00049C084E0809391020E9457228091E100A3
:104DF00083FF29C08091E20083FF25C08091E100FC
:104E0000877F8093E10082E08093910210928D026F
:104E10008091E1008E7F8093E1008091E2008E7F9F
:104E20008093E2008091E20080618093E20042E0A2
:104E300060E080E00E946E258091F00088608093A1
:104E4000F0000E945522FF91EF91BF91AF919F9189
:104E50008F917F916F915F914F913F912F910F9023
:104E60000FBE0F901F90189519BC109291020E94CE
:104E7000522270CF8091E30087FD93E090939102DE
:104E8000B3CF1F920F920FB60F9211242F933F931F
:104E90004F935F936F937F938F939F93AF93BF9342
:104EA000CF93DF93EF93FF93D091E900DF70809170
:104EB000EC00C82FC17080FDC0E81092E90080911D
:104EC000F000877F8093F00078940E9485271092ED
:104ED000E9008091F00088608093F000CD2BCF70C6
:104EE000C093E900FF91EF91DF91CF91BF91AF9116
:104EF0009F918F917F916F915F914F913F912F91F2
:104F00000F900FBE0F901F9018951F93CF93DF93B4
:104F1000CDB7DEB7AA970FB6F894DEBF0FBECDBFF0
:104F200082E992E02091F100FC012193CF01F2E0AF
:104F30008A399F07B9F70E946C228091E80083FFAD
:104F40001EC180919202909193029A3008F017C18D
:104F5000E92FF0E0E156F64D0C941B29803899F0CA
:104F6000823809F00CC1809196028F70873008F06A
:104F700006C18093E9008091EB0085FB882780F9CA
:104F80001092E90006C080918E0290918F029111DB
:104F900082609091E800977F9093E8008093F10001
:104FA0001092F1008091E8008E77E5C0882309F423
:104FB000D3C0823009F0E3C0809194028111D6C041
:104FC000809196028F702FEF280F263008F0D7C0FF
:104FD0008093E9002091EB0020FFC8C0933031F4AA
:104FE0008091EB0080628093EB00C0C09091EB0059
:104FF00090619093EB0021E030E001C0220F8A9590
:10500000EAF72093EA001092EA008091EB008860B2
:10501000EACF8111B4C0109194021F778091E30010
:105020008078812B8093E3008091E800877F8093D4
:10503000E8000E94A2258091E80080FFFCCF8091CB
:10504000E30080688093E30082E0111183E08093A5
:10505000910295C08058823008F091C080919402EE
:10506000909195028C3D23E09207A1F583E08A831D
:105070008AE289834FB7F894DE01139620E03EE080
:1050800051E2E32FF0E050935700E49120FF03C07A
:10509000E295EF703F5FEF708E2F90E0EA30C0F046
:1050A000C7968D939D932F5F243159F74FBF809101
:1050B000E800877F8093E8006AE270E0CE01019605
:1050C0000E94B1248091E8008B778093E80057C05C
:1050D000C096E7CF6091960270919702AE014F5F44
:1050E0005F4F0E94A423BC01892B09F448C0909112
:1050F000E800977F9093E80089819A810E940F25AC
:10510000E1CF8038E1F58091E800877F8093E80067
:1051100080918D028093F10045CF811130C0909134
:105120009402923060F58091E800877F8093E800D8
:1051300090938D020E94A22580918D02882311F008
:1051400084E005C08091E30087FDFACF81E0809381
:1051500091020E94582213C080919402813079F408
:1051600081E0933009F080E080938F021092E90093
:105170008091E800877F8093E8000E94A2258091BB
:10518000E80083FF0AC08091E800877F8093E800F1
:105190008091EB0080628093EB00AA960FB6F894A2
:1051A000DEBF0FBECDBFDF91CF911F91089508954F
:1051B000CF93809191028823A1F0C091E900CF7034
:1051C0009091EC00892F817090FD80E8C82B10929F
:1051D000E9008091E80083FD0E948527CF70C0938D
:1051E000E900CF910895AA1BBB1B51E107C0AA1F7C
:1051F000BB1FA617B70710F0A61BB70B881F991F78
:105200005A95A9F780959095BC01CD01089597FB1B
:10521000072E16F4009407D077FD09D00E94F328DA
:1052200007FC05D03EF4909581959F4F08957095A9
:1052300061957F4F0895EE0FFF1F0590F491E02DCB
:10524000099469279627692778278727782708955B
:10525000F999FECF92BD81BDF89A992780B508953E
:10526000A6E1B0E044E050E00C946229A8E1B0E08F
:1052700042E050E00C946229262FF999FECF92BDAE
:1052800081BDF89A019700B4021639F01FBA20BD0B
:105290000FB6F894FA9AF99A0FBE08950396272F3D
:1052A0000E943D290E943C29252F0E943D29242F40
:1052B0000C943D290196272F0E943D290C943C29EE
:1052C000DC01CB01FC01F999FECF06C0F2BDE1BDC6
:1052D000F89A319600B40D9241505040B8F70895B5
:1052E000F894FFCF2A092A0982098209D409F00912
:1052F00057095709FB09620A710A710A3B0B3B0BFC
:10530000440B440B460B440B440B440B3B0B3B0B35
:105310004B0B440B440B4B0BAE1BBB1BE21BEE1B9E
:10532000F91B041C071C0A1C0D1C561C561C101CC7
:10533000141C1C1C291C361C391C3C1C491CAE2787
:10534000D627BF28D627BF2809282A28BF28812882
:025350008D28A6
:10535200050B000000050500000014022808641E69
:10536200140A321E00010001019721ED21CC21C84F
:1053720021C42101F4F5F6F73133946697C634352A
:10538200000000000000E200E900EA00B500B600FB
:10539200B700CD008301CC008A0192019401210261
:1053A200230224022502260227022A02B300B400A5
:1053B2006F007000818283E200E900EA00B500B666
:1053C20000B700CD008301CC008A01920194012133
:1053D20002230224022502260227022A02B300B473
:1053E200006F007000818283000100FF0100010054
:1053F20000FFFF0000010001FF0040227BCE0531CB
:0A540200055305D604EF040F050062
:00000001FF
