:100000000C94EB050C9423060C9423060C94230605
:100010000C9423060C9423060C9423060C942306BC
:100020000C9423060C9423060C94DA2E0C94AE2F19
:100030000C940D290C9423060C9423060C9423068F
:100040000C9423060C9423060C9423060C9423068C
:100050000C9423060C9494290C9423060C942306E8
:100060000C9423060C9423060C9423060C9423066C
:100070000C9423060C9423060C9423060C9423065C
:100080000C9423060C9423060C9423060C9423064C
:100090000C9423060C9423060C9423060C9423063C
:1000A0000C9423060C9423060C94230680818283EF
:1000B0008485868788898A8B8C8D8E8F9091929388
:1000C00094A0A1A2A3A4A5A6A7A8A9AAABACADAED3
:1000D000AFB0B1B2B3B4C0C1C2C3C4C5C6C7C8C94A
:1000E000CACBCCCDCECFD0D1D2D3D400004C454456
:1000F0000000556E646566003474680033726400F5
:10010000326E6400317374004C4159455200001E38
:10011000001F0020002900210022002B00E100E048
:1001200000140004001D001A0016001B0008000740
:1001300000060015000900190017000A0005002C30
:10014000002C002C001C000B00110018000D0010EA
:10015000000C000E000000360012000F00370013E4
:1001600000330038002F003400E50030002800E69E
:10017000002A00E70001511E00210024001F002278
:100180000025002000230026002700310050002D0C
:1001900000520051002E0035004F001D00000023CA
:1001A000002400250001002600270039000100017D
:1001B0000001000100010001000100010001000137
:1001C0000001000100010001000100010001000127
:1001D0000001000100010001000100010001000117
:1001E0000046004A0000004D0047004B004E00480A
:1001F00000010001000100010001000100010001F7
:10020000000100010001003A003D0040003B003EBB
:100210000041003C003F004200430049000100440F
:10022000000100010045004C0001001D0000001EFF
:10023000001F0020002900210022002B00E100E027
:1002400000140004001D001A0016001B000800071F
:1002500000060015000900190017000A0005002C0F
:10026000002C002C001C000B00110018000D0010C9
:10027000000C000E000000360012000F00370013C3
:1002800000330038002F003400E50030002800E67D
:10029000002A00E70001511E00210024001F002257
:1002A0000025002000230026002700310050002DEB
:1002B00000520051002E0035004F001D0000001EAE
:1002C000001F0020002900210022002B00E100E097
:1002D00000140004001D001A0016001B000800078F
:1002E00000060015000900190017000A0005002C7F
:1002F000002C002C001C000B00110018000D001039
:10030000000C000E000000360012000F0037001332
:1003100000330038002F003400E50030002800E6EC
:10032000002A00E70001511E00210024001F0022C6
:100330000025002000230026002700310050002D5A
:1003400000520051002E0035004F001D000000003B
:100350000101010101010101010202020202020286
:100360000202030303030303030304040404040459
:10037000040505050505060606060607070707071F
:1003800008080808090909090A0A0A0B0B0B0C0CD2
:100390000C0D0D0D0E0E0E0F0F0F1010111111126E
:1003A0001213131414151516161717181819191AED
:1003B0001A1B1B1C1D1D1E1E1F2020212222232450
:1003C00024252626272829292A2B2C2D2D2E2F308F
:1003D000313232333435363738393A3B3C3D3E3FA3
:1003E000404142434445464748494A4C4D4E4F5090
:1003F000515354555658595A5B5D5E5F616264654E
:100400006668696B6C6D6F7072737577787A7B7DD7
:100410007E8082838587888A8C8E8F91939596982B
:100420009A9C9EA0A2A3A5A7A9ABADAFB1B3B5B747
:10043000BABCBEC0C2C4C6C9CBCDCFD1D4D6D8DB1E
:10044000DDDFE2E4E7E9EBEEF0F3F5F8FAFDFF00BB
:10045000AE00AF00DA0281FFD9F1DB20A4A62EAFF7
:1004600000A0C000A1C800AED580A81FD300408D59
:1004700014200007087F0807003E5B4F5B3E003EEC
:100480006B4F6B3E001C3E7C3E1C00183C7E3C18B3
:10049000001C577D571C001C5E7F5E1C0000183C32
:1004A000180000FFE7C3E7FF00001824180000FF52
:1004B000E7DBE7FF0030483A060E002629792926B7
:1004C00000407F05050700407F05253F005A3CE7B7
:1004D0003C5A007F3E1C1C0800081C1C3E7F001478
:1004E000227F2214005F5F005F5F0006097F017FAB
:1004F00000006689956A0060606060600094A2FFF9
:10050000A2940008047E04080010207E2010000839
:10051000082A1C0800081C2A0808001E10101010C9
:10052000000C1E0C1E0C0030383E383000060E3E0B
:100530000E060000000000000000005F0000000048
:100540000700070000147F147F1400242A7F2A125A
:100550000023130864620036495620500000080743
:10056000030000001C224100000041221C00002A60
:100570001C7F1C2A0008083E08080000807030001C
:10058000000808080808000000606000002010084B
:100590000402003E5149453E0000427F4000007287
:1005A00049494946002141494D33001814127F1032
:1005B000002745454539003C4A4949310041211150
:1005C000090700364949493600464949291E0000B5
:1005D0000014000000004034000000000814224114
:1005E00000141414141400004122140800020159CC
:1005F0000906003E415D594E007C1211127C007FBD
:1006000049494936003E41414122007F4141413E36
:10061000007F49494941007F09090901003E4141E4
:100620005173007F0808087F0000417F41000020CF
:1006300040413F01007F08142241007F404040407C
:10064000007F021C027F007F0408107F003E4141B2
:10065000413E007F09090906003E4151215E007FAD
:10066000091929460026494949320003017F01033F
:10067000003F4040403F001F2040201F003F4038C7
:10068000403F00631408146300030478040300610E
:1006900059494D4300007F414141000204081020A8
:1006A00000004141417F000402010204004040403B
:1006B0004040000003070800002054547840007FA9
:1006C0002844443800384444442800384444287FAF
:1006D0000038545454180000087E09020018A4A4DD
:1006E0009C78007F080404780000447D40000020CE
:1006F00040403D00007F102844000000417F400042
:10070000007C04780478007C0804047800384444B1
:10071000443800FC182424180018242418FC007CF9
:10072000080404080048545454240004043F44249A
:10073000003C4040207C001C2040201C003C4030FD
:10074000403C004428102844004C9090907C004489
:1007500064544C440000083641000000007700005B
:10076000000041360800000201020402003C26237A
:10077000263C00000000000000404040F0F8F8FF78
:1007800038FFF8F83FF8F8FF38FFF8F8F04040403D
:1007900000000000000080C0C0C0800000C0C08019
:1007A00000000080C0C000C0C0000080C0C00000C9
:1007B000000000C0C0C0C0C000C0C00000000000F9
:1007C0000000000000000000000000000000000029
:1007D0000000000000000000000000000000000019
:1007E0000000000000000000000000000000000009
:1007F0000000C0F0F8FC3E1E06010000007F4141F1
:10080000417F007F4141417F000080C0E07E5B4F1F
:100810005BFEC00000C000DCD7DEDEDED7DC00C03F
:1008200000000000000000000000000000000000C8
:10083000000000000000000000494949FFFFFFFFE1
:10084000E0DFBFBF00BFBFDFE0FFFFFFFF49494957
:1008500000000000001F3F6060E0BF1F007F7F07B7
:100860001E381E077F7F007F7F0E1F3B71600000D8
:100870000000007F7F0C0C0C007E7E007F7E030357
:10088000007F7E03037E7E03037F7E000F3E703C6D
:10089000063C703E0F00327B49493F7E007F7E035D
:1008A00003001E3F69696F26000000000000000081
:1008B0000000030F1F3F3C7870600000007F414143
:1008C000417F007F4141417F00307B7F7830202095
:1008D00030787F3B0003000F7F0F0F0F7F0F000367
:1008E0000000000000000000000000000000000008
:1008F000000000000000000000010101070F0F7F51
:100900000F7F0F0F7E0F0F7F0F7F0F0F070101016A
:1009100000000000000000000000010100000000D5
:1009200000000000000000000000000000000000C7
:1009300000000000000000000000000000000000B7
:1009400000000000000000000000000000000000A7
:100950000000000000000000000000000000000097
:100960000000000000000000000000000000000087
:100970000000000000000000000000000000000077
:100980000000000000000000000000000000000067
:100990000000000000000000000000000000000057
:1009A0000000000000000000000000000000000047
:1009B00000000000000000000000002A2B280000BA
:1009C00000000000000000000000000000002900FE
:1009D0000000002C1E3420212224342627252E3608
:1009E0002D3738271E1F2021222324252633333676
:1009F0002E37381F0405060708090A0B0C0D0E0FC9
:100A0000101112131415161718191A1B1C1D2F314B
:100A100030232D350405060708090A0B0C0D0E0FAF
:100A2000101112131415161718191A1B1C1D2F312B
:100A300030354C0000000000000000000000000005
:100A400000000000000000000000000000000000A6
:100A5000000000000000007E0F00D4FFFFFFC70071
:100A60000000780E0348004F004F004B003600395D
:100A700000000012036B0075007300680069006DD0
:100A8000006100380000000403090409025B000350
:100A90000100A0FA0904000001030101000921116D
:100AA000010001224000070581030800010904013B
:100AB00000020300000009211101000122220007A9
:100AC0000582032000010705030320000109040239
:100AD000000103000000092111010001227B000731
:100AE00005840320000112010002000000083839CB
:100AF00039360100010200010660FF0961A1010908
:100B000062150026FF009520750881020963150013
:100B100026FF00952075089102C005010902A10178
:100B200085020901A10005091901290815002501FF
:100B30009508750181020501093009311581257F6C
:100B400095027508810609381581257F950175087C
:100B50008106050C0A38021581257F9501750881EB
:100B600006C0C005010980A101850319012AB7004B
:100B7000150126B700950175108100C0050C09010B
:100B8000A101850419012AA002150126A0029501E0
:100B900075108100C005010906A101050719E029AA
:100BA000E7150025019508750181029501750881F9
:100BB000010507190029FF150026FF009506750895
:100BC0008100050819012905950575019102950116
:100BD00075039101C00011241FBECFEFDAE0DEBF24
:100BE000CDBF04B603FE18C080911A0590911B0575
:100BF000A0911C05B0911D058730904BA740B04BCC
:100C000059F410921A0510921B0510921C051092AF
:100C10001D05E0E0F8E3099511E0A0E0B1E0ECEF9C
:100C2000F9E602C005900D92A63EB107D9F725E07E
:100C3000A6EEB1E001C01D92AA31B207E1F70E9411
:100C400026170C94D3340C940000B0E0A0E0EBE243
:100C5000F6E00C94A131A3E3B1E02FE331E0ED0124
:100C600061E070E08991E82FE295EF70F0E011A16A
:100C70008F70AB0101C0440F8A95EAF7942F9095CD
:100C8000912391A382A1842B82A32C173D0751F7B6
:100C9000CDE2D1E043E351E0BE0101E010E0FB0111
:100CA0008191BF01E82FE295EF70F0E0D1A08F7045
:100CB000780101C0EE0C8A95EAF79E2D90959D2152
:100CC00091A382A18E2982A34617570741F761E0BD
:100CD00070E08991E82FE295EF70F0E0F1A08F705D
:100CE0008B0102C0000F111F8A95E2F7902F90959B
:100CF0009F2191A382A1802B82A34C175D0749F706
:100D0000C1E0D0E08D91E82FE295EF70F0E061A1B5
:100D10008F70AE0101C0440F8A95EAF7942F909529
:100D2000962391A382A1842B82A32A173B0751F714
:100D3000CDB7DEB7E7E00C94BD31A5E0B0E0E3EA63
:100D4000F6E00C9496318C015C0126E0A20EB11CF9
:100D500033E3832E31E0932E7C01312C44244394E1
:100D6000512CD701BC91B983F70111927F01D401B5
:100D70008D914D01B82FB295BF70EB2FF0E0FB8342
:100D8000EA8391A18F70320101C0660C8A95EAF75F
:100D9000892F862981A382A1262C2094822182A3D7
:100DA0000E94B1162DE2C22E21E0D22EDD82CC822D
:100DB00090E080E0F7013197AC81BD816D91BD83FA
:100DC000AC83262F22952F7030E0D90190964C915C
:100DD000308150E06F7002C0559547956A95E2F7F3
:100DE00020E040FD06C0242D082E01C0220F0A94E9
:100DF000EAF7232B2083019686309105E9F6AA8134
:100E0000BB8191968C919197282291962C929197E3
:100E100092968C919297682A92966C9281E090813A
:100E2000B9819B1301C080E0382AAE14BF0409F0D9
:100E300098CF712C612CEE24E394F12C045F1F4FAA
:100E4000F60181916F01E82FE295EF70F0E021A1AA
:100E50008F70A70102C0440F551F8A95E2F7CA019F
:100E6000922F982B91A392A18095892382A30E940F
:100E7000B116B701062C01C0660F0A94EAF7962E48
:100E80006095F50183E3482E81E0582E30E0AF01F4
:100E90007081D2012D912D01822F82958F7090E06B
:100EA000DC0190968C9190E02F7002C0959587950B
:100EB0002A95E2F780FD2EC0892D872B80833196FD
:100EC000DA018C91781331E00E171F0701F7F60154
:100ED00031978081E82FE295EF70F0E021A18F70CB
:100EE000A70101C0440F8A95EAF7942F90959223A9
:100EF00091A382A1842B82A3332ABFEF6B1A7B0AB2
:100F0000E6E06E16710409F09BCF832D2596E2E191
:100F10000C94B231862F8723D1CF80910801909114
:100F20000901892B39F080910601909105018923EF
:100F30008F3F41F58091030190910401892BD9F1F4
:100F4000809101019091000189238F3FB1F40895B0
:100F5000109202010E946D298160782F9093040104
:100F600080930301409100015091010160910201C1
:100F7000809104010E94190A089580910201811153
:100F8000E7CF0895809107018823A1F2109207010D
:100F90000E946D298160782F909309018093080148
:100FA000409105015091060160910701809109016E
:100FB0000E94190ABFCF089581E0611116C0809385
:100FC00002010E946D298160782F90930401809323
:100FD0000301409100015091010160910201809153
:100FE00004010E94190A81E00895809307010E947C
:100FF0006D298160782F90930901809308014091B9
:101000000501509106016091070180910901E9CF26
:10101000CF93C82F0E94DF138111C3E08C2FCF9193
:101020000895EF92FF921F93CF93DF9300D000D0EB
:1010300000D0CDB7DEB70E94DF1360E0882309F44B
:10104000AAC08EE091E00E94902060E088E091E0EC
:101050000E94902080911B020E94D309813009F4E4
:101060008EC0882361F0823009F48DC0833009F48A
:101070008EC060E082EF90E00E947E2005C060E0BC
:1010800084E091E00E94902060E081EF90E00E9477
:10109000902060E08DEE90E00E94902060E08CEE69
:1010A00090E00E94902016E0CE0101967C01FC01A8
:1010B000812F11928A95E9F70E94A11A1F928F93AE
:1010C0008FE391E09F938F931F921F93FF92EF9274
:1010D0000E94EC3160E0C7010E9463200E94EF1A79
:1010E0001F928F9386E491E09F938F931F921F939B
:1010F00084EF91E09F938F930E94EC3160E084EF46
:1011000091E00E9463200E94F21A1F928F938DE457
:1011100091E09F938F931F921F938EEE91E09F9388
:101120008F930E94EC3160E08EEE91E00E9463208C
:101130000E94F51A1F928F9384E591E09F938F93FD
:101140001F921F9388EE91E09F938F930E94EC3142
:101150000FB6F894DEBF0FBECDBF60E088EE91E021
:101160000E94632080E026960FB6F894DEBF0FBE83
:10117000CDBFDF91CF911F91FF90EF90089560E078
:1011800080E091E07FCF60E08CEF90E07BCF60E08B
:1011900088EF90E077CF8CEA90E00E947E20E2CF4B
:1011A00084E0089581E0089581E008950E94D408C4
:1011B000089508950E94D9080895A5E0B0E0E3EEEF
:1011C000F8E00C94A53149835A833091FF0189815D
:1011D0009A81311119C0662399F0222389F00E9467
:1011E000E50E182F682F89819A810E94C10E6981AE
:1011F0007A81812F0E9489252596E3E00C94C131E4
:101200000E94D30E182FF3CF0E94E50E69817A81D8
:10121000F1CFFC01262F408151816281738184814D
:101220000E94DD08089581E00895CF93DF93EC01DB
:1012300060E00E940909BE010E94DA08DF91CF91A7
:101240000895E1E0F0E0DF0102C0AA0FBB1F6A953C
:10125000E2F7BD01DF0102C0AA0FBB1F4A95E2F70A
:101260006A2B01C0EE0F2A95EAF7962F9823961362
:1012700002C08E2B0895E0958E230895242F462FCB
:10128000682F80911B020E9421090E94210E08955F
:101290000E94A41608950E94A716089508950E941A
:1012A000B30D0E944E092FEF84E39CE02150804053
:1012B0009040E1F700C0000008950E944F090E948D
:1012C000B82908950E944F090E94DC2908950F93C0
:1012D0001F93CF93DF938C0161E00E940909EC0119
:1012E000B8010E949B1D811106C080E0DF91CF9163
:1012F0001F910F910895B801CE010E94D60888234E
:10130000A1F3B801CE010E94CF26882371F3B80162
:10131000CE010E94FA21882341F3B801CE010E9438
:101320004126882311F3B801CE010E94911C882325
:10133000E1F2F8018281882361F0CA35FDE5DF071B
:1013400001F158F4C115ECE5DE0791F0CE3DDC4526
:1013500091F0C8010E94D208C9CFCC358DE5D807DD
:1013600069F090F0C73ADD45A1F70E946209BDCF50
:101370000E945D09BACF0E949E13F7CF0E94D81237
:10138000E8CF0E94E212E5CF0E94E612E2CF0E946F
:10139000EA280E94F7090E94B22108950E94FB09E1
:1013A0000E94EF280895982F92959F7011F0892F31
:1013B00094E0282F2695269511F09E5F822F869522
:1013C00009F09F5F892F089508950E94E409089508
:1013D00081E008950E94E80908950895CF93C82FE9
:1013E0000E94E5098C2F0E94EA09CF91089580E0C0
:1013F0000E94EE0908950E9417280E94EE090895A0
:10140000CF930E941728C82F8091FA018C1779F08A
:10141000C093FA010E9479296093FB017093FC014B
:101420008093FD019093FE018C2F0E94EE09CF91D5
:101430000895ABE0B0E0EFE1FAE00C94A6314F8301
:10144000588769877A878B8761110E9423121E82D1
:101450001D8285E0FE013796DE01119601900D9206
:101460008A95E1F78C819D81892B61F449815A81AC
:101470006B817C818D819E810E944C112B96E2E0D4
:101480000C94C23189819A8189238F3F79F3CE01EF
:1014900001960E9413098111E9CFF0CFFC018081F0
:1014A00091810E94120F0895CF93C82F8823C9F00D
:1014B0008238C9F40E94172881FD13C089E30E9475
:1014C000DB110E9444122FEF87EE93E02150804001
:1014D0009040E1F700C0000089E30E94E3110E9400
:1014E0004412CF9108958338A1F40E94172880FDFB
:1014F000F8CF83E50E94DB110E9444122FEF81EEAA
:1015000094E0215080409040E1F700C0000083E566
:10151000E4CF8438A1F40E94172882FDE2CF87E44B
:101520000E94DB110E9444122FEF81EE94E02150C3
:1015300080409040E1F700C0000087E4CECF8CEF00
:101540008C0F813A90F46C2F80910A0190910B01DD
:101550000E947B28882329F08C2F0E94E3110E948F
:1015600044128C2F0E94DB11BACF80E28C0F88309E
:1015700048F4C77081E001C0880FCA95EAF70E945D
:101580000612ADCFEBE5EC0FE33040F4F0E0E757A7
:10159000FE4F808190E00E943D28A3CFE8E5EC0F4C
:1015A000E73150F4F0E0EE0FFF1FE55AFE4F808167
:1015B00091810E94532895CFC03F08F492CF8C2F81
:1015C0000E94AA170E947D188CCF882309F455C069
:1015D000823879F40E94172881FF4FC089E30E9466
:1015E000DB110E94441289E30E94E3110E9444121D
:1015F0000895833859F40E94172880FF3EC083E580
:101600000E94DB110E94441283E5EECF843859F426
:101610000E94172882FF31C087E40E94DB110E94DC
:10162000441287E4E1CF9CEF980F913AE8F290E200
:10163000980F983050F4877091E001C0990F8A9507
:10164000EAF7892F0E940C12D1CF9BE5980F9330B7
:1016500028F490E080E00E943D28089598E5980FD6
:10166000973128F490E080E00E9453280895803F4D
:1016700020F00E9404180E947D1808951F93CF93B4
:10168000DF93182FEB010E94540A209739F4812F21
:101690000E94E50ADF91CF911F9108958FE99FE0A5
:1016A0000197F1F700C000002197EFCF70E060E0F4
:1016B000893311F460E570E00E943E0B08958823A1
:1016C00021F00E9406120E9444120895882321F0FE
:1016D0000E940C120E9444120895B0E0A0E0E3E7DB
:1016E000FBE00C949F316C01D62FC72FFC011281B7
:1016F000F580F2949FE0F9220E94FC11E82E8823E5
:10170000B9F0E12E1123A1F08C2F807F803421F0DD
:1017100080E28D0F8830D0F08091E20282FF16C007
:1017200082E00E94A7120E94FC1191E0E82EE926B7
:10173000BC2EB2948FE0B822FBE0FB1508F468C021
:10174000EB2DF0E0EB52FB4C0C948931E12CF0CF07
:101750000C2F0F70C07F11F00295007F112399F0BC
:10176000002359F080E28D0F883010F0D11107C0AE
:10177000802F0E9406120E9444128D2F41C0802F9C
:101780000E941612F8CF8D2F0E94E50A002309F45B
:101790003FC080E28D0F883010F0D11104C0802F3F
:1017A0000E940C1203C0802F0E941C120E9444123F
:1017B0002FC00C2F0F70C07FC03211F00295007F38
:1017C000DD2381F0D13009F463C0112309F46DC029
:1017D000FF2009F463C0F601858180FFCECF8F70B2
:1017E00085835CC08091E20282FD33C0112359F0F1
:1017F000002329F0802F0E9406120E94441280E0EC
:101800000E94540A05C080E00E94E50A0111C7CF7A
:10181000EB2DE850FF0B349720F40E9417280E940C
:10182000EE09EE2089F00E94F81180FD0DC0F6014E
:1018300012820E94F2110E94350EC6010E94730DA1
:101840000E94F2110E94410ECDB7DEB7E9E00C9480
:10185000BB31112389F0F11006C00E942612802BA3
:101860000E945F0BD5CF21E0F212F7CF0E94261223
:10187000802B0E942D12CCCFF11006C00E943A128C
:10188000802F0E94660BC4CF31E0F31609F2F6CF29
:10189000112331F085E08F1508F4BACF802FE0CF07
:1018A00094E09F1508F4B4CFEBCFFF2049F3D93370
:1018B00049F4FFEF27EE33E0F15020403040E1F7EC
:1018C00000C000008D2F0E94E50AA2CF8C2F8695C4
:1018D0008695837069F0813009F09ACF8D2F9C2F07
:1018E0009370111102C090E080E00E94532890CFC5
:1018F0008D2F9C2F9370111102C090E080E00E9408
:101900003D2886CF8D2F112329F00E94AA170E940F
:101910007D187ECF0E940418FACF8C2F837079F542
:10192000111176CF4D2F429546954770440F440FC5
:101930008D2F8F70042E01C0880F0A94EAF72D2F87
:101940002071D4FF07C02FE030E001C0220F4A957C
:10195000EAF72095C695C695C370822BC23049F030
:1019600058F4C13019F00E940F0E52CF0E94090E98
:101970004FCF0E94150E4CCF0E94060E49CF869580
:10198000112311F08C2F8170882309F441CF4D2F42
:10199000429546954770440F440F8D2F8F70042E4B
:1019A00001C0880F0A94EAF72D2F2071D4FF07C0D9
:1019B0002FE030E001C0220F4A95EAF72095C69546
:1019C000C695C370822BC23049F058F4C13019F06B
:1019D0000E94600E1DCF0E945A0E1ACF0E94660E02
:1019E00017CF0E94210E14CFCF70112329F08C2F16
:1019F0000E94350E8D2F34CF8D2F0E94660B8C2FB9
:101A00000E94410E05CFD23F51F160F4D03FB9F0B2
:101A1000D13F81F0112309F449C0F110AECE8C2FD3
:101A20008F7121C0D33F11F1D43FA1F78091E20221
:101A300082FD26C08C2F8F71112311F314C0112346
:101A400049F084E08F1508F4E3CE8C2F8F710E944B
:101A50004E0EDECE95E09F1508F4DACEF6CF8C2F31
:101A60008F711111CDCF0E94350ED2CE112329F0E6
:101A70008C2F8F710E942C0ECBCE0E94280EC8CEC8
:101A8000112349F0CF718C2F0E94350E63E08C2F0B
:101A90000E948912BDCE81E00E94A712E1E0EF15FD
:101AA00008F0B6CE82E00E94A712B2CEF110FFCEAF
:101AB0008C2F8F71A5CF0F931F93CF93DF93EC01E2
:101AC000688179818A810E941D0F8C010E946C0EB1
:101AD0000E94050EB801CE010E946D0BDF91CF91DF
:101AE0001F910F910895CF93DF93EC018B819C811F
:101AF000892B29F08881998189238F3F51F4DF91C7
:101B0000CF910895CE010E945B0DCE010E94150970
:101B1000F6CFCE010E9467098111F4CF0E94FC111B
:101B2000882369F38A81882351F38091E20282FF3E
:101B3000E6CF82E00E94A712E2CF90E080E00E9410
:101B40003D2890E080E00E9453280E9423120E94CA
:101B500044120E9499180E947D1808950E94EB116A
:101B60000E949D0D08950E9413120E94AE0D0895CB
:101B700092959F70963091F058F4925F9F709230DA
:101B800058F4803F19F030F4883E30F481E0089535
:101B90009A5FF4CF843FD1F380E00895883EB0F39C
:101BA000813FD1F7F3CFFC0183819481892B29F008
:101BB0008081918189238F3F11F480E00895808195
:101BC00091810E94120F0E94B80D0895A5E0B0E027
:101BD000ECEEFDE00C94A6312596E2E00C94C231C7
:101BE000A6E0B0E0E6EFFDE00C94A6312696E2E038
:101BF0000C94C23108950E94FA0D08950E94FB0DC5
:101C000080931C020E949D0D089508950E94FE0D70
:101C1000089590911C02892B0E94FE0D08959091C9
:101C20001C0289230E94FE0D089590911C028927B1
:101C30000E94FE0D08950E94FA0D08950E941B0E49
:101C400008950E941E0E80931B020E949D0D089510
:101C500080E00E94210E089591E001C0990F8A95BD
:101C6000EAF7892F0E94210E089521E030E001C09B
:101C7000220F8A95EAF780911B02822B0E94210E87
:101C8000089521E030E001C0220F8A95EAF72095FF
:101C900080911B0282230E94210E089521E030E0F2
:101CA00001C0220F8A95EAF780911B0282270E94C9
:101CB000210E089590911B02892B0E94210E0895F8
:101CC00090911B0289230E94210E089590911B027E
:101CD00089270E94210E08950895262F277091E0EC
:101CE00001C0990F2A95EAF723E0769567952A9522
:101CF000E1F7FB01EE0FFF1FE60FF71FE40FF51FE3
:101D000050E040E0682F70E08191DF0111979B0166
:101D1000042E02C0369527950A94E2F7217021958A
:101D20002827292328272C934F5F5F4F43305105E5
:101D300059F70895A82FA77023E0969587952A95BF
:101D4000E1F7FC01EE0FFF1FE80FF91FE60FF71F89
:101D500050E040E080E0219130E00A2E02C036954C
:101D600027950A94E2F721703327042E01C0220F31
:101D70000A94EAF7822B4F5F5F4F4330510559F7C2
:101D80000895262F9C3070F4863060F4682F70E040
:101D900086E0989F600D711D112440E052E0822F73
:101DA0000E946D0E0895292F9C3068F4863058F4F7
:101DB00090E060E072E036E0239F800D911D1124D9
:101DC0000E949A0E089580E00895CF92DF92FF92CC
:101DD0000F931F93CF93DF936C0100911B028091AF
:101DE0001C02082BC7E0D0E010E0FC2EC8010C2E2E
:101DF00002C0959587950A94E2F780FD0CC0219763
:101E0000A0F7F12C8F2DDF91CF911F910F91FF90B3
:101E1000DF90CF900895B6018C2F0E948215019714
:101E200071F3F0CFCF93DF93EC010E94E50EBE017A
:101E30000E948215DF91CF9108951F93CF93DF9376
:101E4000EB019091FF01992339F0CB010E94120F11
:101E5000DF91CF911F910895882369F0CB010E94F3
:101E6000E50E182F682FCE010E94C10EBE01812FF2
:101E70000E948215EDCFCB010E94D30E182FF6CF12
:101E80001F93CF93DF93C0911D0216E080911E0235
:101E90008C1304C0DF91CF911F910895D0E01C9F57
:101EA000F0011D9FF00D1124E15EFD4F4081518135
:101EB00062817381848195810E94F00D2196C770A3
:101EC000E5CF40914F0250915002609151027091C4
:101ED000520280915302909154020E94F00D089595
:101EE0001F93CF93DF9380915402807F09F049C004
:101EF00080915102882309F444C080911D02C09151
:101F00001E0260914F0270915002A0915202B09156
:101F10005302D62FD72316E0C81799F190E01097F7
:101F200011F0DF3F19F401968770F6CF189F9001EA
:101F3000199F300D1124F901E15EFD4F41814713D6
:101F4000F2CF40814613EFCF42814111ECCF438164
:101F500054814A1B5B0B483C510528F78091540281
:101F60008F70806180935402F901EC5DFD4F808198
:101F70008F70806180838FE492E00E94730D0E94D5
:101F8000400FDF91CF911F910895A1E1B0E0EBECFC
:101F9000FFE00C949E318C0185E0F801DE011D9676
:101FA00001900D928A95E1F7F801E2808FE4C82E46
:101FB00082E0D82E60915202709153026115710532
:101FC00009F44EC190914F0220915002892F822333
:101FD0008F3F09F445C140815181A380B480F090C6
:101FE0005102F501E61BF70BFF2009F4EAC08091CE
:101FF0005402382F307FE83CF10508F0A3C03111BE
:102000006DC0FE2C251316C0941314C0E11012C02D
:102010008F708061809354020E94610FC6010E94FC
:10202000730D80915402F80185838F2D6196EAE04B
:102030000C94BA31A114B10429F0842F85238F3F69
:1020400009F027C180E0F82FF170DF2E80FF3CC03F
:1020500080911D0220911E0236E0821315C04D872B
:102060005E878D859E850E94120F292F22952F70E5
:102070002230F0F0243018F59F70F1F0F8019581CE
:10208000907FD1F4D12C1EC090E0389FF001399F91
:10209000F00D1124E15EFD4F6181651306C0608182
:1020A000641303C06281E6120FC001968770D5CF1A
:1020B0009F7011F0882331F3805E883018F3C801D7
:1020C0000E94730DFD2CB1CFEE2009F4AECF8091AC
:1020D0005402816080935402F12CA7CF251306C0CF
:1020E000941304C0F801EE2009F487C0C8010E94CF
:1020F000D30D882319F1EE2009F18091540280322A
:1021000070F020914F023091500238872F8319864A
:10211000BB86AA868C87CE0107960E94730D86E047
:10212000F801AFE4B2E001900D928A95E1F70E94C8
:10213000700F0E94610FFF24F39477CFC8010E94B3
:10214000730DF9CF311113C07A2DB98AA88A6E2D7B
:1021500089890E94E60D8FE492E00E94730D86E06B
:10216000F60111928A95E9F70E94610FB5CF251308
:102170000FC094130DC0E1100BC0F8018583C80196
:102180000E94730D86E0F60111928A95E9F74DCF12
:10219000C8010E94D30D882389F2EE2079F2809144
:1021A0005402803208F4BBCF20914F02309150028C
:1021B0003A8329831B82BD82AC828E83CE01019635
:1021C000ACCFE83CF10508F03EC0FE2CEE2009F44F
:1021D000B5CF25132AC0941328C08091540280FDE6
:1021E0001BC0982F907FC1F0F8018583903F31F09C
:1021F000982F907F905F8F70892B8583C8010E94F4
:10220000730D86E0F801AFE4B2E001900D928A957B
:10221000E1F70E94610F09CF86E0F801AFE4B2E078
:1022200001900D928A95E1F700CFC8010E94D30D6D
:10223000811175CF80915402816080935402C8014E
:102240000E94730DF2CE7A2DB98AA88A6E2D8989E3
:102250000E94E60D86E0F60111928A95E9F7D9CF42
:10226000EE2009F46BCFC8010E94D30DF82E88230D
:1022700009F464CF86E0F801AFE4B2E001900D927A
:102280008A95E1F78FE492E00E944E0A0E94700F57
:10229000C0CF81E08E25D7CEACE0B0E0E2E5F1E141
:1022A0000C94A5314F83588769877A878B879C87E1
:1022B000CE0107960E94C50F882369F08A859B8509
:1022C000892B39F04F815885842F85238F3F09F062
:1022D0006BC016E05FC086E0FE013796DE01119606
:1022E00001900D928A95E1F78A859B85892B89F368
:1022F0008F81988589238F3F61F320911E0230E002
:10230000C90101968770992740911D024817190647
:1023100071F40E94B30D10921E0210921D0286E00D
:10232000EFE4F2E0DF011D928A95E9F7D2CF96E063
:10233000929FD001939FB00D1124A15EBD4FFE016D
:10234000319601900D929A95E1F780931E020E94BA
:10235000400FBFCF819FC0011124815E9D4F0E941D
:10236000C50F8823E9F0E0911D021E9FF0011124A2
:10237000E15EFD4F4081518162817381848195814D
:102380000E94F00D80911D0290E0019687709927C0
:1023900080931D0280911D0290911E028913DACF55
:1023A0002C96E3E00C94C13169857A858B859C85F8
:1023B0000E94F00D8ECF682F80910A0190910B0141
:1023C0000E94B1280895682F80910A0190910B0115
:1023D0000E94B428089580910A0190910B010E94F7
:1023E000B728089580915D02859585958595089516
:1023F00080915D028770089590915D02977081E0F1
:1024000009F480E00895809168020895909168022F
:10241000892B809368020895809590916802982393
:10242000909368020895109268020895909167024F
:10243000892B809367020895809590916702982375
:1024400090936702089510926702089580915E024A
:10245000089508950E94291208959091E20292FF32
:1024600008C090915E02981721F080935E020E944E
:102470002A12089580915E02882329F010925E024C
:1024800080E00E942A120895CF93DF93E0910A0121
:10249000F0910B01809168028083E0910A01F09134
:1024A0000B01808190916702892B808390915E025D
:1024B000992381F0E0910A01F0910B018081892B31
:1024C000808380910A0190910B010E9469288111FB
:1024D0000E943A12C0910A01D0910B0148E050E0ED
:1024E00065E572E0CE010E94D631892B59F088E073
:1024F000FE01A5E5B2E001900D928A95E1F7CE01CB
:102500000E942428DF91CF91089508950E9485129A
:1025100008959091E20292FF11C098E0899F900186
:102520001124622B60935D020E94350E80915D0242
:102530008595859585950E94861208950E94350E91
:10254000089510925D0280E00E9486120895909195
:102550005D028095892380935D02282F277091F476
:10256000282F082E000C330B9217130659F0909168
:10257000E20292FF07C08595859585950E94410EE0
:102580000E94A11208959091E20292FB222720F965
:10259000281769F080FB92F99093E2028091E102A2
:1025A0009091E2020E94151382E00E94A712089502
:1025B0008091E20282FB882780F991E089270E94BE
:1025C000C312089581E00E94C312089580E00E9422
:1025D000C31208956FEF7FEF90E080E00E94BD345A
:1025E000089590E080E00E949934883E9E4F19F44F
:1025F0000E94361D089580E0089582E090E00E94D8
:102600008B34089583E090E00E948B340895CF933B
:1026100084E090E00E948B34C82F82E290E00E9418
:102620008B34982F8C2FCF910895CF93C92F682F7B
:1026300084E090E00E949F346C2F82E290E00E9440
:102640009F34CF910895AB01BC018FE090E00E94D0
:10265000B1340895AB01BC0183E190E00E94B13434
:10266000089560E070E0CB010E942A13089560E0B5
:1026700070E0CB010E9423130E943113089568EE8D
:102680007EEF90E080E00E94BD3460E082E090E068
:102690000E949F3460E083E090E00E949F3410929B
:1026A0001C0260E084E090E00E949F3464E082E2DB
:1026B00090E00E949F3460E085E090E00E949F34AB
:1026C00060E086E090E00E949F346FEF87E090E04A
:1026D0000E949F3440E050E0BA0188E090E00E9400
:1026E000B13460E08DE090E00E949F3440E050E023
:1026F000BA0188E190E00E94B13460E087E190E0A7
:102700000E949F3440E050E0BA018CE190E00E94CA
:10271000B13470E060E080E290E00E94BD3440E0BF
:1027200050E0BA0188E190E00E94B13480E00E945C
:102730004F1D0E947E1D0E94371308950E943F1373
:102740000895682F8EE090E00E949F3408950E94C3
:10275000792960937F027093800280938102909325
:10276000820260937B0270937C0280937D0290933F
:102770007E0208950E94792960937F0270938002FF
:102780008093810290938202609377027093780223
:102790008093790290937A020895089508950E9493
:1027A000CE13089508950E94D21308958CE696E101
:1027B0000E940D280E94CD130E94CF13089581E03E
:1027C00008950E94DF130895089508950E94E41368
:1027D0000E94E51308950E9488160E94ED0908954D
:1027E0000E9464290E948E1D0E94B5160E94EB1360
:1027F00080E00E94391F0E94511C0E9435240E94D3
:10280000D3130895AAE0B0E0E8E0F4E10C949E311F
:102810000E94C7168BE6A82E82E0B82E750110E044
:10282000F70101917F01812F0E94AA161F5F1C30C2
:1028300009F441C00817A1F38091830281FD0E9431
:10284000B0160E94E113C82E10E0812F0E94AA1634
:10285000082FF50181915F01081731F1D02ED8269C
:10286000F12CEE24E3948D2D8E21B1F0CC20A1F03B
:10287000FE821F8391E0802F8E2109F490E09887DB
:102880000E946D298160782F9A8789874E815F81A8
:1028900068858A850E94190AF394EE0CF6E0FF120F
:1028A000E2CFF501319700831F5F1C3071F60E9463
:1028B000A71311E021C00813BFCF0E946D298C011E
:1028C0008091690290916A0208171907A1F08FEFB1
:1028D00089838A831B820E946D298160782F9D8362
:1028E0008C8349815A816B818D810E94190A1093D2
:1028F0006A020093690210E00E945424082F81119B
:102900000E94BA130E94D021111101C001110E942E
:1029100096200E94BB180E94000A2A96EAE00C94B6
:10292000BA31CF93DF930E948715EC01811521E521
:10293000920708F042C0811530E5930708F09FC068
:10294000883E910530F5803E910508F094C0883AA4
:10295000910588F4853A910508F086C0813091058B
:1029600009F489C0009709F486C0049708F083C071
:10297000D0E0C0E080C08F3B9105D0F7C85AD0E0CE
:10298000CC0FDD1FC457DE4F0990D881C02DD46411
:1029900072C0811540E2940750F4C11581E0D80758
:1029A00008F069C0C03FD10518F3D06564C0811537
:1029B0009044F0F2DF70D06A5EC0811535E5930770
:1029C00018F5811544E5940708F085C0C11583E525
:1029D000D80708F06CC0C11522E5D20708F462C020
:1029E000CE018370992721E030E002C0220F331F0F
:1029F0008A95E2F7C695C69580E2C89FE00111244A
:102A0000C22BD32BDC6837C0811539E59307A8F4B6
:102A1000811548E5940708F063C0C11586E5D8071D
:102A200008F0A6CF8C2F0E942916C82FD0E0DC2FEB
:102A3000CC27CC27DF71D0621EC081152AE5920712
:102A400008F453C090568115904208F091CF8D2F15
:102A50008F710E94291690E0982F882788279F71F0
:102A60009C012C2BE901E7CFC55AD0E0C654DE4FBC
:102A7000C881D0E0D064CE01DF91CF9108958370FA
:102A8000992721E030E002C0220F331F8A95E2F738
:102A9000C695C69540E2C49FE0011124C22BD32BFA
:102AA000DD68E9CFDC2FCC27C16FD06AE4CFCE013F
:102AB0008370992721E030E002C0220F331F8A95EE
:102AC000E2F7C695C69540E2C49FE0011124C22BEF
:102AD000D32BDA68D0CFD82FCC27C46FD06ACBCF16
:102AE000D82FCC27C06FD06AC6CF8F700E9429160E
:102AF00034E0D695C7953A95E1F7CF709C2FEC015D
:102B0000D069B9CF0E9489250E9491140895823816
:102B10009105B9F1B0F48133910509F47DC048F411
:102B20008932910509F46DC08A32910509F47BC0A0
:102B300008958533910509F45FC08933910509F142
:102B40000895833E9105D9F138F4803E910529F12D
:102B5000823E910579F10895863E9105D9F1873E2F
:102B6000910509F43EC0843E910541F52091E202B1
:102B700021FF24C08091E10284FD19C087EE90E01E
:102B800008952091E102237009F05AC02091E202D9
:102B900023FF14C089E290E008952091E10220FD16
:102BA00038C03091E20230FF09C024FF43C090E0FA
:102BB00080E008952091E10222FDF7CF0895209151
:102BC000E10222FD3AC03091E20230FD39C024FF1B
:102BD000F5CFEDCF2091E10223FFF0CF24FDE7CF29
:102BE000CDCF2091E10223FD2EC03091E20231FFD2
:102BF000EECF84EE90E008952091E10225FFDECF34
:102C0000C9CF2091E10225FD21C02091E20223FFDE
:102C1000D5CF89E390E0D2CF2091E10226FFCECF3D
:102C20008AE290E008952091E10226FFC7CF81E378
:102C300090E0089583EE90E0089582EE90E008958C
:102C400080EE90E0089586EE90E0089585E390E0B0
:102C500008959091E10292FF06C0282F2871283034
:102C6000F9F4877F846093FF06C0282F28712831EC
:102C7000F1F4877E84612091E20220FF06C0382FA4
:102C800038713830D9F4877F816021FF06C0282F42
:102C900028712831D1F4877E816194FD877E089563
:102CA000282F24712430F9F68B7F8860DCCF282F01
:102CB0002471243101F78B7E8861DDCF382F31718B
:102CC000313019F78E7F8860E0CF282F21712131B4
:102CD00021F78E7E8861E1CF80E008950E94EA129C
:102CE00008950E94C7168FE39CE90197F1F700C091
:102CF00000000E94C71680E00E94AA1680FF04C050
:102D00000E946E160E94B82908950E9471160895B7
:102D10000E94F112811102C00E949E130E94FD12B6
:102D2000809383020E9407139093E2028093E10252
:102D30000E9485160E9402130E94060E80911B02BB
:102D40000E941E0E089508950E94A31608950E94E1
:102D50008D070895E82FF0E0E151FD4F808108953F
:102D6000089580EA8A95F1F708950E942506E3EE1A
:102D7000F2E0AFEEB2E011921D9282E0EF3EF80772
:102D8000D1F78CE00E94DA160E9448090895CF938B
:102D900083EE92E00E949D06282F4CE06FEE72E0D9
:102DA00083EE92E00E94DB16C82F0E944B098C2F05
:102DB000CF9108950895CF92DF92EF92FF920F93F3
:102DC0001F93CF936C017B01042F222349F081E0F4
:102DD000809386020E946D299093850280938402DD
:102DE000C0918602C1110AC0C0E08C2FCF911F9103
:102DF0000F91FF90EF90DF90CF9008958091840223
:102E0000909185020E948529059770F310E0A80132
:102E1000B601C7010E94D631892B41F0A801B60145
:102E2000C7010E94E33110928602DFCFC0E0FBCFE2
:102E30000E94B42B0E94F0130E94C12B08950E949F
:102E4000C62B0E9402140E94E02B08950E940629BE
:102E50000E949A2B0E94D6130E9418170E941F17D7
:102E60000E94E613FBCF80918D0280FF0DC0609120
:102E7000110170E0660F771F6038710570F56115FC
:102E8000710569F1862F089581FF07C060911101D6
:102E900084E0689FB0011124EFCF6091110182FDA1
:102EA0000AC080918C028823A9F0209110016091C2
:102EB0001101821710F088E0ECCF869FC001112429
:102EC00033E0880F991F3A95E1F7622F70E00E9476
:102ED0007531D2CF68E070E0D5CF8FE7089581E0FB
:102EE000089580918D0280FF0CC060910D0170E00B
:102EF00075956795759567956115710549F1862FEB
:102F0000089581FF06C060910D0170E07595679589
:102F1000F3CF60910D0182FD0BC090918B0299233C
:102F2000A1F060910C0180910D01961738F0682F87
:102F300070E06038710500F38FE70895899FC00144
:102F4000112470E00E947531F4CF61E070E0D7CFBA
:102F500081E00895803F31F40E943317819580937A
:102F600091020895813F19F40E943317F8CF823FF0
:102F700031F40E9433178195809390020895833F26
:102F800019F40E943317F8CF893F29F40E94711772
:102F90008093920208958A3F21F40E9471178195CF
:102FA000F7CF8B3F31F40E94711781958093930284
:102FB00008958C3F19F40E947117F8CF9CE0980F88
:102FC000953070F4845F990B21E030E001C0220F4E
:102FD0008A95EAF780918F02822B80938F02089561
:102FE0008D3F31F480918D02816080938D02089530
:102FF0008E3F21F480918D028260F7CF8F3FB9F729
:1030000080918D028460F1CF40919002803F59F40D
:103010008091910287FF0DC01092910241110BC067
:1030200010928C0208C0813F81F4809191021816A1
:103030009CF3442381F08091920290919302892B1A
:1030400009F05AC010928B020895823F49F447FF5D
:10305000F0CF10929002809191028111ECCFE0CFDD
:10306000833F19F41416ACF3E4CF90919202893F98
:1030700029F41916F4F610929202DBCF8A3F19F464
:1030800097FFD7CFF8CF909193028B3F29F497FF0A
:10309000D0CF10929302CDCF8C3F19F41916CCF3F8
:1030A000C8CF9CE0980F953090F4845F990B21E095
:1030B00030E0B90102C0660F771F8A95E2F7CB01B5
:1030C000809590918F02892380938F02B2CF8D3F9C
:1030D00031F480918D028E7F80938D02AACF8E3F36
:1030E00021F480918D028D7FF7CF8F3F09F0A1CF22
:1030F00080918D028B7FF0CF08950E946D299C01F5
:103100009091900280919102982B21F030938A0245
:10311000209389029091920280919302982B21F042
:1031200030938802209387028EE892E00E942F2835
:10313000089586E0EEE8F2E0DF011D928A95E9F756
:1031400010928C0210928B0210928D020895FC0155
:10315000828181110EC0838181110BC08481811114
:1031600008C091E08581811101C090E0892F8170B4
:10317000089581E0FCCFA6E0B0E0E1ECF8E10C942A
:10318000A53186E0EEE8F2E0DE01119601900D92A5
:103190008A95E1F710929002109291021092920299
:1031A000109293028B819C81892B89F080918902F6
:1031B00090918A020E948529AC0190918C029923FA
:1031C000C9F1809112018417150608F440C08D8161
:1031D0009E81892B91F080918702909188020E94B4
:1031E0008529AC0190918B02992309F471C08091DB
:1031F0000E018417150608F479C0BE016F5F7F4F7A
:103200008EE892E00E94BE28811105C08EE892E00F
:103210000E94A71881110E947D1886E0FE01319658
:10322000AEE8B2E001900D928A95E1F72696E3E0D0
:103230000C94C131209113018AE0289F9001112440
:103240002417350720F69F5F90938C0202C09F3FA2
:10325000D1F71B81112359F00E9433179FEF1116EC
:103260000CF491E0899F802D1124809390021C81A1
:10327000112359F00E9433179FEF11160CF491E0BF
:10328000899F802D112480939102309190023323E5
:1032900009F49DCF20919102222309F498CF45EBA8
:1032A0003403C0011124992359F09093900245EB07
:1032B000240390011124332339F03093910287CFF6
:1032C00081E080939002F3CF81E0809391027FCFE1
:1032D00020910F018AE0289F9001112424173507BF
:1032E00008F08BCF9F5F90938B0202C09F3FD1F776
:1032F0001D81112359F00E9471179FEF11160CF4D4
:1033000091E0899F802D1124809392021E811123C8
:1033100059F00E9471179FEF11160CF491E0899FEC
:10332000802D11248093930230919202332309F46B
:1033300064CF20919302222309F45FCF45EB34033D
:10334000C0011124992359F09093920245EB240374
:1033500090011124332339F0309393024ECF81E052
:1033600080939202F3CF81E08093930246CFEF9255
:10337000FF920F931F93CF93DF93EB01E82FD111AF
:103380000EC0442321F0F0E0E15BFC4FE4916E2F8E
:103390007E2F8E2FCDB7DEB7E6E00C94BE310D2F19
:1033A00010E0282F30E0442329F0215B3C4FF90145
:1033B000249130E0F6E0CF9FC0011124EFEFF0E060
:1033C000BF010E946131AB018C2F90E0880F991FE3
:1033D000A5E5A49FB001A59F700D1124861B970B36
:1033E000982F990F980FBF01601B710B629FD0013E
:1033F000639FB00D729FB00D11248B2F9D9FB00164
:103400001124672F7727EF01C61BD70BBE01629FE0
:10341000E001639FD00D729FD00D11247F01E91A46
:10342000F108E09EB001E19E700DF09E700D112438
:10343000672F7727E61BF70BE29F8001E39F100DB4
:10344000F29F100D1124E12F722F4230510599F097
:1034500048F44115510569F04130510581F0EB2FD9
:103460008D2F07C04430510569F080F0463051057A
:10347000B1F76E2F8FCFE22F7B2F812FFACFE22F64
:103480007D2FF7CFEB2F822F712FF3CF7B2F822F42
:10349000ED2FEFCF41E00E94B71908950E944A1A1C
:1034A0000895CF93DF93762FE901682F842F0E9430
:1034B0004E1A798368838A83DF91CF910895809132
:1034C000FB02982F9E7F39F48091FB02817082600D
:1034D0008093FB0208958430B8F7089588E090E067
:1034E0000E9493340895CF92DF92EF92FF926B0186
:1034F0007C010E945F1AB701A60188E090E00E945B
:10350000B134FF90EF90DF90CF9008956091FB026F
:103510007091FC028091FD029091FE020E94731A4C
:103520000895EBEFF2E083E0808311828FEF8283D6
:103530008383148260817181828193810E94731AD6
:1035400008958091FB0280FF02C08695089580E077
:1035500008959091FF02933018F49F5F9093FF02BB
:10356000882351F06091FB027091FC028091FD0272
:103570009091FE020E94731A089581E00E94A91A98
:1035800008959091FF02992319F091509093FF02B2
:10359000882351F06091FB027091FC028091FD0242
:1035A0009091FE020E94731A089581E00E94C11A50
:1035B00008958091FF0208958093FF02662351F0E1
:1035C0006091FB027091FC028091FD029091FE02DD
:1035D0000E94731A089560E00E94DC1A0895809199
:1035E000FC0208958091FD0208958091FE020895E5
:1035F00070E00E940A1D0895609115018091FB0200
:1036000080FF0BC08091140123E0829FC001112430
:1036100080509D4F0E94F81A0895E0911601809104
:103620001701E81778F78E2F90E0FC01EE0FFF1FCF
:10363000E80FF91FE050FD4F118210821282E2CF95
:10364000EBEFF2E080818E7F8083608171818281E7
:1036500093810E94731A2FEF80E792E021508040FF
:103660009040E1F700C000000E94FC1A0895EBEFC3
:10367000F2E080818E7F80832FEF80E792E02150FF
:1036800080409040E1F700C000000E94FC1A0895BD
:103690009091FB0290FF14C0E091160190911701E8
:1036A000E91760F42E2F30E0F901EE0FFF1FE20F53
:1036B000F31FE050FD4F8183608342830E94FC1A18
:1036C0000895A3E0B0E0E7E6FBE10C94A231F82E08
:1036D000062F142FE22E8091FB0280FF28C0E82FD6
:1036E000E695F0E0E354FE4F9081909395028E7F33
:1036F000823059F49E012F5F3F4F8F2D0E94511A47
:103700004B8169818A810E94481BF092FC020093E0
:10371000FD021093FE02EE2051F06091FB027091C9
:10372000FC028091FD029091FE020E94731A239682
:10373000E6E00C94BE31EBEFF2E09181282F43815B
:10374000628188E0890F0E94611B089581E00E94D8
:103750009B1B0895EBEFF2E09181282F438162815A
:1037600088EF890F0E94611B089581E00E94AA1BC7
:103770000895EBEFF2E0628121E1620F08F46FEF50
:10378000282F438181810E94611B089581E00E945E
:10379000B91B0895EBEFF2E0628121E1621B08F4AE
:1037A00060E0282F438181810E94611B089581E0A0
:1037B0000E94CA1B0895EBEFF2E0438121E1420F22
:1037C00008F44FEF282F628181810E94611B0895C8
:1037D00081E00E94DB1B0895EBEFF2E0438121E1E1
:1037E000421B08F440E0282F628181810E94611B06
:1037F000089581E00E94EC1B089520E00E94611B67
:1038000008958091FB0280FF18C0817082608093D0
:10381000FB02662351F06091FB027091FC028091E3
:10382000FD029091FE020E94731A4091FE02609187
:10383000FD028091FC020E94FD1B0895682F81E02B
:103840000E94011C089581E00E941E1C0895682FAB
:103850009091FB0296958FEF890F09F481E00E9409
:10386000011C089581E00E94271C089561E00E94D8
:10387000011C0895EBEFF2E08081816080838695E2
:103880000E94361C08958091FB0280FF03C00E94B5
:10389000201B08950E943A1C089560E00E94011CBC
:1038A00008958091940281112CC00E94F11281111F
:1038B00004C00E949E130E94911A0E946E1A609387
:1038C000FB027093FC028093FD029093FE026E7FD8
:1038D00061F40E94911A0E946E1A6093FB02709329
:1038E000FC028093FD029093FE020E945F1A809179
:1038F000FB0280FF03C086950E944D1C81E08093EF
:1039000094020895EBEFF2E08081816080838695D8
:103910000E944D1C0895FA01811101C0FB01099517
:1039200008951F93CF93DF93EC01FB0112811111D6
:103930004FC00E9403128272C93CFCE5DF0709F404
:1039400060C030F5C53CECE5DE0709F455C060F415
:10395000C33C9CE5D90709F443C008F048C0C23C09
:10396000DC45D9F111E034C047ED5BE166EC7BE169
:10397000C73C9CE5D907C1F146EA5BE165EB7BE119
:10398000C83CDC4588F146EC5BE167ED7BE12CC08F
:10399000CD3CFCE5DF07D1F1A0F445ED5AE16DEB3C
:1039A0007AE1CB3CECE5DE07F9F048EE5BE169EF4C
:1039B0007BE1CC3CDC45C0F04DEB5AE165ED7AE1B2
:1039C00013C0C63D8CE5D80718F0CD35DD4551F65E
:1039D000812FDF91CF911F9108950E94431CF8CF52
:1039E00042E35CE163E27CE10E948B1CF1CF43E2A5
:1039F0005CE162E37CE1F8CF45EB5BE166EA7BE109
:103A0000F3CF49EF5BE168EE7BE1EECF81E00E940E
:103A1000361CDECF539A4BB1477F5BB15860EFB78E
:103A2000F8949B01220F331F260F371F280F391FD1
:103A30002817390741F4EFBF8FE594E00197F1F7BC
:103A400000C000000895DC016D91CD0178E05BB904
:103A5000000000C067FF4BB9660F000000C000C047
:103A600000C04BB900C07A9591F7E2CF83E290E0B5
:103A70000E948B34823289F484E290E00E948B347D
:103A8000813159F485E290E00E948B3491E08430DA
:103A900009F090E0892F8170089580E0FCCFCF93EA
:103AA000C82F6FEF811162E283E290E00E949F34A1
:103AB0006FEFC11161E184E290E00E949F346FEFEB
:103AC000C11164E085E290E00E949F34CF91089597
:103AD000089586E290E00E948B34682F70E090E0B9
:103AE00080E008950895CF93C62F0E94721D6C2F19
:103AF00086E290E00E949F34CF91089580E00E947A
:103B00004F1D60E070E0CB010E94731D0E940325F1
:103B10000E94E62581E00E944F1D08950E94681DC5
:103B20000E94691D0E94721D0E94361D811102C0F3
:103B30000E947E1D0895CF93FB01C281CC2309F121
:103B40009C0122513F452031310520F582510E94D0
:103B5000F625C0E08C2FCF91089581E00E94350EAC
:103B600043E062E081E00E943E09F3CF81E00E94E1
:103B7000410E43E062E081E00E943E09EBCF82E02B
:103B8000F6CF8031FFE59F0789F381319F45B9F377
:103B9000C1E0E0CF8031EFE59E07F9F281319F452A
:103BA000C9F682E0DBCF2FEFFC0120830895CF938D
:103BB000DF93EC0188818138E9F028F4803871F0D6
:103BC000DF91CF9108958238C9F08338C9F70E94F8
:103BD000EF1A89830E94F21A8A83F2CF0E94F51AA3
:103BE0002FEF829FC00111246FEF70E00E946131BE
:103BF0006983E6CF0E94A11A8983E2CF0E94D91A75
:103C0000FBCFCF93DF93EC018881813821F128F439
:103C1000803869F0DF91CF910895823841F183387F
:103C2000C9F70E94F51A482F6A81898111C08981DC
:103C30002FEF829FC00111246FEF70E00E9461316D
:103C4000D62F0E94F21AC82F0E94EF1A4D2F6C2F08
:103C50000E94FD1BDFCF89810E944D1C898181114B
:103C600003C00E94371BD6CF0E94821CD3CF89810C
:103C70000E94EB1ACFCFEF92FF920F931F93CF9337
:103C8000DF93EC01062FDC01ED91CD01E150E33132
:103C900008F0ACC0F0E0EF51FB4C0C948931198274
:103CA0008AE08A83602FCE010E946D2ACDB7DEB7ED
:103CB000E6E00C94BE318981823069F0833071F086
:103CC0008130D9F40E9479290E948F316A837B83E5
:103CD0008C839D83E7CF0E94691DF6CF7E01B2E001
:103CE000EB0EF11C10E0812F0E94AA16F7018193C0
:103CF0007F011F5F1C30B9F7D5CF602FCE010E9426
:103D0000D31DD0CF89818230C1F76A817B818C81BC
:103D10009D810E948F310E94731DC4CF4B816A81A7
:103D200089810E94C5249827892798279D838C83A1
:103D3000B9CF2C813D813227232732274B816A81DD
:103D400089810E94E724AECF0E940325ABCF0E9459
:103D5000011EA8CF0E94D71DA5CF0E94861AA2CF10
:103D60000E94972589839ECF0E94992598278927AD
:103D700098279A83898396CF6B8170E089819A8195
:103D8000AE014C5F5F4F9827892798270E949C259A
:103D900089CF6B8170E089819A81AE014C5F5F4F62
:103DA0009827892798270E94C1257CCF0E94E62565
:103DB00079CF0E94B324D6CF6B8170E089819A813C
:103DC000AE014C5F5F4F9827892798270E944125B5
:103DD00069CF6B8170E089819A81AE014C5F5F4F42
:103DE0009827892798270E9465255CCF8FEF8883C5
:103DF00059CFB0E0A0E0EFEFFEE10C94A0316C01F0
:103E00007B0164E670E088E70E942727EC0197FDBC
:103E100012C010E000E0F601E00FF11F849164E6AB
:103E200070E00E949327EC01892B29F40F5F1F4F4C
:103E30000E151F0581F70E940928CE01CDB7DEB708
:103E4000E8E00C94BC310895E3E0F3E080E092E018
:103E5000DF019C011D9221503040E1F7F0930805ED
:103E6000E09307058FEF9FEF9093C3028093C20208
:103E700008950E94231F0E9408088093BE0280FDBF
:103E80000FC080E88093BD020E9421276DE070E0A2
:103E900086E694E00E94F91E892B21F080E00895C7
:103EA00080E2F0CF8091BE0263E070E081FD26C029
:103EB00083E694E00E94F91E892B81F76DE070E0A3
:103EC00083E594E00E94F91E892B41F70E9479292D
:103ED000605A75418F4F9F4F60930305709304059F
:103EE00080930505909306050E94241F81E080932E
:103EF000C1028093C0021092BF02089580E694E050
:103F0000D9CF2091BD0236E0839FC0011124629F6A
:103F1000800D911D1124811522E0920714F090E08C
:103F200080E08D5F9C4F909308058093070508956E
:103F300020910705309108052D5F32404091BD0268
:103F4000642F70E0C9010E946131481B463010F4B3
:103F5000240F311D211582E0380710F030E020E0F9
:103F60002D5F3C4F309308052093070508951F935C
:103F7000CF93DF93162F8A3039F481E00E943020EE
:103F8000DF91CF911F9108958D3011F480E0F6CF2D
:103F9000C0910705D091080596E0FE01A7E9B2E0BF
:103FA00001900D929A95E1F7803EB8F086E0FE010F
:103FB00011928A95E9F711111CC0C0910705D091A3
:103FC000080546E050E0BE0187E992E00E94D63144
:103FD000892BE9F40E94981FD3CFF6E08F9FB001A0
:103FE00011246D587B4F46E050E0CE010E94CD3148
:103FF000E2CFE0910705F09108059F012A5F3F4F4E
:104000002E173F07D1F2808180958193F9CFC3505D
:10401000D340CE0125E0969587952A95E1F721E0DA
:1040200030E0A90102C0440F551F8A95E2F7CA018A
:104030004091C2025091C302842B952B259645E0F6
:10404000D695C7954A95E1F702C0220F331FCA954E
:10405000E2F7822B932B9093C3028093C202BACFD4
:10406000CF93382FE0910705F0910805E350F34016
:104070002091BD02622F70E0CF010E946131281BA8
:10408000822F332369F066E00E945531C82FC1505A
:1040900010F4CF91089560E080E20E94B71FF7CF3F
:1040A0009F01280F311D2115324018F080E0F0E00B
:1040B000E0E08E0F9F2F911D8D5F9C4F9093080520
:1040C00080930705E6CFFF920F931F93CF93DF9363
:1040D000EC01F62EFC0101900020E9F78F01015060
:1040E0001109C017D10728F0CDB7DEB7E5E00C9471
:1040F000BF316F2D89910E94B71FF3CF1F93CF93CC
:10410000DF93EC01162FFE018491811104C0DF9131
:10411000CF911F910895612F0E94B71F2196F3CF71
:104120000E947E2081E00E94302008958091C1028B
:10413000811103C08091C00208950E947929605ABC
:1041400075418F4F9F4F60930305709304058093D3
:104150000505909306058091C0028111EBCF62E0C6
:1041600070E081E594E00E94F91E892B19F781E047
:104170008093C002DFCF2F923F925F926F927F9227
:104180008F929F92AF92BF92CF92DF92EF92FF9267
:104190000F931F93CF93DF938091C102882369F01F
:1041A0002091C2023091C3022115310531F0809176
:1041B000BF0261E070E0882399F0DF91CF911F91F9
:1041C0000F91FF90EF90DF90CF90BF90AF909F90B6
:1041D0008F907F906F905F903F902F9008958F5FAA
:1041E000082F10E01B01082E02C0220C331C0A9479
:1041F000E2F7A90142215321452B89F39091BE0298
:1042000090FD44C08295880F807680931B019801B1
:10421000369527953695279520931E01815E8093CC
:104220001C0110921F0124E630E047E050E069E1F4
:1042300071E088E70E94C127892B09F0BECFA80151
:1042400025E0440F551F2A95E1F78091BE0280FDBD
:104250002BC04D5F5C4F04E610E020E230E060E4EC
:1042600088E70E94E227892B09F0A7CF0E949620B9
:10427000E101C095D0958091C2029091C302C823FC
:10428000D923D093C302C093C20297CF880F880F5F
:10429000880F80931B0110921E01895F80931C017F
:1042A00083E080931F01BFCFEDE9F2E080E2DF0100
:1042B0001D928A95E9F7A3ECB1E00FEB11E087ECD2
:1042C000C82E81E0D82E97E0592E772473948D91D3
:1042D000E80129918E01240F352F311D2D5F3C4FB0
:1042E000E82FF0E0E356FD4F90E080E0652C681A7F
:1042F000872C082E01C0880C0A94EAF77901A12CBA
:10430000E701B9907E01B820662D6A196770962E74
:10431000062E000C770BDB2D01C0DD0F9A94EAF717
:104320007195619571096770772701C0B6946A9598
:10433000EAF7BD2A6081962E9B289082A39468E0BC
:10434000A612DECF019631968830910579F6CA160D
:10435000DB0609F0BCCF04E610E020E230E04DE9D6
:1043600052E07DCF8091C0029091C102911103C0B3
:1043700091E089270895882369F062E070E08FE476
:1043800094E00E94F91E892B19F08091C0020895D3
:104390001092C0028091C002EBCF0E9411080895D4
:1043A0000F931F938091C102882309F160E080E0A0
:1043B0000E94811F0E94CD210E94BB208091C002DB
:1043C0008823A9F00E947929009103051091040522
:1043D0002091050530910605601B710B820B930B34
:1043E0006F3F7F4F8F4F9F4710F40E94B2211F9164
:1043F0000F910895CF93DF93EC01FB018281882315
:1044000009F464C1C330FDE5DF07E0F5CA3F9CE570
:10441000D90730F49E0122503C4524313105D8F5AE
:104420000E9407139093E2028093E102C231ECE50F
:10443000DE0709F41FC108F06EC0C9308CE5D8074B
:1044400009F4F2C008F03FC0C530ECE5DE0709F41E
:10445000DBC058F5C3308CE5D80709F4CDC008F0AF
:10446000CFC08091E1028160C230DC4509F4AEC06A
:104470008091E1029091E2020E9415130E94B30D17
:1044800080E009C0C53AEDE5DE0751F238F4C136E7
:104490009DE5D90729F2DF91CF9108959E012D5A0C
:1044A0003D4523303105B8F7BBCF8091E1028062F2
:1044B000C730FCE5DF0709F489C008F4B1C080917A
:1044C000E102806483C0CD309CE5D90709F4BAC00D
:1044D00070F48091E1028E7FCB30FCE5DF0709F4B8
:1044E00075C008F4A7C08091E1028D7F6FC0CF3006
:1044F0009CE5D90709F4B6C008F4A8C0C031FCE5B2
:10450000DF0709F4B3C0C131DC4509F0B1CF8091B8
:10451000E1028F7B5BC0CF3F9CE5D90709F4B4C0B3
:1045200098F5CA3FFCE5DF0709F472C0B8F4C4315E
:104530009CE5D90709F4B6C008F4A2C0C531DC4532
:1045400009F096CF8091E10282FB992790F921E052
:10455000922790FB82F990FB83F938C0CC3F8CE521
:10456000D80709F477C008F457C0CD3FECE5DE0763
:1045700009F474C08091E2028360CE3FDC4509F00B
:1045800077CF8093E20274CFC1368DE5D80709F466
:1045900096C068F4C130EDE5DE0709F48CC008F47C
:1045A00077C0C230DD4509F063CF80E085C0CD3AE9
:1045B0009DE5D907E9F068F49091E102892F8E7F9B
:1045C00090FF8160C53ADD4509F052CF8093E1024A
:1045D0004FCFCE3A8DE5D80789F1CF3ADD4509F0C6
:1045E00047CF9091E202892F877F93FF8860C9CFE0
:1045F0008091E2028860C5CF8091E1028260E6CFBF
:104600008091E1028460E2CF8091E1028860DECF98
:104610008091E2028160B5CF8091E2028260B1CFE9
:104620008091E1028061D2CF0E94B30D8091E102BE
:104630008068CCCF8091E1028C60C8CF8091E2028B
:10464000877F9FCF8091E1028B7FC0CF8091E10275
:10465000877FBCCF8091E2028E7F93CF8091E20270
:104660008D7F8FCF8091E1028F7EB0CF8091E1026C
:104670008F7DACCF0E94B30D8091E1028F77A6CFE2
:104680008091E102837FA2CF8091E2028C7F79CF7B
:104690008091E202982F909591708E7F892B90FBEC
:1046A00081F96FCF0E94B30D9091E102892F97FBA2
:1046B00087F980588BCF81E00E94A113D9CE9091C9
:1046C000E102892F8F7E94FF806180CF81E0E3CE6D
:1046D000B0E0A0E0EEE6F3E20C94A131E82FF0E0C8
:1046E000ED54F64FD490282F26952695269530E048
:1046F000F901ED5AF54F0491877010E0082E02C0C1
:10470000159507950A94E2F701701127F901ED5B01
:10471000F54FE490F12C082E02C0F594E7940A942A
:10472000E2F791E0E922FF24F901ED5CF54FC49135
:10473000D0E002C0D595C7958A95E2F7C170DD2714
:104740000115110519F081EE0E94540AE114F104DB
:1047500019F086EE0E94540A8D2D0E94560BE1142A
:10476000F10419F086EE0E94E50A0115110519F011
:1047700081EE0E94E50ACD2B19F08CE20E94560BC7
:10478000CDB7DEB7E7E00C94BD31EF92FF920F9307
:104790001F93CF93DF93EC01162F0AE088818823C3
:1047A00009F454C0813009F04EC08981813099F4F8
:1047B0007E0122E0E20EF11C8A810E94560BE70185
:1047C0002196812F815050F3EFE9FFE03197F1F707
:1047D00000C00000F7CF823041F47E0182E0E80E95
:1047E000F11C8A810E94540AEACF833041F47E0191
:1047F000E2E0EE0EF11C8A810E94E50AE0CF8430EF
:1048000011F02196DDCF2A81229690E080E0AE0162
:104810004F5F5F4F2053330B2A30310548F001972B
:1048200078F2EFE9FFE03197F1F700C00000F7CF31
:10483000089FB001099F700D1124C901860F971FB1
:104840002981EA01E4CF0E946823BACFCDB7DEB751
:10485000E6E00C94BE318FE891E00197F1F700C0DB
:10486000000008950E94DC07089581E08093C5024E
:1048700022982A9A26982E9A0E942B242091C502CB
:1048800047EC52E0FA018E2F841B821708F008953E
:1048900083B182FB882780F91E9904C090E0892BA0
:1048A0008193F1CF92E0FBCFB0E0A0E0EAE5F4E243
:1048B0000C94A031F12CE12C84E0C82ED12C8091F5
:1048C000C502F81630F08E2DCDB7DEB7E8E00C94B7
:1048D000BC310F2D10E0E3B1E2FBEE27E0F91E99A9
:1048E00040C080E08E2BD801A953BD4FEC919E2F84
:1048F00093709817A1F1EE0FEE0FE82BEC93EF7089
:10490000F0E0E953FE4FE801CA53DD4F8081988102
:10491000890F888320E084305CF0F801EC53FD4F70
:1049200080818F5F808360E08F2D0E94322421E0A0
:1049300088818D3F5CF4F801EC53FD4F80818150FC
:10494000808361E08F2D0E94322421E08881082E2F
:10495000000C990BB6010E9475318883E22AF3940A
:10496000AECF82E0BFCF84E0089550E0440F551FE2
:104970009CE0699F400D511D112490E9899F400DD5
:10498000511D1124CA01879608950F931F93CF9349
:10499000DF938430C8F46C30B8F44630A8F40E9439
:1049A000B5248C010E948B34C82FD0E0DC2FCC279B
:1049B000C80101960E948B349E01282BC901DF910A
:1049C000CF911F910F91089590E080E0F8CF0F9361
:1049D0001F93CF93DF93122F032F843078F46C3022
:1049E00068F4463058F40E94B524EC01602F0E9410
:1049F0009F34612FCE0101960E949F34DF91CF91A9
:104A00001F910F910895B0E0A0E0E9E0F5E20C9469
:104A10009F319FE0C92E91E0D92ED0E0C0E0760111
:104A2000B12C20C00E94D00821E030E08C171D0678
:104A300041F03CF0F801EE0FFF1FEE0DFF1D259138
:104A40003491402F6B2D8C2F0E94E7240F5F1F4F56
:104A50000630110539F78CE0E80EF11CB3948CE0B8
:104A6000B81619F010E000E0DDCF219680E9C80EFD
:104A7000D11CC430D10599F6CDB7DEB7E9E00C946E
:104A8000BB31EF92FF920F931F93CF93DF93EC0113
:104A90008A017C01E60EF71ECE018796CE15DF0552
:104AA00029F4CDB7DEB7E6E00C94BE31C03422E085
:104AB000D20740F40E948B34F80180830F5F1F4FB0
:104AC0002196EACFF8011082F9CFB0E0A0E0EBE642
:104AD000F5E20C94A0317C016A018C01060F171FCE
:104AE000EC01CE018796C017D10729F4CDB7DEB708
:104AF000E8E00C94BC31C03422E0D20740F4FE015F
:104B0000EE19FF09EC0DFD1D60810E949F34219676
:104B1000E8CF462F843040F47C3030F4663020F407
:104B2000672F0E94C524089590E080E0089580E1F9
:104B3000089589E991E00895EF92FF920F931F93F2
:104B4000CF93DF93EC018A017C01E60EF71ECE01C4
:104B500089599D4FCE15DF0529F4CDB7DEB7E6E0C4
:104B60000C94BE31C93921E0D20740F40E948B3445
:104B7000F80180830F5F1F4F2196E9CFF801108263
:104B8000F9CFB0E0A0E0E7ECF5E20C94A0317C01B5
:104B90006A018C01060F171FEC01CE0189599D4F48
:104BA000C017D10729F4CDB7DEB7E8E00C94BC31CB
:104BB000C93921E0D20740F4FE01EE19FF09EC0DDE
:104BC000FD1D60810E949F342196E7CFCF93DF9334
:104BD000C7E6D2E060E0CE010E949F342196C11565
:104BE00084E0D807B9F7DF91CF910895A4E0B0E051
:104BF000ECEFF5E20C94A131F82E8FE08F1548F11F
:104C00008FEF93E00E948B34811123C007E612E0FE
:104C1000F11023C019821A821B821C82DD24D394D6
:104C200078018FEFE81AF80AC8010E948B34898353
:104C30001A82882371F09FEF980F9330D8F48A83FB
:104C4000D9820E5F1F4FC7010E948B348B83811165
:104C500012C02496E7E00C94BD31011584E01807DA
:104C6000C1F3C8010E948B34811101C0FA940F5F17
:104C70001F4FCECF870160E0CE0101960E94C52371
:104C8000CFCFCF93DF93EB0186319C4511F50E9486
:104C900003129A81992399F08A7A91E009F490E0BD
:104CA0009093C802811109C089E20E94DB110E9421
:104CB000441280E0DF91CF91089585E3F6CF809193
:104CC000C802811104C089E20E94E311F0CF85E39C
:104CD000FBCF81E0EFCF0F931F93CF93DF93C42FD0
:104CE000D22FFC0182818823C9F04093CB020E941D
:104CF0006D299093CA028093C90280E28C0F88309C
:104D000040F4C77081E001C0880FCA95EAF70E949D
:104D10005F0BDF91CF911F910F9108951091CB02FE
:104D2000141332C08091C9029091CA020E94852951
:104D3000883C910548F5C0E2CD0F1D17B9F080E21F
:104D4000810F883040F4177081E001C0880F1A95F8
:104D5000EAF70E94660BC83048F481E09D2F9770F7
:104D600001C0880F9A95EAF70E945F0B802F0E947E
:104D7000560BC83070F6D77081E001C0880FDA9505
:104D8000EAF70E94660BC5CF80E28C0F883008F6E8
:104D9000C77081E001C0880FCA95EAF7F2CF0F9380
:104DA0009C01CB01233F4CE5340759F1A8F4283D81
:104DB000FCE53F0701F1293D4CE53407D1F1273DE2
:104DC0003C4591F406E221EE41EE67ED7CE50E9460
:104DD0006B2680E00F910895253FFCE53F07E9F041
:104DE000B0F0263F3C45F9F0FC018281882339F17F
:104DF0001092CB02EFCF07E225EE45EE68ED7CE5A1
:104E0000E6CF06E221EE40EE63EF7CE5E0CF07E27D
:104E100025EE44EE64EF7CE5DACF06E221EE42EEC9
:104E200065EF7CE5D4CF07E225EE46EE66EF7CE544
:104E3000CECF08E221E045EE69ED7CE5C8CF81E008
:104E4000C9CF1092B9008CE08093B8000895B0E00B
:104E5000A0E0EDE2F7E20C949D31B82EEB010E9448
:104E60006D296C01EE24E394F12CC431D10560F07E
:104E700025E0E22EF12CCF3FDC0731F0CE0164E1DA
:104E800070E00E9461317B0184EAA82E94E8992E9B
:104E90001092BC00A092BC000E946D298C018091F0
:104EA000BC0087FF0DC08091B900887F8830F9F081
:104EB0008091B900887F8031D1F00FEF1FEF08C0DB
:104EC000C8010E948529E816F90648F70EEF1FEF82
:104ED000CF3FDC07E9F2C6010E948529C817D90730
:104EE000B8F6C801CDB7DEB7EBE00C94B931B0929B
:104EF000BB009092BC000E946D298C018091BC0087
:104F000087FF0AC08091B900887F883111F0803412
:104F1000A1F610E000E0E5CFC8010E948529E8165F
:104F2000F90660F7D3CF0F931F93CF93DF93EB0175
:104F30008093BB0084E88093BC000E946D298C01A3
:104F40008091BC0087FF11C02091B900287F81E0CB
:104F500090E0283211F490E080E0919581959109DC
:104F6000DF91CF911F910F910895CF3FDC0741F35F
:104F7000C8010E948529C817D90710F78EEF9FEF47
:104F8000EFCFB0E0A0E0E7ECF7E20C94A0316B01CA
:104F90008A017901B9010E942727E6010C0D1D1D28
:104FA000C017D10711F097FF08C024E92093BC0077
:104FB000CDB7DEB7E8E00C94BC31B70189910E940F
:104FC0009327EECFB0E0A0E0E8EEF7E20C94A0313A
:104FD000C62F6A017901B8010E94272797FD0CC0EE
:104FE000B8018C2F0E949327E601EC0CFD1CCE1516
:104FF000DF0511F097FF08C024E92093BC00CDB76E
:10500000DEB7E8E00C94BC31B80189910E94932787
:10501000EECF84E98093BC0008959093E7018093DC
:10502000E60108959093D1028093D0020895E09113
:10503000D002F091D102309729F00190F081E02D5B
:105040000995089580E00895E091D002F091D10291
:10505000309721F00280F381E02D09950895E091C9
:10506000D002F091D102309739F022E0DC012C938C
:105070000480F581E02D099508952091CE023091AC
:10508000CF022817390771F09093CF028093CE0298
:10509000E091D002F091D102309721F00680F781A3
:1050A000E02D099508952091CC023091CD0228176A
:1050B000390771F09093CD028093CC02E091D00239
:1050C000F091D102309721F00084F185E02D09950F
:1050D00008959C012E5F3F4FAC01485F5F4F80E019
:1050E0002417350709F40895F90191919F01992337
:1050F000B9F38F5FF5CF662349F0FC01329608962D
:105100002191261729F0E817F907D1F780E00895D3
:1051100081E008959C01FC0132969FEF80E041916F
:10512000461751F09F3F19F4411101C0982F8F5F2E
:105130008630A9F79F3F09F40895290F311D97FD87
:105140003A95F90162830895FC01329608962191FF
:10515000261303C0DF0111971C92E817F907B9F76E
:1051600008950E948A2808950E94A428089502960E
:1051700026E0FC0111922A95E9F7089546E050E0F7
:105180000E94D63121E0892B09F420E0822F089576
:1051900008950E94C8280895811106C081E0809377
:1051A000D2020E94C928089582E0F9CF83E080935B
:1051B000D2020E94C92808950E94CC28089581E057
:1051C0008093D2020E94C92808950E94DF28089582
:1051D000089508950E94E9280895089508950E9469
:1051E000E8280895CF930E94ED280E94C7160E94D8
:1051F000EE28C0E08C2F0E94AA16811105C0CF5F57
:10520000CC30C1F7CF91089581E0FCCF85B780689D
:1052100085BF85B7806885BF08951F921FB61F920E
:1052200011248F939F93AF93BF938091D3028111E9
:1052300013C08091090590910A05A0910B05B091CA
:105240000C054196A11DB11D8093090590930A0597
:10525000A0930B05B0930C05BF91AF919F918F91D7
:105260001F901FBE1F90189580911105843031F159
:105270000E94C7091092D30288E190E020E40FB6A3
:10528000F894A895809360000FBE2093600083B7C8
:10529000817F846083BF83B7816083BF7894889562
:1052A00083B78E7F83BF0FB6F894A8958091600076
:1052B000886180936000109260000FBE08950E9484
:1052C000B30D0E94CE09089582E084BD93E095BDA0
:1052D0009AEF97BD80936E0008952FB7F894809150
:1052E000090590910A05A0910B05B0910C052FBFFF
:1052F00008952FB7F8946091090570910A0580917F
:105300000B0590910C052FBF08959C014FB7F894A1
:105310008091090590910A05A0910B05B0910C05AB
:105320004FBF821B930B089578941F921FB61F9254
:1053300011248F939F93AF93BF9380910905909110
:105340000A05A0910B05B0910C050196A11DB11D98
:105350008093090590930A05A0930B05B0930C0563
:10536000BF91AF919F918F911F901FBE1F90189575
:1053700081E08093E00080E28093D8001092C90021
:105380008FE19EE40197F1F700C0000087E090EB09
:10539000DC0180931A0590931B05A0931C05B09324
:1053A0001D0588E19CE00FB6F894A89580936000F5
:1053B0000FBE90936000FFCF88E19CE00FB6F89499
:1053C000A895809360000FBE90936000FFCF8091FE
:1053D000DF02089508959C0184E08093E9009FEF27
:1053E0008091E800915085FD06C085ED8A95F1F722
:1053F00000009111F5CF8091E80085FF0CC050E0CE
:1054000040E066E070E0C9010E947F2C8091E800D6
:105410008E778093E8000895CF93DF93EC0181E0CD
:105420008093E9008FEF9091E800815095FD06C0D0
:1054300095ED9A95F1F700008111F5CF8091E80084
:1054400085FF14C050E040E068E070E0CE010E94AB
:105450007F2C8091E8008E778093E80088E0FE0141
:10546000A7EDB2E001900D928A95E1F7DF91CF911F
:1054700008958093D4027093D6026093D5028091F0
:1054800011058430F9F48093E9008FEF9091E800E2
:10549000815095FD06C095ED9A95F1F700008111B8
:1054A000F5CF8091E80085FF0DC050E040E063E05B
:1054B00070E084ED92E00E947F2C8091E8008E776E
:1054C0008093E8000895BC0184E00E94392A089581
:1054D000BC0183E00E94392A0895CF93FC01603219
:1054E00021F580911105843001F5C091E900CF705C
:1054F0002091EC00922F917020FD90E8C92B82E062
:105500008093E9008091E80080FF0CC050E040E00B
:1055100060E270E0CF010E947F2C8091E8008E77DE
:105520008093E800CF70C093E900CF9108958091F7
:105530001005811109C00E945E2E0E94BB2E809131
:10554000E20084608093E2000895109210050895AF
:105550000E94DF28089560910D0581E0611101C06E
:1055600080E00E94D62808959091110581E0943042
:1055700009F080E060910D050E94DC28089542E06A
:1055800061EC81E00E94DA2D42E261EC84E00E944D
:10559000DA2D42E261EC82E00E94DA2D42E260EC18
:1055A00083E00E94DA2D9091110581E0943009F09A
:1055B00080E060910D050E94CC280895809113052C
:1055C000833009F463C030F48130E1F1823009F4B2
:1055D000A0C008958A3009F48CC08B3009F471C0E2
:1055E000893009F052C080911205813209F04DC016
:1055F0008091160590911705009719F0029709F010
:1056000044C08091E800877F8093E8008091E800A3
:1056100082FF37C09091F3008091F200029731F43D
:105620008091F100813011F0863021F48091F100F9
:105630008093DF028091E8008B778093E8000E94DE
:105640000E2E23C080911205813AF9F48091E80072
:10565000877F8093E8008091160590911705892B2C
:1056600061F468E087ED92E070E00E941D2D80916A
:10567000E8008B778093E800089560E090E080E098
:10568000F3CF809111058111C1CF0895809112054A
:10569000813AD9F78091160590911705892BA9F7C2
:1056A0008091E800877F8093E8008091E80080FF88
:1056B000FCCF80912C018093F1008091E8008E77DF
:1056C000BCCF80911205813201F78091160590912F
:1056D0001705892BD1F68091E800877F8093E80039
:1056E0000E940E2E8091140580932C010E94B30D10
:1056F000089580911205813241F68091E800877FFC
:105700008093E8000E940E2E809115058093E002A0
:10571000089580911205813A09F0B7CF8091E80091
:10572000877F8093E8008091E80080FFFCCF809124
:10573000E002C1CF84B7877F84BF0FB6F894A895E5
:1057400080916000886180936000109260000FBEBD
:1057500080E890E00FB6F894809361009093610028
:105760000FBE0E94E52808950E945E2E0E94BB2E67
:10577000E2EEF0E080818460808378940E943A3188
:10578000089580E291E00E94122808958091110509
:10579000853031F480911105853019F00E945F2920
:1057A00008950E94342980910F05882399F30E945F
:1057B000F228882379F30E94692C0E94B30DEACF66
:1057C000A0E2B0E0E6EEFBE20C94A6318091110578
:1057D000843009F583E08093E9008091E80082FF3E
:1057E0001AC08091E80090E085FF09C050E040E0D9
:1057F00060E270E0CE0101960E94CE2C91E0809193
:10580000E8008B778093E800992329F060E2CE01CD
:1058100001960E943B1EA096E2E00C94C2310E94C9
:10582000122C0895292F33272330310521F168F4F4
:105830002130310509F443C02230310509F444C058
:1058400090E080E030E020E026C02132310551F1C7
:1058500022323105A9F76330710590F7FB01EE0F95
:10586000FF1FE652FE4F2081318169527E4FFB01BE
:10587000808190E010C099278130910581F00097D8
:1058800029F00297E9F6E3E6FAE002C0E7E8FAE079
:10589000849190E09F01FA01318320830895E3E72A
:1058A000FAE0F6CF6330710558F6660F771FFB01FB
:1058B000E052FE4F2081318189E090E0ECCF82E11F
:1058C00090E026EE3AE0E7CF8BE590E02BE83AE077
:1058D000E2CF80E189BD82E189BD09B400FEFDCF40
:1058E0008091D8008F7D8093D8008091E000826005
:1058F0008093E0008091E00081FDFCCF0895AF929D
:10590000BF92CF92DF92FF920F931F93CF93DF93BB
:105910006C01EB018A010E942D2EF82E811123C00B
:105920000115110539F0F80180819181C81BD90B4F
:10593000C80ED91EB12CA12C2097A9F08091E800A7
:1059400085FD22C08091E8008E778093E8000115E4
:105950001105A1F0F80180819181A80EB91EB182D4
:10596000A08285E0F82E8F2DDF91CF911F910F91AE
:10597000FF90DF90CF90BF90AF9008950E942D2EA2
:105980008823D1F2F82EEFCFF60181916F01809339
:10599000F1002197FFEFAF1ABF0ACECFAF92BF92AF
:1059A000CF92DF92FF920F931F93CF93DF936C01FF
:1059B000EB018A010E942D2EF82E811123C00115C2
:1059C000110539F0F80180819181C81BD90BC80EEF
:1059D000D91EB12CA12C2097A9F08091E80085FD5B
:1059E00022C08091E8008B778093E80001151105B3
:1059F000A1F0F80180819181A80EB91EB182A08228
:105A000085E0F82E8F2DDF91CF911F910F91FF90A0
:105A1000DF90CF90BF90AF9008950E942D2E8823E5
:105A2000D1F2F82EEFCF8091F100F60181936F0152
:105A30002197FFEFAF1ABF0ACECFFC018091180566
:105A40009091190586179707A0F06115710529F443
:105A50009091E8009E779093E80090E061157105C1
:105A600051F4911108C08091E80082FF34C080E0B9
:105A70000895BC01F2CF809111058823C1F18530D2
:105A8000C1F18091E80083FD30C08091E80082FD83
:105A9000EACF8091E80080FFE1CF8091F300209170
:105AA000F200382F6115710519F02830310558F0D2
:105AB00091E02830310509F090E02091E8002E7740
:105AC0002093E800CBCF81918093F1006150710960
:105AD0002F5F3F4FE7CF80911105882341F085303C
