:100000000C94A6050C94DE050C94DE050C94DE051C
:100010000C94DE050C94DE050C94DE050C94DE05D4
:100020000C94DE050C94DE050C94FC270C94D4286B
:100030000C94B4130C94DE050C94DE050C94DE05D0
:100040000C94DE050C94DE050C94DE050C94DE05A4
:100050000C94DE050C94D8270C94DE050C94DE0578
:100060000C94DE050C94DE050C94DE050C94DE0584
:100070000C94DE050C94DE050C94DE050C94DE0574
:100080000C94DE050C94DE050C94DE050C94DE0564
:100090000C94DE050C94DE050C94DE050C94DE0554
:1000A0000C94DE050C94DE050C94DE0505010902B6
:1000B000A10185020901A1000509190129081500FE
:1000C0002501950875018102050109300931158165
:1000D000257F95027508810609381581257F9501D0
:1000E00075088106050C0A38021581257F95017572
:1000F000088106C0C005010980A101850319012AF4
:10010000B700150126B700950175108100C0050CD8
:100110000901A101850419012AA002150126A002E6
:10012000950175108100C00660FF0961A101096297
:10013000150026FF00952075088102096315002629
:10014000FF00952075089102C005010906A101056F
:100150000719E029E7150025019508750181029529
:1001600001750881010507190029FF150026FF0008
:100170009506750881000508190129051500250156
:10018000950575019102950175039101C000AF00BD
:10019000AE07087F0807003E5B4F5B3E003E6B4F9B
:1001A0006B3E001C3E7C3E1C00183C7E3C18001C34
:1001B000577D571C001C5E7F5E1C0000183C180019
:1001C00000FFE7C3E7FF00001824180000FFE7DB8B
:1001D000E7FF0030483A060E00262979292600401C
:1001E0007F05050700407F05253F005A3CE73C5A44
:1001F000007F3E1C1C0800081C1C3E7F0014227F50
:100200002214005F5F005F5F0006097F017F00002E
:100210006689956A0060606060600094A2FFA294A5
:100220000008047E04080010207E20100008082A20
:100230001C0800081C2A0808001E10101010000CD2
:100240001E0C1E0C0030383E383000060E3E0E06E6
:100250000000000000000000005F00000000070038
:10026000070000147F147F1400242A7F2A12002321
:100270001308646200364956205000000807030046
:1002800000001C224100000041221C00002A1C7FAB
:100290001C2A0008083E0808000080703000000892
:1002A0000808080800000060600000201008040230
:1002B000003E5149453E0000427F400000724949DE
:1002C0004946002141494D33001814127F10002780
:1002D00045454539003C4A4949310041211109074A
:1002E00000364949493600464949291E0000001494
:1002F00000000000403400000000081422410014F7
:1003000014141414000041221408000201590906B3
:10031000003E415D594E007C1211127C007F49491C
:100320004936003E41414122007F4141413E007F2C
:1003300049494941007F09090901003E4141517382
:10034000007F0808087F0000417F410000204041F5
:100350003F01007F08142241007F40404040007F61
:10036000021C027F007F0408107F003E4141413E95
:10037000007F09090906003E4151215E007F0919ED
:1003800029460026494949320003017F0103003F05
:100390004040403F001F2040201F003F4038403F6A
:1003A00000631408146300030478040300615949CE
:1003B0004D4300007F41414100020408102000002D
:1003C0004141417F0004020102040040404040409E
:1003D000000003070800002054547840007F2844A0
:1003E000443800384444442800384444287F0038C6
:1003F000545454180000087E09020018A4A49C78E4
:10040000007F080404780000447D40000020404044
:100410003D00007F102844000000417F4000007C28
:1004200004780478007C0804047800384444443894
:1004300000FC182424180018242418FC007C08044C
:1004400004080048545454240004043F4424003C4D
:100450004040207C001C2040201C003C4030403CA0
:10046000004428102844004C9090907C0044645430
:100470004C440000083641000000007700000000F6
:1004800041360800000201020402003C2623263CFB
:1004900000000000000000404040F0F8F8FF38FF86
:1004A000F8F83FF8F8FF38FFF8F8F0404040000057
:1004B0000000000080C0C0C0800000C0C0800000FC
:1004C0000080C0C000C0C0000080C0C000000000AC
:1004D00000C0C0C0C0C000C0C000000000000000DC
:1004E000000000000000000000000000000000000C
:1004F00000000000000000000000000000000000FC
:1005000000000000000000000000000000000000EB
:10051000C0F0F8FC3E1E06010000007F4141417F13
:10052000007F4141417F000080C0E07E5B4F5BFE69
:10053000C00000C000DCD7DEDEDED7DC00C000007B
:1005400000000000000000000000000000000000AB
:1005500000000000000000494949FFFFFFFFE0DF05
:10056000BFBF00BFBFDFE0FFFFFFFF4949490000F9
:100570000000001F3F6060E0BF1F007F7F071E3844
:100580001E077F7F007F7F0E1F3B71600000000011
:10059000007F7F0C0C0C007E7E007F7E0303007FBB
:1005A0007E03037E7E03037F7E000F3E703C063C8D
:1005B000703E0F00327B49493F7E007F7E0303007F
:1005C0001E3F69696F260000000000000000000067
:1005D000030F1F3F3C7870600000007F4141417F66
:1005E000007F4141417F00307B7F78302020307890
:1005F0007F3B0003000F7F0F0F0F7F0F00030000F2
:1006000000000000000000000000000000000000EA
:1006100000000000000000010101070F0F7F0F7FA5
:100620000F0F7E0F0F7F0F7F0F0F070101010000DB
:1006300000000000000000000101000000000000B8
:1006400000000000000000000000000000000000AA
:10065000000000000000000000000000000000009A
:10066000000000000000000000000000000000008A
:10067000000000000000000000000000000000007A
:10068000000000000000000000000000000000006A
:10069000000000000000000000000000000000005A
:1006A000000000000000000000000000000000004A
:1006B000000000000000000000000000000000003A
:1006C000000000000000000000000000000000002A
:1006D0000009025B00030100A0FA09040000010305
:1006E00001010009211101000122440007058103D5
:1006F00008000109040100020300000009211101A2
:1007000000012222000705820320000107050303E0
:100710002000010904020001030000000921110169
:100720000001227B00070584032000011201000262
:1007300000000008383939340100010200010E03BD
:1007400048004F004F004B003400390000001203F6
:100750006B0075007300680069006D00610038006F
:1007600000000403090435002B0014001A000800DF
:1007700015000B000D000E000F00330034001700B1
:1007800039001C0018000C00120032002152E00059
:10079000E1001D001B0013002F00300028002A007C
:1007A000E2000600190005002C00110010003900BD
:1007B00004001600070009000A0036003700380060
:1007C0008700E500225288000000000000000000C1
:1007D0000000040000000000000000000000010014
:1007E00001001E001F002000210001000100010087
:1007F0000100010001002200010023002400250067
:100800002600010001000100010001000100270095
:100810002D002E0001000100010001000100010077
:1008200001000100010001000100010001000100C0
:1008300001000100010001000100010001000100B0
:1008400000000000000000000000050000000000A3
:10085000000000000000010001003A003B003C00E5
:100860003D000100010001000100010001003E0007
:1008700001003F0040004100420001000100010072
:100880000100010001004300440045000100010097
:100890000100010001000100010001000100010050
:1008A0000100010001000100010001000100010040
:1008B0000100010001000100000000000000000034
:1008C00000000600000000000000000000003500ED
:1008D0002B0014001A00080015000B000D000E007C
:1008E0000F0033003400170039001C0018000C0002
:1008F000120032002152E000E1001D001B00130035
:100900002F00300028002A00E20006001900050030
:100910002C00110010003900040016000700090027
:100920000A003600370038008700E50022528800B0
:1009300000000000000000000000070000000000B0
:100940000000000000000400050006000700080089
:1009500009000A000B00004C45440000556E646518
:1009600066003474680033726400326E6400317360
:1009700074004C4159455200000001010101010180
:100980000101010202020202020202020303030346
:100990000303030304040404040404050505050516
:1009A00006060606060707070707080808080909D4
:1009B00009090A0A0A0B0B0B0C0C0C0D0D0D0E0E7F
:1009C0000E0F0F0F10101111111212131314141512
:1009D0001516161717181819191A1A1B1B1C1D1D86
:1009E0001E1E1F20202122222324242526262728DC
:1009F00029292A2B2C2D2D2E2F303132323334350C
:100A0000363738393A3B3C3D3E3F4041424344450E
:100A1000464748494A4C4D4E4F50515354555658ED
:100A2000595A5B5D5E5F616264656668696B6C6D97
:100A30006F7072737577787A7B7D7E80828385870D
:100A4000888A8C8E8F91939596989A9C9EA0A2A34B
:100A5000A5A7A9ABADAFB1B3B5B7BABCBEC0C2C450
:100A6000C6C9CBCDCFD1D4D6D8DBDDDFE2E4E7E910
:100A7000EBEEF0F3F5F8FAFDFF00DA0281FFD9F1B1
:100A8000DB20A4A62EAF00A0C0D30000A1C8D300D5
:100A900000AED580A81F408D14200000000000008B
:100AA0000000000000000000000000000000000046
:100AB0000000000000000000000000000000007EB8
:100AC0000F00D4FFFFFFC700000078000000000007
:100AD0000000002A2B280000000000000000000099
:100AE00000000000000029000000002C1E3420211E
:100AF0002224342627252E362D3738271E1F202165
:100B000022232425263333362E37381F04050607C3
:100B100008090A0B0C0D0E0F1011121314151617DD
:100B200018191A1B1C1D2F3130232D3504050607FB
:100B300008090A0B0C0D0E0F1011121314151617BD
:100B400018191A1B1C1D2F3130354C0011241FBEE3
:100B5000CFEFDAE0DEBFCDBF04B603FE18C0809150
:100B6000EE049091EF04A091F004B091F10487306D
:100B7000904BA740B04B59F41092EE041092EF0442
:100B80001092F0041092F104E0E0F8E3099511E00E
:100B9000A0E0B1E0ECEAFCE502C005900D92AA3CB1
:100BA000B107D9F724E0AAECB1E001C01D92AE3E36
:100BB000B207E1F70E94D0210C94D82D0C940000CC
:100BC000E82FE295EF70F0E041A18F7021E030E076
:100BD000B90102C0660F771F8A95E2F7CB01962F05
:100BE0009095942391A392A1892B82A30895E82F35
:100BF000E295EF70F0E041A18F7021E030E0B901A3
:100C000002C0660F771F8A95E2F7CB01942F982BCD
:100C100091A392A18095892382A30895982F9295FC
:100C20009F7024E0911102C020E0982F892F8695B3
:100C30008695811511F02E5F982F892F8695820F4A
:100C400008958093A70408959B01677091E001C007
:100C5000990F6A95EAF763E0369527956A95E1F76B
:100C6000B901660F771F260F371FFA01E20FF31F36
:100C700040E050E0682F70E08191DF019B01042E7D
:100C800002C0369527950A94E2F72170219528270E
:100C9000292328272E934F5F5F4F4330510561F77B
:100CA00008959C01A82FA77083E0369527958A9513
:100CB000E1F7C901880F991F820F931FFB01E80F0D
:100CC000F91F40E050E080E0219130E00A2E02C0A0
:100CD000369527950A94E2F721703327042E01C038
:100CE000220F0A94EAF7822B4F5F5F4F4330510582
:100CF00059F70895282F862F953070F42C3058F42A
:100D0000622F70E02CE0929F600D711D112449E765
:100D100054E00E94240608959C5F9230E0F7622F11
:100D200070E046E754E0F5CF292F953068F48C3019
:100D300090F490E069E774E03CE0239F800D911D02
:100D400011240E94510608952C5F223020F466E79A
:100D500074E090E0F6CF80E008958091AE04909129
:100D6000AD04981301C008958F5F8770FACFAEEC81
:100D7000B1E0EFEF90E02D91821751F0EF3F19F4C1
:100D8000211101C0E92F9F5F9630A9F7EF3F09F4C9
:100D900008950E2E000CFF0BE453FE4F828308953E
:100DA000EEECF1E09191891302C0DF011E9291E017
:100DB000E43DF907B9F70895982F90958091A40420
:100DC00089238093A40408959C01803E910509F431
:100DD00048C0D8F48133910509F47DC048F48932C4
:100DE000910509F46DC08A9709F47CC0C901089582
:100DF0008933910551F18238910539F1C597B1F7E1
:100E00008091AA0485FFF2CF29C0843E910509F4A0
:100E100047C048F4823E910599F1833E9105A9F1BE
:100E200021EE30E0E3CF863E910509F444C0873ED1
:100E30009105E1F68091AA0483FD61C09091AB0415
:100E400091FF2BC024EE30E0D1CF8091AA048370B3
:100E5000811152C08091AB0483FFC8CF29E230E0FA
:100E6000C5CF8091AA0480FD33C09091AB0490FF60
:100E7000BDCF23EE30E084FFB9CF20E030E0B6CF25
:100E80008091AA0482FDF5CFB1CF8091AA0482FDA2
:100E900030C09091AB0490FD2FC084FFA7CFEDCF61
:100EA0008091AB0481FFA2CF8091AA0427EE30E0AD
:100EB00084FDE3CF9BCF8091AA0483FDF7CF96CF2B
:100EC0008091AA0485FD1EC08091AB0483FF8ECF64
:100ED00029E330E08BCF8091AA0486FF87CF2AE2F6
:100EE00030E084CF8091AA0486FF80CF21E330E0F8
:100EF0007DCF22EE30E07ACF20EE30E077CF26EEC5
:100F000030E074CF25E330E071CF9091AA0492FFD6
:100F100010C041E0282F2471243009F040E031E076
:100F2000282F2871283009F030E0431711F02CE009
:100F3000822793FF10C041E0282F2471243109F04B
:100F400040E031E0282F2871283109F030E04317C4
:100F500011F02CE082273091AB0430FF10C051E03B
:100F6000282F2171213009F050E041E0282F28710D
:100F7000283009F040E0541711F029E0822731FFB2
:100F800010C041E0282F2171213109F040E031E00B
:100F9000282F2871283109F030E0431711F029E09B
:100FA000822794FD877E08951F93CF93DF930E943D
:100FB000E406EC01811522E5920708F055C0811581
:100FC00040E5940708F0D1C0803E910520F58D3CA6
:100FD000910508F0A4C0883A910570F4853A91050E
:100FE00008F09AC081309105D1F10497813A9105BA
:100FF000B0F1C0E0D0E033C0885A91094B97C8F7F0
:10100000C85AD0E0CC0FDD1FC25ADE4F0990D881FC
:10101000C02DD46424C0811550E49507C0F4C115D7
:1010200080E2D80708F0B7C0C83ED105C0F0CE01B5
:101030009A9581159F41E8F68D2F0E948507182FFC
:10104000CE0199270E94E406EC01D12B08C0992714
:101050000E94E406CC27DF70C82BD92BD06ACE01C2
:10106000DF91CF911F910895803842E59407C8F52C
:10107000803652E5950708F05BC0C03482E5D8079A
:10108000D0F4C03292E5D90708F04BC08C2F86957A
:10109000869520E2829FC0011124C37021E030E0D8
:1010A000A90102C0440F551FCA95E2F7EA01C82BF7
:1010B000D92BDD68D4CF8C2F86958695877050E22A
:1010C000859FC0011124C37021E030E0A90102C056
:1010D000440F551FCA95E2F7EA01C82BD92BDC68EB
:1010E000BECF803C52E5950758F48F71C03AD24587
:1010F000A0F590E0982F8827EC01C46FD06AAFCF9D
:10110000805C9245809708F074CFDC2FCC27CC27E9
:10111000DF71C06FD06AA3CFA497D064A0CFD06591
:101120009ECFCF71D0E0DC2FCC27C16FD06A97CF94
:1011300086958695877020E2829FC0011124C37036
:1011400021E030E0A90102C0440F551FCA95E2F723
:10115000EA01C82BD92BDA6882CF0E948507C82FF5
:10116000D0E0DC2FCC27D0627ACF8F710E94850728
:1011700093E0CC0FDD1F9A95E1F7CC27DF70282F85
:1011800030E084FF04C050E1859F90011124C22B00
:10119000D32BD06964CF8D2F8F710E948507182FB4
:1011A000CE0199270E94E406EC01D12BDCCF80E030
:1011B0000895282F35EB2303C001112497FF04C0A5
:1011C00080589109892F089580589F4FFBCF8091B7
:1011D000930480FD14C081FD14C082FD16C080916F
:1011E0009204811581F08E3180F420E5829FC00148
:1011F00011246EE170E00E94742A862F089584E124
:10120000089588E2089588E0089580E50895809122
:10121000930480FD17C081FD17C082FD19C0809125
:101220009104811599F0883298F428E0829FC001DA
:10123000112468E270E00E94742A6115710551F072
:10124000862F089562E0FCCF64E0FACF61E0F8CF2A
:1012500068E0F6CF81E0089580919C04823038F4F4
:1012600080919C048170826080939C0408958430F6
:10127000B8F70895FA01811511F009950895FB0159
:10128000FCCFE0916C04F0916D04309729F001904F
:10129000F081E02D0995089580E00895A3E0B0E085
:1012A000E4E5F9E00C94412A9C018091FA019091C7
:1012B000FB0182179307A1F03093FB012093FA0101
:1012C000E0916C04F0916D04309751F083E08983D4
:1012D0003B832A830680F781E02DCE010196099594
:1012E0002396E2E00C945D2AA3E0B0E0EAE7F9E09F
:1012F0000C94412A9C018091F8019091F901821788
:101300009307A1F03093F9012093F801E0916C0468
:10131000F0916D04309751F084E089833B832A83F8
:101320000680F781E02DCE01019609952396E2E033
:101330000C945D2A2FB7F8946091F4017091F50137
:101340008091F6019091F7012FBF08958091F301EC
:101350000895FC019B018091E9019091EA018617B3
:10136000970740F0672B29F48091E8008E778093EF
:10137000E800C90140E0009741F4411106C08091A6
:10138000E80082FF2FC080E00895209169042115B4
:10139000A9F12530A9F12091E80023FD2DC020916D
:1013A000E80022FDECCF2091E80020FFE4CF30914F
:1013B000F3002091F200009719F02830310558F021
:1013C00041E02830310509F040E02091E8002E7717
:1013D0002093E800D0CF41914093F10001972F5F17
:1013E0003F4FE9CF80916904811541F0853041F08C
:1013F0008091E80083FFC3CF81E0089582E00895E3
:1014000083E008958091E30187FF13C08091E80095
:1014100082FF06C08091E8008B778093E8000895F2
:10142000809169048111F2CF08958091690481153A
:10143000D9F38091E80080FFF8CF8091E8008E77A3
:10144000ECCF2091E4003091E50095E6A9012091D0
:10145000EC00822F817020FF06C08091E80080FFA1
:1014600006C080E008952091E80022FD1AC0809116
:101470006904811589F0853089F08091EB0085FD44
:101480000FC02091E4003091E50042175307F9F2B4
:101490009A95E1F684E0089582E0089583E0089546
:1014A00081E00895E8EDF0E080818E7F80831092E6
:1014B000E2001092DA001092E100A0EEB0E08C9110
:1014C00081608C9380818F77808319BCA7EDB0E019
:1014D0008C918E7F8C9380818F7E80831092E2012D
:1014E0000895982F9093E900891771F07091EC009E
:1014F0002091ED005091F00021FD09C09F5F9730D1
:1015000089F78093E9000895762F242F50E03091D9
:10151000EB003E7F3093EB003091ED003D7F309348
:10152000ED003091EB0031603093EB007093EC00F4
:101530002093ED005093F0002091EE0027FDDECFC8
:101540000895A0E0B0E0E7EAFAE00C943B2AC8ED89
:10155000D0E088818F7E8883E7EDF0E08081816034
:10156000808384E082BF81E08093E20188818E7F66
:10157000888302EE10E0F80110821092DA0081EE0A
:10158000C82ED12CF601108288818F7788838881BC
:101590008068888388818F7D888319BC1092690454
:1015A0001092E10110924A041092E00190EEE92EAF
:1015B000F12CF70180818B7F808388818160888313
:1015C00042E060E080E00E94710AF60180818E7F37
:1015D0008083F8018081816080838081886080833E
:1015E000F70180818E7F8083888180618883CDB779
:1015F000DEB7E8E00C94572AE091AE049091AD0478
:1016000027E0E91302C080E00895AE2FB0E02E9FDE
:10161000F0011124E155FB4F3181361306C03081B2
:10162000381303C03581341304C0FD013196E770CF
:10163000E8CF81E0089580919C0480FD06C010925F
:101640002F0210922E0210923002539A3BB1377F34
:101650002BB128604FB7F8948EE292E0FC0101961E
:10166000508168E02BB9000000C057FF3BB9550F0F
:10167000000000C000C000C03BB900C06A9591F7EF
:1016800052E08133950751F74FBF8FE594E0019702
:10169000F1F700C00000089581E08093E00080E24F
:1016A0008093D8001092C9008FE19EE40197F1F772
:1016B00000C0000087E090EBDC018093EE04909383
:1016C000EF04A093F004B093F10488E19CE00FB61E
:1016D000F894A895809360000FBE90936000FFCFB0
:1016E0000F931F93CF93DF938B01EA0190916904CD
:1016F000943059F58093E9008FEF9091E80095FDC3
:1017000006C095ED9A95F1F700008A95B1F78091A2
:10171000E80085FF1AC00E94210A811111C0809142
:10172000E80085FD06C08091E8008E778093E80090
:10173000F2CFF80181918F018093F100219779F721
:101740008091E8008E778093E800DF91CF911F9120
:101750000F910895CF93DF93D82FC92F48E050E021
:10176000682F792F81E00E94700B88E0ED2FFC2F0D
:10177000ABEEB1E001900D928A95E1F7DF91CF9148
:101780000895BC0146E050E084E00E94700B08958B
:10179000BC0143E050E084E00E94700B0895CF93B9
:1017A000C82F63E2811101C06FEF85E390E00E94D2
:1017B000A42D61E0C11101C06FEF86E390E00E94AB
:1017C000A42D66E1C11101C06FEF87E390E00E9494
:1017D000A42DCF9108951F93CF93DF93962F122FAF
:1017E000632F8430D8F49530C8F44C30B8F4C42F4B
:1017F000D0E0CC0FDD1F28E1929FC00DD11D112438
:1018000098E7899FC00DD11D1124CE01C9960E9471
:10181000A42D612FCE01CA960E94A42DDF91CF91F5
:101820001F9108950F931F93CF93DF93962F142F3B
:10183000022F632F8430E8F491111BC024E0829FB3
:10184000E0011124C75EDD4F81E084279E01280F4F
:10185000311D280F311DC9010E94A42D81E090E0A7
:10186000111102C083E090E0602F8C0F9D1F0E9439
:10187000A42DDF91CF911F910F9108958F929F9288
:10188000BF92CF92DF92EF92FF920F931F93CF936D
:10189000DF9396E4E92E99E0F92EC12CD12CC0E01B
:1018A0004601D0E014C0F801259134914B2D6D2FE5
:1018B0008C2F0E94EB0B0E5F1F4FB3948CE0B8127D
:1018C000F2CF8CE0880E911CDF5FD53039F08401B7
:1018D000000F111F0A59184FB12CE5CFF7012591C0
:1018E000349141E060E08C2F0E94120CF701329697
:1018F0002591349140E060E08C2F0E94120C84E02E
:10190000E80EF11CCF5F8CE3C80ED11CC43009F087
:10191000C7CFDF91CF911F910F91FF90EF90DF9094
:10192000CF90BF909F908F900895CF93DF93C9E29F
:10193000D2E060E0CE010E94A42D2196C11584E082
:10194000D807B9F7DF91CF91089580E00E94CF0BBF
:1019500060E088E390E00E94A42D0E943E0C0E946B
:10196000950C81E00E94CF0B089585E390E00E94E2
:10197000802D833289F486E390E00E94802D8130AF
:1019800059F487E390E00E94802D91E0863109F0C0
:1019900090E0892F8170089580E0FCCF0F931F9312
:1019A000CF93DF93843030F5653020F54C3010F55F
:1019B000C42FD0E0CC0FDD1F28E1629FC00DD11DE8
:1019C000112438E7839FC00DD11D1124CE01C99683
:1019D0000E94802D082F10E0102F0027CE01CA96FC
:1019E0000E94802D9801282BC901DF91CF911F9172
:1019F0000F91089580E090E0F8CFFF920F931F932E
:101A0000CF93DF93F42E843040F5611126C024E09B
:101A1000829F80011124075E1D4F81E08427980179
:101A2000280F311D280F311DC9010E94802DC82F9C
:101A3000D0E0DC2FCC2781E090E0F11002C083E001
:101A400090E0800F911F0E94802D9E01282BC901DC
:101A5000CDB7DEB7E5E00C945A2A80E090E0F8CFED
:101A6000462F672F753038F44C3060F4843050F4D2
:101A70000E94CE0C08957D3F41F4411103C041E026
:101A8000843048F080E090E008957C3FD9F7411120
:101A9000F9CF8430B8F760E00E94FD0C0895A0E013
:101AA000B0E0E5E5FDE00C943C2A7C010091A8043F
:101AB0008091A704082BC3E0D0E010E0C8010C2EF1
:101AC00002C0959587950A94E2F780FD09C0219799
:101AD000A8F7D12C8D2DCDB7DEB7E7E00C94582AAE
:101AE000DC2EB7018C2F0E94300D0E94D407019785
:101AF00071F3F0CF0F931F93CF93FC018581008189
:101B00001181811591F0611581F0C8010E944F0D7E
:101B1000C82F682FC8010E947A06B8018C2F0E9436
:101B2000300DCF911F910F910895C8010E94940626
:101B3000C82FF3CFCF93DF93D82FC92F0E944F0D1B
:101B40006D2F7C2F0E94300D0E94D407DF91CF9122
:101B50000895FC0184818115A1F0808191810E940A
:101B60009A0D282F92959F70963099F060F4925FAD
:101B70009F70923030F4203FB1F038F481E0283E7D
:101B800038F080E008959A5FF3CF81E0243FC9F7F1
:101B9000089591E0213F09F090E081E0283E08F0AF
:101BA00080E0892B089581E008958091A4049091AC
:101BB000AC04892B8093CC019091A504911591F0F0
:101BC000892B8093CC0120E08EEC91E0FC013081E8
:101BD000019631112F5F31E0843D9307B9F7211150
:101BE0001092A50448E050E06EE674E08CEC91E0C1
:101BF0000E94D42A892BA9F088E0ECECF1E0AEE653
:101C0000B4E001900D928A95E1F7E0916C04F091B7
:101C10006D04309731F00280F381E02D8CEC91E07F
:101C200009950895811539F09091A404892B80932A
:101C3000A4040E94D50D0895811521F00E94DC06B0
:101C40000E94D50D0895A0E0B0E0E9E2FEE00C941A
:101C50003B2A8901D42FC52F6B017C010E942C09DE
:101C6000A8016D2F7C2F88E090E00E94B62D98018E
:101C70004D2F5C2FB601C70100E20E94B02A622FEF
:101C800084E290E00E94A42DCDB7DEB7E8E00C948A
:101C9000572AECE9F4E0208131814281538164814B
:101CA0007581868197810E94230E0895ECE9F4E006
:101CB00083E0808311828FEF828383831482758116
:101CC00023E030E04FEF5FEF60E0868197810E9474
:101CD000230E08958091A004833018F48F5F8093C1
:101CE000A00420919C0430919D0440919E04509149
:101CF0009F046091A0047091A1048091A20490912E
:101D0000A3040E94230E08958091A004811519F068
:101D100081508093A00420919C0430919D044091B7
:101D20009E0450919F046091A0047091A104809141
:101D3000A2049091A3040E94230E0895A0E0B0E0B5
:101D4000E4EAFEE00C94382AD82FC62FB42E922E47
:101D500030919C0430FF2EC0832F8E7F823099F407
:101D6000E42FF0E0E758F64F611129C0E491FE2E10
:101D70002E2F30FF08C020932F02E0932E02F09206
:101D800030020E941B0BD0939D04C0939E04B0921E
:101D90009F04911479F020919C046091A0047091AB
:101DA000A1043D2F4C2F5B2D8091A2049091A304A0
:101DB0000E94230ECDB7DEB7EBE00C94542A0D2F12
:101DC00010E0E62EF12CA4902A2D46E0D49F60016D
:101DD0001124EFEFF0E0C601BF010E941D2A000FA1
:101DE000111F45E5469FC001479F900D1124D80162
:101DF000A81BB90B0A2F000F0A0FAF014E195F097C
:101E00007A01A49EC001A59E900D1124F92EC09FB9
:101E1000A0011124452F5527DF01A41BB50BAD01EF
:101E2000A49ED001A59EB00D1124AF01401B510905
:101E30008A01C09FA001C19F500D1124452F552735
:101E40008F01041B150BA801A49E8001A59E100DF7
:101E50001124E12F63307105D1F04CEFC41643E03B
:101E6000D40658F461307105B1F06230710509F0A3
:101E700080CFEA2D292FF12E7CCF6430710571F0CF
:101E80006630710509F475CFE92FFB2E72CF292F2B
:101E9000FA2CEB2F6ECFEA2D2B2F6BCFE92FFA2CDC
:101EA000212F67CFCF93C82F0E940E068230B9F042
:101EB00038F481110DC021E04FEF6FEF80E00CC0CE
:101EC00021E04FEF60E08330C9F38C2FCF9108956C
:101ED00021E04FEF6FEF8AEA0E949E0EF6CF21E0DD
:101EE0004FEF6FEF85E5F8CF0E94520F8093A80463
:101EF000089521E030E001C0220F8A95EAF7809131
:101F0000A804822B0E94740F089521E030E0A901FB
:101F100002C0440F551F8A95E2F7CA01809590913F
:101F2000A80489230E94740F08959091A9048095B4
:101F300089238093A904282F277021110DC08917A8
:101F400059F09091AB0492FF07C0869586958695CF
:101F50000E94850F1092A90408959091AB0492FB02
:101F6000222720F9281779F080FB92F99093AB048F
:101F70006091AA047091AB0484E090E00E94C22DAD
:101F800082E00E94950F08959091A80421E030E02E
:101F9000F90101C0EE0F8A95EAF7D90102C0AA0F34
:101FA000BB1F6A95E2F7EA2B01C0220F4A95EAF7B8
:101FB000892F8E23E81305C0892F822B0E94740F6E
:101FC00008952095822F8923F9CF20919C0420FF2A
:101FD0001FC02170226020939C04611581F0309114
:101FE0009D0440919E0450919F046091A0047091C3
:101FF000A1048091A2049091A3040E94230E20E0EA
:1020000040919F0460919E0480919D040E949E0EC9
:10201000089561E081E00E94E50F089580919C049D
:1020200086958A9509F481E061E00E94E50F0895A4
:10203000ECE9F4E080818160808360E086950E9415
:10204000E50F0895ECE9F4E0818121E043816281AC
:10205000885F0E949E0E0895ECE9F4E0818121E002
:102060004381628188500E949E0E0895ECE9F4E05D
:10207000628121E1620F08F46FEF21E043818181E9
:102080000E949E0E0895ECE9F4E0628121E1621B5A
:1020900008F460E021E0438181810E949E0E089552
:1020A000ECE9F4E0438121E1420F08F44FEF21E035
:1020B000628181810E949E0E0895ECE9F4E04381E3
:1020C00021E1421B08F440E021E0628181810E940D
:1020D0009E0E0895A8E0B0E0E0E7F0E10C94412AFC
:1020E00066EE7EEF80E090E00E94C22D60E082E02C
:1020F00090E00E94A42D60E083E090E00E94A42D77
:102100001092A70460E074E184E090E00E94C22D88
:1021100060E086E090E00E94A42D6FEF87E090E001
:102120000E94A42D40E050E0BA0188E090E00E94B7
:10213000B62D60E084E290E00E94A42D60E087E18B
:1021400090E00E94A42D60E08CE090E00E94A42D1D
:1021500060E08DE090E00E94A42D19821A821B821B
:102160001C821D821E821F82188648E050E068E1B2
:1021700070E0CE0101960E94942D40E050E0BA013B
:1021800080E290E00E94B62D80E00E94CF0B0E947A
:10219000A50C40E050E0BA018FE090E00E94B62D1F
:1021A00040E050E0BA0183E190E00E94B62D28960D
:1021B000E2E00C945D2AA0E0B0E0E1EEF0E10C94E6
:1021C0003B2A6C017B0164E670E088E70E942529C8
:1021D0008C01E601EC0CFD1C17FD0BC0FE01849187
:1021E00064E670E00E9494298C012196CE15DF05EB
:1021F00099F70E94192A81E00115110509F080E084
:10220000CDB7DEB7E8E00C94572A809141048115E0
:1022100069F080914004811549F062E070E08FE838
:1022200091E00E94DB10811110924004089580918A
:1022300041048115F9F00E949A09DC01CB01805A12
:102240009541AF4FBF4F8093420490934304A093B6
:102250004404B09345048091400481110BC062E0B6
:1022600070E08DE891E00E94DB10811519F081E0AB
:10227000809340040895CF93DF93682F81E06A3004
:1022800019F06D3031F480E00E94BB11DF91CF91E5
:10229000089580913D0290913E0226E0FC01A9ED57
:1022A000B1E001900D922A95E1F7603E08F458C024
:1022B00026E0FC0111922A95E9F7C0913D02D091E8
:1022C0003E0246E050E0BE0189ED91E00E94D42A32
:1022D0009E012F533240892B41F1C90145E096956B
:1022E00087954A95E1F741E050E0BA0102C0660FD8
:1022F000771F8A95E2F7CB0160913B0270913C0217
:10230000862B972BB9016B5F7F4FE5E0769567953C
:10231000EA95E1F702C0440F551F6A95E2F7842B56
:10232000952B90933C0280933B022A5F3F4F409154
:102330004604642F70E0C9010E941D2A481B4630E4
:1023400010F4240F311D211572E0370710F020E042
:1023500030E0215C3D4F30933E0220933D0296CF0A
:10236000F6E06F9FB00111246F567E4F46E050E0BB
:102370000E94CB2AA2CFCF93382FE0913D02F0915B
:102380003E02EF53F24020914604622F70E0CF01ED
:102390000E941D2A281B822F311561F066E00E94E1
:1023A000682AC82FC15010F4CF91089580E20E948E
:1023B0003B11F8CF8E0F9F2F911D811522E09207C0
:1023C00010F080E090E0815C9D4F90933E028093FE
:1023D0003D02EACF0F931F93CF93DF93EC01FC01F3
:1023E00001900020E9F78F0101501109C017D107B2
:1023F00028F0DF91CF911F910F91089589910E944C
:102400003B11F4CFCF93DF93EC01FE018491811156
:1024100003C0DF91CF9108950E943B112196F5CF23
:102420000E94021281E00E94BB110895A8E0B0E072
:10243000ECE1F2E10C94322A80914104811509F417
:10244000A6C08FE392E090933E0280933D0288E71E
:1024500099E00E94101282E799E00E941012809188
:10246000A8040E940E06823009F49FC008F093C0B1
:10247000811198C08EE699E00E9410128BE599E0D8
:102480000E94101287E599E00E94101286E599E0FB
:102490000E941012CE0101967C0186E0D7011D92A8
:1024A0008A95E9F780919C0480FF85C086951F92EC
:1024B0008F938BE191E09F938F931F9216E01F9370
:1024C000FF92EF920E94E12AC7010E94EA118091D7
:1024D0009D041F928F9382E291E09F938F931F92AE
:1024E0001F9388E092E09F938F930E94E12A88E0F7
:1024F00092E00E94EA1180919E041F928F9389E2DC
:1025000091E09F938F931F921F9382E092E09F939D
:102510008F930E94E12A82E092E00E94EA1180916A
:102520009F041F928F9380E391E09F938F931F925C
:102530001F938CEF91E09F938F930E94E12A0FB637
:10254000F894DEBF0FBECDBF8CEF91E00E94EA1180
:1025500080913B0290913C02892B79F58091400457
:102560008115A9F00E949A09009142041091430438
:102570002091440430914504601B710B820B930B36
:102580006F3F7F4F8F4F9F4710F40E940511289691
:10259000E1E10C944E2A833059F08CE599E00E94D9
:1025A00002126CCF8AE699E067CF86E699E064CFA5
:1025B00082E699E061CF80E07ACF80914104811575
:1025C00069F280913F048111C9CF0E9417112091B7
:1025D0003B0230913C022115310509F4BFCF10E0D8
:1025E00041E050E0812F90E07A01012E02C0EE0C14
:1025F000FF1C0A94E2F7B70162237323672B11F4DF
:102600001F5FF0CF2091470420FF9BC0912F990FAF
:10261000990F990F37E0390F80E023E09093030181
:1026200080930601309304012093070124E630E0F3
:1026300047E050E061E071E088E70E94C429892BFF
:1026400009F08CCFF0E21F9FA00111248091470474
:1026500080FF83C0EEE0F2E080E2DF011D928A9508
:10266000E9F7EAE4F1E0F887EF8306E411E08EE4AD
:10267000A82E81E0B82E97E0392E44244394AF81F0
:10268000B8858D91B887AF83F80121918F01240F10
:10269000352F311D215C3D4FE82FF0E0E25FFD4F0B
:1026A00080E090E0632C681A742C082E01C0770C2F
:1026B0000A94EAF76901812CD6019D906D0197205B
:1026C000662D6819677070E0B92D062E01C0BB0F2A
:1026D0000A94EAF75B2E7195619571096770772707
:1026E00001C096946A95EAF759286081562A50826B
:1026F000839468E08612E0CF019631968830910588
:1027000089F68F819885A816B90609F0B8CF04E636
:1027100010E020E230E04EE052E060E488E70E9402
:10272000EC29892B09F01ACFE094F09480913B02B8
:1027300090913C028E219F2190933C0280933B021A
:102740000DCF9695879596958795282F912F9295E1
:10275000990F90763FE1390F61CF415C5D4F04E600
:1027600010E020E230E0D9CF1F921FB61F92112453
:102770008F939F93AF93BF9380914904811113C0AE
:102780008091F4019091F501A091F601B091F701CB
:102790004196A11DB11D8093F4019093F501A09382
:1027A000F601B093F701BF91AF919F918F911F9068
:1027B0001FBE1F9018952FB7F8948091F401909147
:1027C000F501A091F601B091F7012FBF08950E9485
:1027D000DB132091960430919704232B211521F0CF
:1027E00080935C0490935D04209198043091990447
:1027F000232B211521F080935A0490935B04E091E0
:102800006C04F0916D04309749F082E08093940459
:102810000480F581E02D84E994E00995089561151F
:1028200009F44BC0E3E3E80FE33150F4F0E0E65283
:10283000F24D0C94882A0E94E708819580939704B2
:102840000E94E71308950E94E708F8CF0E94E70866
:10285000819580939604F4CF0E94E708FACF0E94F6
:10286000070980939804ECCF0E9407098195F9CF5E
:102870000E940709819580939904E2CF0E9407097D
:10288000FACF815D990B21E030E001C0220F8A95DB
:10289000EAF780919504822B80939504D1CF8091A3
:1028A0009304816080939304CBCF809193048260E2
:1028B000F9CF809193048460F5CF409196048D3CCC
:1028C00059F48091970487FF0DC010929704411529
:1028D00059F41092920408C08E3C81F480919704C0
:1028E00018169CF3411581F08091980490919904F9
:1028F000892B8111A5CF10929104A2CF8F3C41F476
:1029000047FFF0CF10929604809197048115E0CF95
:10291000803D19F41416B4F3E5CF90919804893DE5
:1029200029F41916FCF610929804DCCF8A3D19F4AC
:1029300097FFD8CFF8CF909199048B3D29F497FF5A
:10294000D1CF10929904CECF8C3D19F41916CCF347
:10295000C9CF9FE2980F983090F4815D990B21E0E8
:1029600030E0B90102C0660F771F8A95E2F7CB010C
:10297000809590919504892380939504B3CF8D3DE4
:1029800031F4809193048E7F80939304ABCF8E3D7E
:1029900021F4809193048D7FF7CF8F3D09F0A2CF72
:1029A000809193048B7FF0CFCF93C82F8115C9F00E
:1029B0008238C9F40E94410981FD13C089E30E9455
:1029C000B7060E94D50D2FEF37EE83E0215030403F
:1029D0008040E1F700C0000089E30E94D0060E9419
:1029E000D50DCF9108958338A1F40E94410980FD4F
:1029F000F8CF83E50E94B7060E94D50D9FEF21EE28
:102A000034E0915020403040E1F700C0000083E501
:102A1000E4CF8438A1F40E94410982FDE2CF87E42B
:102A20000E94B7060E94D50D8FEF91EE24E08150F1
:102A300090402040E1F700C0000087E4CECF8CEF4B
:102A40008C0F813A70F4EEECF1E084ED91E021918D
:102A5000C217D9F18E179F07D1F78C2F0E94B706A6
:102A6000BECF80E28C0F883068F4C77021E030E080
:102A700001C0220FCA95EAF78091A404822B8093AB
:102A8000A404ADCF8BE58C0F833038F42C2F245267
:102A9000330BC9010E944E09A4CFE8E5EC0FEB31DE
:102AA00050F4F0E0EE0FFF1FEC56FE4F8081918155
:102AB0000E94740996CF83E38C0F833108F091CF85
:102AC00061E08C2F0E940F148CCF8C2F0E94D006B7
:102AD0000E94D50DC2CF811509F456C0823879F411
:102AE0000E94410981FF50C089E30E94B7060E94FD
:102AF000D50D89E30E94D0060E94D50D0895833834
:102B000059F40E94410980FF3FC083E50E94B70647
:102B10000E94D50D83E5EECF843859F40E94410917
:102B200082FF32C087E40E94B7060E94D50D87E479
:102B3000E1CF9CEF980F913AE8F290E2980F98302D
:102B400050F4877091E001C0990F8A95EAF7892FB8
:102B50000E94DC06D1CF9BE5980F933028F480E0EB
:102B600090E00E944E09089598E5980F9B3128F453
:102B700080E090E00E947409089593E3980F9331E8
:102B800018F460E00E940F1408950F931F93CF93E1
:102B9000C82F00E510E0893311F000E010E08C2F21
:102BA0000E94D4140115110539F48C2F0E946B1565
:102BB000CF911F910F9108958FE99FE00197F1F751
:102BC00000C0000001501109EDCFCF931092A40472
:102BD000C6E0EEECF1E0DF018C2F1D928A95E9F75B
:102BE00080E090E00E944E0980E090E00E9474092D
:102BF0001092AC040E94D50DE4E9F4E0DF011D92CF
:102C0000CA95E9F7109292041092910410929304DD
:102C10000E94E713CF9108950E94E5152FEF84E3FA
:102C20009CE0215080409040E1F700C0000088E126
:102C30009CE00FB6F894A895809360000FBE909327
:102C40006000FFCFAAE2B0E0E8E2F6E10C94402A8F
:102C500083EE91E0FC0101962091F100208321E0B8
:102C60008B3E9207B9F78091E401893009F456C090
:102C7000C8F4823009F4B3C0833009F482C08130D3
:102C800071F18091E80083FFE7C08091E3019091AA
:102C9000E4019A3008F0E0C0E92FF0E0E351F24D92
:102CA0000C94882A8A3009F489C08B3051F78091BE
:102CB000E301813231F78091E7019091E801892B9E
:102CC00001F78091E800877F8093E8000E94020A64
:102CD0008091E501809300010E94E515D2CF80919B
:102CE000E301813A71F68091E800877F8093E800E4
:102CF0008091E7019091E801892B61F060E080E02C
:102D000090E070E00E94A9098091E8008B778093A1
:102D1000E800B7CF68E08BEE91E0F3CF8091E3015C
:102D2000813209F0AECF8091E7019091E8018D7F6B
:102D3000892B09F0A6CF8091E800877F8093E80077
:102D40008091E80082FF18C09091F3008091F2001A
:102D5000029731F48091F100813011F0863021F436
:102D60008091F1008093F3018091E8008B7780934C
:102D7000E8000E94020A85CF809169048111E0CFAA
:102D800080CF8091E301813A09F07BCF8091E70108
:102D90009091E801892B09F074CF8091E800877F3A
:102DA0008093E8008091E80080FFFCCF80910001D3
:102DB0008093F1008091E8008E77D9CF8091E30174
:102DC000813209F05ECF8091E800877F8093E80030
:102DD0000E94020A8091E6018093DF0152CF809128
:102DE000E301813A09F04DCF8091E800877F80931D
:102DF000E8008091E80080FFFCCF8091DF01D8CF10
:102E0000803889F0823841F58091E7018F708730F2
:102E100018F58093E9008091EB0085FB882780F905
:102E20001092E90006C080914A04880F9091E00159
:102E3000892B9091E800977F9093E8008093F100B0
:102E40001092F1008091E8008E7723C0811116C0A6
:102E50008091E501813011F18091E80083FF0AC083
:102E60008091E800877F8093E8008091EB0080628A
:102E70008093EB00AA96E3E00C945C2A823061F721
:102E80008091E501811589F01092E9008091E800B8
:102E9000877F8093E8000E94020ADECF81E09330B2
:102EA00009F080E080934A04EFCF8091E7018F70B2
:102EB0002FEF280F263080F68093E9002091EB0059
:102EC00020FFE2CF933031F48091EB008062809359
:102ED000EB00DACF9091EB0090619093EB0021E052
:102EE00030E0A90102C0440F551F8A95E2F74093D4
:102EF000EA001092EA008091EB008860E8CF81112F
:102F0000ABCF1091E5011F778091E3008078812B92
:102F10008093E3008091E800877F8093E8000E941F
:102F2000020A8091E80080FFFCCF8091E300806876
:102F30008093E30083E0111101C082E08093690473
:102F40008BCF8058823008F087CF8091E501909137
:102F5000E6018C3D53E0950799F583E08A838AE288
:102F600089834FB7F894DE01139620E03EE051E2EA
:102F7000E32FF0E050935700849120FF03C0829527
:102F80008F703F5F8F708A30C8F0895C90E08D93BE
:102F90009D932F5F243161F74FBF8091E800877FB9
:102FA0008093E8006AE270E0CE0101960E94A909D0
:102FB0008091E8008B778093E8004ECF805DE6CF6C
:102FC000292F33272330310509F44EC078F52130FD
:102FD000310509F47DC08BE590E0E1EDF6E02230AB
:102FE000310509F039CF2091E800277F2093E800D0
:102FF0002091E9013091EA018217930708F49C01BE
:1030000040E02115310509F068C0411166C080918A
:10301000E80082FDCDCF80916904811549F28530A9
:1030200039F28091E80083FFF2CFC2CF8091E701AF
:103030009091E8012132310509F43BC0223231057B
:1030400009F00ACF8330910508F006CFFC01EE0F9E
:10305000FF1FE65CFE4F0190F081E02D895C9E4FE2
:10306000DC018C9190E011C09C013327813089F004
:1030700022303105B1F0232B09F0EECEE2E6F7E085
:10308000E4918E2F90E0E2E6F7E0009709F4E4CEB9
:10309000AACFEEE4F7E0E4918E2F90E0EEE4F7E0C3
:1030A000F4CFEEE3F7E0E4918E2F90E0EEE3F7E06B
:1030B000ECCF8330910508F0CFCEFC01EE0FFF1F5F
:1030C000E05CFE4F0190F081E02D89E090E08BCF35
:1030D00082E190E0ECE2F7E086CF8091690481150F
:1030E00009F466CF853009F463CF8091E80083FD51
:1030F0005FCF8091E80082FD8ACF8091E80080FF59
:1031000080CF9091F3008091F2002115310519F0E4
:103110008830910550F041E0089709F040E0809137
:10312000E8008E778093E8006CCF44914093F100E3
:103130003196215031090196E8CF803809F08CCEC4
:103140008091E800877F8093E8008091E10180937F
:10315000F10078CE811180CE1091E501123008F097
:103160007BCE8091E800877F8093E8001093E10197
:103170000E94020A1115D1F084E08093690442E0B4
:1031800061EC81E00E94710A42E261EC84E00E94FD
:10319000710A42E261EC82E00E94710A42E260EC54
:1031A00083E00E94710A8091690456CE8091E30009
:1031B00087FDE2CF81E0E1CF9C014FB7F894809189
:1031C000F4019091F501A091F601B091F7014FBF84
:1031D000821B930B0895FF920F931F93CF93DF935E
:1031E000C62FD42F122F8115A9F060939A040E9444
:1031F000DB139093D8018093D701C77081E001C0A1
:10320000880FCA95EAF70E94120ECDB7DEB7E5E047
:103210000C945A2A80919A04681330C08091D70187
:103220009091D8010E94DC18883C910538F500E2A5
:103230000D0FCD17A9F0C770FF24F3948F2D01C097
:10324000880FCA95EAF70E941C0E083048F48D2FAB
:10325000877001C0FF0C8A95EAF78F2D0E94120E2D
:10326000812F0E94C515083080F6D77081E001C01B
:10327000880FDA95EAF70E941C0EC7CFC77081E06D
:1032800001C0880FCA95EAF7F6CFA9E0B0E0EBE4F9
:10329000F9E10C94312A5C01FC018481811509F467
:1032A000A4C061E0C5010E947A0D8C01F501358151
:1032B000311509F439C197578038910508F043C595
:1032C000003108F082C08FEF93E00E94802D8111C1
:1032D0007CC049E2E42E42E0F42E011148C0CE0148
:1032E00001963C0188E0F30111928A95E9F76701A4
:1032F000FFEFCF1ADF0AC7010E94802D89831A824F
:10330000811509F462C0813009F073C087010E5F36
:103310001F4FC6010E94802D8A83811509F455C074
:103320009FEF980F933090F523E0E20EF11CC80157
:103330000E94802D8B83811509F447C01C82830174
:10334000F8012081211599F2213009F095C0818181
:10335000813009F050C06801F2E0CF0ED11CF801B5
:1033600082810E94C51586010F5F1F4FE9CFE114CE
:10337000F4E0FF0651F1C7010E94802D97012F5FF5
:103380003F4F79018111F3CF0150A7CF8430A1F4D1
:1033900032E0E32EF12CC8010F5F1F4F0E94802DF9
:1033A000F301EE0DFF1D8083811579F08C3731F428
:1033B000FE01EE0DFF1D12827801C1CF3FEFE31A2F
:1033C000F30A67E0E616F10431F78091A9048770EB
:1033D000811559F0F5018581811539F08091AB0493
:1033E00082FF03C082E00E94950F2996E2E10C94CF
:1033F0004D2A7601A4CF823049F46801F2E0CF0E65
:10340000D11CF80182810E94D414ADCF833049F4DD
:103410006801F2E0CF0ED11CF80182810E946B1589
:10342000A2CF843019F00F5F1F4F9ECF82810E5FB5
:103430001F4F812C912C98012F5F3F4F8053990B88
:103440008A30910560F0C401009709F48DCFEFE94F
:10345000FFE03197F1F700C000000197F5CFFAE0E7
:10346000F89DA001F99D500D11244C01840E951E6C
:10347000F80181818901DFCFE22FF0E0E553F54FBC
:1034800034913987822F86958695869590E0FC0148
:10349000E554F54FE4912770F0E0022E02C0F59557
:1034A000E7950A94E2F7E1702E2E3324FC01E555EE
:1034B000F54FE491F0E0022E02C0F595E7950A94ED
:1034C000E2F7E1704E2E5524FC01E556F54FC4900D
:1034D000D12C02C0D594C7942A95E2F7C0FACC2427
:1034E000DD24C0F82114310419F081EE0E94D414B7
:1034F0004114510419F086EE0E94D41489850E946B
:10350000C5154114510419F086EE0E946B15211463
:10351000310419F081EE0E946B15CD2809F424CFF7
:103520008CE20E94C51520CFFC01E851FC47E73032
:10353000F10508F0FBC3E950F24D0C94882A26E20D
:1035400041EE61EE832F0E94EB183FCF27E245EE5C
:1035500065EEF8CF26E241EE60EEF4CF27E245EECD
:1035600064EEF0CF26E241EE62EEECCF27E245EECC
:1035700066EEE8CF28E241E0EBCF8091AA048160BB
:103580008093AA046091AA047091AB0484E090E057
:103590000E94C22D0E94E51518CF8091AB0488606F
:1035A0008093AB04EFCF8091AA048260E9CF809131
:1035B000AA048460E5CF8091AA048860E1CF80915D
:1035C000AB048160EDCF8091AB048260E9CF809144
:1035D000AA048061D5CF8091AA048062D1CF809166
:1035E000AA048064CDCF0E94E5158091AA0480686A
:1035F000C7CF8091AA048C60C3CF8091AB04836055
:10360000CFCF8091AA048E7FBBCF8091AB04877F00
:10361000C7CF8091AA048D7FB3CF8091AA048B7FFE
:10362000AFCF8091AA04877FABCF8091AB048E7F10
:10363000B7CF8091AB048D7FB3CF8091AA048F7EEA
:103640009FCF8091AA048F7D9BCF8091AA048F7B0E
:1036500097CF0E94E5158091AA048F7791CF809132
:10366000AA04837F8DCF8091AB048C7F99CF80910A
:10367000AA04992782FF939590FB82F990FB83F926
:103680007FCF8091AB04982F909590FB80F990FBB1
:1036900081F986CF9091AA04892F8F7B96FF806451
:1036A0006FCF0E94E5159091AA04892F97FB87F9A7
:1036B000805866CF61E08EE090E00E94A42D62CF3A
:1036C00060E0F9CF9091AA04892F8F7E94FF8061EA
:1036D00057CF9091AA04892F8E7F90FF816050CFA1
:1036E0009091AB04892F877F93FF886059CF89E23F
:1036F00018C389E225C307376CE7160709F076C0BF
:1037000081E00E94790F43E062E081E00E94C40FF3
:103710005CCE8091A4048272F801E052F847E53152
:10372000F10508F05EC0E250F24D0C94882A8091B9
:103730009C0480FF17C0282F2E7F20939C0430917B
:103740009D0440919E0450919F046091A00470914B
:10375000A1048091A2049091A3040E94230E0E94D0
:103760001B0B33CE816080939C0461E086950E94A0
:10377000E50F2BCE4EE050E169E070E10E943A097E
:1037800024CE49E050E16EE070E1F8CF4CE250E128
:1037900062E270E1F3CF42E250E16CE270E1EECF21
:1037A00043E450E166E370E1E9CF46E350E163E4CE
:1037B00070E1E4CF4DE550E160E570E1DFCF40E539
:1037C00050E16DE570E1DACF44E85EE06AE67EE064
:1037D000D5CF4AE65EE064E87EE0D0CF61E081E0EC
:1037E000C6CF07378CE7180709F467C008379CE78E
:1037F000190709F466C03115A9F00A35ECE71E0770
:1038000009F489C008F061C001302CE7120709F4FF
:1038100080C003303CE7130709F475C001151C474D
:1038200009F464C0F5018581E080F180811509F417
:1038300076C0C7010E944F0D182F682FC7010E9444
:103840007A06B701812F0E94300D0E94D4078C01A7
:10385000F501D580C680C2942FE0C2228091A904D0
:1038600087708115F1F0ED2CD114E1F0812F807F6C
:10387000803451F080E2800F883098F0C11004C08D
:10388000812F807E803269F08091AB0482FF09C075
:1038900082E00E94950F8091A9048770EE24E39442
:1038A0008111E12CE12FE295EF70103C08F0A2C0ED
:1038B000F0E0ED5EF14D0C94882A81E00E94850FC6
:1038C00022CF82E03115D1F31CCF0B358CE71807DE
:1038D00021F18091AB04002482FF0394802D0C35EC
:1038E0001C4709F09FCF0E94AD0F9CCF0E94E515A9
:1038F000EFEFF4E32CE0E150F0402040E1F700C0AE
:1039000000000E944C0B6FEF7FEF80E090E00E9480
:10391000C22D0E940C1681E0E6CF80E0E4CFC70103
:103920000E949406182F8DCFF12FFF70FF2E1031BB
:1039300018F0F29490EFF922D114B9F0F11469F073
:1039400080E2800F883010F0011109C08091A4043A
:103950008F298093A4040E94D50D802F43C08091AD
:10396000AC048F298093AC04F6CF802F0E946B1596
:10397000F11409F43FC080E2800F883010F001118B
:1039800004C08F2D0E94DC0606C0F0948091AC0428
:103990008F218093AC040E94D50D2CC0212F2F7055
:1039A000F22E107F103219F0F29480EFF8220115F8
:1039B00049F0013009F46BC0D11409F477C0C11487
:1039C000C9F1CBCF8091AB0482FD30C0D11469F036
:1039D000F11439F08091A4048F298093A4040E94EB
:1039E000D50D80E00E94D41405C080E00E946B15C4
:1039F000F110C7CFE114A9F08091A90480FD11C096
:103A0000F50115828695869586950E94790FC501E8
:103A10000E9445198091A9048695869586950E94F5
:103A2000850F60E0C5010E947A0DDFCCD11499F0BA
:103A3000C11004C08F2D0E94120EDCCF31E0C312E2
:103A4000D9CF8091A5049F2D9823F91699F28F293B
:103A50008093A504CFCFC110CDCF8F2D0E941C0E17
:103A60009091A5048F2D8923811529F08F2D8095A4
:103A700089238093A5048091A6049F2D98239115F6
:103A800009F4B8CFF094F822F092A604B3CFD11481
:103A900029F066E0C61608F0ADCFCCCF85E0C81699
:103AA00008F0A8CF8F2D0E941C0EA4CFC114D1F313
:103AB000093349F49FEFE7EEF3E09150E040F04026
:103AC000E1F700C00000802F0E946B1593CF812F7B
:103AD000869586958370811561F0813009F08ACFD3
:103AE000C8019370D11002C080E090E00E94740978
:103AF00081CFC8019370D11002C080E090E00E9495
:103B00004E0978CF6D2D802F0E940F1473CF812F17
:103B10008370811134C0D11027C0402F4295469543
:103B20004770440F440F802F8F70042E01C0880F00
:103B30000A94EAF7202F207104FF07C02FE030E03D
:103B400001C0220F4A95EAF7209516951695137035
:103B5000123081F0133061F03091A704113039F048
:103B6000822B83230E9421060E94410943CF832B8D
:103B7000822BF8CF822B9091A7048927F3CFD11401
:103B800051F110FFF1CF402F429546954770440FF9
:103B9000440F802F8F70042E01C0880F0A94EAF71B
:103BA000202F207104FF07C02FE030E001C0220F5A
:103BB0004A95EAF72095169516951370123089F0FC
:103BC000133069F03091A804113041F0822B832327
:103BD0000E94740FC9CF823038F2D5CF832B822B4D
:103BE000F7CF822B9091A8048927F2CF1F70D114B0
:103BF00039F0812F0E94790F802F0E94120EB4CFCE
:103C0000802F0E941C0E812F0E94850FADCF023F96
:103C100071F170F4003FC9F0013F91F0D11409F443
:103C20005AC0C11409F454C0802F0E94D4149CCFF0
:103C3000033F21F1043F91F78091AB0482FD2AC03C
:103C4000812F8F71D11401F316C0D11469F025E0D2
:103C5000C21608F089CF1F7181E090E0012E01C0EB
:103C6000880F0A94EAF7BECF36E0C316F2CF812F51
:103C70008F71D110C9CF0E94790F76CF80E0D11417
:103C800009F4A6CF1F7181E0012E01C0880F0A94AC
:103C9000EAF79ECFD11489F01F71812F0E94790F0E
:103CA0008091AB0482FF07C0812F880F880F880F97
:103CB00083608093A904812FDECF81E00E94950F5D
:103CC00062E0C61608F450CF82E00E94950F4CCFF8
:103CD000812F8F71D0CFC11479F0093349F48FEF60
:103CE00097EEE3E081509040E040E1F700C0000033
:103CF000802F0E946B1538CF812F8F7185CF0631B1
:103D0000FCE71F0709F0F7CC8091A4048A7A91E0C0
:103D1000811101C090E090939B04811509F4E7CCD8
:103D200085E30E94B7060E94D50D4FCB86319C4794
:103D300009F0EFCC80919B04811509F4DACC85E37E
:103D40000E94D006F0CFF801E851FC47E730F105BA
:103D500008F4F1CB10929A04C8019057839778F633
:103D600084E090E00E948E2D9093AB048093AA048F
:103D7000F801E150F047E232F10508F0FECBE15ED8
:103D8000F14D0C94882A8091ED04803178F4809173
:103D9000EC04811559F0E091AE042091AD0430910E
:103DA000E8044091E70457E02E1301C008956E2FF8
:103DB00070E05E9FF0011124DF01A155BB4F149606
:103DC0008C911497811561F111968C911197831341
:103DD00027C08C91841324C015968C91159781115E
:103DE0001FC012968D919C91A091E904B091EA04B4
:103DF0008A1B9B0B883C910598F48091ED048F7091
:103E000080618093ED04EB54FB4F80818F70806163
:103E1000808387EE94E00E9445190E94AD060895C4
:103E2000FB013196E770C0CFADE0B0E0EAE1FFE121
:103E30000C94352A8C0186E0F801DE011896019079
:103E40000D928A95E1F7F801F580848197EE892E2D
:103E500094E0992E6090EB04611018C0811599F0E0
:103E6000F11409F415C1C8010E94A90D811509F4C6
:103E70000FC187E0F801A7EEB4E001900D928A959A
:103E8000E1F70E94C31EFF24F39456C07080A28005
:103E9000B380D090EC042091E9043091EA04A501AC
:103EA000421B530BD11409F4C3C0483C510508F020
:103EB00079C0811541F38091E804C180E090ED0460
:103EC00050E1E51608F059C0C81215C08091E7040A
:103ED000871111C0F1104BC08E2D8F7080618093BF
:103EE000ED0487EE94E00E9445198091ED04F801FD
:103EF0008683F12C21C0F1103AC040E06C2D872D53
:103F00000E94FC0A40E06C2D872D0E94FC0AF82ECE
:103F10008111EFCF888599850E949A0D292F2295CE
:103F20002F70903470F49F702230A0F09115B1F092
:103F3000F8019681903190F48F2D2D96EEE00C943F
:103F4000512A2A5F2F70223068F0C8010E9445195B
:103F5000FD2CF2CF911511F0811571F3805E883040
:103F600058F3F3CF803F40F3815F8330F9CF8091E6
:103F7000ED0481608093ED04BCCFC8123BC08091FA
:103F8000E704871137C0F11035C0E682C8010E94EE
:103F9000451987E0F801A7EEB4E001900D928A95EB
:103FA000E1F771CFE090ED04F0E1EF1650F487EE09
:103FB00094E00E94451987E0F40111928A95E9F78F
:103FC00098CF811509F45FCF9091E804F8018181C1
:103FD000981310C08091E70487110CC0F1100AC03B
:103FE000E682C8010E94451987E0F40111928A9582
:103FF000E9F749CFC8010E94A90D811509F448C00D
:10400000F11409F445C08091ED04803208F431CFF9
:104010008091E7049091E8049A838983BC82AB8203
:104020006D821E82EF82CE0101960E94451921CF3A
:10403000483C510508F0BFCF811509F424CFF11495
:1040400039F19091E8048181981318C08091E704B8
:10405000871114C08091ED0480FD9BCF803108F45E
:1040600098CF8683807F803F09F490CF8681982FF8
:10407000907F905F8F70892B868388CFC8010E94C4
:10408000A90D8111F6CE8091ED0481608093ED043D
:10409000C8010E944519F7CEABE1B0E0E2E5F0E2DD
:1040A0000C943F2A4E8B5F8B688F798F8A8F192FE4
:1040B0009B8F91111092AC041D8A86E0FE017696CA
:1040C000DE011F9601900D928A95E1F70A8D011588
:1040D00039F00B8B1C8B61E0CE010F960E947A0D9C
:1040E0000B8B1C8B87E0FE013F96DE01189601903A
:1040F0000D928A95E1F7CE0108960E94141F811156
:1041000028C02091AD043091AE0487E0FE013896BE
:10411000DE01119601900D928A95E1F78C8581154B
:10412000C1F0822F90E00196877099273817190601
:10413000D9F097E0929FD0011124A155BB4FFE0109
:10414000319601900D929A95E1F78093AD040E940B
:10415000AD0617E08091AE049091AD04891312C0B2
:104160006B96E4E00C945B2A0E94E5151092AD0476
:104170001092AE0487E0E7EEF4E0DF011D928A952D
:10418000E9F7E7CF189FC001112481559B4F0E948A
:10419000141F811529F38091AE0490E00196877079
:1041A00099278093AE04D6CFA6E0B0E0EAEDF0E226
:1041B0000C943F2A0E94DB138C0180916A04909139
:1041C0006B048017910779F019821A820E94DB1321
:1041D000BC0149815A8180E090E00E944C201093FC
:1041E0006B0400936A042696E4E00C945B2AAAE030
:1041F000B0E0EDEFF0E20C94332ACE0101967C01A1
:104200008AE0D7011D928A95E9F73701570128E026
:10421000C22E21E0D22E44244394512CF6018191E8
:104220006F010E94F70500C09DE0892E91E0992E54
:10423000D40100E010E02D91E22FE295EF70E05EF6
:10424000F0E0808190E02F7002C0959587952A95C7
:10425000E2F780FD0EC0F501808191819201002E70
:1042600002C0220F331F0A94E2F7822B932B918313
:1042700080830F5F1F4F06301105E9F6F60182912A
:104280000E94E005F0EAFA95F1F782E0A80EB11C71
:104290009DE0C91691E0D90609F6CC24C394D12C2F
:1042A000D4018D914D010E94F70500C09601002EAA
:1042B00002C0220F331F0A94E2F7F70168E071E0B1
:1042C000DB014D91BD01842F82958F70805E90E05F
:1042D000DC018C9190E04F7002C0959587954A95CE
:1042E000E2F780FD06C080819181822B932B918320
:1042F00080833296B1E06D307B0711F7F401829133
:104300000E94E005E0EAEA95F1F70F5F1F4F0C30DD
:10431000110531F6E1E3F2E0C7010A9620E0D3018E
:104320004D915D913D01619171914617570721F0C3
:10433000DF015E934E9321E08615970581F72115E5
:1043400039F181E08093D6010E94DB139093D5016F
:104350008093D4018091D4019091D5010E94DC1802
:104360000597D0F04AE050E061E372E08FE594E019
:104370000E94D42A892B49F08AE0E1E3F2E0AFE51C
:10438000B4E001900D928A95E1F71092D60104C035
:104390008091D6018111DECF2A96E0E10C944F2A5C
:1043A000CDB7DEB7C454D1090FB6F894DEBF0FBE47
:1043B000CDBF85B7806885BF85B7806885BF84B766
:1043C000877F84BF0FB6F894A895809160008861BC
:1043D00080936000109260000FBE80E890E00FB6FE
:1043E000F89480936100909361000FBE87ED98E090
:1043F0009093CB018093CA010E94520A0E94A10AA5
:104400008091E20084608093E20078948091690456
:10441000811599F08091E9001091EC008F7017954B
:1044200011271795182B1092E9008091E80083FD61
:104430000E9422161F701093E90082E084BD93E071
:1044400095BD9AEF97BD80936E000E94B50C8111C7
:1044500002C00E94A50C81E08093580422982A9AF9
:1044600026982E9A8FE891E00197F1F700C000009E
:104470004091580429E534E0F9018E2F821B8417FE
:1044800008F45DC00DE011E083E1A82E81E0B82EB4
:10449000D8018D918D010E94E005A016B106C1F7EB
:1044A00008E011E0BDE0AB2EB1E0BB2EF801819138
:1044B0008F010E94E005A016B106C1F78AE0E1E392
:1044C000F2E0DF01A82E1D92AA94E9F7EFE5F4E0EF
:1044D000DF011D928A95E9F780E090E00E948E2D21
:1044E000863E9E4F21F40E94B50C811102C00E94AD
:1044F0006A1082E090E00E94802D80934B0484E05B
:1045000090E00E948E2D9093AB048093AA040E94A9
:10451000F720EFE3FCE93197F1F700C000000E94BB
:10452000F72080915F049091600480FF13C06FEFCB
:104530007FEF80E090E00E94C22D0E944C0B83B17F
:1045400099271E999395990F82FB882780F9892BCB
:10455000819393CF83E090E00E94802D0E942106FA
:104560008091A8040E94520F83E08093470480E268
:10457000809346040E941F296BE070E080E99AE076
:104580000E94DB10811509F43FC08091470465E06B
:1045900070E081FD40C18BE89AE00E94DB1081153C
:1045A00099F16DE070E089E79AE00E94DB108115D7
:1045B00059F10E949A09DC01CB01805A9541AF4F15
:1045C000BF4F8093420490934304A0934404B0935C
:1045D0004504EFE3F2E080E092E0DF018C011D9200
:1045E00001501040E1F7F0933E02E0933D028FEF5F
:1045F0009FEF90933C0280933B0281E080934104C3
:104600008093400410923F0480914804811197C028
:1046100080E090E00E948E2D863E9E4F21F40E9405
:10462000B50C811104C00E946A100E94560E88E0E9
:1046300090E00E94882D22966FAF229723967FAF3D
:10464000239724968FAF249725969FAF259784E2D2
:1046500090E00E94802D282F30E040E050E060E0A4
:1046600070E080E090E000E20E94952A2596CCACB4
:10467000DDACEEACFFAC259756016701E12CF12CC7
:104680008701A9AEBAAECBAEDCAEEDAEFEAE0FAFDB
:1046900021961FAF21972296DFAC22972D293B2927
:1046A0004C29ECAC5E2920939C0430939D044093EC
:1046B0009E0450939F046093A0047093A104809380
:1046C000A2049093A304223068F50E94560E88E05D
:1046D00090E00E94882D2B013C0184E290E00E9432
:1046E000802D282F30E040E050E060E070E080E076
:1046F00090E000E20E94952A6301520124293B299F
:104700004C295D2920939C0430939D0440939E0482
:1047100050939F046093A0047093A1048093A2041B
:104720009093A3040E942C0980919C0480FF04C0F4
:1047300060E086950E94E50F81E08093480483E164
:1047400091E090936D0480936C04809169048530AE
:1047500049F480916904853009F460C00E94E51530
:104760000E9441090E94F720FCE4CF2EF4E0DF2EE6
:10477000AFE56A2EA4E07A2E46E554E0D301F601B7
:10478000219131918D919D914E175F0709F49BC046
:1047900028173907A9F3512CD3010D911D913D0123
:1047A000F601A190B1906F01A016B10659F1A026B3
:1047B000B126412CEE24E394F12CC7018A219B21E0
:1047C000892BB9F049825A820E94DB139C838B8328
:1047D000F1E0FD8391E0970120233123232B09F49D
:1047E00090E09E8349815A816B817C818D810E94FA
:1047F0004C204394EE0CFF1C2CE04212DECFF6015D
:1048000012930293539435E05312C6CF0E949A0933
:10481000552453945FC086E89AE0BFCE8091690426
:10482000843031F10E9405111092490408E110E032
:1048300020E40FB6F894A895009360000FBE209373
:10484000600083B7817F846083BF83B7816083BF4B
:104850007894889583B78E7F83BF0FB6F894A89518
:1048600080916000886180936000109260000FBEAC
:1048700080914A04811509F46CCF0E94F720EFE57E
:10488000F4E089E694E021913191232B21F48E17F5
:104890009F07C9F75ECF80E189BD82E189BD09B478
:1048A00000FEFDCF8091D8008F7D8093D80080914D
:1048B000E00082608093E0008091E00081FDFCCF09
:1048C0000E94E51546CF2817390709F064CF0E94EA
:1048D000D420512C10E000E03DEFB32E42E0A42E96
:1048E0005CEF752E63E0662E80915804181750F027
:1048F000011509F48DC00E949A090E9416120E94A7
:1049000017118AC0C12ED12C83B199271E99939576
:10491000990F82FB882780F9892BD601A75ABB4FB4
:10492000EC919E2F9370891709F470C0EE0FEE0F73
:10493000E82BEC93EF70F0E0E25BFE4FC601895A82
:104940009B4F7C018081D7019C91890F8C9320E043
:10495000843034F1F601EA5AFB4F80818F5F808307
:104960001DA77EA60E94DB13BC018FA798AB69AA86
:10497000B1E0BAAB4DA55EA583E091E00E944C206A
:104980001BAB7CAA0E94DB13BC018DAB9EAB6FAA54
:1049900018AE4BA95CA983E090E00E944C2021E076
:1049A000F70180818D3F34F5F601EA5AFB4F808193
:1049B0008150808319A3BAA20E94DB13BC018BA390
:1049C0009CA3ADA2F1E0FEA349A15AA182E091E02F
:1049D0000E944C201FA3B8A60E94DB13BC0189A72C
:1049E0009AA7ABA61CA64FA158A582E090E00E9412
:1049F0004C2021E0D7018C91082E000C990B64E02B
:104A000070E00E94742AF7018083022B1F5F6CCF35
:104A10000E941612511073CF86E0E4E9F4E0DE0143
:104A2000119601900D928A95E1F7C090950410912E
:104A30009604F0909704E0909804009199041092E5
:104A40009604109297041092980410929904812F62
:104A50008F29811509F440C080915C0490915D0418
:104A60000E94DC181C0180919204811509F49AC2FD
:104A7000F5E12F16310480F18F3F19F08F5F80939D
:104A80009204111559F00E94E70891E011160CF0FC
:104A90009FEF899F802D112480939604F11459F083
:104AA0000E94E70891E01F140CF09FEF899F802D72
:104AB00011248093970480919604811569F0D09019
:104AC0009704D11449F00E94D908809396048D2D43
:104AD0000E94D908809397048E2D802B811509F4AC
:104AE00040C080915A0490915B040E94DC184C01F4
:104AF00080919104811509F44FC221E58216910439
:104B000080F18F3F19F08F5F80939104E11459F089
:104B10000E94070991E01E140CF09FEF899F802DE1
:104B2000112480939804011559F00E94070991E01F
:104B300010160CF09FEF899F802D1124809399040B
:104B400080919804811569F0E0909904E11449F08E
:104B50000E94D908809398048E2D0E94D9088093D2
:104B60009904809195048C1119C080919604811547
:104B700011F0181313C020919704211511F02F1173
:104B80000DC090919904911511F0901307C03091C8
:104B90009804311103C0822B892B81110E94E713E5
:104BA00086E0FE013196A4E9B4E001900D928A9569
:104BB000E1F70E94410990915E04891721F08093EA
:104BC0005E040E949A0980916904843009F0BDCD89
:104BD00083E08093E9008091E80082FFB6CD809168
:104BE000E80090E085FF05C00E94210A811599F038
:104BF00091E08091E8008B778093E800911509F4AB
:104C0000A4CD8981EFEFE80FE53168F5F0E0EF5BC7
:104C1000F14D0C94882A00E210E0CE0101967C014F
:104C20008091E80085FD0AC08091E8008B77809331
:104C3000E8000E94210A811599F3DACF8091F100F2
:104C4000D7018D937D010150104051F7D1CF1A82C9
:104C50008CE08B831AC08A81833049F138F481302B
:104C600061F08230D9F08FEF89830FC08430D9F79B
:104C70001B821C821D821E8208C00E949A090E940B
:104C80008E2A6B837C838D839E8340E250E0BE013D
:104C90006F5F7F4F82E00E94700B57CD88E390E0FA
:104CA0000E94802D1B821C821D828E83EECF8B8101
:104CB00090E0FE01319632968530910534F7DC01A3
:104CC000AA0FBB1FA15ABB4F2C9111963C91318367
:104CD00022830196F0CF8A81823071F0853019F6F7
:104CE00080919C0480FF72C080919C048E7F809391
:104CF0009C040E941B0BC9CF6B817C818D819E819E
:104D00000E948E2A88E390E00E94A42DBECF4C81A1
:104D10006B818A810E94CE0C9827892798279E83D1
:104D20008D83B3CF2D813E813227232732274C81BB
:104D30006B818A810E94EB0BA8CF0E943E0CA5CF0D
:104D40009A81923071F5883009F44CC0893009F4A9
:104D500077C08B818330D1F0E0F5813071F0823003
:104D600009F093CF8C81811509F4BECF0E941810F1
:104D700060E08C810E94E50F88CF20E04C8160913B
:104D80009E0480919D040E949E0E7FCF8C81809313
:104D9000A0047BCF80919F048C8377CF8091A00467
:104DA000FBCF8830F9F08930C1F18B81833071F30A
:104DB00080F4813011F3823009F067CF60E08C819C
:104DC0000E94E50F8C81811509F48ECF0E94181086
:104DD0005CCF843009F059CF20E040919F046D8171
:104DE0008C81D1CF8B818330C9F258F4813091F21C
:104DF000823009F04ACF80919C0480FF0CC08695D8
:104E0000CBCF843009F041CF80919D048C83809179
:104E10009E048D833ACF80E0BFCF8091A8040E948A
:104E20000E0640919C0450919D0460919E047091E7
:104E30009F04B4E08B9FC001112485960E94B62D7B
:104E40000E94490E22CF80E18A831FCF81E08A83AE
:104E500087EDFFCE0A811B811027012710278C8147
:104E60006801C80ED11C7E01E5E0EE0EF11C0C15A8
:104E70001D0509F40ACF80E0073DF1E01F0728F483
:104E8000C801875D9D4F0E94802DD7018D937D01C4
:104E90000F5F1F4FECCF0A811B81102701271027BE
:104EA000FE0131967F018C816F01C80ED11CEC147C
:104EB000FD0409F4EACE073DF1E01F0740F4D701F5
:104EC00014966C91C801875D9D4F0E94A42D0F5FC1
:104ED0001F4FBFEFEB1AFB0AEACF0E94950CD5CE0D
:104EE00084E0B2CF0A811B811027012710278C8113
:104EF0006801C80ED11C7E01E5E0EE0EF11C0C1518
:104F00001D0509F4C2CE80E0003EF1E01F0720F449
:104F1000C801C9960E94802DD7018D937D010F5F36
:104F20001F4FEDCF0A811B81102701271027FE019B
:104F300031967F018C816F01C80ED11CCE14DF0425
:104F400009F4A3CE003EF1E01F0738F4D701149610
:104F50006C91C801C9960E94A42D0F5F1F4FBFEF2F
:104F6000EB1AFB0AEBCF41E08C81811101C040E0DC
:104F70006B818A810E94FD0CCFCE2D813E8132272C
:104F80002327322741E08C81811101C040E06B81F1
:104F90008A810E94120C79CEEBE08E16910408F003
:104FA000B2CDDFCDFBE02F16310408F067CD94CDF4
:104FB00078941F921FB61F9211248F939F93AF93E3
:104FC000BF938091F4019091F501A091F601B09109
:104FD000F7010196A11DB11D8093F4019093F50195
:104FE000A093F601B093F701BF91AF919F918F917C
:104FF0001F901FBE1F9018951F920F920FB60F9211
:1050000011242F933F934F935F936F937F938F93CD
:105010009F93AF93BF93EF93FF938091E10082FF43
:1050200009C08091E20082FF05C08091E1008B7F82
:105030008093E1008091DA0080FF24C08091D80045
:1050400080FF20C08091DA008E7F8093DA0080910B
:10505000D90080FF9BC080E189BD82E189BD09B490
:1050600000FEFDCF81E0809369048091E20181110F
:1050700009C00E94520A0E94A10A8091E200846045
:105080008093E2008091E10080FF17C08091E200F0
:1050900080FF13C08091E2008E7F8093E2008091B8
:1050A000E20080618093E2008091D800806280936A
:1050B000D80019BC85E0809369048091E10084FFE9
:1050C00029C08091E20084FF25C080E189BD82E192
:1050D00089BD09B400FEFDCF8091D8008F7D8093FB
:1050E000D8008091E1008F7E8093E1008091E20002
:1050F0008F7E8093E2008091E20081608093E200E5
:105100008091E101811509F447C084E0809369042E
:10511000809169048091E10083FF27C08091E200C3
:1051200083FF23C08091E100877F8093E10082E0CC
:10513000809369041092E1018091E1008E7F809359
:10514000E1008091E2008E7F8093E2008091E20096
:1051500080618093E20042E060E080E00E94710A9A
:105160008091F00088608093F000FF91EF91BF91F3
:10517000AF919F918F917F916F915F914F913F91EF
:105180002F910F900FBE0F901F90189519BC109281
:1051900069041092E20176CF8091E30087FF02C09C
:1051A00083E0B4CF81E0B2CF1F920F920FB60F927F
:1051B0001124EF92FF920F931F932F933F934F93DE
:1051C0005F936F937F938F939F93AF93BF93CF938F
:1051D000EF93FF9309EE10E0F8018081C091EC009D
:1051E0008F70C795CC27C795C82B108280EFE82E0B
:1051F000F12CF7018081877F808378940E942216AA
:10520000F8011082F701808188608083CF70F801F7
:10521000C083FF91EF91CF91BF91AF919F918F91FB
:105220007F916F915F914F913F912F911F910F91BE
:10523000FF90EF900F900FBE0F901F901895109257
:10524000B9008CE08093B8000895A0E0B0E0EBE2F4
:10525000F9E20C94382AB82EEB010E94DB136C01A2
:10526000EE24E394F12CC431D10560F025E0E22E68
:10527000F12CCF3FDC0731F0CE0164E170E00E94F9
:105280001D2A7B0184EAA82E94E8992E1092BC0076
:10529000A092BC000E94DB13182F092F8091BC0044
:1052A00087FF0CC08091B900887F8830F9F0809129
:1052B000B900887F8031D1F00FEF08C0812F902F87
:1052C0000E94DC18E816F90648F70EEF1FEFCF3FF3
:1052D000DC07E1F2C6010E94DC18C817D907B0F656
:1052E000C801CDB7DEB7EBE00C94542AB092BB00F6
:1052F0009092BC000E94DB13182F092F8091BC00F4
:1053000087FF0AC02091B900287F283111F020348E
:1053100099F600E010E0E4CF812F902F0E94DC1876
:10532000E816F90658F7D1CF0F931F93CF93DF9369
:10533000EB018093BB0084E88093BC000E94DB13E8
:10534000182F092F8091BC0087FF11C02091B90050
:10535000287F81E090E0283211F480E090E0919580
:1053600081959109DF91CF911F910F910895CF3FC2
:10537000DC0741F3812F902F0E94DC18C817D90752
:1053800008F78EEF9FEFEECFA0E0B0E0EAECF9E295
:105390000C94392A5B017A01D22EC32E622F732F0F
:1053A0000E9425298C01E501EA0CFB1CCE15DF05C6
:1053B00019F00115110549F084E98093BC00C8017A
:1053C000CDB7DEB7EAE00C94552A6D2D7C2D89917E
:1053D0000E9494298C01EACFA0E0B0E0E2EFF9E26C
:1053E0000C94392AF62E5A016901B8010E94252928
:1053F000EC01892B69F4B8018F2D0E949429EC01EE
:105400007501CA0CDB1CEC14FD0411F0209749F067
:1054100084E98093BC00CE01CDB7DEB7EAE00C94FE
:10542000552AB801F70181917F010E949429EC016E
:10543000EACF84E98093BC000895AA1BBB1B51E10D
:1054400007C0AA1FBB1FA617B70710F0A61BB70BF4
:10545000881F991F5A95A9F780959095BC01CD0199
:1054600008952F923F924F925F926F927F928F9208
:105470009F92AF92BF92CF92DF92EF92FF920F93E3
:105480001F93CF93DF93CDB7DEB7CA1BDB0B0FB6ED
:10549000F894DEBF0FBECDBF09942A8839884888AA
:1054A0005F846E847D848C849B84AA84B984C88440
:1054B000DF80EE80FD800C811B81AA81B981CE0F37
:1054C000D11D0FB6F894DEBF0FBECDBFED0108951C
:1054D000992778E0880F991F961708F0961B881F68
:1054E0007A95C9F78095089597FB072E16F40094D6
:1054F00007D077FD09D00E941D2A07FC05D03EF495
:10550000909581959F4F0895709561957F4F08956F
:10551000EE0FFF1F0590F491E02D0994692796275F
:1055200069277827872778270895002E083090F07C
:10553000982F872F762F652F542F432F322F222716
:105540000850F4CF220F331F441F551F661F771FCB
:10555000881F991F0A95B2F7002D089597FD1094A2
:10556000002E083098F00850232F342F452F562F47
:10557000672F782F892F912DF4CF159497958795C4
:105580007795679557954795379527950A95AAF783
:105590001124002D0895FB01DC0102C005900D923D
:1055A00041505040D8F70895FB01DC0104C08D91B3
:1055B0000190801921F441505040C8F7881B990B85
:1055C0000895AEE0B0E0E7EEFAE20C943F2A0D89D0
:1055D0001E898F89988D26E02C831A83098397FF73
:1055E00002C080E090E801979E838D83AE01455E06
:1055F0005F4F698D7A8DCE0101960E94112B4D81EE
:105600005E8157FD0AC02F813885421753070CF47D
:105610009A01020F131FF80110822E96E4E00C94F9
:105620005B2AABE0B0E0E7E1FBE20C94312A7C01BD
:105630003B018A01FC0117821682838181FFB9C177
:105640009AE0292ECE0101965C01F7019381F301C6
:1056500093FD859193FF81913F01882309F446C111
:10566000853239F493FD859193FF81913F01853215
:1056700029F4B70190E00E94F22CE7CF912C412C45
:10568000512CFFE1F51538F08B3209F188F48032A6
:1056900001F1833221F157FC3AC020ED280F2A3066
:1056A00040F556FE1FC0929C200D1124922E06C07C
:1056B0008D3291F0803379F7689450F8F30193FDBF
:1056C000859193FF81913F018111DBCF20C06894C8
:1056D00051F8689452F8F2CF689453F8EFCF689479
:1056E00054F8ECCF429C200D1124422E689455F8BA
:1056F000E5CF8E3229F456FCF9C0689456F8DECF17
:105700008C3619F4689457F8D9CF8836B9F2982FA7
:105710009F7D95549330C0F08336A1F18337C1F15A
:10572000833509F05BC0F801C190D1908F01692DDC
:1057300070E056FC02C06FEF7FEFC6010E94DC2CC8
:105740004C01689457F80AC00C5F1F4F2FE3298360
:1057500088248394912C6501E89457F853FC04C085
:105760004814190409F018F5342C8114910431F50A
:10577000332009F46ACFB70180E290E00E94F22C56
:105780003A94F6CFF801808189830E5F1F4FE0CFF6
:10579000F801C190D1908F01692D70E056FC02C0D4
:1057A0006FEF7FEFC6010E94E72C4C01D5CFB70108
:1057B00080E290E00E94F22C4A94D2CFF60157FC8E
:1057C000859157FE81916F01B70190E00E94F22C04
:1057D00031103A94F1E08F1A9108C7CF843619F04E
:1057E000893609F074C0F80157FE6AC06191719161
:1057F000819191918F01252D2F76D22E97FF09C08F
:1058000090958095709561957F4F8F4F9F4F6894CD
:10581000D7F82AE030E0A5010E94222DC82ECA1830
:105820008C2C5D2CD6FE0CC0E89450F8C91440F4C2
:10583000D4FE05C0D2FC03C0FD2DFE7E5F2E892C58
:1058400054FE8FC0FE01EC0DF11D8081803309F004
:1058500081C0252D297E522E852D8870382E53FC2F
:105860008FC050FE89C09C2C841418F44C0C942CCE
:10587000981854FE8BC0B70180E390E00E94F22C90
:1058800052FE09C088E790E051FE02C088E590E032
:10589000B7010E94F22CC91408F484C0CA94D12C18
:1058A0009FEFC91AD90ACA0CDB1CF60182916F015D
:1058B000B70190E00E94F22CAC14BD04B1F758CFB0
:1058C00061917191072E000C880B990B93CFD52C09
:1058D000E894D4F82AE030E0853739F1952D997FA6
:1058E000D92E8F3601F148F48835A9F0F701868169
:1058F00097812B96E2E10C944D2A803749F0883746
:10590000A9F7D4FE02C06894D2F820E130E00DC0BF
:105910006894D4F8F6CF54FE03C0E92FE660DE2E7B
:1059200020E132E002C028E030E0F801D7FE0DC0EF
:1059300061917191819191918F01A5010E94222D18
:10594000C82ECA18E894D7F86BCF6191719190E096
:1059500080E0F2CF52FC02C083947ECF8394839484
:105960007BCF852D867809F477CFF6CFB70180E21B
:1059700090E00E94F22C83948414C0F3312C79CFF0
:10598000342C3818841408F474CFF8CF852D867819
:1059900009F481CF8BE251FE80E257FC8DE2B70122
:1059A00090E077CFB70180E390E00E94F22C9A94C8
:1059B00072CF8FEF9FEF9DCFFC010590615070403B
:1059C0000110D8F7809590958E0F9F1F0895FC01C8
:1059D0006150704001900110D8F7809590958E0F1E
:1059E0009F1F08950F931F93CF93DF93182F092FB5
:1059F000EB018B8181FD09C01FEF0FEF812F902FED
:105A0000DF91CF911F910F91089582FF14C02E81D5
:105A10003F818C819D81281739073CF4E881F98109
:105A2000CF0101969983888310838E819F8101968F
:105A30009F838E83E3CFE885F985812F0995892B94
:105A4000A1F3DACFFA01AA27283051F1203181F1F0
:105A5000E8946F936E7F6E5F7F4F8F4F9F4FAF4F76
:105A6000B1E03ED0B4E03CD0670F781F891F9A1F89
:105A7000A11D680F791F8A1F911DA11D6A0F711D3D
:105A8000811D911DA11D20D009F468943F912AE049
:105A9000269F11243019305D3193DEF6CF01089531
:105AA000462F4770405D4193B3E00FD0C9F7F6CF62
:105AB000462F4F70405D4A3318F0495D31FD40522A
:105AC000419302D0A9F7EACFB4E0A69597958795C0
:105AD00077956795BA95C9F700976105710508959F
